:020000040001F9
:10C00000C039002049C1010063C1010065C10100C0
:10C010000000000000000000000000000000000020
:10C0200000000000000000000000000067C10100E7
:10C03000000000000000000069C101006BC10100A8
:10C040006DC101006DC10100DDC401006DC10100C1
:10C050006DC101000000000099C201006DC1010026
:10C060006DC101006DC101006DC101006DC1010014
:10C070006DC101006DC101006DC101006DC1010004
:10C080006DC10100F1C301006DC101006DC101006E
:10C0900011C401006DC1010065C401006DC1010042
:10C0A0006DC101006DC10100000000000000000032
:10C0B0000000000000000000000000000000000080
:10C0C0000348854600F0B8F80048004709FA010027
:10C0D000C0390020401E00BF00BF00BF00BF00BF2E
:10C0E00000BF00BF00BF00BF00BF00BF00BFF1D155
:10C0F00070470000401E00BF00BF00BF00BF00BF70
:10C1000000BF00BF00BF00BF00BF00BF00BFF1D134
:10C1100070470000056885F308884068FF2464B212
:10C12000EFF30585002D01D1A646004725460646BA
:10C1300021273FBAF0B40024002500260027F0B4E0
:10C14000F92040B2004700000321094802680A4371
:10C150000260084802680A430260074880470748AF
:10C160000047FEE7FEE7FEE7FEE7FEE7FEE700002A
:10C17000240500405405004089C40100C1C00100ED
:10C1800030B50B46014600202022012409E00D466F
:10C19000D5409D4205D31D469540491B25469540F7
:10C1A00040191546521E002DF1DC30BD10B5431A62
:10C1B000934209D28318881803E0401E01785B1E61
:10C1C0001970521EF9D210BD03460B439B0703D0D2
:10C1D00009E008C9121F08C0042AFAD203E00B784C
:10C1E0000370401C491C521EF9D210BDD2B201E0AE
:10C1F0000270401C491EFBD270470022F6E710B5C2
:10C2000013460A4604461946FFF7F0FF204610BDC4
:10C21000421C0178401C0029FBD1801A704730B5C0
:10C2200004460020034600E05B1C934203D2E05C1E
:10C23000CD5C401BF8D030BD064C0125064E05E014
:10C24000E36807CC2B430C3C98471034B442F7D337
:10C25000FFF73AFFE80F02000810020030B58C1813
:10C260000278401C13071B0F01D10378401C1209F0
:10C2700006D10278401C03E005780D70401C491C73
:10C280005B1EF9D101E00B70491C521EFBD1A1428B
:10C29000E6D3002030BD0000FEB50024FF250135A7
:10C2A000012726460194284603F0C4FD00280AD041
:10C2B000374901204968B040014204D03548002187
:10C2C00028183C4301602D1D7F00761CADB2042E62
:10C2D000E9D3FF207D3003F0ADFD002807D02E48C4
:10C2E00000210160400704432C48006901902C4F55
:10C2F000200713D00126002526420BD02948AA008A
:10C30000111808690969C004C00E8903890FD21980
:10C310005268904776006D1C042DEDD3002C34DA62
:10C3200000241F4F012638194030007B8506AD0ED2
:10C3300080090090AE40284603F08EFE002821D0F0
:10C34000284601F0EDFD8000C0194768002F19D084
:10C350001549A8004018006801998003800F0E421B
:10C3600002D0022802D00DE003280BD10099032946
:10C3700005D102280AD00221284603F04BFD2846A9
:10C380000099B847641C062CCBD3FEBD0321F3E70C
:10C3900000630040006000407C61004000050050E8
:10C3A0005030002000650040000700508307FF2246
:10C3B000DB0E9A408907090E994000280BDA000726
:10C3C000000F0838830808489B001818C369934376
:10C3D0000B43C3617047830804489B001B1818680F
:10C3E000904308431860704700ED00E000E400E06F
:10C3F00010B506490020086048608860C86003499D
:10C4000040390860486004F03FFC10BD4011014015
:10C41000FEB50020C043124D029068690190684645
:10C420002E6902F061FF074603F02CFA0446002F44
:10C4300008D002AA0199009802F076FF029803F052
:10C440006BFA06E0029803F067FA002801D1002C8D
:10C4500002D0304601F086FE00206871FEBD00006B
:10C460003C29002010B507484068002807D08047C5
:10C47000002803D00022114600F028FA10BD03F076
:10C480007DF910BD6829002010B503F0C5F900281A
:10C4900005D00E490C484860C8130D4988610D4805
:10C4A000018CC9B201290ED1818C09070BD1018DF4
:10C4B0000906090F042906D1808D0006000F02D15C
:10C4C00005490120886010BDDFFF07C0000500405E
:10C4D000006C0040C00F00F0000600407CB51B4C13
:10C4E000A0681B4E0025002818D0A5601948806957
:10C4F000C1B2194800F00FFA002805D001216A46A0
:10C5000011700190684607E013488168C068401ABE
:10C51000012803D16846057071688847E0690028E2
:10C5200003D0E561032003F027FD606A00280BD0EB
:10C530006562084980390868086002216A461170FE
:10C5400001907168684688477CBD0000002100406A
:10C5500010290020002500403030002030B47446FF
:10C56000641E2578641CAB4200D21D46635D5B00EF
:10C57000E31830BC184702E008C8121F08C1002A9F
:10C58000FAD170477047002001E001C1121F002A54
:10C59000FBD1704738B50D4C6078022802D00C49A9
:10C5A0000120886069460B4800F0A4F9002802D0F9
:10C5B00000F016F838BD0848802181606A46074BB4
:10C5C0001278DA6102226270416038BD10290020C1
:10C5D00000200040403000200023004000250040A3
:10C5E0001CB506490120C8600549487003206A4609
:10C5F00010704968684688471CBD00000020004054
:10C600001029002004490020487004490122CA6012
:10C610004A6003490860704710290020002000404C
:10C6200000250040F7B582B0002605461670007858
:10C630001446002805D02846039903F0A7FA0600FF
:10C6400008D1A87800281ED02078039F001D1F283D
:10C6500002D90C2005B0F0BD684679DF0028F9D179
:10C6600021780322481C20707A5421781922481C12
:10C6700020707A542078C1196846008804F08EFB37
:10C68000217840182070E8780223002810D0207804
:10C69000039A411C2170135420780399471C0122EE
:10C6A00027700A542078EA78471C039927700A54A7
:10C6B0006868002815D00021415620788C46024633
:10C6C000C01C03991F28C4D8501C20708B5422789A
:10C6D0000A23501C20708B5420786246431C237020
:10C6E0000A542889002809D02846009406220221ED
:10C6F0000830039B04F0D0FB0600ABD1288A002849
:10C7000009D028460094072203211030039B04F02F
:10C71000C3FB06009ED1288B002809D02846009430
:10C72000152214211830039B04F0B6FB060091D1AA
:10C73000286A002805D02246039901F065FD06000D
:10C7400088D1686A002805D02246039903F0ECF9E5
:10C75000060084D12C20405D002806D022462846C1
:10C76000039904F02CF80600C7D1304672E710B5E3
:10C7700001220221002001F001FA00280BD107223A
:10C780000221012001F0FAF9002804D100210A2237
:10C79000084601F0F3F910BD044842680121C905BB
:10C7A0000B46934383600A40C26070470005005007
:10C7B00070B50024064D06E06968E000085C0121C0
:10C7C00003F05EFA641C28788442F5D3002070BD23
:10C7D00024290020F8B515460C460646052A01D244
:10C7E0000720F8BD03F00EFB002803D103F0E2FAA6
:10C7F0000028F6D1114900204E600C7008618D6050
:10C8000048610F4D0DE0E0002968801900918178A2
:10C810006A46517000780B4A694603F077FA00289F
:10C82000DFD12046641EE4B20028ECD10348064A5A
:10C8300000210C3000F092F8F8BD000024290020FF
:10C84000E40F020099F5010051E301003EB50446F2
:10C8500004200190184802906946204602F048F8EA
:10C86000002807D01549884203D00022114600F065
:10C870002DF83EBD10480C38017BC90716D0104A70
:10C880000C218088A7DF002810D00E4988420DD0E7
:10C8900008280BD0891C884208D0112806D00A49E4
:10C8A000884203D00022114600F010F8204601F023
:10C8B000D5FF0028D9D13EBD0C28002040800000C3
:10C8C000FFFF00000230000001340000BFF34F8F73
:10C8D00004490348C860BFF34F8F00BFFDE7000065
:10C8E0000400FA0500ED00E0014B1B68184700004A
:10C8F0000C3000208268C36893420AD08268838823
:10C900001A4003689A5C0A708168491C81600020A3
:10C910007047052070478268C3689B1A82889342DB
:10C9200008D8C36813400268D154C168491CC1606B
:10C93000002070470420704738B50C46A268064BAB
:10C9400012019D58097862880092024620460830FC
:10C950002369A84738BD00007031002070B5114C24
:10C96000A568002D06D0002A06D0002804D0002398
:10C97000247809E0082070BD072070BD24265E439E
:10C98000AE5D002E04D05B1CA342F7DB042070BD1B
:10C99000242401265C432E5564196170A261036052
:10C9A000002070BD3C290020FFB59807002481B00D
:10C9B0001E4615460F4600280BD1002E09D003F065
:10C9C00079FE22490A9888610F70324600208E60F5
:10C9D00008E0072005B0F0BD24234343D4549B183E
:10C9E0001C75401CB842F7DB24204743BB190320C9
:10C9F00048700F461846CB6019461830002218239D
:10CA00002E465E43D3005B181C705C709D705860AE
:10CA10003018521C032AF5DB0020C0433861BC707B
:10CA2000FC7001240A482405046003211420FFF748
:10CA3000BDFC08480460084C0198A0600321112047
:10CA4000FFF7B4FC606878610020C3E73C29002050
:10CA500080E200E000E100E000150140FEB5044680
:10CA60001D48174682680D46002A0CD001788C427A
:10CA700001D2052D01D20720FEBD214624235943B2
:10CA8000535C012B01D00820FEBD88184078012896
:10CA90001DD0002604F0C4F9C0000F490190C968F8
:10CAA0004018694604F0E6F9002812D0012101700F
:10CAB0000A49446049680830E2C007490198C968DA
:10CAC00041180098487004F06DF80020FEBD2E4615
:10CAD000E0E70420FEBD00003C29002000150140D5
:10CAE000F8B5144D0446A868002809D029788C426E
:10CAF00001D30720F8BD24216143405C012801D007
:10CB00000820F8BD04F08CF9C600E86869463018C2
:10CB100004F0B0F900280AD0022101704460E868EE
:10CB200031180098487004F03DF80020F8BD04204A
:10CB3000F8BD00003C29002010B5184C012100224E
:10CB400009042069FFF78AFF002803D0002211465C
:10CB5000FFF7BCFE01210022C9036069FFF77EFFD9
:10CB6000002803D000221146FFF7B0FE00220C4936
:10CB7000A069FFF773FF002803D000221146FFF7DA
:10CB8000A5FE05210022C903E069FFF767FF002821
:10CB900003D000221146FFF799FE10BD00280020A7
:10CBA00066260000F0B50546007D002493B00E46D1
:10CBB00000280DD00120014668461031039401730E
:10CBC000717B4173817BF92001406846891C817328
:10CBD0001C2104A8FFF711FB6946087C02210843C9
:10CBE000694608742A7DEF21002A02D010221043E2
:10CBF00000E008406A461074059407940894287D64
:10CC0000002800D003A8099001270A9410469771C4
:10CC1000304A82800094B27B0270F27B427080784E
:10CC2000F9221040F722801C1040EF2108404108F3
:10CC3000490068468170317B017214210BA8FFF70F
:10CC4000DCFA01A80B9068460C908786C48607879B
:10CC500002A80F90A888AB1D0BAA04A9A2DF002888
:10CC600035D1B068002830D0684687711A49818074
:10CC70000094317C01700020014668464170807844
:10CC8000F9210840F721801C0840EF2108404108A5
:10CC900049006846817011A8B16800F096FD06460B
:10CCA00014210BA8FFF7A9FA01A80B9068460C9075
:10CCB0008686C486068711A80F902A46E8880E3219
:10CCC0000BA9A3DF002802D100E0EC81002013B003
:10CCD000F0BD0000192A00000829000010B50C4919
:10CCE0000C4803F051FDC1B20948683800F03EFA23
:10CCF00000280BD0082809D00749884206D00749E8
:10CD0000884203D000221146FFF7E0FD10BD00006D
:10CD1000602D002020280020043000000134000095
:10CD200070B50C4692B000216A461170072511714A
:10CD3000002809D0C17849070CD502A9FFF772FC79
:10CD4000002808D102AE00E00026002C0ED0E078CA
:10CD5000002802D0284612B070BD01AA0AA92046B8
:10CD6000FFF760FC0028F6D10AAA00E0002268461E
:10CD700003790178304672DFEDE70000F8B50D4623
:10CD800006991746040013D0002F11D04A480026F8
:10CD90004671C3600161202239464848FFF706FA10
:10CDA0004648C168002905D00169002902D002E087
:10CDB0000E20F8BD06728169002902D0C1690029E0
:10CDC00000D1067500F0E0F83C49303108461038D3
:10CDD00001602031816030215038FFF70EFA37486A
:10CDE000217830380170A1788170E178C170617864
:10CDF00041706269216942610161E268A168C260B3
:10CE000081600146E369A269CB618A61616A002998
:10CE100017D00146A0310246AC3241628A60636A93
:10CE20001B880B80616A436A898899800021436A64
:10CE300004E0666AB668765C5654491C9E888E4249
:10CE4000F7D8A16A00291CD01C4AA83211460C3917
:10CE50008A608162A36A9B888B80A16A836A098841
:10CE600019800021836A04E0A66AB668765C56548D
:10CE7000491C9E888E42F7D82C210A5D0F49103933
:10CE80000A73216A002909D00B4914310162226A10
:10CE900052884A80216A026A0988118061680029E3
:10CEA00004D00549C91D41606168416003482946B5
:10CEB0003038FFF735FFF8BD6C280020FC2D00202E
:10CEC00010B50288224C102A15D00021112A18D042
:10CED000192A0FD1807900280CD1607901281FD040
:10CEE000022830D0032805D12171E2680846002AC3
:10CEF00000D0904710BD017D0129FBD180882081A1
:10CF000010BD617013490979A17180882189884217
:10CF1000F6D1012012E021690029F1D0884710BD27
:10CF2000A079002809D00A48193003F069F80028D0
:10CF300003D0A079401EA071EBE7022000F04CF86E
:10CF40000028E8D110BD022020710320F6E7000080
:10CF50006C280020FC2D002010B5022801D00328E9
:10CF60000ED1084C207800280AD00020207060796B
:10CF700000F032F8002803D02169002900D088474A
:10CF800010BD00006C28002010B507210148FFF7F4
:10CF900034F910BD8428002010B50D480078012810
:10CFA00014D10C4C6078002810D16079002802D090
:10CFB00074DF00280BD101206070607900F00CF85C
:10CFC000002803D02169002900D08847002010BD27
:10CFD000FC2D00206C280020F0B5624C87B06071F9
:10CFE000002606A8069603F06FF80127082806D049
:10CFF000002878D10698002802D02770AFE0069666
:10D00000FFF7C2FF584D6878002808D060790128E2
:10D0100016D1E168002906D0E770072088476079BB
:10D02000012802D00CE0E67002E06878002805D004
:10D030004C48193002F0E4FF002801D10220607151
:10D04000287A002804D16079022801D10320607178
:10D05000287D002804D16079032801D166712671EA
:10D06000E16800290AD06079022801D0032805D19F
:10D070002878002802D06078002814D0A6701821E3
:10D080006846FFF7BAF8684606700196067203967E
:10D09000607901280BD0344F0426203702280FD0A6
:10D0A000032850D12EE0A77006208847E7E72D48D7
:10D0B000183001906846077046820682277145E065
:10D0C000288A69464882A88908822748203003F0C8
:10D0D00047FF002805D02878002802D06078002873
:10D0E00002D002202EE03BE00220694608721E4872
:10D0F00003973038C6700021FFF712FE00282FD1A9
:10D10000267120E0288B69460882A88B4882164841
:10D11000203003F025FF002805D02878002802D011
:10D120006078002801D003200CE0022069460872D4
:10D130000D4803973038C6700021FFF7F1FD002835
:10D140000ED1052020716079002803D0684673DF76
:10D15000002805D1E168002901D020798847002006
:10D1600007B0F0BD6C280020FC2D002073B586B000
:10D1700004466946227C097F00208A4225D000258A
:10D180000126684600950680458007A80190217415
:10D19000E188608A6A46A4DF002816D1608A0D49BA
:10D1A000884214D0207D002811D002950395049563
:10D1B0000595E188684601818672418881810490E5
:10D1C00001980590608A02A9A6DF08B070BD08200A
:10D1D000FBE70000FFFF000038B504460868206048
:10D1E0000020C043608208792075FF200D4620741E
:10D1F00001216846817006490180221D694601208F
:10D20000A0DF002803D129462046FFF7CBFC38BD1C
:10D210000F18000038B50A88102A1AD0112A1AD01F
:10D22000502A1BD1027D002A18D0CA884389891D43
:10D230009A4213D10A8B022A10D10268002A0DD01B
:10D24000CB7E8C7E19022143C907C90F07D000216C
:10D2500006E0898801E00021C943418238BD0121EF
:10D260006B4619706946904738BD000070B5054699
:10D2700001461C220F48FEF799FF0F4C002626702E
:10D280002968002907D00822A018FEF78FFF204642
:10D2900008307ADF02E0084808307BDF002808D138
:10D2A000401E608004486670044A0021001DFFF79C
:10D2B00055FB70BDC42E00208C280020BD0D02003F
:10D2C000F8B5224C028800271F4DE689102A16D097
:10D2D00029464968112A21D0122A2DD0502A1CD162
:10D2E000C288801DB24218D1028B022A15D1C27E9B
:10D2F000837E10021843C007C00F0CD112E0818852
:10D30000698001461048082216311030FEF74EFFA2
:10D310006F70002E01D100F0BFFFF8BD0020C043A8
:10D3200068806F700846FFF7DBFB0028F5D0A16925
:10D330000029F2D08847F8BD811D0348082210302B
:10D34000FEF734FFE7E700008C280020C42E002001
:10D3500010B502484068FFF7C3FB10BD8C280020C1
:10D3600030B585B00D46040039D0002D37D068683F
:10D37000002834D00020C0431A4B20800FCB0493E8
:10D3800001AB07C318486946088001A8811E63DF06
:10D39000002822D1221D69460120A0DF00281CD1CF
:10D3A00068468078A071204601F0CEF9002814D19B
:10D3B000204601F085F900280FD12946204601F0CA
:10D3C00005FA002809D16868A062A868002800D082
:10D3D000E062064901200870002005B030BD0E2033
:10D3E000FBE70000A00F020030150000A428002079
:10D3F0003EB5002828D0002926D0826A002A23D0F2
:10D400000A88102A21D0112A30D0502A1FD0512A40
:10D410001AD10A460446891D0878022814D1488882
:10D42000238A984210D1907A04280DD006280BD078
:10D43000052809D02046891C02F02AFD002803D0C7
:10D44000E16A002900D088473EBD898810E0CB887A
:10D4500002899342F8D108226B461A708A7F1A71AA
:10D4600020310291826A694690473EBD0021C9433E
:10D4700001803EBD30B585B0002822D00388134C12
:10D48000A34220D0124B1B78002B1CD0104B102530
:10D490005B1C1D705970002401259A700322694697
:10D4A0000A820094019402940394028A0A808D7087
:10D4B0008C8004A90291039300886946A6DF05B019
:10D4C00030BD0E20FBE70820F9E70000FFFF000059
:10D4D000A42800207FB504460121684681714A498D
:10D4E00081804A4A01A90120A0DF00287ED122883C
:10D4F00025463C35002A09D044482B46801C009024
:10D500004348616800F014FD00287BD12289002A7D
:10D510000AD03E482B460A3000903D48E168401F43
:10D5200000F006FD00286DD1228A002A0AD0374873
:10D530002B461230009036486169001F00F0F8FC5D
:10D5400000285FD1228B002A0AD030482B461A309F
:10D5500000902F48E169801E00F0EAFC002851D1BC
:10D56000228C002A0AD029482B46223000902848D5
:10D57000616AC01E00F0DCFC002843D1228D002A25
:10D580000AD022482B462A3000902148E16A401EEA
:10D5900000F0CEFC002835D1216B00290ED002A866
:10D5A00003F0D4FA19482B4632300090184808226C
:10D5B00002A9801F00F0BCFC002823D1606B00286A
:10D5C0000BD012492B463A3100910279016810487C
:10D5D000401C00F0ADFC002814D1A16B002910D034
:10D5E00002A802F051FD0948423000E00AE0009034
:10D5F00007482B46072202A9273000F099FC002893
:10D6000000D1002004B070BD0A180000AC28002032
:10D61000292A000070B5044601F04EFA214616484A
:10D6200000F088F8144821461838FFF7F3FD20462B
:10D63000FFF746FE204600F0E5F90F48214680300E
:10D64000FFF7D6FE20880D4D102802D011280ED1EC
:10D650000AE0072000F0B6FA002803D000221146A5
:10D66000FFF734F9A08801E00020C043A8802046DD
:10D67000FFF726FC70BD0000102D002000280020C0
:10D6800030B50446008C134A8BB090421FD006AAD6
:10D69000204602F02FF869460546088000200190D8
:10D6A00002900390049022898A8001228A71088165
:10D6B00006A803910490208C01A9A6DF002804D1BC
:10D6C00069460988A94200D00C200BB030BD082063
:10D6D000FBE70000FFFF000038B504460868206043
:10D6E000087960710020C0430D462084002022216B
:10D6F00008554C2108530121684681700C4901806E
:10D70000A21D69460120A0DF00280FD1294620462E
:10D7100001F098FF002809D1A868002805D0294603
:10D72000204600F08DF8002800D1002038BD000010
:10D730000D18000038B50A88102A17D0112A17D002
:10D74000502A18D1CA888389891D9A4213D10A8B1D
:10D75000022A10D10268002A0DD0CB7E8C7E1902DD
:10D760002143C907C90F07D0002106E0898801E0DD
:10D770000021C943018438BD01216B4619706946F7
:10D78000904738BD70B5054604464035A8890E4619
:10D79000142807D12622A118881EFEF707FDA889A4
:10D7A000401EA88180B241000919401CA8818E84C6
:10D7B00070BD20308170704770B504460D46084634
:10D7C000FEF726FD2080656070BD0A7802704978FA
:10D7D00041700220704700001CB500234822154903
:10D7E000082003F0F1F8002803D000221146FFF7CB
:10D7F0006DF800200090019001206946087068468D
:10D8000060DF002803D000221146FFF75FF80A48C6
:10D8100003F0D0F8002803D000221146FFF756F895
:10D82000064803F0E9F8002803D000221146FFF76C
:10D830004DF81CBDB02C002015D601003D0B020098
:10D84000F0B58FB00D4606461C216846FEF7D5FCA4
:10D850006846017802200143684601700024019463
:10D86000039404940594012708A806948770154929
:10D87000684601840794E97B0177297C4177807FA2
:10D88000F9210840F721801C0840EF210840410899
:10D89000490068468177142109A8FEF7AEFC08A864
:10D8A000099007A80A9068468785C4850786A868F6
:10D8B0000D903346F088103309AA6946A2DF0FB0F5
:10D8C000F0BD0000382A00001CB5044681786A4685
:10D8D0000C4802F00DFC002812D160781C2148434E
:10D8E00009491C2340181A46694602F0B9FC06484B
:10D8F00006494C30807A80000A5821466846904795
:10D900001CBD000008290020C02F0020C40F020009
:10D91000F8B5054608206946088001236A461D4976
:10D920002846AADF1C4800688047B12044DF002851
:10D9300003D000221146FEF7C9FF11DF002803D0F3
:10D9400000221146FEF7C2FF144C606913DF002865
:10D9500003D000221146FEF7B9FF284600F054FE1E
:10D9600001210F4A880510600E4802680D4B002007
:10D9700080330D468540154204D0C606F60E0D468E
:10D98000B5401D60401C2028F3D3606900F00CF8FE
:10D99000F8BD0000B4310020602900200010001004
:10D9A00080E200E000E100E010B5FEF7B3FB10BD3F
:10D9B0007CB5134E00250C463060002918D069460E
:10D9C000002000F0A7F8002819D101A9012000F0DB
:10D9D000A1F8002813D1684601790020002901D060
:10D9E000022004E069460978002900D00B2020704D
:10D9F0007068002802D1FEF7BAFE054628467CBDB5
:10DA00006428002010B5184C0188606810290DD0DA
:10DA100011290AD1401E606007D1FEF7A8FE002838
:10DA200003D02168002900D0884710BD002817D1F5
:10DA300000210122084600F0A1F800280AD107229F
:10DA40000221012000F09AF8002803D104220221CB
:10DA500000F094F8002803D02168002900D08847FE
:10DA60006068401C606010BD6428002010B5032071
:10DA700000F0FEF910BD0000F8B50746002422486A
:10DA800002E0641C042C19D2A2008258BA42F8D1D8
:10DA9000042C13D21D4E1E4DF069002928D00129F7
:10DAA0000DD002290AD16000201840194578002DB8
:10DAB00004D0F168002901D028468847F8BD6100EC
:10DAC00062182946AD5C511800914978002909D0A7
:10DAD00071680A2251430D4A521CFEF7BFFF00280D
:10DAE00000D1777000988178084810300155DEE742
:10DAF000FEF7F6FF05486100611810304919005D16
:10DB00008D78A842D3D0F8BD700F020044280020C1
:10DB1000C02D002004280CD2074A1269074B800050
:10DB20001B5C01209840904300D001200870002029
:10DB300070470020FAE7000000050050700F020057
:10DB400010B5042806D0072810D00A2801D102F009
:10DB500011FF10BD08481321808876DF08E00028F7
:10DB6000F7D000221146FEF7B1FE10BDFFF714FA00
:10DB70000828F4D110BD00000028002070B5002353
:10DB8000042811D2440004190D4D012A02D10129A3
:10DB90000DD0002246008019094E801900290CD0B2
:10DBA000012906D0022906D00723184670BD0D3082
:10DBB000C2B22A55F9E74270F7E78270F5E7000034
:10DBC000C02D002010B5054A0146127A0020D20768
:10DBD00002D0084600F054F810BD00004428002090
:10DBE00070B50E46204905464E608D600020CA6023
:10DBF000A9071ED50024012211462046FFF7BEFFCB
:10DC0000641C042C02D20028F5D012E0002810D1A8
:10DC1000720804211548FEF7DDFD002809D1FEF742
:10DC2000C7FD002805D11048114A00211C30FEF71D
:10DC300095FEE90706D00F220E4952058A6000239F
:10DC4000CB608A6100280DD107480B4A00211430AF
:10DC5000FEF784FE002805D10348084A0121183048
:10DC6000FEF77CFE70BD000044280020800F0200FB
:10DC7000ADDE0100000500506DF8010099C70100FC
:10DC8000FEB5784906464F684B690093BB00FB1808
:10DC900000200122019352050546734C3300FEF724
:10DCA0005DFC180D13133749596C828E858E97A130
:10DCB000A5A5A5A5A5C3C8CDD4DADA120B225205B5
:10DCC000A260E5600D70FEBD05208005A060E560E6
:10DCD00060680F235B055840800209D5A260E560AB
:10DCE000022E02D1E120C0000AE07D20400107E0C1
:10DCF000E260A560022E01D1C82001E0FF20913032
:10DD00000E706421FEF73CFA78430022014646E09B
:10DD100005208005A060E56060680F235B05584022
:10DD2000800204D5A260E56019204001E8E7E260C6
:10DD3000A560E1E705208005A060E56060680F232D
:10DD40005B055840800202D5A260E560CDE7E26045
:10DD5000A560D3E705208005A060E56060680F231B
:10DD60005B055840800202D5A260E56001E0E260F8
:10DD7000A5600E707900002211E005208005A060EA
:10DD8000E56060680F235B055840800202D5A26001
:10DD9000E56001E0E260A5600E700022394600985F
:10DDA000FEF75CFEFEBD05239B0544E06068012193
:10DDB00089050A468243A2600840E06010E061687D
:10DDC0000120800502468A43A2600140E160E4E749
:10DDD00061680120800502468A43A2600140E1603B
:10DDE0000199C8E70F214905E1601BE00F468869EA
:10DDF000FEF776FE11218A1B1C4E01D0002802D0AE
:10DE0000A660E560FEBD012A0BD91046C821484333
:10DE10006421FEF7B5F9796800224143B869FEF73D
:10DE20001DFEE660A560FEBD0F225205A260E56002
:10DE300015E007239B05A360E5600EE00D22520567
:10DE4000A260E5600122920507E00322D205A260EC
:10DE5000E560921001E00F225205E260A5600E70AD
:10DE6000FEBD000044280020000500500000800096
:10DE7000F0B500210B4C0C4D03273F048A00A2583B
:10DE800092005619326801238B40034000D00323CF
:10DE9000BA431B0413433360491C0429EED300200A
:10DEA000F0BD0000700F02000007005010B50078B0
:10DEB0000221FFF7E1FD10BD054900228300D24396
:10DEC0005B185A60042802D3081840300272704769
:10DED00050300020F0B50025ED43002A02D0002389
:10DEE000042601E004230A260C4C05E09F003F199C
:10DEF0007F687F1C04D05B1CB342F7D32846F0BD7B
:10DF000026185DB2203635739E0036197160002ADE
:10DF1000F4D1E11840310872F0E7000050300020E1
:10DF2000024909182C200856704700005030002084
:10DF3000FFB58FB01E4615460F0004D100221146D2
:10DF40001046FEF7C3FC002D04D1002211461046F6
:10DF5000FEF7BCFC1C216846FEF74FF968460178C5
:10DF60000220014368460170002401940394049444
:10DF70000594012108A80694817068460F990184D0
:10DF800007943178017771784177807FF9210840D3
:10DF9000F721801C0840EF210840410849006846ED
:10DFA0008177142109A8FEF728F908A8099007A885
:10DFB0000A9068468585C485058604480D9709AA98
:10DFC00069460088189BA2DF13B0F0BDAC28002082
:10DFD000F8B53B4914230A780F205A435418217985
:10DFE0002569384E241D02291AD004292ED005296E
:10DFF00064D102F0F7F801462846FEF7C1F806465C
:10E0000002F0F0F80146A08871434019401A8708D1
:10E0100002F0E8F8711C4843A1886288891836E04C
:10E02000B0882269800261881318091AA28828180A
:10E03000101801229202914203D28A08194629DF60
:10E0400037E0FF220132194629DF32E0A2681C487E
:10E050001101CC30091808894B894968A94203D1BC
:10E060006188584388421BD0022A19D002F0BAF8BE
:10E0700001462846FEF784F8064602F0B3F87043DE
:10E08000281A870802F0AEF8711C484361883A46A6
:10E090004919401A83083146204602F0B9FC08E0CD
:10E0A00002F0A0F801462846FEF76AF8B188401849
:10E0B00028DF002802D1024901228A70F8BD000041
:10E0C000A43000201829002010B5084900204A7803
:10E0D000002A09D08978002906D1FFF779FF0028A6
:10E0E00002D0112800D1002010BD0000A430002073
:10E0F00014225043054A002180180171C180012279
:10E100000161C2604161018170470000A4300020BC
:10E11000F8B5134C069E65780A2D1FD027787D1917
:10E12000EDB20A2D01D30A3DEDB214277D432D191E
:10E130002871002068716A6103C92961E860EB8079
:10E140002E81A1780020002904D1FFF741FF11287A
:10E1500000D100206178491C6170F8BD0420F8BD31
:10E16000A4300020F8B5224801694A1C3DD0242281
:10E170005143826889184E681E494C684769007986
:10E18000E11B0D022D0AED1C002814D101201A4AB2
:10E1900000045060184A403A506018494000086036
:10E1A000174908601749012008602F20FDF7A2FFDA
:10E1B0000F4901200871B54200D23546E819000226
:10E1C0000C49000A403108600A494968001B091BD4
:10E1D0000902090A0002000AC91C814204D901206F
:10E1E0000649400480390860F8BD02F063FAF8BDC2
:10E1F0003C290020001501404013014080E200E06E
:10E2000000E100E000100140F8B50D461178064627
:10E21000881D14461F2801D90C20F8BD338807201B
:10E22000062BFAD31927FF01BB4202D9164A9342A3
:10E23000F3D17288062AF0D3BA4202D9124FBA42F9
:10E24000EBD1114FBB4203D0BA4201D09342E4D884
:10E25000481C052220706A5420781222411C21702B
:10E260002A5420784119308802F098FD217840180E
:10E27000C0B220704119708802F090FD21784018DA
:10E2800020700020F8BD0000FFFF000010B5002244
:10E290001146FEF71BFB10BDF8B5164801F0AEFAAB
:10E2A000144D0026103D144C002807D06169002948
:10E2B0001BD001206A461070684615E028780028B7
:10E2C00005D06169002910D0684606700CE06878B6
:10E2D00000280CD0A16800226868FEF7BFFB002868
:10E2E00003D0A169002900D088472E70F8BD61686D
:10E2F000F1E700009C280020C42E002070B5094BD7
:10E3000004469E7A082000250E4207D00648844223
:10E3100002D01889A04202D10020156070BD0520EE
:10E3200070BD000000300020FFFF00000C214843BA
:10E33000064910B5012240188272911E0181FF2109
:10E34000C1720721FDF759FF10BD00000030002009
:10E35000F8B500260124154D23E06968F000471840
:10E36000387821466A698140114218D08A436A612F
:10E3700001F016FD3A7821462B6991401940034679
:10E38000934099420BD17978012901D0012100E015
:10E3900000217B684140002B01D010469847761C35
:10E3A000F6B228788642D8D3F8BD00002429002090
:10E3B000FEB50E46044681786A46234801F098FE71
:10E3C000002826D160780C21204F4843C019807A5C
:10E3D00040061FD4022E1DD0012E1DD01C4DA0784A
:10E3E0001C2148431B49002341181C226846A847AA
:10E3F000002813D0022E0CD020780C21484313495A
:10E400000C314018807A144980000A582146684629
:10E410009047FEBD114DE2E7114DE0E7022EF8D026
:10E4200060780C214843C019817ABF221140817263
:10E4300060781C2148430549403941181C231A467D
:10E440006846A847D8E700000829002000300020CF
:10E450000D0A0200FC2E0020B40F0200A5050200E8
:10E46000ED03020070B50546114A124800241C2332
:10E4700063431B189B7EFF2B04D0641C072CF6D330
:10E48000104670BD0A78022A09D01C226243101877
:10E49000FD22827607221030FDF788FE04E01C2161
:10E4A00061430818FE2181762C700022E8E7000005
:10E4B00043800000FC2E0020F7B505250F4F0646CF
:10E4C0000024002E0AD01C206043C01907223146C8
:10E4D0001030FDF7A4FE002807D00AE01C2060439E
:10E4E000C019018B0298814203D101980025046074
:10E4F00002E0641C072CE4D32846FEBDFC2E00205D
:10E500007CB5054681B26A46074801F0F1FD04007A
:10E5100008D17421684601F015FE040002D1284696
:10E5200001F07AFD20467CBD0829002070B5054623
:10E530000C46100003D000221146FEF7C7F92078E0
:10E54000152802D12846FEF781F9002070BD000091
:10E550001FB56946087301F04BFE002803D0002266
:10E560001146FEF7B3F903A800F01CFD002803D004
:10E5700000221146FEF7AAF901A805210130FDF796
:10E580003CFE6946487901221043E1210840DF2121
:10E590000C30084069464871072088711020C87106
:10E5A000064800900A71064800F064FE002803D077
:10E5B00000221146FEF78AF91FBD00002DE501007B
:10E5C0000228002001B50549684600F055FA0028E8
:10E5D00003D000221146FEF779F908BD6429002016
:10E5E00010B5097800290AD003220121FEF742FF65
:10E5F000002803D000221146FEF768F910BD0088FC
:10E60000FFF786F910BD000010B58AB00024264936
:10E61000009400F095FC002817D101A9224800F0D1
:10E6200037FC002813D021491F4800F01DFD0028A9
:10E6300003D000221146FEF749F91C4800DF0028EC
:10E6400003D000221146FEF741F90AB010BD05992A
:10E65000072216481031FDF7A9FD14481022C01DED
:10E660000599FDF7A3FD1148112218300199FDF716
:10E670009DFD0E4801990A222A301231FDF796FDC0
:10E680000A4800DF002803D000221146FEF71EF9D9
:10E6900001200090042008906846099007A907947B
:10E6A000014800F07FF9CAE764290020803100208A
:10E6B0007047000001490860704700006029002091
:10E6C00030B58FB005461C216846FDF796FD6946BA
:10E6D0000878082108431022104369460870002476
:10E6E00001940394049405940694A87908A9887069
:10E6F000144869460884601C00070794000F0C77D3
:10E7000010304877887FF9210840F721801C0840A5
:10E7100010430121084369468877142109A8FDF7B1
:10E720006CFD08A8099007A80A9069468C851720F7
:10E73000CC8508860D942B46A888103309AAA2DF41
:10E740000FB030BD3115000030B58FB005461C212B
:10E750006846FDF752FD694608780421084369467A
:10E760000870002401940394049405940694A879F5
:10E7700008A98870144869460884601C000707943B
:10E78000000F0C77103048778A7FF9200240F7207D
:10E79000921C0240EF200240012002438A7714219C
:10E7A00009A8FDF72AFD08A8099007A80A9069465C
:10E7B0008C851420CC8508860D942B46A8880833B8
:10E7C00009AAA2DF0FB030BD32150000F0B58FB03E
:10E7D0000F4605461C216846FDF70FFD6846017887
:10E7E000022631430170002401940394049405949B
:10E7F0000694A97908A88170174968460184601CAD
:10E800000107090F6846103107940177002001467F
:10E8100068464177817FF9200140F720891C01403B
:10E82000EF2001400120014368468177142109A8A7
:10E83000FDF7E3FC08A8099007A80A9068468685BA
:10E84000C48506860D972B46A888203309AA6946F9
:10E85000A2DF0FB0F0BD0000341500003EB5044645
:10E860001E4801781E48002930D0002C2FD0217876
:10E8700000292BD11B4900250968002926D0A17841
:10E88000072927D21C20184A48438018807EFF2879
:10E8900020D012486A46103001F02AFC002815D119
:10E8A00060230422694602A801F0DAFC0299491C9F
:10E8B0000CD0602304220D49684601F073FE002845
:10E8C00004D1A178084A89001C3A55503EBD04483D
:10E8D000801D3EBD024808303EBD0000F8280020E3
:10E8E000088000000C300020FC2E0020B00F020039
:10E8F0003EB50C4627490A782749002A30D08A1DA0
:10E90000002805D0002C03D00278002A28D101E08D
:10E9100010463EBD214A1268002A21D0817807297D
:10E9200020D21C221E4B4A43D218927EFF2A19D0B5
:10E930001B4AA3681C3A002B17D0890053508178DA
:10E9400014486A46103001F0D3FB0028E1D160235F
:10E950000422694602A801F083FC002809D016E0D1
:10E9600008463EBD0C4808303EBD89005158A160A4
:10E97000E5E70298401C0AD0642310226946A0688B
:10E9800001F06EFC0028EFD1029961603EBD0248A3
:10E9900038303EBDF8280020088000000C300020F0
:10E9A000FC2E0020FEB505462D480C4601782D486A
:10E9B000002925D0811D002D23D0002C21D0A26854
:10E9C000002A1ED0297800291AD127490968002970
:10E9D00016D0A978072916D21C22244B4A43D218F4
:10E9E000927EFF2A0FD06A780C235A431E4B0C3BB1
:10E9F000D218927A120703D56068042806D207203D
:10EA0000FEBD0846FEBD17480830FEBD1448184E2E
:10EA10006A46103001F06CFB0028F6D16023042216
:10EA2000694602A801F01CFC002803D10298401C92
:10EA300000D0104E60230422211D6846B0470028F4
:10EA4000E3D1642310226846A16801F0ABFD0028E1
:10EA5000DBD1AA78054B92001C3BA1689950FEBD02
:10EA6000F8280020088000000C300020FC2E002038
:10EA7000ED030200A50502000C4A13780C4A002B96
:10EA800011D0931D002905D0002803D0007800285C
:10EA900009D101E018467047064B1B68002B02D0D5
:10EAA000087000207047104670470000F8280020CA
:10EAB000088000000C300020F0B5054693B000201F
:10EAC0000290FF24ED480E94007800284BD0EC4FC4
:10EAD0003868002847D001A800F056FA002803D073
:10EAE00000221146FDF7F2FE281D05902A206946F6
:10EAF0000883FF20002688710E710396E04C288859
:10EB00000C3C10280ED0A88803AA0221FFF7F6FBC0
:10EB1000002807D103980C2141430919CA7A694694
:10EB20008A7148712888132217287CD00FDC10289E
:10EB30001BD0112853D0132876D0142813D1039852
:10EB40000C2148430019C07AFF2871D08DE0CD49CF
:10EB500018286BD01C286AD0522804D1B87A8000BB
:10EB6000095801A8884713B0F0BDC74F03AA012177
:10EB70003846FFF7C3FB0028F5D103990C20484322
:10EB800002220019827211236A4613745171A988F6
:10EB900001810722A91DFDF709FB687DC10707D088
:10EBA0004108B6480830405CFF2808D00E9006E0C7
:10EBB0003A460EA9A81DFFF77FFC00280ED1039945
:10EBC0000C22514309190E98C8728A7A08231A43F5
:10EBD0008A726946887101A8FEF776FE39E10398CA
:10EBE0000C2148430119887AFD22104088720107E0
:10EBF00006D5C0090DD0002101A8FFF7D9FB08E018
:10EC000068468079FF2804D001F006FAFF206946A3
:10EC1000887103980C225043102100198172122030
:10EC20006946087415E17FE030E001E0D5E00EE1CF
:10EC3000EA890EA90020FFF73FFC00280ED10398B7
:10EC40000C22504300190E99C172837A0822134393
:10EC500083726846817101A8FEF736FE03980C2185
:10EC600048430019C07AFF2806D003981C21484366
:10EC700083494C394018029003981C21484383492A
:10EC80004218A8880023029982DF6CE76846027464
:10EC9000039B0C2058430119887A04221043887280
:10ECA000C87AFF2830D016206946087424204343D0
:10ECB00073481A21303818180830FDF79EFA039867
:10ECC0000C2148430019817A402211438172039933
:10ECD0000C2200204A430A901219D27A1C235A436C
:10ECE0006A4B0C90D2180B921C2251431A46C43224
:10ECF00089180791089009903A1DA88807AB002150
:10ED00007FDF0028C1D1A4E00EA8FFF7ABFB0028ED
:10ED100001D00646DBE769460E98887103990C22FC
:10ED200051430919C872D2E7787A400840007872D6
:10ED3000039A0C209446424311198B7AFB2003401E
:10ED40008B7214206F463874A879002804D0C87AD2
:10ED5000FFF7D6FBAE797CE0E879400779D5B87942
:10ED6000FF2876D008273B438B72EB7A9B0708D5A8
:10ED70001C2503466B43454D5B199D7E6D086D0058
:10ED80009D76CB7AFF2B64D0A25C022A10D01C2285
:10ED900050433E4D072240191030FDF707FA6846F0
:10EDA00080791C2148434019817EFD2211400EE0EC
:10EDB00061461C225143324A4C3A89184A8A1C2126
:10EDC0004843324940180283817E490849008176D0
:10EDD000012101A8FFF7ECFA3BE0A8790209012A1A
:10EDE00023D10007000F01281FD103980C224243B2
:10EDF0001219927A120718D5242148432049303934
:10EE000040181A210830FDF7F8F9162069460874F1
:10EE100003980C2148430119887A602210438872B4
:10EE2000787A0221084378720FE003980C2250434D
:10EE30000019827A80231A43827215206A46107460
:10EE4000B87A8000095801A88847002601E0684682
:10EE50000274324604A901A8FDF746FD6846007C0D
:10EE6000122800D07FE603980C2141430919897AC2
:10EE70000129F7D0FFF75AFA75E60000F8280020BC
:10EE80000C300020D40F0200FFFF0000FC2E0020F9
:10EE9000F0B5064626480C460178264889B0002978
:10EEA0003FD0811D002E3ED0002C3CD0317800296F
:10EEB00037D1214900250968002932D0B0780728C8
:10EEC00033D21C211D4F4843C019807EFF282CD00F
:10EED000E560B07865614843C01920611648A560B7
:10EEE0000C306060684620601148B17807AA103085
:10EEF00001F0FEF8002814D11C231A4607A9684621
:10EF000001F0AEF900280CD1E560B1781C22514324
:10EF1000C919656121610849A5600C3161606946C4
:10EF2000216009B0F0BD0846FBE702480830F8E769
:10EF3000F8280020088000000C300020FC2E002063
:10EF400030B50446002903D00878002814D101E028
:10EF50000B4830BD0B480023006800280CD0094A3C
:10EF6000FF2088700C3A15890520A542F1D14B701D
:10EF7000D07A8870002030BD0148801F30BD00006D
:10EF80000E8000000C300020002806D0FF21017008
:10EF900041708170C17000207047014870470000C7
:10EFA0000E800000F0B585B0040036D02948002559
:10EFB0000560457285722846FFF7B8F92548242177
:10EFC0003038FDF71AF90026FF27304601F024F803
:10EFD00021488755761C072EF7D374216846818017
:10EFE0000721C1801D481C4900900831684601F086
:10EFF00089F900280FD1184E0120083E3070207882
:10F0000000280CD069468888C988484381B23046B8
:10F01000103001F097F805B0F0BD1148FBE7114F33
:10F0200000240D48A1B202AA083001F061F80028BE
:10F0300009D11C206043C01900231C2202A901F041
:10F040000FF9002801D03570E5E7641C072CE8D3E0
:10F05000E1E700000C30002000290020E9F0010069
:10F060000E800000FC2E00200B4610B51A491B4AEA
:10F070000978002920D0911D002805D0002B03D04D
:10F080000178002918D101E0084610BD144909682B
:10F09000002911D0114A8178D21EFF290ED01C20E0
:10F0A000414310480918887E800705D40722184676
:10F0B0001031FDF77BF80022104610BD4078FF2884
:10F0C000FAD00C21484306490C394118887A800748
:10F0D000F2D507221846ECE7F82800200880000047
:10F0E0000C300020FC2E0020FFB55D488FB000687A
:10F0F000189F1E46002875D0742F73D86846FFF7F6
:10F1000043FF002803D000221146FDF7DFFB002457
:10F11000684604700471254605970696A9B20DAAA3
:10F12000504800F0E5FF002806D108220DA90F98ED
:10F13000FDF775F8002817D06D1C072DEED3684633
:10F140008578FF2D4ED01098042810D046481C21F9
:10F15000301AFDF715F8012707281ED204A80290DF
:10F16000119800280BD011E068468570E7E7742FEE
:10F1700003D04020694608716CE02020FAE7384649
:10F180003849A84010394968084261D0284601F042
:10F190000BFE2020694608714AE031481C214C389A
:10F1A000301AFCF7EDFF00281DD02D4824213038FF
:10F1B000301AFCF7E5FF01002C482CD040216A46AC
:10F1C00011712B498E4245D0274AA9001C3A51584B
:10F1D000B1423DD104A90291C07A854228D1684646
:10F1E000447025E034E004A80290202168460171B3
:10F1F00044701B480A940C300B90583807906846AE
:10F2000080781C21484318494018089007A80690A8
:10F21000182005900CE0302269460A714C70CF70BE
:10F22000807A800704D4114824212438FCF7E5FFB4
:10F23000109869460328087910D0022108436946CE
:10F24000087104A8029001A96846119AFDF74CFBC9
:10F2500013B0F0BD694608790321EFE73843EFE7C3
:10F260000C30002008290020FC2E00200030002057
:10F27000B00F020070B5064618480D460078002809
:10F280000ED01749002E0ED0002D0CD02868002873
:10F2900009D0144C2168002907D011480A3870BDE4
:10F2A0000F48801F70BD084670BD20600522691D93
:10F2B000201DFCF77BFF2879A072207A02214008EC
:10F2C00040000843FB2210402072E07901231843DC
:10F2D00008431040E0710020307070BDF828002015
:10F2E0000E8000000C30002010B50E4900238A78F3
:10F2F000CC78A24212D0521CD2B28A70022A00D11B
:10F300008B708A78074B92001C339A5802604869C8
:10F3100010180002000A4861012010BD036000209F
:10F3200010BD00003C290020F7B5144C0025A7684B
:10F3300023691EE024215943C9194E68864202D927
:10F34000301A486017E0801B751900264E600E7554
:10F350000E699C460B6AB646002E0AD0019E7619AD
:10F360003602360A8E607646CE6016680E626146B8
:10F370001160591CDED12361FEBD00003C29002034
:10F380000EB5112069460872072214A102A87CDF7D
:10F39000002803D000221146FDF798FA114878DFC3
:10F3A000002803D000221146FDF790FA0020FF222A
:10F3B00000904132694601900A804122D2004A8081
:10F3C0008880FF209130C88068467ADF002803D00B
:10F3D00000221146FDF77AFA0EBD00004466755F03
:10F3E00048524D0041030000002070470020704744
:10F3F00000207047F8B506464078242104464C4367
:10F4000024490C2250436118224A00254B682432BB
:10F410008018AE462F469C46002B0CD0827A1346AD
:10F42000D20908D05A0606D40D461A4A614689B256
:10F43000175908358E46174C008924343B467246CE
:10F440002946A9DF0B2819D0002800D01248012F27
:10F4500013D170780C214843001900890F4AA7DFA7
:10F4600000280AD00E49884212D0082810D0891CE2
:10F4700088420DD011280BD00020F8BD70780C21E7
:10F48000484301230019008972462946A9DFE0E7B5
:10F490000148F8BDDC2F002041800000FFFF000084
:10F4A0000230000070B50C46014660782422084DF9
:10F4B00050434019382300F0D3FE002807D161786B
:10F4C0002422514349194A68521C00D14A6070BD38
:10F4D000DC2F0020F3B589B00D461A2069468883D9
:10F4E00068780C2103274843224E3B468019008947
:10F4F00007AA6946AADF002838D168782421484342
:10F50000741A001969468A8B0830FCF788FE0028B7
:10F51000687807D0242148430119496800290DD093
:10F52000154E0CE00C2141438919897A89071DD4B5
:10F53000242148430019FCF760FE17E00F4E2750C6
:10F540006846828B687824214843001942606878B5
:10F550004843001969460830FCF728FE68782421E2
:10F5600048430119382324220998B04700200BB0E2
:10F57000F0BD000000300020A5050200ED030200F0
:10F5800010B5FFF737FF10BD10B5FFF78BFF10BDAB
:10F5900010B5FFF79FFF10BD70B50646104C012552
:10F5A000B540E068FDF79CFA00280CD1616929425A
:10F5B00007D1304600F0F4FB0028206904D028432E
:10F5C00003E0A943616170BDA84320616069002226
:10F5D00028436061A168E068FDF740FA70BD000053
:10F5E0002429002010B51349134801F0CDF8124C1E
:10F5F00081B2283CA068401CA0600E486038FEF72D
:10F600003FF800280BD0082809D00C49884206D0C2
:10F610000B49884203D000221146FDF757F9032118
:10F62000A068FCF7ADFD002901D0012000E000201A
:10F63000207010BD702D002028280020043000000C
:10F6400001340000F0B5002406460D46601C010799
:10F6500095B0090F08A810310C940174297B4174EE
:10F66000817CF9273940891C81741C2105A8FCF78D
:10F67000C4FD6846017D10200143684601750CA851
:10F6800006940A900894099401220B9408A88276A3
:10F690001749684601870D94697B08A80175A97B05
:10F6A0004175817DF7203940891C0140EF200140E0
:10F6B000114308A8817514216846FCF79EFD0EA829
:10F6C00000900DA801900FAA0021304600F012F81A
:10F6D0000146684601811421448181810FA804906C
:10F6E0003346F08808336A4605A9A2DF15B0F0BD9D
:10F6F000372A0000F7B542790025002A00D00425FA
:10F700002222135C0222002B00D01543CBB2FF292A
:10F7100007D901221543029A090A537091700326F2
:10F7200002E0029902264B7004464034A189002968
:10F7300001D010210D43002716E0B11C142909D96E
:10F74000A189C91B4A007900091824302431FCF72B
:10F750002DFD0CE0029B7A0012189B19928C1A70F6
:10F76000120A5A70CEB27F1CA189B942E5DCA08989
:10F77000C01BA081029805703046FEBDF8B51E4C36
:10F780002078002837D02069002807D00026E068BC
:10F79000002805D00025002E04D013E00126F6E74E
:10F7A0000125F8E7684651DF052806D0002806D075
:10F7B00000221146FDF78AF804E0012602E02169E3
:10F7C00000988847002D12D1608869460880A0689B
:10F7D00061DF052806D0002806D000221146FDF77B
:10F7E00075F804E0012502E0E168A0688847002E72
:10F7F000D8D0002DCFD0F8BD682900204188054819
:10F800000288914204D34088814201D80120704788
:10F8100000207047942800201048018CC9B20129AB
:10F8200017D1818C090714D1018D09060A0F03D164
:10F83000828D1206120F0ED0090F012903D1828D7D
:10F840001206120F07D0032903D1808D0006000F86
:10F8500001D000207047012070470000C00F00F069
:10F86000800701D0002070470120704710B5044880
:10F87000017AC90702D00078FEF702FA10BD000035
:10F8800044280020F8B5234801690091457833E009
:10F890002048E900C0680E1834782AE01820604338
:10F8A0007168641C0818B178E4B2A14200D1002448
:10F8B0000178022902D003291BD113E0154A4068C0
:10F8C0002421926841438F18397D002911D001F01D
:10F8D000A3F9002038750CE024277843C01802757E
:10F8E000006A03E00B4900228B680869471CF3D1CA
:10F8F00008617078A042D1D128466D1EEDB2002873
:10F90000C6D1044801690098814201D00120F8BDA8
:10F910000020F8BD3C290020F8B5044638480027EF
:10F920000169009146785CE03548F100C2688D18A5
:10F9300051E0601C07D0324A24209268604321467F
:10F940008018046A24E02878182141436A68401C22
:10F95000C0B252182870A978884200D12F70284B65
:10F96000516824209B684843C0181378012B34D178
:10F97000037D002B31D193688360D368C360136922
:10F9800003615269C2611E4A5279002A00D0876021
:10F990001B4B82685B6996469C46D31A1A02194B28
:10F9A000120A9A4202D2C368D21808E0724663462D
:10F9B0009A1A1202C368120A934202D99A1A426032
:10F9C00000E0476087600122C7600275921E0262F4
:10F9D000084601F0EFF8601CABD1287869788842BE
:10F9E000A7D13046761EF6B200289DD104480169A1
:10F9F0000098814201D00120F8BD0020F8BD000030
:10FA00003C290020FFFF7F0096B001F07DF93F4ABE
:10FA10003F490320FEF7E4F8002803D000221146F6
:10FA2000FCF754FF01A90020FDF7C2FF002803D016
:10FA300000221146FCF74AFF6846007902285BD095
:10FA4000002168460170FDF7C7FE68460078FEF7A2
:10FA50007FFDFFF795FC302101A8FCF7CEFB0221CA
:10FA600068460171012484710621C17103258582D4
:10FA70002848069020210DA8FCF7BFFB08A80477B2
:10FA8000FF202D301090B42000241190224B0DAA9D
:10FA90002146009401A8FDF771F9002803D0002247
:10FAA0001146FCF713FF00F0C9FE00F033FE1C21E5
:10FAB0006846FCF7A2FB0520C00301900F2000045C
:10FAC0000290009468460573144881896846C18194
:10FAD000047413480590134806906846FDF7C6FB6A
:10FAE000002803D000221146FCF7F0FEFDF724F8B1
:10FAF0000220FDF771FA02E00121A2E748DF0028A9
:10FB0000FCD000221146FCF7E1FEF7E741DB0100E3
:10FB1000CD0C00003828002049FE0100102D0020E7
:10FB20006DFE01008DE2010070B5054600790E46BC
:10FB3000801C1446C0B21178821C8A181F2A01D971
:10FB40000C2070BD0A46491C2170401CB05420781E
:10FB5000FF22411C2170325420788119288801F03D
:10FB60001DF921784018C0B22070AA88002A09D057
:10FB7000A968002908D08019FCF718FB207829799A
:10FB800040182070002070BD072070BDF8B51478B3
:10FB90000746A01C15460E461F2803D87878801CFF
:10FBA0001F2801D90C20F8BD1D20001B80B269461A
:10FBB000864608803019801C7DDF0028F3D1387814
:10FBC000022805D168460088704501D8092107E060
:10FBD00078780821002801D0704501D9684600884E
:10FBE000421C3255641CE2B2B1542978801C0818BA
:10FBF00028700020F8BD00207047002070470020CA
:10FC00007047000031B5054C04E0401E00902046CE
:10FC1000FCF760FA00980028F7D138BDE703000030
:10FC20008207D30EFF229A408907090E10B599402A
:10FC300000280BDA03071B0F083B9C080C4BA400A1
:10FC4000E318DC6994430C43DC6107E08408094B4A
:10FC5000A400E418236893430B432360C106C90E34
:10FC600001208840044908600449086010BD000074
:10FC700000ED00E000E400E080E200E000E100E0F0
:10FC800070B50D46064600F0E7F90124002830461D
:10FC900018D0FEF745F91849001F08184030007BBE
:10FCA0008009032802D0012805D006E01348006926
:10FCB000B440204201D1022100E00321304600F08F
:10FCC000A9F870BD00F0D4F90028FAD03046FEF74C
:10FCD00027F98100CA1D0A4BF932C9180B6992B283
:10FCE00023430B610749511800220A60002DE8D018
:10FCF00084400548446070BD50300020000500502D
:10FD0000006500400060004000630040F8B5204FEF
:10FD10000D46044638192C2141560026C8171346B3
:10FD2000401C01D0082630E0EA7819462046FEF74C
:10FD3000D1F8411C28D0174BAA78A100C918002A75
:10FD400003D00A6802239A4301E06A7892000A60AD
:10FD5000E978002910D082000F482978101802692C
:10FD60000E4B1A400261E206D20C8907890B0A4346
:10FD700001690A43026108E0381840302A78017AA4
:10FD800092011143017200E004263046F8BD0000E4
:10FD9000503000200007005000650040FFE0FCFFED
:10FDA00003490969C140C807C00F00D0012070474E
:10FDB0000005005070B5114D2878002801D00820AA
:10FDC00070BD0020411E2A182032401CC0B21173A1
:10FDD0002028F8D300242046FEF76EF8641CE4B215
:10FDE0000A2CF8D301210620FFF71AFF012004494D
:10FDF000C007486001202870002070BD50300020EE
:10FE00000063004002480078002800D001207047BD
:10FE100050300020820006481018026803231B049B
:10FE20009A430260026809040A43026070470000B6
:10FE300000070050034940180068012800D0002046
:10FE4000704700000060004010B500280AD002286A
:10FE500007D1FDF7B7FE002803D000221146FCF7BA
:10FE600035FD10BD00F086FD10BD000010B5007816
:10FE7000002809D105483B21808876DF002803D07F
:10FE800000221146FCF722FD10BD000000280020D2
:10FE9000F0B58BB004460227684607730026099622
:10FEA0008784C68408A80A900D46A18A208809AADA
:10FEB000A5DF002804D0E16A00291AD0884718E09D
:10FEC0006846008CC007C00F13D0684606822088A1
:10FED00003A9A8DF002813D1A97E28461B300122E0
:10FEE0000B00FCF73BFB09460F1C2227292C442E54
:10FEF0004600FF20FE3069460882208803A9A8DF5B
:10FF00000BB0F0BD6B461E700BE006221EE069468A
:10FF10000A71029027E0204690470020F0E76B46E8
:10FF20001A702B8B022BF2D2EFE7684607706946F6
:10FF3000A26AF0E7032000E00420694612E00520F1
:10FF4000FBE7298B032905D2032208212046FDF770
:10FF500091FAD5E741780278080210436946888013
:10FF600003D006200870A26AD5E70720FAE7092027
:10FF7000E3E70322EAE7000010B51D4A1D4903002C
:10FF8000FCF7ECFA05040B31202712004878012811
:10FF90001FD0022808D1032005E04878002804D0AB
:10FFA000032801D10220487010BD134B04201860B3
:10FFB000124B012018609368D2689A42F3D0FCF784
:10FFC000E9FA10BD4878012806D0022804D0032899
:10FFD000F7D1FCF717FB10BD9068D1688142EED1D4
:10FFE000FCF7FEFA10BD48780128E8D010BD0000EB
:10FFF0004030002010290020002500400020004053
:020000040002F8
:100000000021425C002A01D001207047491C0629CA
:10001000F7D300207047000070B505461C200D493D
:1000200068434418204611300621FCF7E6F82046C4
:100030001021FCF7E2F8FF2121740020A176C043D3
:100040002083284600F0B0FE024A0020A9001C3A96
:10005000505070BDFC2E0020044908182C21415638
:10006000042901DB01207047002070475030002038
:10007000044908182C214156042901D20120704757
:10008000002070475030002070B50D00044604D1A8
:10009000002211461046FCF719FC002C04D1002266
:1000A00011461046FCF712FC2878207069886170B0
:1000B000090AA170A988E170090A2171E8886071B4
:1000C000000AA07170BD000007490978002906D018
:1000D000002806D0054949780160002070470820B3
:1000E00070470E207047000018290020A43000201F
:1000F00030B5124B1B78002B07D0002807D0002A00
:1001000005D00468002C12D103E0082030BD0E2079
:1001100030BD0B4B1D68002D09D04568188941433F
:1001200069185D89454358682818884201D8072016
:1001300030BD14600020516030BD0000182900203F
:1001400070310020F8B505461B480F46007800289E
:1001500005D0002D05D02868002820D103E0082014
:10016000F8BD0E20F8BD154C00262068002816D0DA
:1001700060892189484361684118686881420ED9C5
:10018000FFF76EFB00280CD029686868090109197F
:100190004A680989801AFBF7F3FF002903D007207A
:1001A000F8BD1020F8BD3B460022294604200096E9
:1001B000FDF7AEFFF8BD00001829002070310020C7
:1001C00010B507484469601C06D000F00BF80146E2
:1001D0002046FBF7D5FF10BD01200007406910BD88
:1001E0000010001001200007006980B27047000075
:1001F000F8B50024184D194EAC806C7034707470D2
:10020000B47027463846FDF773FF7F1C0A2FF9D3D9
:100210006C80FFF7D5FF871EFFF7E4FF47430F48C9
:10022000AF60AC80CC3004600481848144810820BC
:100230006870FFF7D7FF0746FFF7C2FF441EFFF7BE
:10024000D1FF60433946FBF79BFF28DF002802D12E
:100250000121B1702970F8BD18290020A4300020B8
:10026000FFB5264881B000781F4616460D46002887
:1002700008D0002D09D00198002806D02868002851
:1002800018D104E0082005B0F0BD0E20FBE71C4C9F
:10029000206800280ED0618920896268414389184E
:1002A0006A68914206D9002E04D0B04202D3F119F7
:1002B000814201D90720E6E70198FFF7D1FA00282B
:1002C0001AD03846FFF7CCFA002815D06868FFF737
:1002D000C7FA002810D068683246C1190198FBF7A8
:1002E00065FF009628680022000124580321284653
:1002F000019BA0470020C6E71020C4E71829002072
:1003000070310020F8B5374D044628780E46002895
:100310002ED0002C2ED0002E2CD02068002829D0E2
:10032000FFF760FF0146A088814228D3102826D31A
:10033000E088002823D0FFF743FF471EFFF752FF56
:100340004743E088A1884843A9684018874216D3EC
:10035000FFF748FF0146E088A288504381420BDA4C
:10036000FFF740FFA188FBF70BFF002907D103E04F
:100370000820F8BD0E20F8BD2079800701D00720A5
:10038000F8BD688801281BD03060174FA9680201AA
:10039000D019716041602168B950A1880181E1885C
:1003A0004181A088E188002648430446761CB6B205
:1003B000FFF718FFA04205D2FFF714FF241A02E04E
:1003C0000420F8BD0024FFF70DFFA9684018A860BD
:1003D000002CEBD168880101C9198E81401C68800E
:1003E0000020F8BD1829002070310020F8B504461F
:1003F00020481E46007815460F46002807D0002FDB
:1004000007D0002C05D02068002817D103E0082071
:10041000F8BD0E20F8BD1848016800290ED04289A9
:10042000018940684A4310186268904206D9002D3D
:1004300004D0A94202D3A819884201D90720F8BDE7
:100440003846FFF70DFA002811D03046FFF708FABA
:1004500000280CD06068FFF703FA002807D02B466D
:100460003A46214602200096FDF752FEF8BD1020C4
:10047000F8BD00001829002070310020F8B50746AB
:100480000020464E8646B07801281ED10020444BFD
:10049000B0705A78082A19D0344625781421694357
:1004A0000C19022F20D0032F0FD16079401CC0B24D
:1004B0006071241D03286AD0FDF78AFD002804D04E
:1004C000112802D02146FCF737FAF8BD022F09D0D7
:1004D0001870FDF7F9FD0028F7D031781422514348
:1004E000891959E05870F4E72D498B885B1C9EB23E
:1004F0008E802379241D022B05D16788B102B94271
:1005000001D3012100E000218C46052B01D1072AEF
:1005100003D00021042B02D003E00121FAE7072ACF
:1005200003D00027042B02D007E00127FAE76488F4
:10053000B302A34201D3002A27D00022394311433A
:100540006246114317D0164A14495070908048787B
:10055000401E4870681CC0B208700A2801D30A38CF
:1005600008701420684341187046091DFCF7E4F92F
:100570002846FDF7BDFDFDF7A7FD0028A5D00749DA
:1005800014230A785A43511806E00122D6E730783E
:100590001421484381190D20091D94E7A43000203F
:1005A00018290020F8B5044620481E460078154654
:1005B0000F46002807D0002F07D0002C05D0206858
:1005C000002817D103E00820F8BD0E20F8BD184818
:1005D000016800290ED04289018940684A431018F9
:1005E0006268904206D9002D04D0A94202D3A8190E
:1005F000884201D90720F8BD3846FFF731F90028B5
:1006000011D03046FFF72CF900280CD06068FFF7B6
:1006100027F9002807D02B463A46214605200096A8
:10062000FDF776FDF8BD1020F8BD00001829002068
:100630007031002010B5134813498088884207D0D4
:10064000132176DF05E000221146FCF73FF902E0B6
:1006500074DF0028F7D10020FDF7B4FA002803D09A
:1006600000221146FCF732F9FCF772FE002803D095
:1006700000221146FCF72AF9FF20F530FFF7C2FAF5
:1006800010BD000000280020FFFF000010B5074843
:100690000078002809D005480549303000F074F88A
:1006A00081B203487038FDF76DF810BD00280020B6
:1006B000802D002070B501240B49600408600B49AF
:1006C00040108860094940398860094D6C602F20CE
:1006D000FBF710FDAC60074D00242F206C61FBF789
:1006E00009FD2C7170BD000080E100E04013014065
:1006F000001001403C29002010B504480122417837
:10070000514041700248FDF754F810BD0028002008
:10071000102D002070B514480124512164258460F7
:1007200022C004711049114800F022F80E488C21B3
:1007300010300160FF212D3141600A2181600026C7
:10074000067301460948083000F012F80648FF21F8
:1007500020300560F531846041600673014603482E
:10076000103000F005F870BD602D0020202800201A
:100770000A7B002A03D049680160002102E0096871
:10078000016001210171704710B504798B6802681E
:10079000002C08D049688C1A9C4201D9D11807E076
:1007A0000160002108E00968541A9C4202D9D11A5C
:1007B000016002E0016001210171006810BDF7B520
:1007C00082B002981446806A0F46002833D00298FF
:1007D00000252030009028E00298816A0C206843B0
:1007E0000E18217830794A1C2270C01C7854207869
:1007F0001622411C21703A542078C119308800F02B
:10080000CDFA21784018C0B22070B288002A09D0F1
:10081000B16800290FD0C019FBF7C8FC20783179E6
:10082000401820706D1C0098EDB2007BA842D3D810
:10083000002005B0F0BD0720FBE7000030B59FB0F9
:10084000032118A80175142110A8FBF7D6FC002479
:10085000012510A8109405711DA81290601C0107B5
:10086000090F10A81031017344738473601C0107D1
:10087000090F10A81031C1730020014610A801749F
:1008800001463348FCF728FF002803D00022114618
:10089000FCF71CF8142115A8FBF7AFFC012001465A
:1008A00018A8103141700120014618A8103181703C
:1008B0000020014618A8C1700120014618A8103177
:1008C000017110A815940576642118A81794017079
:1008D0001F4815A91838FCF77FFC002803D0002218
:1008E0001146FBF7F3FF40216846FBF786FC19A190
:1008F0006846FCF761FF0120014608A81031017726
:100900000020014608A841776846FCF7E3FD00286F
:1009100003D000221146FBF7D9FF13481B901A940D
:100920001C9410A805850A481AA98030FCF718FD08
:10093000002803D000221146FBF7C8FF0B48FDF743
:10094000B9FE0B488078FDF73DFE1FB030BD0000BA
:10095000102D00204E6F7264696353656D69636F7B
:100960006E647563746F7200E1E501003506020084
:100970000028002010B50020FDF724F9002803D03E
:1009800000221146FBF7A2FFFDF770F8002803D004
:1009900000221146FBF79AFF3CDF002803D000221B
:1009A0001146FBF793FF10BD10B508461146C0462F
:1009B000C04610BD002803D00249C860002070471F
:1009C0000E2070476829002070B5002901D08C07DF
:1009D00001D0072070BD064C0125A1606280054949
:1009E000636010DF0028F5D1257016202EDF70BD62
:1009F00068290020A9090200002803D002490861E3
:100A0000002070470E2070476829002000207047A2
:100A1000FFB581B0484C0E46039F049A05466178A5
:100A200003201743002903D1002F0DD0012161704D
:100A3000039AC9B2920000920B00FBF78FFD072CBE
:100A4000071B2E465D6C2C000221F0E7FFF7CAFB66
:100A50008708FFF7C7FB70430546FFF7B1FB461E4B
:100A6000FFF7C0FB70433A46294629DF002812D120
:100A700002210FE0304628DF00280CD1039900291D
:100A800001D0032106E00499002917D1297804290F
:100A900050D018E0617005B0F0BDFFF791FB471E24
:100AA000FFF7A0FB4743FFF79DFB70433946039ACE
:100AB00029DF0028EFD10499002901D00421E9E7BA
:100AC0002978042925D00521E4E7FFF779FB471EA3
:100AD000FFF788FB47436888391800980F18FFF71D
:100AE00081FB6988704341180098049A08183946B8
:100AF00029DF0028E4D0CEE7FFF774FB00997043AC
:100B0000401869888A08296929DF0028C3D1002F85
:100B100010D00621BEE7FFF765FB0646FFF750FB46
:100B2000451EFFF75FFB68433146FBF729FB28DFD3
:100B30000028B0D10721ADE71829002010B50446E0
:100B4000FFF79CFC2046FCF707FA10BD70B50C00BF
:100B5000054604D1002211461046FBF7B7FE002DD2
:100B600004D1002211461046FBF7B0FE2078287011
:100B70002088FF2109020840000A687020680902E5
:100B80000840000CA8702068000EE87020792871D9
:100B9000207A68712089000AA871A068000CE871A9
:100BA00070BD000001200249000508607047000088
:100BB00000E200E0F0B5174F2421BC6841430D1955
:100BC00039694A1C09D024224A4316196B68726895
:100BD000934204D8D21A726029623861F0BD0A4685
:100BE00002E00A46396A9B1B4E1C0BD024264E435A
:100BF00037197E689E42F4D324264E43361977680F
:100C0000FF1A77606B60296224214A431119086238
:100C1000F0BD00003C29002070B5194C2269A56880
:100C20001346114606E0814207D00A462426714346
:100C30004919096A4E1CF6D170BD002EFCD08A42BB
:100C40000CD1242043435819006A2061401C05D16F
:100C50000C4B0120986000236361607124204143A4
:100C60004819242341685A43006A52191062421CF1
:100C7000E2D024225043401942685118416070BDAF
:100C80003C29002000100140F8B51D4C2569681C66
:100C900035D01C48002640686169401A07023F0AA7
:100CA00019E024204543A0682A185068B84214D897
:100CB000A3693F1A8619156A002B09D0D16990697A
:100CC0009847002807D000221146FBF7FFFD02E0FD
:100CD0009169D0698847681CE3D1A178E0788142A6
:100CE00006D1401CC0B2E070022801D10020E070A3
:100CF00003490006800D1C310E50FFF753FFF8BD6D
:100D00003C2900200015014008B500201D4B05229C
:100D100009210090FBF748FE002803D0002211466D
:100D2000FBF7D4FD184A01211848FBF717FE0028ED
:100D300003D000221146FBF7C9FD1448144A0121D3
:100D4000001DFBF70BFE002803D000221146FBF725
:100D5000BDFD0E480F4A01210830FBF7FFFD0028BA
:100D600003D000221146FBF7B1FD08480A4A0121D1
:100D70000C30FBF7F3FD002803D000221146FBF7EF
:100D8000A5FD08BD80290020DDCC01001028002031
:100D9000E5F501008D060200F90602000870000A60
:100DA00048700220704700000121814002484268DB
:100DB0008A43426070470000F828002038B5154982
:100DC000154A488890420FD04A78144C521CD2B22F
:100DD0004A70237B934208D3083175DF002803D083
:100DE000A169002900D0884738BD00254D70217CBD
:100DF000002907D03B2176DF002803D0A169002914
:100E000000D0884761690029EED0684605708847A0
:100E100038BD00008C280020FFFF0000C42E0020F9
:100E200012494868C005C00D19D0103840B20028DA
:100E300007DA0207120F083A920892005118C9699E
:100E400004E081080A4A8900891809688007C00EF1
:100E5000C1400806800F012803D0032803D00220D8
:100E600070470020704701207047000000ED00E04F
:100E700000E400E042788378521C934200D10022C3
:100E80000378934201D1002070470A60416840789E
:100E90001822504308187047F8B51546069C1E46A0
:100EA00007460222009400F00AF8002806D13346D3
:100EB000102229463846009400F001F8F8BDFFB52D
:100EC00083B0074600200C9C8646267805463AE00B
:100ED0007868A90041180A88684682804988C180DC
:100EE0000022694601A865DF002810D16846017814
:100EF0000598814226D17046002801D0002200E0EA
:100F000002222078891841181F2902D90C2007B025
:100F1000F0BD7146002908D1401CC0B2411C069B9F
:100F2000049A21701A5401208646217806980A18DE
:100F3000694601A865DF0028E9D16946207809786B
:100F4000401820706D1C3888A842C1DC704600280B
:100F500004D020780699801B401E88550020D6E7D3
:100F60000179002902D1007B002800D001207047C0
:100F70001100000012000000130000001400000027
:100F80001100030079DA01001200030079DA010090
:100F90001300030079DA01001400030079DA01007C
:100FA00023D1BCEA5F782315DEEF121200000000A7
:100FB000FFFFFFFFFFFB0100D5F40100F1F301008B
:100FC00091F50100FBFB0100A5F40100EDF3010028
:100FD00089F50100F7FB0100F5F30100E9F30100D9
:100FE00081F5010003000000081002000028002025
:100FF000800100005CC201002C100200802900204A
:101000004010000086C5010042010333FFFF0C328F
:101010000D1801000F1801000A1801039BFFFF02C1
:0C1020005001041BB1E6011424F4000090
:040000050001C0C175
:00000001FF
