:020000040001F9
:108000005031002059810100738101007581010008
:108010000000000000000000000000000000000060
:108020000000000000000000000000007781010057
:108030000000000000000000798101007B81010048
:108040007D8101007D810100918401007D8101001D
:108050007D81010000000000A98201007D810100F6
:108060007D8101007D8101007D8101007D81010014
:108070007D8101007D8101007D8101007D81010004
:108080007D810100A58301007D8101007D810100CA
:10809000C58301007D810100198401007D810100FB
:1080A0007D8101007D8101000000000000000000D2
:1080B00000000000000000000000000000000000C0
:1080C0000348854600F0C0F800480047C5B80100E5
:1080D00050310020401E00BF00BF00BF00BF00BFE6
:1080E00000BF00BF00BF00BF00BF00BF00BFF1D195
:1080F00070470000401E00BF00BF00BF00BF00BFB0
:1081000000BF00BF00BF00BF00BF00BF00BFF1D174
:1081100070470000056885F3088846680A4AEFF34F
:1081200005839A42304602D1084CA6463047074C98
:10813000064D0646064FF0B4034C034D024E024F67
:10814000F0B404480047000000000000FFFFFFFFFC
:1081500000000021F9FFFFFF0321094802680A43DC
:108160000260084802680A430260074880470748DF
:108170000047FEE7FEE7FEE7FEE7FEE7FEE700005A
:1081800024050040540500403D840100C1800100E9
:1081900030B50B46014600202022012409E00D469F
:1081A000D5409D4205D31D469540491B2546954027
:1081B00040191546521E002DF1DC30BD10B5431A92
:1081C000934209D28318881803E0401E01785B1E91
:1081D0001970521EF9D210BD03460B439B0703D002
:1081E00009E008C9121F08C0042AFAD203E00B787C
:1081F0000370401C491C521EF9D210BDD2B201E0DE
:108200000270401C491EFBD270470022F6E710B5F1
:1082100013460A4604461946FFF7F0FF204610BDF4
:10822000421C0178401C0029FBD1801A704730B5F0
:1082300004460020034600E05B1C934203D2E05C4E
:10824000CD5C401BF8D030BD064C0125064E05E044
:10825000E36807CC2B430C3C98471034B442F7D367
:10826000FFF732FF50CC010070CC010030B58C1804
:108270000278401C13071B0F01D10378401C120920
:1082800006D10278401C03E005780D70401C491CA3
:108290005B1EF9D101E00B70491C521EFBD1A142BB
:1082A000E6D3002030BD0000F0B52A4885B004694F
:1082B00029480021C1630E46284F45E01420796803
:1082C000704345180120B968B04008423AD00020F8
:1082D00000900390E8682968C04360400840014668
:1082E0000290284604F036F81A4800692968604070
:1082F000084016D0224642400192E868C0435040F0
:10830000084001460090284604F024F8019A00989D
:10831000A9689043014003910098696802401140A8
:1083200000910298A968A04301400398029A014372
:10833000686822401040009A104302460A4301D068
:108340002A699047761CF6B278788642B6D305B093
:10835000F0BD0000000500504061004038210020C1
:108360008307FF22DB0E9A408907090E99400028F7
:108370000BDA0007000F0838830808489B0018181C
:10838000C36993430B43C3617047830804489B0050
:108390001B181868904308431860704700ED00E010
:1083A00000E400E010B506490020086048608860DD
:1083B000C860034940390860486004F09BFA10BD6A
:1083C00040110140FEB50020C043124D0290686983
:1083D000019068462E6902F0F5FE074603F0B0F9F9
:1083E0000446002F08D002AA0199009802F00AFF63
:1083F000029803F0EFF906E0029803F0EBF9002889
:1084000001D1002C02D0304601F022FE002068711C
:10841000FEBD00004421002010B507484068002838
:1084200007D08047002803D00022114600F03EFA12
:1084300010BD03F001F910BD7021002010B503F04C
:1084400049F9002805D00E490C484860C8130D4969
:1084500088610D48018CC9B201290ED1818C0907B0
:108460000BD1018D0906090F042906D1808D000664
:10847000000F02D105490120886010BDDFFF07C051
:1084800000050040006C0040C00F00F000060040F6
:108490007CB51B4CA0681B4E0025002818D0A56099
:1084A00019488069C1B2194800F023FA002805D0A4
:1084B00001216A4611700190684607E013488168FF
:1084C000C068401A012803D168460570B168884722
:1084D000E069002803D0E561032003F075FB606AC2
:1084E00000280BD0656208498039086808600221BD
:1084F0006A4611700190B168684688477CBD0000EB
:108500000021004008210020002500401428002000
:1085100030B47446641E2578641CAB4200D21D46FC
:10852000635D5B00E31830BC184702E008C8121F07
:1085300008C1002AFAD170477047002001E001C14C
:10854000121F002AFBD1704738B50D4C6078022805
:1085500002D00C490120886069460B4800F0B8F948
:10856000002802D000F016F838BD0848802181604C
:108570006A46074B1278DA6102226270416038BDA8
:108580000821002000200040242800200023004073
:10859000002500401CB506490120C8600549487007
:1085A00003206A4610708968684688471CBD000031
:1085B00000200040082100200449002048700449A0
:1085C0000122CA604A600349086070470821002000
:1085D0000020004000250040F7B582B00025064687
:1085E000157000781446002805D03046039903F032
:1085F000F7F9050008D1B07800281ED02078039F35
:10860000001D1F2802D90C2005B0F0BD684679DF97
:108610000028F9D121780322481C20707A5421784F
:108620001922481C20707A542078C11968460088A5
:1086300004F0EAF92178401820702078039A411C50
:1086400002232170135420780399471C01222770BC
:108650000A542078F278471C039927700A547068EE
:10866000002815D00021415620788C460246C01CB7
:1086700003991F28C7D8501C20708B5422780A23D6
:10868000501C20708B5420786246431C23700A547F
:108690003089002809D03046009406220221083093
:1086A000039B04F02FFA0500AED1308A002809D0D0
:1086B00030460094072203211030039B04F022FA75
:1086C0000500A1D1308B002809D030460094152236
:1086D00014211830039B04F015FA050094D1306A78
:1086E000002805D02246039901F004FD05008BD136
:1086F000706A002805D02246039903F03FF905006F
:1087000082D12C20805D002806D022463046039975
:1087100003F0A5FE0500C7D1284675E710B594B053
:1087200030216846FFF771FD02216846017001247F
:1087300084700621C1700321018212480590002136
:10874000684600F097FB002803D00022114600F095
:10875000ADF820210CA8FFF758FD08A80476FF20EB
:108760002D300F90B42010900023074A0CA96846C2
:1087700000F0AEFB002803D00022114600F096F86E
:1087800014B010BD3820002075BA010004484268BA
:108790000121C9050B46934383600A40C2607047BC
:1087A0000005005010B505484168002903D0407805
:1087B00000F0FCF810BD082010BD000020210020B2
:1087C000F8B50B46052A01D20720F8BD1349144D10
:1087D00048600B708A60002101240BE0DA00121857
:1087E00016789778B600BF0076193760167822465B
:1087F000B24011431A465B1EDBB2002AEED1074895
:10880000084B0A46401C00F01BF90028DDD1034844
:10881000054A00210C3000F04BF9F8BD2021002062
:108820000007005075B401003DA201003EB50446AA
:1088300004200190184802906946204601F0DAFFB2
:10884000002807D01549884203D00022114600F0C5
:108850002DF83EBD10480C38017BC90716D0104AD0
:108860000C218088A7DF002810D00E4988420DD047
:1088700008280BD0891C884208D0112806D00A4944
:10888000884203D00022114600F010F8204601F083
:1088900067FF0028D9D13EBD0C2000204080000099
:1088A000FFFF00000230000001340000BFF34F8FD3
:1088B00003490248C860BFF34F8FFEE70400FA0582
:1088C00000ED00E0014B1B6818470000F027002076
:1088D0008268C36893420AD0826883881A4003681A
:1088E0009A5C0A708168491C8160002070470520ED
:1088F00070478268C3689B1A8288934208D8C3680D
:1089000013400268D154C168491CC16000207047FF
:108910000420704710B5002903D08A070024002ADC
:1089200001D0072010BD0F4A0B4651601070142172
:108930005470414318469460FFF767FC00200A49D1
:10894000C0438860094840210160094A1068FF233C
:108950001B0498430B041843106006480160002074
:1089600010BD0000382100200063004080E200E0DC
:1089700004E400E000E100E00A4B5A68002A04D059
:108980005B78984203D30720704708207047142370
:1089900058438018044A12690068024000200A60A7
:1089A000704700003821002000050050F0B51F4A34
:1089B0005168002904D05378984203D30720F0BDB2
:1089C0000820F0BD1A4B0025DD631A4B1C6997681F
:1089D000002F02D1184EDB057360012686403E430E
:1089E0009660142250434218D560002201230D588E
:1089F00093401D4215D01C4202D003252D0405E0F2
:108A000001256D044618F7681F43F7600B4B96006D
:108A1000F3181E6803273F04BE431E601E682E43E2
:108A20001E60521C202AE1D30020F0BD3821002016
:108A30004061004000050050006300400007005006
:108A4000F8B5114F84467D68002D07D0002B07D064
:108A500078783C78A04205D30420F8BD0820F8BD02
:108A60000720F8BD0E461424164344432E516419C2
:108A70002361A260616061460870411C797003F057
:108A800013F90020F8BD00003821002038B50C464D
:108A9000A268064B12019D5809786288009202462E
:108AA000204608302369A84738BD0000002900206F
:108AB00070B5114CA568002D06D0002A06D00028FC
:108AC00004D00023247809E0082070BD072070BD81
:108AD00024265E43AE5D002E04D05B1CA342F7DB70
:108AE000042070BD242401265C432E556419617056
:108AF000A2610360002070BD44210020FFB59807EB
:108B0000002481B01E4615460F4600280BD1002ECA
:108B100009D003F0FDFB22490A9888610F703246A4
:108B200000208E6008E0072005B0F0BD24234343F9
:108B3000D4549B181C75401CB842F7DB24204743D3
:108B4000BB19032048700F461846CB6019461830F1
:108B5000002218232E465E43D3005B181C705C7005
:108B60009D7058603018521C032AF5DB0020C0436A
:108B70003861BC70FC7001240A482405046003219C
:108B80001420FFF7EDFB08480460084C0198A06032
:108B900003211120FFF7E4FB606878610020C3E740
:108BA0004421002080E200E000E100E000150140E7
:108BB000FEB504461D48174682680D46002A0CD0B3
:108BC00001788C4201D2052D01D20720FEBD21463D
:108BD00024235943535C012B01D00820FEBD881883
:108BE000407801281DD0002603F050FFC0000F4937
:108BF0000190C9684018694603F072FF002812D03E
:108C0000012101700A49446049680830E2C00749FF
:108C10000198C96841180098487003F0F9FD0020D8
:108C2000FEBD2E46E0E70420FEBD000044210020EA
:108C300000150140F8B5144D0446A868002809D075
:108C400029788C4201D30720F8BD24216143405C80
:108C5000012801D00820F8BD03F018FFC600E8681D
:108C60006946301803F03CFF00280AD00221017049
:108C70004460E86831180098487003F0C9FD00208E
:108C8000F8BD0420F8BD00004421002010B5184CA8
:108C90000121002209042069FFF78AFF002803D080
:108CA00000221146FFF702FE01210022C90360697C
:108CB000FFF77EFF002803D000221146FFF7F6FDE4
:108CC00000220C49A069FFF773FF002803D000229F
:108CD0001146FFF7EBFD05210022C903E069FFF70C
:108CE00067FF002803D000221146FFF7DFFD10BD0B
:108CF0000020002066260000F0B50546007D002417
:108D000093B00E4600280DD0012001466846103170
:108D100003940173717B4173817BF92001406846A4
:108D2000891C81731C2104A8FFF76FFA6946087C2F
:108D300002210843694608742A7DEF21002A02D0E7
:108D40001022104300E008406A461074059407940E
:108D50000894287D002800D003A8099001270A94D0
:108D600010469771304A82800094B27B0270F27B89
:108D700042708078F9221040F722801C1040EF21C9
:108D800008404108490068468170317B0172142116
:108D90000BA8FFF73AFA01A80B9068460C9087865B
:108DA000C486078702A80F90A888AB1D0BAA04A948
:108DB000A2DF002835D1B068002830D0684687711E
:108DC0001A4981800094317C017000200146684678
:108DD00041708078F9210840F721801C0840EF217C
:108DE0000840410849006846817011A8B16800F048
:108DF00060FD064614210BA8FFF707FA01A80B90A7
:108E000068460C908686C486068711A80F902A466D
:108E1000E8880E320BA9A3DF002802D100E0EC8124
:108E2000002013B0F0BD0000192A0000082900003E
:108E300010B50C490C4803F0F7FAC1B2094868387C
:108E400000F012FA00280BD0082809D00749884200
:108E500006D00749884203D000221146FFF726FDBD
:108E600010BD00005025002020200020043000000C
:108E70000134000070B50C4692B000216A461170B2
:108E800007251171002809D0C17849070CD502A91E
:108E9000FFF7A2FB002808D102AE00E00026002C5C
:108EA0000ED0E078002802D0284612B070BD01AA8A
:108EB0000AA92046FFF790FB0028F6D10AAA00E095
:108EC0000022684603790178304672DFEDE7000042
:108ED00070B5040012D0002910D04A480025457111
:108EE0000361C26020224848FFF768F94648C1681C
:108EF000002905D00169002902D002E00E2070BDD2
:108F000005728169002902D0C169002900D1057567
:108F100000F0DCF83C494039084610380160203147
:108F2000816030213038FFF770F937482178803878
:108F30000170A1788170E178C170617841706269D7
:108F4000216942610161E268A168C26081600146F5
:108F5000E369A269CB618A61616A002917D0014681
:108F6000A0310246AC3241628A60636A1B880B8082
:108F7000616A436A898899800021436A04E0656ACE
:108F8000AD686D5C5554491C9D888D42F7D8A16A27
:108F900000291CD01C4A583211460C398A60816263
:108FA000A36A9B888B80A16A836A09881980002143
:108FB000836A04E0A56AAD686D5C5554491C9D88C0
:108FC0008D42F7D82C210A5D0F4960390A73216A56
:108FD000002909D00B4914310162226A52884A8063
:108FE000216A026A098811806168002904D0054954
:108FF000C91D416061684160034800218038FFF766
:1090000039FF70BD642000203026002010B5028892
:10901000204C102A15D00021112A15D0192A0FD161
:10902000807900280CD1607901281CD002282DD02D
:10903000032805D12171E2680846002A00D0904734
:1090400010BD8088208110BD617013490979A1711C
:10905000808821898842F6D1012012E02169002907
:10906000F1D0884710BDA079002809D009481930EF
:1090700002F0EEFD002803D0A079401EA071EBE7BE
:10908000022000F02BF80028E8D110BD022020714A
:109090000320F6E7642000203026002010B50228C7
:1090A00001D003280ED1084C207800280AD00020D7
:1090B0002070607900F012F8002803D0216900299F
:1090C00000D0884710BD00006420002010B50721A3
:1090D0000148FFF79AF810BD7C200020F0B5604CE5
:1090E00087B0607106A802F01DFE002879D10698AD
:1090F0000127002801D02770AFE0FFF7E7FF594DA7
:1091000000266878002808D06079012816D1E16827
:10911000002906D0E770072088476079012802D02F
:109120000CE0E67002E06878002805D04C48193061
:1091300002F08EFD002801D102206071287A0028FB
:1091400004D16079022801D103206071287D0028B4
:1091500004D16079032801D166712671E168002984
:109160000AD06079022801D0032805D12878002888
:1091700002D06078002814D0A67018216846FFF746
:1091800044F86846067001960672039660790128D5
:109190000BD0344F0426503F02280FD0032850D163
:1091A0002EE0A77006208847E7E72D481830019089
:1091B0006846077046820682277145E0288A69461C
:1091C0004882A88908822748503803F0FFFC00280D
:1091D00005D02878002802D06078002802D002202C
:1091E0002EE03BE00220694608721E480397803853
:1091F000C6700021FFF73EFE00282FD1267120E027
:10920000288B69460882A88B48821648503803F09C
:10921000DDFC002805D02878002802D060780028DE
:1092200001D003200CE00220694608720D48039724
:109230008038C6700021FFF71DFE00280ED10520E2
:1092400020716079002803D0684673DF002805D1BB
:10925000E168002901D020798847002007B0F0BDDF
:10926000642000203026002073B586B0044669468D
:10927000227C097F00208A4225D0002501266846ED
:1092800000950680458007A801902174E188608AD6
:109290006A46A4DF002816D1608A0D49884214D09E
:1092A000207D002811D00295039504950595E1884D
:1092B00068460181867241888181049001980590F9
:1092C000608A02A9A6DF08B070BD0820FBE7000095
:1092D000FFFF000038B50446086820600020C04346
:1092E000608208792075FF200D46207401216846B0
:1092F000817006490180221D69460120A0DF0028F7
:1093000003D129462046FFF7F7FC38BD0F180000AF
:1093100038B50A88102A1AD0112A1AD0502A1BD11F
:10932000027D002A18D0CA884389891D9A4213D128
:109330000A8B022A10D10268002A0DD0CB7E8C7EC7
:1093400019022143C907C90F07D0002106E0898807
:1093500001E00021C943418238BD01216B461970EB
:109360006946904738BD000070B5054601461C228D
:109370000F48FEF723FF0F4C0026267029680029AE
:1093800007D00822A018FEF719FF204608307ADF20
:1093900002E0084808307BDF002808D1401E6080CA
:1093A00004486670044A0021001DFFF781FB70BD70
:1093B000A82600208420002029CA0100F8B5224CEC
:1093C000028800271F4DE689102A16D029464968D1
:1093D000112A21D0122A2DD0502A1CD1C288801DDA
:1093E000B24218D1028B022A15D1C27E837E1002AE
:1093F0001843C007C00F0CD112E081886980014674
:109400001048082216311030FEF7D8FE6F70002E7B
:1094100001D100F0B7FEF8BD0020C04368806F7036
:109420000846FFF707FC0028F5D0A1690029F2D013
:109430008847F8BD811D034808221030FEF7BEFEA4
:10944000E7E7000084200020A826002010B502488D
:109450004068FFF7EFFB10BD8420002030B585B0D9
:109460000D46040039D0002D37D06868002834D06C
:109470000020C0431A4B20800FCB049301AB07C3DD
:1094800018486946088001A8811E63DF002822D1A0
:10949000221D69460120A0DF00281CD16846807883
:1094A000A071204601F0D2F8002814D1204601F026
:1094B00089F800280FD12946204601F009F9002833
:1094C00009D16868A062A868002800D0E062064957
:1094D00001200870002005B030BD0E20FBE7000021
:1094E0000CCC0100301500009C2000203EB5002867
:1094F00028D0002926D0826A002A23D00A88102A80
:1095000021D0112A30D0502A1FD0512A1AD10A4610
:109510000446891D0878022814D14888238A984275
:1095200010D1907A04280DD006280BD0052809D038
:109530002046891C02F0D4FA002803D0E16A0029F1
:1095400000D088473EBD898810E0CB8802899342CD
:10955000F8D108226B461A708A7F1A712031029165
:10956000826A694690473EBD0021C94301803EBDE5
:1095700030B585B0002822D00388134CA34220D0F8
:10958000124B1B78002B1CD0104B10255B1C1D7040
:109590005970002401259A70032269460A820094BA
:1095A000019402940394028A0A808D708C8004A92D
:1095B0000291039300886946A6DF05B030BD0E20F6
:1095C000FBE70820F9E70000FFFF00009C200020D7
:1095D0007FB504460121684681714A4981804A4A23
:1095E00001A90120A0DF00287ED1228825463C3534
:1095F000002A09D044482B46801C009043486168EB
:1096000000F00CFC00287BD12289002A0AD03E48B9
:109610002B460A3000903D48E168401F00F0FEFBF9
:1096200000286DD1228A002A0AD037482B461230F2
:10963000009036486169001F00F0F0FB00285FD100
:10964000228B002A0AD030482B461A3000902F482F
:10965000E169801E00F0E2FB002851D1228C002A33
:109660000AD029482B46223000902848616AC01E43
:1096700000F0D4FB002843D1228D002A0AD02248D2
:109680002B462A3000902148E16A401E00F0C6FBBC
:10969000002835D1216B00290ED002A803F08CF8E8
:1096A00019482B46323000901848082202A9801F22
:1096B00000F0B4FB002823D1606B00280BD01249C6
:1096C0002B463A310091027901681048401C00F0A5
:1096D000A5FB002814D1A16B002910D002A802F02C
:1096E00001FB0948423000E00AE0009007482B46A1
:1096F000072202A9273000F091FB002800D10020AA
:1097000004B070BD0A180000A4200020292A00001F
:1097100010B5044601F04AF92146114800F07EF8E0
:109720000F4821461838FFF7F3FD2046FFF746FEA5
:109730000B4821468030FFF7D9FE208810280BD136
:10974000072000F011FA002803D000221146FFF78D
:10975000ADF80449A08888802046FFF757FC10BD6B
:10976000002500200020002030B50446008C134A5C
:109770008BB090421FD006AA204601F019FF69461F
:1097800005460880002001900290039004902289F1
:109790008A8001228A71088106A803910490208C96
:1097A00001A9A6DF002804D169460988A94200D092
:1097B0000C200BB030BD0820FBE70000FFFF0000CD
:1097C00038B5044608682060087960710020C043FD
:1097D0000D4620840020222108554C2108530121E8
:1097E000684681700C490180A21D69460120A0DFF6
:1097F00000280FD12946204601F082FE002809D119
:10980000A868002805D02946204600F08DF80028D9
:1098100000D1002038BD00000D18000038B50A88BE
:10982000102A17D0112A17D0502A18D1CA88838934
:10983000891D9A4213D10A8B022A10D10268002A8C
:109840000DD0CB7E8C7E19022143C907C90F07D0EA
:10985000002106E0898801E00021C943018438BD68
:1098600001216B4619706946904738BD70B50546B1
:1098700004464035A8890E46142807D12622A1188F
:10988000881EFEF79BFCA889401EA88180B241007B
:109890000919401CA8818E8470BD203081707047EA
:1098A00070B504460D460846FEF7BAFC2080656098
:1098B00070BD0A780270497841700220704700003C
:1098C0001CB5002348221549082002F0B3FE0028E9
:1098D00003D000221146FEF7E9FF0020009001901E
:1098E000012069460870684660DF002803D0002226
:1098F0001146FEF7DBFF0A4802F092FE002803D073
:1099000000221146FEF7D2FF064802F0ABFE002807
:1099100003D000221146FEF7C9FF1CBD8C24002095
:1099200011970100A9C70100F0B58FB00D4606469A
:109930001C216846FEF769FC684601780220014355
:10994000684601700024019403940494059401274F
:1099500008A8069487701549684601840794E97B36
:109960000177297C4177807FF9210840F721801C0D
:109970000840EF21084041084900684681771421DA
:1099800009A8FEF742FC08A8099007A80A906846B3
:109990008785C4850786A8680D903346F088103304
:1099A00009AA6946A2DF0FB0F0BD0000382A000006
:1099B0001CB5044681786A460C4802F0C7F90028B5
:1099C00012D160781C21484309491C2340181A46CB
:1099D000694602F073FA064806494C30807A8000E6
:1099E0000A582146684690471CBD0000002100200F
:1099F000A427002030CC0100F8B5054608206946B0
:109A0000088001236A461D492846AADF1C480068D1
:109A10008047B12044DF002803D000221146FEF722
:109A200045FF11DF002803D000221146FEF73EFF5C
:109A3000144C606913DF002803D000221146FEF7A2
:109A400035FF284600F062FD01210F4A88051060AD
:109A50000E4802680D4B002080330D4685401542AC
:109A600004D0C606F60E0D46B5401D60401C2028E9
:109A7000F3D3606900F00CF8F8BD00004429002021
:109A8000682100200010001080E200E000E100E00A
:109A900010B5FEF73FFB10BD30B4002201290BD1F9
:109AA0000B49C968002907D00A4B94001C5984420D
:109AB00004D0521C042AF8D330BC7047042AFBD2CD
:109AC00003481030805C0028F6D030BC0847000006
:109AD00044200020DCCB010004280CD2074A126984
:109AE000074B80001B5C01209840904300D0012070
:109AF0000870002070470020FAE7000000050050C1
:109B0000DCCB0100F0B500210F4D01270F4A0323E4
:109B10001B048C002E593C468C40044207D0B400F4
:109B2000A41826689E43266026681E4305E0B400FC
:109B3000A41826689E43266026682660491C0429CE
:109B4000E7D30020F0BD0000DCCB0100000700508F
:109B500002460020042A02D2024B99547047072083
:109B6000704700005420002010B5054A0146127AC3
:109B70000020D20702D0084600F04AF810BD0000CD
:109B80004420002070B50E461C4905464E608D608D
:109B90000020CA60A90717D5002420460B30C1B2A7
:109BA0002046FFF7D5FF641C042C02D20028F4D015
:109BB0000AE0002808D1720804211148FEF700FECF
:109BC000002801D1FEF7EEFDE90706D00F220D496E
:109BD00052058A600023CB608A6100280DD10748B6
:109BE000094A00211430FEF763FF002805D103481D
:109BF000064A01211830FEF75BFF70BD44200020AB
:109C0000ECCB01000005005029B701008D87010051
:109C1000FEB5784906464F684B690093BB00FB18B8
:109C200000200122019352050546734C3300FEF7D4
:109C30006FFC180D13133749596C828E858E97A1CE
:109C4000A5A5A5A5A5C3C8CDD4DADA120B22520565
:109C5000A260E5600D70FEBD05208005A060E56096
:109C600060680F235B055840800209D5A260E5605B
:109C7000022E02D1E120C0000AE07D20400107E071
:109C8000E260A560022E01D1C82001E0FF209130E2
:109C90000E706421FEF77CFA78430022014646E00C
:109CA00005208005A060E56060680F235B055840D3
:109CB000800204D5A260E56019204001E8E7E26077
:109CC000A560E1E705208005A060E56060680F23DE
:109CD0005B055840800202D5A260E560CDE7E260F6
:109CE000A560D3E705208005A060E56060680F23CC
:109CF0005B055840800202D5A260E56001E0E260A9
:109D0000A5600E707900002211E005208005A0609A
:109D1000E56060680F235B055840800202D5A260B1
:109D2000E56001E0E260A5600E700022394600980F
:109D3000FEF73EFFFEBD05239B0544E06068012160
:109D400089050A468243A2600840E06010E061682D
:109D50000120800502468A43A2600140E160E4E7F9
:109D600061680120800502468A43A2600140E160EB
:109D70000199C8E70F214905E1601BE00F4688699A
:109D8000FEF758FF11218A1B1C4E01D0002802D07B
:109D9000A660E560FEBD012A0BD91046C8214843E4
:109DA0006421FEF7F5F9796800224143B869FEF7AE
:109DB000FFFEE660A560FEBD0F225205A260E560D1
:109DC00015E007239B05A360E5600EE00D22520518
:109DD000A260E5600122920507E00322D205A2609D
:109DE000E560921001E00F225205E260A5600E705E
:109DF000FEBD00004420002000050050000080004F
:109E0000012905D0002908D1027843681046184777
:109E1000037842680121184610477047FFB58FB09C
:109E20001E4615460F0004D1002211461046FEF7CB
:109E30003DFD002D04D1002211461046FEF736FDEF
:109E40001C216846FEF7E1F96846017802200143CB
:109E50006846017000240194039404940594012140
:109E600008A80694817068460F9901840794317898
:109E7000017771784177807FF9210840F721801CB4
:109E80000840EF21084041084900684681771421C5
:109E900009A8FEF7BAF908A8099007A80A90684629
:109EA0008585C485058604480D9709AA69460088FA
:109EB000189BA2DF13B0F0BDA4200020F8B53B49E9
:109EC00014230A780F205A43541821792569384EF3
:109ED000241D02291AD004292ED0052964D101F0AD
:109EE000AFFF01462846FEF753F9064601F0A8FFEA
:109EF0000146A08871434019401A870801F0A0FF6D
:109F0000711C4843A1886288891836E0B0882269AC
:109F1000800261881318091AA288281810180122D3
:109F20009202914203D28A08194629DF37E0FF22C4
:109F30000132194629DF32E0A2681C481101CC30F9
:109F4000091808894B894968A94203D16188584397
:109F500088421BD0022A19D001F072FF0146284620
:109F6000FEF716F9064601F06BFF7043281A8708C2
:109F700001F066FF711C484361883A464919401A4E
:109F800083083146204602F079FB08E001F058FFD3
:109F900001462846FEF7FCF8B188401828DF002863
:109FA00002D1024901228A70F8BD00003428002045
:109FB0001421002010B5084900204A78002A09D051
:109FC0008978002906D1FFF779FF002802D01128EF
:109FD00000D1002010BD000034280020142250437E
:109FE000054A002180180171C18001220161C2600F
:109FF000416101817047000034280020F8B5134CFE
:10A00000069E65780A2D1FD027787D19EDB20A2D9E
:10A0100001D30A3DEDB214277D432D19287100208C
:10A0200068716A6103C92961E860EB802E81A178BB
:10A030000020002904D1FFF741FF112800D10020A2
:10A040006178491C6170F8BD0420F8BD34280020F7
:10A05000F8B5224801694A1C3DD024225143826848
:10A0600089184E681E494C6847690079E11B0D024A
:10A070002D0AED1C002814D101201A4A000450605A
:10A08000184A403A50601849400008601749086073
:10A090001749012008602F20FEF72CF80F490120F6
:10A0A0000871B54200D23546E81900020C49000A91
:10A0B000403108600A494968001B091B0902090A66
:10A0C0000002000AC91C814204D90120064940044B
:10A0D00080390860F8BD02F01BF9F8BD442100206A
:10A0E000001501404013014080E200E000E100E083
:10A0F00000100140F8B50D4611780646881D14463B
:10A100001F2801D90C20F8BD33880720062BFAD36D
:10A110001927FF01BB4202D9164A9342F3D1728834
:10A12000062AF0D3BA4202D9124FBA42EBD1114FEC
:10A13000BB4203D0BA4201D09342E4D8481C052266
:10A1400020706A5420781222411C21702A542078F1
:10A150004119308802F058FC21784018C0B22070B4
:10A160004119708802F050FC2178401820700020BE
:10A17000F8BD0000FFFF000010B500221146FEF7F9
:10A1800095FB10BDF8B5164801F096FA144D00265F
:10A19000103D144C002807D0616900291BD0012014
:10A1A0006A461070684615E02878002805D0616975
:10A1B000002910D0684606700CE0687800280CD0A2
:10A1C000A16800226868FEF7F3FC002803D0A169AB
:10A1D000002900D088472E70F8BD6168F1E70000C3
:10A1E00094200020A826002070B5094B04469E7AD2
:10A1F000082000250E4207D00648844202D0188964
:10A20000A04202D10020156070BD052070BD000085
:10A21000E4270020FFFF00000C214843064910B549
:10A22000012240188272911E0181FF21C172072113
:10A23000FDF7EBFF10BD0000E4270020F8B5184D36
:10A2400069466878FEF798FB00281DD12F46002448
:10A250001037012615E06968E000401803783146A0
:10A260003A6899400A4210D04268002A0DD04178DD
:10A27000012901D1002100E00121FFF7C1FD641C8B
:10A28000E4B228788442E6D3F8BD7A680A42F6D070
:10A2900041680029F3D041780129EDD0EAE70000B8
:10A2A00020210020FEB50E46044681786A462348E8
:10A2B00001F04CFD002826D160780C21204F484346
:10A2C000C019807A40061FD4022E1DD0012E1DD049
:10A2D0001C4DA0781C2148431B49002341181C2217
:10A2E0006846A847002813D0022E0CD020780C21F5
:10A2F000484313490C314018807A144980000A58A9
:10A30000214668469047FEBD114DE2E7114DE0E75A
:10A31000022EF8D060780C214843C019817ABF2200
:10A320001140817260781C21484305494039411829
:10A330001C231A466846A847D8E7000000210020E1
:10A34000E427002079C60100E026002020CC01008F
:10A3500001C2010049C0010070B50546114A12480A
:10A3600000241C2363431B189B7EFF2B04D0641C1A
:10A37000072CF6D3104670BD0A78022A09D01C2299
:10A3800062431018FD22827607221030FDF716FF77
:10A3900004E01C2161430818FE2181762C70002204
:10A3A000E8E7000043800000E0260020F7B505251F
:10A3B0000F4F06460024002E0AD01C206043C0190F
:10A3C000072231461030FDF732FF002807D00AE09F
:10A3D0001C206043C019018B0298814203D101986F
:10A3E0000025046002E0641C072CE4D32846FEBD6F
:10A3F000E02600207CB5054681B26A46074801F098
:10A40000A5FC040008D17421684601F0C9FC0400D1
:10A4100002D1284601F028FC20467CBD0021002006
:10A4200070B505460C46100003D000221146FEF719
:10A430003DFA2078152802D12846FEF7F7F90020CA
:10A4400070BD00001FB501F001FD002803D00022FF
:10A450001146FEF72BFA03A90120FFF73DFB002868
:10A4600003D000221146FEF721FA03A800F006FDF2
:10A47000002803D000221146FEF718FA01A8052192
:10A480000130FDF7C2FE6946487901221043E121FF
:10A490000840DF210C300840694648710720887168
:10A4A0001020C871064800900A71064800F04EFE60
:10A4B000002803D000221146FEF7F8F91FBD000066
:10A4C00021A401000220002001B50549684600F0E2
:10A4D0004DFA002803D000221146FEF7E7F908BD27
:10A4E0006C21002010B5097800290AD0032201212F
:10A4F000FFF73EF8002803D000221146FEF7D6F9F8
:10A5000010BD0088FFF778FA10BD000000B58BB0D1
:10A5100000210091254900F07FFC002817D101A9F6
:10A52000224800F023FC002813D021491F4800F0E6
:10A5300007FD002803D000221146FEF7B7F91C489A
:10A5400000DF002803D000221146FEF7AFF90BB060
:10A5500000BD0299072216481031FDF72FFE14485E
:10A560001022C01D0299FDF729FE11481122183052
:10A570000199FDF723FE0E4801990A222A30123173
:10A58000FDF71CFE0A4800DF002803D00022114618
:10A59000FEF78CF90120009004200890684609908D
:10A5A00007A9024800F080F9CBE700006C210020E9
:10A5B0001029002070470000014908607047000022
:10A5C0006821002030B58FB005461C216846FDF794
:10A5D0001CFE69460878082108431022104369468A
:10A5E0000870002401940394049405940694A879B7
:10A5F00008A98870144869460884601C00070794FD
:10A60000000F0C7710304877887FF9210840F72138
:10A61000801C0840104301210843694688771421B3
:10A6200009A8FDF7F2FD08A8099007A80A90694655
:10A630008C851720CC8508860D942B46A88810336E
:10A6400009AAA2DF0FB030BD3115000030B58FB0C0
:10A6500005461C216846FDF7D8FD694608780421A7
:10A6600008436946087000240194039404940594F7
:10A670000694A87908A98870144869460884601C63
:10A6800000070794000F0C77103048778A7FF92075
:10A690000240F720921C0240EF20024001200243BA
:10A6A0008A77142109A8FDF7B0FD08A8099007A82A
:10A6B0000A9069468C851420CC8508860D942B461B
:10A6C000A888083309AAA2DF0FB030BD32150000F8
:10A6D000F0B58FB00F4605461C216846FDF795FD85
:10A6E00068460178022631430170002401940394E6
:10A6F000049405940694A97908A8817017496846BE
:10A700000184601C0107090F684610310794017726
:10A710000020014668464177817FF9200140F720FB
:10A72000891C0140EF2001400120014368468177E8
:10A73000142109A8FDF769FD08A8099007A80A9047
:10A7400068468685C48506860D972B46A8882033E3
:10A7500009AA6946A2DF0FB0F0BD00003415000061
:10A760003EB504461E4801781E48002930D0002C12
:10A770002FD0217800292BD11B49002509680029F9
:10A7800026D0A178072927D21C20184A48438018D0
:10A79000807EFF2820D012486A46103001F0D6FA99
:10A7A000002815D160230422694602A801F086FB27
:10A7B0000299491C0CD0602304220D49684601F01F
:10A7C0001FFD002804D1A178084A89001C3A555081
:10A7D0003EBD0448801D3EBD024808303EBD00001D
:10A7E000F020002008800000F0270020E026002054
:10A7F0001CCC01003EB50C4627490A782749002A9F
:10A8000030D08A1D002805D0002C03D00278002A01
:10A8100028D101E010463EBD214A1268002A21D00D
:10A820008178072920D21C221E4B4A43D218927EDF
:10A83000FF2A19D01B4AA3681C3A002B17D08900A5
:10A840005350817814486A46103001F07FFA00288E
:10A85000E1D160230422694602A801F02FFB002801
:10A8600009D016E008463EBD0C4808303EBD8900C0
:10A870005158A160E5E70298401C0AD064231022D9
:10A880006946A06801F01AFB0028EFD102996160C7
:10A890003EBD024838303EBDF02000200880000058
:10A8A000F0270020E0260020FEB5054629480C468A
:10A8B0000078294900281DD0881D002D19D0002CB2
:10A8C00017D0A268002A14D02878002812D1234873
:10A8D000006800280ED0A97807290DD21C20204A34
:10A8E00048438018807EFF2806D06068042806D27E
:10A8F0000720FEBD0846FEBD17480830FEBD1548BE
:10A90000184E6A46103001F021FA0028F6D1602373
:10A910000422694602A801F0D1FA002803D1029866
:10A92000401C00D0104E60230422211D6846B04711
:10A930000028E3D1642310226846A16801F060FC7E
:10A940000028DBD1AA78064B92001C3BA1689950E5
:10A95000FEBD0000F020002008800000F02700204D
:10A96000E026002049C0010001C201000C4A137812
:10A970000C4A002B11D0931D002905D0002803D0CC
:10A980000078002809D101E018467047064B1B6883
:10A99000002B02D00870002070471046704700005E
:10A9A000F020002008800000F0270020F0B50546C8
:10A9B00093B000200090FF24E7480E940078002810
:10A9C0004ED0E64E306800284AD001A800F048FA80
:10A9D000002803D000221146FDF768FF00200D90EB
:10A9E000281D05902A2168460183FF2181710021DD
:10A9F00001710391D94C28880C3C10280ED0A888EE
:10AA000003AA0221FFF7F0FB002807D103980C21CD
:10AA100041430919CA7A69468A7148712A88132004
:10AA2000CF4F172A7ED00FDC102A1BD0112A53D00B
:10AA3000132A78D0142A13D103980C214843001903
:10AA4000C07AFF2870D09FE0C649182A6DD01C2A12
:10AA500063D0522A04D1B07A8000095801A88847EF
:10AA600013B0F0BDC04E03AA01213046FFF7BCFB76
:10AA70000028F5D103990C20484302220019827264
:10AA800011236A4613745171A98801810722A91DF7
:10AA9000FDF794FB287DC10707D04108AE48083078
:10AAA000405CFF2808D00E9006E032460EA9A81D93
:10AAB000FFF77CFC002832D103990C22514309197D
:10AAC0000E98C8728A7A08231A438A726946887176
:10AAD00001A8FEF76DFF22E003980C2148430119FD
:10AAE000887AFD2210408872010706D5C0090DD072
:10AAF000002101A8FFF7D6FB08E068468079FF280F
:10AB000004D001F0B1F8FF206946887103980C2247
:10AB1000504310210019817212206946087404A95B
:10AB200001A803E08AE03FE011E0DAE00D9AFDF7CA
:10AB3000C9FE6846007C122892D103980C2141433B
:10AB40000919897A01298BD0FFF766FB88E7EA8922
:10AB50000EA90020FFF72AFC00280ED103990C2231
:10AB6000514309190E98C8728A7A08231A438A72C7
:10AB70006946887101A8FEF71BFF03980C21484322
:10AB80000019C07AFF2806D003981C214843734956
:10AB90004C394018009003981C214843C219A888DA
:10ABA0000023009982DF5BE769460874039B0C2051
:10ABB00058430119887A042210438872C87AFF2802
:10ABC0002ED01620694608742420434363481A2176
:10ABD000303818180830FDF718FB03980C2148434B
:10ABE0000019817A40221143817203990C224A4351
:10ABF00000200A901219D27A1C235A43D2190B92C0
:10AC0000564A59434C3A89180C900791089009907C
:10AC1000321DA88807AB00217FDF002896D17EE790
:10AC20000EA8FFF799FB0028DFD169460E988871BE
:10AC300003990C2251430919C872D6E7707A0C2186
:10AC40004008400070720398FB2341438C46091969
:10AC50008A7A6E461A408A7214233374AB79002BB9
:10AC600004D0C87AFFF7C6FBA87973E0EB795B07DD
:10AC7000D5D5B379FF2BD2D0082632438A72EA7A2F
:10AC8000920706D51C224243D219957E6D086D00AD
:10AC90009576CA7AFF2AC2D06246A25C022A0FD0F9
:10ACA0001C204343D81907221030FDF787FA684665
:10ACB00080791C214843C019817EFD2211400AE0A1
:10ACC0001C21484325494C394118498AC019018340
:10ACD000817E490849008176012101A8FFF7E2FA47
:10ACE0001DE7A8790209012A23D10007000F0128D6
:10ACF0001FD103980C2242431219927A120718D5D9
:10AD0000242148431549303940181A210830FDF7ED
:10AD10007CFA16206946087403980C2148430119EF
:10AD2000887A602210438872707A02210843707218
:10AD30000FE003980C2250430019827A80231A43B3
:10AD4000827215206A461074B07A8000095801A8F2
:10AD5000884700200D90E2E6F0200020F027002038
:10AD6000E026002040CC0100FFFF0000F0B50646C1
:10AD700025480C460078254989B000283FD0881D19
:10AD8000002E3AD0002C38D03078002837D1204817
:10AD900000250068002832D0B078072831D21C2165
:10ADA0001C4F4843C019807EFF282AD0E560B07848
:10ADB00065614843C01920611548A5600C3060608A
:10ADC0001148B17807AA103000F0C0FF002814D154
:10ADD0001C231A4607A9684601F070F800280CD118
:10ADE0000B49E5600C3165612161B1781C2251434A
:10ADF000C919A56061606946216009B0F0BD0846C7
:10AE0000FBE702480830F8E7F02000200880000047
:10AE1000F0270020E026002030B50446002903D0AA
:10AE20000878002814D101E00B4830BD0B480023FE
:10AE3000006800280CD0094AFF2088700C3A158958
:10AE40000520A542F1D14B70D07A8870002030BD2A
:10AE50000148801F30BD00000E800000F027002058
:10AE6000002806D0FF21017041708170C170002060
:10AE700070470148704700000E800000F0B585B0B3
:10AE8000040036D0294800250560457285722846A1
:10AE9000FFF7C2F9254824213038FDF7B6F900261E
:10AEA000FF27304600F0E0FE21488755761C072E2C
:10AEB000F7D37421684681800721C1801D481C4951
:10AEC00000900831684601F04BF800280FD1184E69
:10AED0000120083E3070207800280CD06946888810
:10AEE000C988484381B23046103000F059FF05B0A0
:10AEF000F0BD1148FBE7114F00240D48A1B202AA92
:10AF0000083000F023FF002809D11C206043C0193D
:10AF100000231C2202A900F0D1FF002801D03570C7
:10AF2000E5E7641C072CE8D3E1E70000F0270020E8
:10AF3000F8200020C1AF01000E800000E0260020B4
:10AF40000B4610B51A491B4A0978002920D0911DDB
:10AF5000002805D0002B03D00178002918D101E08A
:10AF6000084610BD14490968002911D0114A81789A
:10AF7000D21EFF290ED01C20414310480918887E9C
:10AF8000800705D4072218461031FDF717F9002273
:10AF9000104610BD4078FF28FAD00C2148430649DE
:10AFA0000C394118887A8007F2D507221846ECE759
:10AFB000F020002008800000F0270020E02600207C
:10AFC000FFB55D488FB00068189F1E46002875D0F9
:10AFD000742F73D86846FFF743FF002803D0002280
:10AFE0001146FDF763FC0024684604700471254691
:10AFF00005970696A9B20DAA504800F0A7FE0028B2
:10B0000006D108220DA90F98FDF711F9002817D0D5
:10B010006D1C072DEED368468578FF2D4ED0109815
:10B02000042810D046481C21301AFDF7B1F801273A
:10B0300007281ED204A80290119800280BD011E016
:10B0400068468570E7E7742F03D040206946087191
:10B050006CE02020FAE738463849A84010394968A2
:10B06000084261D0284601F0D5FC202069460871CD
:10B070004AE031481C214C38301AFDF789F8002885
:10B080001DD02D4824213038301AFDF781F80100F9
:10B090002C482CD040216A4611712B498E4245D054
:10B0A000274AA9001C3A5158B1423DD104A9029146
:10B0B000C07A854228D16846447025E034E004A86F
:10B0C000029020216846017144701B480A940C309C
:10B0D0000B9058380790684680781C2148431849DF
:10B0E0004018089007A80690182005900CE0302220
:10B0F00069460A714C70CF70807A800704D4114879
:10B1000024212438FDF781F810986946032808792E
:10B1100010D0022108436946087104A8029001A9D1
:10B120006846119AFDF7CEFB13B0F0BD6946087969
:10B130000321EFE73843EFE7F0270020002100204C
:10B14000E0260020E42700201CCC010070B5064654
:10B1500019480D46007800280ED01849002E0ED050
:10B16000002D0CD02868002809D0154C2168002932
:10B1700007D012480A3870BD1048801F70BD0846BD
:10B1800070BD20600522691D201DFDF717F8287984
:10B19000A072207A0221400840000843FB210840A9
:10B1A0002072E07901221043FD2210400840E07136
:10B1B0000020307070BD0000F02000200E800000E4
:10B1C000F027002010B50E4900238A78CC78A242DF
:10B1D00012D0521CD2B28A70022A00D18B708A78A7
:10B1E000074B92001C339A580260486910180002FD
:10B1F000000A4861012010BD0360002010BD00005E
:10B2000044210020F7B5144C0025A76823691EE0EF
:10B2100024215943C9194E68864202D9301A486020
:10B2200017E0801B751900264E600E750E699C464E
:10B230000B6AB646002E0AD0019E76193602360AEF
:10B240008E607646CE6016680E6261461160591CAB
:10B25000DED12361FEBD0000442100200EB5112087
:10B2600069460872072214A102A87CDF002803D0D7
:10B2700000221146FDF71AFB114878DF002803D0A1
:10B2800000221146FDF712FB0020FF220090413200
:10B29000694601900A804122D2004A808880FF20BE
:10B2A0009130C88068467ADF002803D0002211461A
:10B2B000FDF7FCFA0EBD00004466755F48524D0074
:10B2C00041030000002070470020704700207047B5
:10B2D000F8B506464078242104464C4324490C2204
:10B2E00050436118224A00254B6824328018AE462C
:10B2F0002F469C46002B0CD0827A1346D20908D0E8
:10B300005A0606D40D461A4A614689B217590835BD
:10B310008E46174C008924343B4672462946A9DFE5
:10B320000B2819D0002800D01248012F13D17078B3
:10B330000C214843001900890F4AA7DF00280AD0D2
:10B340000E49884212D0082810D0891C88420DD09E
:10B3500011280BD00020F8BD70780C214843012340
:10B360000019008972462946A9DFE0E70148F8BDC7
:10B37000C027002041800000FFFF000002300000D5
:10B3800070B50C46014660782422084D50434019A0
:10B39000382300F093FD002807D16178242251431F
:10B3A00049194A68521C00D14A6070BDC02700206C
:10B3B000F3B589B00D461A206946888368780C2158
:10B3C00003274843224E3B468019008907AA694655
:10B3D000AADF002838D1687824214843741A00195C
:10B3E00069468A8B0830FCF722FF0028687807D06E
:10B3F000242148430119496800290DD0154E0CE05D
:10B400000C2141438919897A89071DD42421484395
:10B410000019FCF7FAFE17E00F4E27506846828BA2
:10B42000687824214843001942606878484300192D
:10B4300069460830FCF7C2FE6878242148430119A8
:10B44000382324220998B04700200BB0F0BD00003B
:10B45000E427002001C2010049C0010010B5FFF738
:10B4600037FF10BD10B5FFF78BFF10BD10B5FFF70C
:10B470009FFF10BD70B5094D04460E46E868FDF704
:10B48000D9FB002809D128461030066044603443B7
:10B490002246A968E868FDF78BFB70BD20210020DB
:10B4A00010B51349134800F0BFFF124C81B2283C7D
:10B4B000A068401CA0600E486038FEF755F90028CF
:10B4C0000BD0082809D00C49884206D00B49884285
:10B4D00003D000221146FDF7E9F90321A068FCF72B
:10B4E00057FE002901D0012000E00020207010BD8F
:10B4F00060250020282000200430000001340000D6
:10B50000F0B5002406460D46601C010795B0090FF2
:10B5100008A810310C940174297B4174817CF927AF
:10B520003940891C81741C2105A8FCF76EFE684611
:10B53000017D10200143684601750CA806940A900D
:10B540000894099401220B9408A88276174968464A
:10B5500001870D94697B08A80175A97B4175817DE0
:10B56000F7203940891C0140EF200140114308A811
:10B57000817514216846FCF748FE0EA800900DA8BE
:10B5800001900FAA0021304600F012F801466846EB
:10B5900001811421448181810FA804903346F088F1
:10B5A00008336A4605A9A2DF15B0F0BD372A0000AE
:10B5B000F7B542790025002A00D004252222135C29
:10B5C0000222002B00D01543CBB2FF2907D901225C
:10B5D0001543029A090A53709170032602E00299FA
:10B5E00002264B7004464034A189002901D0102165
:10B5F0000D43002716E0B11C142909D9A189C91BE4
:10B600004A007900091824302431FCF7D7FD0CE0FA
:10B61000029B7A0012189B19928C1A70120A5A70A7
:10B62000CEB27F1CA189B942E5DCA089C01BA081F4
:10B63000029805703046FEBDF8B51E4C20780028F3
:10B6400037D02069002807D00026E068002805D000
:10B650000025002E04D013E00126F6E70125F8E7C7
:10B66000684651DF052806D0002806D00022114682
:10B67000FDF71CF904E0012602E0216900988847E3
:10B68000002D12D1608869460880A06861DF052816
:10B6900006D0002806D000221146FDF707F904E085
:10B6A000012502E0E168A0688847002ED8D0002D6F
:10B6B000CFD0F8BD70210020418805480288914212
:10B6C00004D34088814201D8012070470020704790
:10B6D0008C2000201048018CC9B2012917D1818C1F
:10B6E000090714D1018D09060A0F03D1828D1206B4
:10B6F000120F0ED0090F012903D1828D1206120FED
:10B7000007D0032903D1808D0006000F01D000204F
:10B710007047012070470000C00F00F0800701D083
:10B72000002070470120704710B50448017AC9070E
:10B7300002D00078FEF76CFA10BD00004420002013
:10B74000F8B5234801690091457833E02048E900C5
:10B75000C0680E1834782AE0182060437168641CB1
:10B760000818B178E4B2A14200D10024017802297E
:10B7700002D003291BD113E0154A406824219268A6
:10B7800041438F18397D002911D001F07BF800204A
:10B7900038750CE024277843C0180275006A03E06E
:10B7A0000B4900228B680869471CF3D10861707847
:10B7B000A042D1D128466D1EEDB20028C6D1044862
:10B7C00001690098814201D00120F8BD0020F8BD38
:10B7D00044210020F8B5044638480027016900914B
:10B7E00046785CE03548F100C2688D1851E0601C75
:10B7F00007D0324A24209268604321468018046AA8
:10B8000024E02878182141436A68401CC0B25218CD
:10B810002870A978884200D12F70284B51682420C5
:10B820009B684843C0181378012B34D1037D002B4B
:10B8300031D193688360D368C3601369036152692F
:10B84000C2611E4A5279002A00D087601B4B826871
:10B850005B6996469C46D31A1A02194B120A9A4201
:10B8600002D2C368D21808E0724663469A1A1202DE
:10B87000C368120A934202D99A1A426000E04760F4
:10B8800087600122C7600275921E0262084600F0BE
:10B89000C7FF601CABD1287869788842A7D13046B1
:10B8A000761EF6B200289DD10448016900988142B5
:10B8B00001D00120F8BD0020F8BD00004421002087
:10B8C000FFFF7F0088B0FDF7FBFF01F053F8274929
:10B8D0000120FDF71FF8002803D000221146FCF7D5
:10B8E000E5FF002222490320FEF74CF9002803D08F
:10B8F00000221146FCF7DAFFFEF7A4FDFFF7AEFCCD
:10B90000FCF70CFF00F0EAFD00F054FD1C21684636
:10B91000FCF77BFC0521C90301910F2109040020DC
:10B9200002910090032269460A7310492C318A89DA
:10B930006946CA8108740F4805900F48069068460A
:10B94000FDF712FD002803D000221146FCF7AEFFE0
:10B95000FDF79CF90220FDF7C1FB48DF0028FCD071
:10B9600000221146FCF7A2FFF7E70000D4240020D4
:10B97000CD0C0000BDBA010079A1010070B50546EB
:10B9800000790E46801C1446C0B21178821C8A18B9
:10B990001F2A01D90C2070BD0A46491C2170401C89
:10B9A000B0542078FF22411C217032542078811934
:10B9B000288801F029F821784018C0B22070AA88A0
:10B9C000002A09D0A968002908D08019FCF7F6FBE5
:10B9D0002078297940182070002070BD072070BDA4
:10B9E000F8B514780746A01C15460E461F2803D844
:10B9F0007878801C1F2801D90C20F8BD1D20001B61
:10BA000080B26946864608803019801C7DDF002898
:10BA1000F3D13878022805D168460088704501D8EE
:10BA2000092107E078780821002801D0704501D964
:10BA300068460088421C3255641CE2B2B154297831
:10BA4000801C081828700020F8BD002070470020D6
:10BA5000704700207047000031B5054C04E0401EDF
:10BA600000902046FCF736FB00980028F7D138BD3F
:10BA7000E703000010B5002809D0022806D1FEF720
:10BA800073F817E000221146FCF710FF10BD0020EC
:10BA9000FEF76AF8002803D000221146FCF706FFE3
:10BAA0000320FEF72FF8002803D000221146FCF7F0
:10BAB000FDFE3CDF0028E5D110BD000010B5007888
:10BAC000002809D105483B21808876DF002803D073
:10BAD00000221146FCF7EAFE10BD00000020002005
:10BAE000F0B58BB004460227684607730026099616
:10BAF0008784C68408A80A900D46A18A208809AACE
:10BB0000A5DF002804D0E16A00291AD0884718E090
:10BB10006846008CC007C00F13D068460682208894
:10BB200003A9A8DF002813D1A97E28461B300122D3
:10BB30000B00FCF7EDFC09460F1C2227292C442E94
:10BB40004600FF20FE3069460882208803A9A8DF4E
:10BB50000BB0F0BD6B461E700BE006221EE069467E
:10BB60000A71029027E0204690470020F0E76B46DC
:10BB70001A702B8B022BF2D2EFE7684607706946EA
:10BB8000A26AF0E7032000E00420694612E00520E5
:10BB9000FBE7298B032905D2032208212046FDF764
:10BBA000E7FCD5E7417802780802104369468880AF
:10BBB00003D006200870A26AD5E70720FAE709201B
:10BBC000E3E70322EAE7000010B51D4A1D49030020
:10BBD000FCF79EFC05040B31202712004878012851
:10BBE0001FD0022808D1032005E04878002804D09F
:10BBF000032801D10220487010BD134B04201860A7
:10BC0000124B012018609368D2689A42F3D0FCF777
:10BC10009BFC10BD4878012806D0022804D00328D8
:10BC2000F7D1FCF7C9FC10BD9068D1688142EED114
:10BC3000FCF7B0FC10BD48780128E8D010BD00002A
:10BC4000242800200821002000250040002000407A
:10BC50000021425C002A01D001207047491C0629BE
:10BC6000F7D300207047000070B505461C200D4931
:10BC700068434418204611300621FCF7C6FA2046D6
:10BC80001021FCF7C2FAFF2121740020A176C043E5
:10BC90002083284600F0BEFE024A0020A9001C3A7C
:10BCA000505070BDE0260020F0B50C4A00215368CA
:10BCB0001422504301240A4D03273F041E582246F4
:10BCC0008A40164206D08A0052191668BE43166092
:10BCD00016681660491C2029F0D3F0BD38210020D9
:10BCE0000007005070B50D00044604D10022114633
:10BCF0001046FCF7DBFD002C04D100221146104653
:10BD0000FCF7D4FD2878207069886170090AA17059
:10BD1000A988E170090A2171E8886071000AA071A0
:10BD200070BD000007490978002906D0002806D018
:10BD300005494978016000207047082070470E20AF
:10BD400070470000142100203428002030B5124B29
:10BD50001B78002B07D0002807D0002A05D00468E4
:10BD6000002C12D103E0082030BD0E2030BD0B4B5B
:10BD70001D68002D09D045681889414369185D89FF
:10BD8000454358682818884201D8072030BD146000
:10BD90000020516030BD0000142100200029002047
:10BDA000F8B505461B480F460078002805D0002D41
:10BDB00005D02868002820D103E00820F8BD0E2017
:10BDC000F8BD154C00262068002816D0608921890E
:10BDD000484361684118686881420ED9FFF79EFCAC
:10BDE00000280CD029686868090109194A6809897E
:10BDF000801AFCF7CDF9002903D00720F8BD1020E8
:10BE0000F8BD3B460022294604200096FEF7F6F8CE
:10BE1000F8BD0000142100200029002010B50748BB
:10BE20004469601C06D000F00BF801462046FCF780
:10BE3000AFF910BD01200007406910BD00100010CF
:10BE400001200007006980B270470000F8B50024A7
:10BE5000184D194EAC806C7034707470B4702746F5
:10BE60003846FEF7BBF87F1C0A2FF9D36C80FFF72A
:10BE7000D5FF871EFFF7E4FF47430F48AF60AC8054
:10BE8000CC30046004818481448108206870FFF70D
:10BE9000D7FF0746FFF7C2FF441EFFF7D1FF6043FD
:10BEA0003946FCF775F928DF002802D10121B1706D
:10BEB0002970F8BD1421002034280020FFB5264841
:10BEC00081B000781F4616460D46002808D0002D88
:10BED00009D00198002806D02868002818D104E06D
:10BEE000082005B0F0BD0E20FBE71C4C20680028A0
:10BEF0000ED0618920896268414389186A6891423D
:10BF000006D9002E04D0B04202D3F119814201D9E2
:10BF10000720E6E70198FFF701FC00281AD0384611
:10BF2000FFF7FCFB002815D06868FFF7F7FB002837
:10BF300010D068683246C1190198FCF73FF90096A5
:10BF4000286800220001245803212846019BA047AD
:10BF50000020C6E71020C4E714210020002900209B
:10BF6000F8B5374D044628780E4600282ED0002C10
:10BF70002ED0002E2CD02068002829D0FFF760FF9B
:10BF80000146A088814228D3102826D3E0880028C3
:10BF900023D0FFF743FF471EFFF752FF4743E088D8
:10BFA000A1884843A9684018874216D3FFF748FF85
:10BFB0000146E088A288504381420BDAFFF740FF38
:10BFC000A188FCF7E5F8002907D103E00820F8BDB7
:10BFD0000E20F8BD2079800701D00720F8BD6888C1
:10BFE00001281BD03060174FA9680201D019716079
:10BFF00041602168B950A1880181E1884181A08810
:10C00000E188002648430446761CB6B2FFF718FFC5
:10C01000A04205D2FFF714FF241A02E00420F8BD65
:10C020000024FFF70DFFA9684018A860002CEBD191
:10C0300068880101C9198E81401C68800020F8BD04
:10C040001421002000290020F8B5044620481E468F
:10C05000007815460F46002807D0002F07D0002C87
:10C0600005D02068002817D103E00820F8BD0E2075
:10C07000F8BD1848016800290ED04289018940683E
:10C080004A4310186268904206D9002D04D0A94294
:10C0900002D3A819884201D90720F8BD3846FFF716
:10C0A0003DFB002811D03046FFF738FB00280CD0AC
:10C0B0006068FFF733FB002807D02B463A4621463D
:10C0C00002200096FDF79AFFF8BD1020F8BD000091
:10C0D0001421002000290020F8B507460020464E14
:10C0E0008646B07801281ED10020444BB0705A78A3
:10C0F000082A19D034462578142169430C19022FD7
:10C1000020D0032F0FD16079401CC0B26071241D74
:10C1100003286AD0FDF7D2FE002804D0112802D0EF
:10C120002146FCF7B3FCF8BD022F09D01870FDF7CB
:10C1300041FF0028F7D0317814225143891959E082
:10C140005870F4E72D498B885B1C9EB28E80237952
:10C15000241D022B05D16788B102B94201D3012108
:10C1600000E000218C46052B01D1072A03D00021D5
:10C17000042B02D003E00121FAE7072A03D00027AD
:10C18000042B02D007E00127FAE76488B302A34238
:10C1900001D3002A27D000223943114362461143BC
:10C1A00017D0164A1449507090804878401E487045
:10C1B000681CC0B208700A2801D30A38087014201D
:10C1C000684341187046091DFCF760FC2846FDF7DE
:10C1D00005FFFDF7EFFE0028A5D0074914230A78D4
:10C1E0005A43511806E00122D6E73078142148431B
:10C1F00081190D20091D94E7342800201421002006
:10C20000F8B5044620481E46007815460F4600281B
:10C2100007D0002F07D0002C05D02068002817D1A8
:10C2200003E00820F8BD0E20F8BD18480168002979
:10C230000ED04289018940684A43101862689042D2
:10C2400006D9002D04D0A94202D3A819884201D9E9
:10C250000720F8BD3846FFF761FA002811D03046B4
:10C26000FFF75CFA00280CD06068FFF757FA002847
:10C2700007D02B463A46214605200096FDF7BEFE24
:10C28000F8BD1020F8BD0000142100200029002076
:10C2900010B5134813498088884207D0132176DFF0
:10C2A00005E000221146FCF701FB02E074DF0028E4
:10C2B000F7D10020FDF758FC002803D000221146DA
:10C2C000FCF7F4FAFDF7C2F8002803D0002211466B
:10C2D000FCF7ECFAFF20F530FFF7BEFB10BD0000C5
:10C2E00000200020FFFF000010B50748007800285C
:10C2F00009D005480549303000F096F881B203486E
:10C300007038FDF7B3FA10BD002000207025002022
:10C3100070B501240B49600408600B494010886027
:10C32000094940398860094D6C602F20FBF7E2FE17
:10C33000AC60074D00242F206C61FBF7DBFE2C71F5
:10C3400070BD000080E100E040130140001001409A
:10C3500044210020F0B500220123032636041F46A5
:10C360009740394212D0C5683D4203D1012464048C
:10C370003D4301E03446BD43C560064D97007D193D
:10C380002F68B7432F602F6827432F60521C202A45
:10C39000E5D3F0BD0007005010B5044801224178F4
:10C3A000514041700248FDF778FA10BD002000208E
:10C3B0000025002070B514480124512164258460B3
:10C3C00022C004711049114800F022F80E488C2157
:10C3D00010300160FF212D3141600A21816000266B
:10C3E000067301460948083000F012F80648FF219C
:10C3F00020300560F53184604160067301460348D2
:10C40000103000F005F870BD5025002020200020DD
:10C410000A7B002A03D049680160002102E0096814
:10C42000016001210171704710B504798B680268C1
:10C43000002C08D049688C1A9C4201D9D11807E019
:10C440000160002108E00968541A9C4202D9D11AFF
:10C45000016002E0016001210171006810BDF7B5C3
:10C4600082B002981446806A0F46002833D00298A2
:10C4700000252030009028E00298816A0C20684353
:10C480000E18217830794A1C2270C01C785420780C
:10C490001622411C21703A542078C119308800F0CE
:10C4A000B3FA21784018C0B22070B288002A09D0AF
:10C4B000B16800290FD0C019FBF780FE20783179D0
:10C4C000401820706D1C0098EDB2007BA842D3D8B4
:10C4D000002005B0F0BD0720FBE7000030B59FB09D
:10C4E000032118A80175142110A8FBF78EFE002463
:10C4F000012510A8109405711DA81290601C010759
:10C50000090F10A81031017344738473601C010774
:10C51000090F10A81031C1730020014610A8017442
:10C5200001463348FDF74CF9002803D0002211469C
:10C53000FCF7BCF9142115A8FBF767FE01200146A2
:10C5400018A8103141700120014618A810318170DF
:10C550000020014618A8C1700120014618A810311A
:10C56000017110A815940576642118A8179401701C
:10C570001F4815A91838FCF7ADFE002803D000228B
:10C580001146FCF793F940216846FBF73EFE19A1DE
:10C590006846FDF785F90120014608A810310177AA
:10C5A0000020014608A841776846FDF711F80028E9
:10C5B00003D000221146FCF779F913481B901A9416
:10C5C0001C9410A805850A481AA98030FCF746FF7C
:10C5D000002803D000221146FCF768F90B48FDF74C
:10C5E000EBFF0B488078FDF76FFF1FB030BD0000F8
:10C5F000002500204E6F7264696353656D69636F37
:10C600006E647563746F7200E5A4010091C201004D
:10C610000020002010B508461146C046C04610BD97
:10C62000002803D00249C860002070470E207047E0
:10C630007021002070B5002901D08C0701D007209F
:10C6400070BD064C0125A16062800549636010DF62
:10C650000028F5D1257016202EDF70BD7021002036
:10C6600015C60100002803D0024908610020704768
:10C670000E2070477021002000207047FFB581B068
:10C68000484C0E46039F049A0546617803201743E1
:10C69000002903D1002F0DD001216170039AC9B286
:10C6A000920000920B00FBF733FF072C071B2E466E
:10C6B0005D6C2C000221F0E7FFF7C2FB8708FFF753
:10C6C000BFFB70430546FFF7A9FB461EFFF7B8FB0B
:10C6D00070433A46294629DF002812D102210FE093
:10C6E000304628DF00280CD10399002901D003210E
:10C6F00006E00499002917D12978042950D018E0C0
:10C70000617005B0F0BDFFF789FB471EFFF798FB8E
:10C710004743FFF795FB70433946039A29DF00280A
:10C72000EFD10499002901D00421E9E729780429EF
:10C7300025D00521E4E7FFF771FB471EFFF780FBDB
:10C7400047436888391800980F18FFF779FB698804
:10C75000704341180098049A0818394629DF0028C8
:10C76000E4D0CEE7FFF76CFB00997043401869886E
:10C770008A08296929DF0028C3D1002F10D006219B
:10C78000BEE7FFF75DFB0646FFF748FB451EFFF7D8
:10C7900057FB68433146FBF7FBFC28DF0028B0D18C
:10C7A0000721ADE71421002010B50446FFF794FCE3
:10C7B0002046FCF773FC10BD70B50C00054604D193
:10C7C000002211461046FCF771F8002D04D100221A
:10C7D00011461046FCF76AF8207828702088FF215F
:10C7E00009020840000A6870206809020840000C2D
:10C7F000A8702068000EE87020792871207A68718E
:10C800002089000AA871A068000CE87170BD0000C2
:10C8100001200249000508607047000000E200E0C6
:10C82000F0B5174F2421BC6841430D1939694A1CE2
:10C8300009D024224A4316196B687268934204D8BF
:10C84000D21A726029623861F0BD0A4602E00A46D7
:10C85000396A9B1B4E1C0BD024264E4337197E6829
:10C860009E42F4D324264E4336197768FF1A776028
:10C870006B60296224214A4311190862F0BD00004F
:10C880004421002070B5194C2269A5681346114651
:10C8900006E0814207D00A46242671434919096AF5
:10C8A0004E1CF6D170BD002EFCD08A420CD1242043
:10C8B00043435819006A2061401C05D10C4B0120EC
:10C8C0009860002363616071242041434819242348
:10C8D00041685A43006A52191062421CE2D0242275
:10C8E0005043401942685118416070BD44210020F6
:10C8F00000100140F8B51D4C2569681C35D01C4856
:10C90000002640686169401A07023F0A19E02420A6
:10C910004543A0682A185068B84214D8A3693F1A42
:10C920008619156A002B09D0D169906998470028AB
:10C9300007D000221146FBF7B9FF02E09169D069E8
:10C940008847681CE3D1A178E078814206D1401C79
:10C95000C0B2E070022801D10020E0700349000657
:10C96000800D1C310E50FFF753FFF8BD442100200D
:10C970000015014008B500201D4B0522082100903C
:10C98000FCF7BCF8002803D000221146FBF78EFF0D
:10C99000184A01211848FCF78BF8002803D0002220
:10C9A0001146FBF783FF1448144A0121001DFCF7D0
:10C9B0007FF8002803D000221146FBF777FF0E48CE
:10C9C0000F4A01210830FCF773F8002803D0002239
:10C9D0001146FBF76BFF08480A4A01210C30FCF7AF
:10C9E00067F8002803D000221146FBF75FFF08BD5F
:10C9F00084210020318E010010200020A1B401000C
:10CA0000E9C2010099C301000870000A48700220C1
:10CA10007047000001218140024842688A43426019
:10CA200070470000F020002038B51549154A4888A5
:10CA300090420FD04A78144C521CD2B24A70237BD9
:10CA4000934208D3083175DF002803D0A16900297B
:10CA500000D0884738BD00254D70217C002907D0C3
:10CA60003B2176DF002803D0A169002900D0884748
:10CA700061690029EED068460570884738BD00001E
:10CA800084200020FFFF0000A826002012494868EB
:10CA9000C005C00D19D0103840B2002807DA0207CF
:10CAA000120F083A920892005118C96904E08108EF
:10CAB0000A4A8900891809688007C00EC140080623
:10CAC000800F012803D0032803D0022070470020E4
:10CAD000704701207047000000ED00E000E400E036
:10CAE00042788378521C934200D10022037893420B
:10CAF00001D1002070470A604168407818225043F5
:10CB000008187047F8B51546069C1E4607460222CF
:10CB1000009400F00AF8002806D133461022294676
:10CB20003846009400F001F8F8BDFFB583B0074621
:10CB300000200C9C8646267805463AE07868A900D5
:10CB400041180A88684682804988C1800022694667
:10CB500001A865DF002810D1684601780598814258
:10CB600026D17046002801D0002200E00222207861
:10CB7000891841181F2902D90C2007B0F0BD714651
:10CB8000002908D1401CC0B2411C069B049A2170A8
:10CB90001A5401208646217806980A18694601A889
:10CBA00065DF0028E9D169462078097840182070AF
:10CBB0006D1C3888A842C1DC7046002804D020785B
:10CBC0000699801B401E88550020D6E70179002970
:10CBD00002D1007B002800D0012070471100000026
:10CBE00012000000130000001400000011000300F8
:10CBF000999A010012000300999A010013000300A2
:10CC0000999A010014000300999A010023D1BCEA0B
:10CC10005F782315DEEF121200000000FFFFFFFF18
:10CC200053BA0100B1B30100CDB201006DB40100EF
:10CC30004FBA010081B30100C9B2010065B401001F
:10CC40004BBA0100D1B20100C5B201005DB40100D0
:10CC500070CC010000200020840100006C820100E3
:10CC600094CC010084210020CC0F00003A85010003
:10CC700042010333FFFF0C1F0D1801000F180100C4
:10CC80000A1801A324F4039BFFFF026001041AB5F4
:04CC9000A5010000FA
:04000005000180C1B5
:00000001FF
