:020000040003F7
:10C800007834002065CA030077CA030079CA0300A0
:10C810000000000000000000000000000000000018
:10C820000000000000000000000000007BCA0300C0
:10C8300000000000000000007DCA03007FCA030062
:10C8400081CA030081CA030081CA030081CA0300B0
:10C8500081CA030000000000ADDF030081CA0300AD
:10C8600081CA030081CA030081CA030081CA030090
:10C8700081CA030081CA030081CA030081CA030080
:10C8800081CA0300E9D8030081CA030081CA0300FA
:10C89000FFD8030081CA0300D5E4030081CA030066
:10C8A00081CA030081CA03000000000000000000EC
:10C8B0000000000000000000000000000000000078
:10C8C00000F002F800F040F80CA030C80838241836
:10C8D0002D18A246671EAB4654465D46AC4201D1B8
:10C8E00000F032F87E460F3E0FCCB64601263342AA
:10C8F00000D0FB1AA246AB4633431847583100001C
:10C9000078310000103A02D378C878C1FAD85207BB
:10C9100001D330C830C101D504680C6070470000F5
:10C920000023002400250026103A01D378C1FBD84B
:10C93000520700D330C100D50B6070471FB5C04609
:10C94000C0461FBD10B510BD03F03EF81146FFF7FD
:10C95000F5FF00F0BEF803F056F803B4FFF7F2FF5E
:10C9600003BC03F05BF80000026882F308884368A8
:10C9700018470000401E00BF00BF00BF00BF00BF3F
:10C9800000BF00BF00BF00BF00BF00BF00BFF1D1AC
:10C990007047000070B505460C46164602E00FCC05
:10C9A0000FC5103E102EFAD2082E02D303CC03C5B9
:10C9B000083E042E07D301CC01C5361F03E02178C1
:10C9C0002970641C6D1C761EF9D270BD10B500F084
:10C9D0001DF8002805D01F491D484860C8131E498E
:10C9E00088611E48018CC9B201290ED1818C0907CA
:10C9F0000BD1018D0906090F042906D1808D00068F
:10CA0000000F02D116490120886010BD1348018C27
:10CA1000C9B2012917D1818C090714D1018D0906EA
:10CA20000A0F03D1828D1206120F0ED0090F0129B1
:10CA300003D1828D1206120F07D0032903D1808DF6
:10CA40000006000F01D00020704701207047000051
:10CA5000DFFF07C000050040006C0040C00F00F081
:10CA6000000600400A4802680F210A430260094894
:10CA7000804709480047FEE7FEE7FEE7FEE7FEE7DE
:10CA8000FEE7000005480649064A074B70470000CC
:10CA900024050040CDC90300C1C803007828002048
:10CAA00078340020782C0020782C0020964800292B
:10CAB000016005D1012095490004C86000F0D8F854
:10CAC00070470A4601469248F0E710B501F0CEFDE6
:10CAD00010BD1CB50020694608718E490120086010
:10CAE0008C49103908608B49091F0860102000F03C
:10CAF000C7F80C2000F0C4F80F2000F0C1F8864DF4
:10CB000028680524A403A04204D084A2F2210020B6
:10CB1000FFF7CCFF79216869C902884204D07FA25F
:10CB2000F4210020FFF7C2FF012000070069012166
:10CB30008902884204D079A2F5210020FFF7B6FFD0
:10CB400079480090794B05220321002000F0FAFE7D
:10CB5000002803D071A2A421FFF7A8FF7349022087
:10CB6000283901F089FA002803D06CA29921FFF737
:10CB70009DFF65486E4B6F4A0121001D01F08DFB42
:10CB8000002803D065A2B421FFF790FF6A4B502222
:10CB90006A49082001F07AFC002803D05FA2D62160
:10CBA000FFF784FF664801F08DFC002803D05BA2EC
:10CBB000D921FFF77BFF614A14215032082001F090
:10CBC0001BF9002803D055A2E121FFF76FFF01F008
:10CBD000A3FB002803D051A2FF21FFF767FF01A9A3
:10CBE000082001F0B4FB002804D0FF214BA2033140
:10CBF000FFF75CFF01F09BFB002804D0FF2147A258
:10CC00000631FFF753FF68460079002804D120461B
:10CC100000F077FA00280FD101203C490003C860DA
:10CC200000F0EFFA002804D0FF213CA20E31FFF7FC
:10CC30003DFF0C2000F024F8204600F062FA0028A6
:10CC40000BD0102000F01CF80C2000F019F80F2079
:10CC500000F016F8204600F000FB102000F010F85D
:10CC60000C2000F00DF80F2000F00AF800F000F89A
:10CC7000BFF34F8F34493348C860BFF34F8FFEE78F
:10CC8000012181402148816070471CB501910090CD
:10CC90002E4A0821684601F0C3F81CBD1CB500905F
:10CCA000684601712A4A082101F0BAF81CBD10B586
:10CCB0000021284A084601F0B3F810BD10B504461B
:10CCC000082905D0FF2124A214310020FFF7EEFE31
:10CCD00021686068884710BD10B50446082904D053
:10CCE00029A29B210020FFF7E1FE216820798847D7
:10CCF00010BD10B5002904D02FA298210020FFF705
:10CD0000D5FE01F085FB10BD042000200005005079
:10CD1000EFBEADDE40070050001000102E2E5C6DFF
:10CD200061696E2E630000008BCC03003C21002063
:10CD30009DCC030066060000AFCC03007C230020DE
:10CD4000CBCA03000400FA0500ED00E0BDCC0300EF
:10CD5000D9CC0300F3CC03002E2E5C2E2E5C2E2E9D
:10CD60005C2E2E5C2E2E5C496E636C7564655C6176
:10CD700070705F636F6D6D6F6E5C6170705F746912
:10CD80006D65722E680000002E2E5C2E2E5C2E2EFD
:10CD90005C2E2E5C2E2E5C496E636C7564655C6146
:10CDA00070705F636F6D6D6F6E5C6170705F6275E8
:10CDB00074746F6E2E6800002E2E5C2E2E5C2E2E4C
:10CDC0005C2E2E5C2E2E5C496E636C7564655C7304
:10CDD000645F636F6D6D6F6E5C736F6674646576B0
:10CDE0006963655F68616E646C65722E680000003F
:10CDF00010460A4610B5B2494C68042C03D1022AE9
:10CE000001D1002806D0002803D0AEA24E21FFF7A2
:10CE10004DFE10BD8A69002AFBD01946904710BD0F
:10CE200010B5A74B01201870032000F0A3F910BD26
:10CE300010B5A34C2078002801D0082010BD6069EF
:10CE400000F056FE002803D09EA27121FFF72EFEAF
:10CE50000F2100224904606900F00DFE040003D098
:10CE600098A27421FFF722FE204610BDF0B59B4921
:10CE700087B09948924D08600024A1276C7029461C
:10CE8000BF026C802431954801F039FD00281CD187
:10CE90000520294680032431486028460146496A16
:10CEA000C1611C3051264760B60202A800F0FEF9AD
:10CEB0000498FE2802D13868401C0ED080483146C4
:10CEC0001C3001F06DFD002802D06C6007B0F0BD91
:10CED0000220019A009900F04DF97948804A00211A
:10CEE000143000F081FD002803D076A2A521FFF7C1
:10CEF000DDFD0F2100224904686900F0BCFD002817
:10CF000003D070A2A921FFF7D1FDEE6001202C61B2
:10CF100068600020DAE76A498861704770B5684C3C
:10CF20000546E068854201D90C2070BDA80701D0F4
:10CF3000062070BD6068012801D0082070BDFFF791
:10CF400077FF0028FAD10221A560616070BD70B53D
:10CF5000050004D0287A800703D0102070BD0E2071
:10CF600070BD574C6068022805D0032803D0042800
:10CF700003D0082070BD042060606868A168860046
:10CF800020698019884204D90020C04320610C2008
:10CF900070BDFFF74DFF0028FAD14948A968324615
:10CFA0001C30236901F0CCFC0028F1D121698919DA
:10CFB0002161A2689142EBD0092070BDF8B5404CC8
:10CFC00005466068022802D0032805D101E003204D
:10CFD00060602069002801D00820F8BDFFF728FF15
:10CFE0000028FAD13D4B0021403B08E0AA688E00A2
:10CFF000965962789700521CDE516270491C6A682B
:10D000008A42F3D8F8BD70B52D4C6068042805D16C
:10D0100005206060A1682069884201D0082516E0DB
:10D02000FFF706FF050012D1A12000228002A168AF
:10D0300001F0CAF929496080403962780988002ADC
:10D0400003D0884201D00B2070BD062060602846C6
:10D0500070BD3EB51A4C6068062802D008252846E7
:10D060003EBD606900F044FD002804D0FF2115A2F8
:10D070009631FFF71BFD1248A168243001F090FCA7
:10D08000002804D0FF210FA29A31FFF70FFD0C48B2
:10D0900000231C3041680830A26801F051FC0500F3
:10D0A000DDD1009061886A469180A2680292019960
:10D0B00000F060F8D3E710B5042000F05BF810BD75
:10D0C000142000202E2E5C6466755F6475616C5FB1
:10D0D00062616E6B2E630000F1CD03005C250020C1
:10D0E00021CE030010B57B480368012B02D1022931
:10D0F00000D10160100003D077A23421FFF7D6FCE5
:10D1000010BD38B505250024AD03401B15D1684678
:10D1100000F0F4F80098016801290ED181880029F7
:10D1200008D0C1680022284601F04EF9009989888C
:10D13000814201D1012400E00024204638BD10B511
:10D14000044664481021001D01F0B2FB002803D002
:10D1500061A28521FFF7AAFC5E4800231022214628
:10D16000001D01F027FB002803D05BA28B21FFF7F5
:10D170009DFC10BD17B581B0684600F0BFF801995D
:10D180005948544C002913D003291CD0FE220129F0
:10D1900023D002292CD0042909D101F0BAFD00289E
:10D1A00003D04DA2BE21FFF781FC042020601FBDEB
:10D1B0006946098981800399C1600121FF2282604B
:10D1C0000160216010E001F0A4FD002803D042A21C
:10D1D000A421FFF76BFC0320E8E7002181800260B7
:10D1E000C1600099896881603F48FFF7A8FF1FBDB3
:10D1F00000990B6803608B888380C9688260C16076
:10D20000F2E73EB5394800901020019001200290CD
:10D2100001F051FA00281FD12E496846091D01F07E
:10D2200071FA002818D1FFF721FE002814D101F06F
:10D230005FFE0546274C3DDF002803D026A246218D
:10D24000FFF734FC00F062FE2068022803D00328B8
:10D2500001D00428EFD128463EBD70B511DF00286B
:10D2600004D0FF211CA20A31FFF720FC2049002036
:10D270000B681F4C012180340A4682401A4204D0B8
:10D28000C506ED0E0A46AA402260401CC0B2202806
:10D29000F2D313DF002804D0FF210FA20F31FFF7D4
:10D2A00005FC0520800300F025F870BD1FB5094975
:10D2B000044600231022091D684601F0BAFA0098BE
:10D2C000206068468088A0800398E0600298A06093
:10D2D0001FBD0000402000202E2E5C626F6F746C1A
:10D2E0006F616465722E630068250020E5D003003D
:10D2F00000E100E010B5FFF737FB10BD0149016008
:10D300007047000000FC030030B585B0002822D033
:10D310000388F64CA34220D0F54B1B78002B1CD081
:10D32000F34B10255B1C1D705970002401259A7069
:10D33000032269460A820094019402940394C289EC
:10D340000A808D708C8004A902910393008869463D
:10D35000A6DF05B030BD0E20FBE70820F9E7F0B5E9
:10D3600089B004460227684607730D468783608AA2
:10D3700008AB07AA0021A5DF0026002804D0616AB7
:10D38000002917D0884715E06846008CC007C00FF9
:10D3900010D068460682208803A9A8DF002810D193
:10D3A000A97E0B0002F041FB093A0F11191B1D1F4A
:10D3B00038223A00FF20FE3069460882208803A9FF
:10D3C000A8DF09B0F0BD009601E001200CE0226A60
:10D3D0006946204690470020F3E70097F7E70320CF
:10D3E00002E0042000E005200090F0E7288B0328ED
:10D3F00005D2032208212046FFF786FFE1E7287FB8
:10D40000E97E000208436946888003D00620009028
:10D41000226ADEE70720FAE70920E5E70322EAE7C8
:10D4200030B585B00D46040032D0002D30D02868CC
:10D4300000282DD00020C043AE4B20800FCB04939A
:10D4400001AB07C3AC4869460880891C01A862DFAC
:10D4500000281CD1A21C69460120A0DF002816D19B
:10D46000684680782071204600F0C0F800280ED170
:10D47000204600F0F9F8002809D128682062686881
:10D48000002800D060629A4901200870002060E7FF
:10D490000E205EE73EB5002820D000291ED0026A8B
:10D4A000002A1BD00A88102A19D0112A28D0502A05
:10D4B00017D0512A12D10446891D087802280DD1AF
:10D4C0004888E289904209D1891C2046FFF747FF2E
:10D4D000002803D0616A002900D088473EBD8988B2
:10D4E00010E0CA88C3889A42F8D1082200928A7F45
:10D4F0006B461A7120310291026A694690473EBD1F
:10D500000021C94301803EBDF0B585B00A46050043
:10D510002DD02888754988422BD07548007800287E
:10D5200027D0734C1020641C2070072060700127E6
:10D53000A7700321684601820026E11C104600F016
:10D540004CF801466846008A091868460182009630
:10D55000019602960396E98901808770868004A867
:10D560000394029028886946A6DF05B0F0BD0E201E
:10D57000FBE70820F9E7F0B585B00A46050028D09A
:10D5800028885A49884226D059480078002822D055
:10D59000574C1120641C2070012768460782002622
:10D5A000611C104600F019F801466846008A091807
:10D5B000684601820096019602960396E9890180E9
:10D5C0008770868004A80394029028886946A6DFA5
:10D5D000CBE70E20C9E70820C7E70870020A4A70A7
:10D5E000020C8A70000EC8700420704730B58FB0EE
:10D5F00005461C21684602F024F969460878042192
:10D600000843694608700024019403940494059427
:10D610000694287908A9887037486946801C0884D0
:10D62000601C00070794000F0C77103048778A7F42
:10D63000F9200240921CE7200240012002438A7731
:10D64000142109A802F0FDF808A8099007A80A907B
:10D6500069468C851420CC8508860D946888AB1D9E
:10D6600009AAA2DF0FB030BD30B58FB005461C212E
:10D67000684602F0E6F86946087808210843102257
:10D68000104369460870002401940394049405949F
:10D690000694287908A9887017486946401C0884B0
:10D6A000601C00070794000F0C7710304877887FC4
:10D6B000F9210840801CF72108401043012108434C
:10D6C00069468877142109A802F0BBF808A80990D8
:10D6D00007A80A9069468C851720CC8508860D948A
:10D6E0002B4668880E3309AAA2DFBBE7FFFF0000C4
:10D6F0004C20002044FA0300301500008307FF226D
:10D70000DB0E9A408907090E994000280BDA0007C2
:10D71000000F08388308FC489B001B18D869904309
:10D720000843D86170478308F8489B001B181868A5
:10D730009043084318607047F0B5F54F28217C6886
:10D7400041430D19F9684A1C09D028224A43161989
:10D75000AB68B268934204D8D21AB2606962F860CA
:10D76000F0BD0A4602E00A46796A9B1B4E1C0BD0AC
:10D7700028264E433719BE689E42F4D328264E43CE
:10D780003619B768FF1AB760AB60696228214A434F
:10D7900011194862F0BDF8B5DD4CE568681C36D05B
:10D7A000DC48002640682169401A07023F0A1AE057
:10D7B0002820454360682A189068B84215D86369E4
:10D7C0003F1A8619556A002B0AD0116AD06998470A
:10D7D000002808D0FF21D0A25531FFF767F902E0F9
:10D7E000D169106A8847681CE2D1A178E07881424B
:10D7F00006D1401CC0B2E070022801D10020E070C8
:10D80000C3490006800D18310E5000F0D3F9F8BD61
:10D81000F8B50446BE48C1680091467856E0BC4859
:10D82000F10082688D184BE0601C07D0B84A2821AF
:10D8300052686143204689184C6A20E028781821F4
:10D8400041436A68401CC0B252182870A9788842C7
:10D8500001D100202870AE4B506828215B684143FD
:10D86000C9181368012B2DD10B7E002B2AD1936888
:10D87000CB60D3680B6113694B6152690A62A44A99
:10D88000CF681369BC46FA1A1202AF4F120ABA42A5
:10D8900002D20B69D21809E062469A1A12020B6989
:10D8A000120A934201D99A1A00E000228A600022EB
:10D8B000CA600A6101220A76921E4A62FFF73CFFA3
:10D8C000601CB1D1287869788842ADD13046761E87
:10D8D000F6B20028A3D18E48C1680098814201D0D9
:10D8E0000120F8BD0020F8BD98490020086048607C
:10D8F0008860C86095494039086048604BE7F0B5DA
:10D90000002087B0C043029081480669C568684618
:10D9100000F056F9074600F070F90446002F05D0D4
:10D9200002AA3146009800F0B0F901240298FFF7EE
:10D930006FFF002801D1002C02D0284600F0CEF95C
:10D9400007B0F0BDFFB59807002481B00F4615461B
:10D950001E4600280BD1002E09D000F01AF96C49A0
:10D960000A9848610F70324600204E6008E0072098
:10D9700005B0F0BD28234343D4509B181C76401CAF
:10D98000B842F7DB28204743BB19032048700F46F5
:10D9900018468B6019461830002218232E465E4325
:10D9A000D3005B181C705C709D7058603018521C5E
:10D9B000032AF5DB0020C043F860BC70FC70012432
:10D9C00063482405046003211420FFF797FE614893
:10D9D0000460504C0198A06003211120FFF78EFED7
:10D9E000606838610020C3E770B5494C6568002D58
:10D9F00006D0002A06D0002804D00023247809E0AD
:10DA0000082070BD072070BD28265E43AE59002E49
:10DA100004D05B1CA342F7DB042070BD2824012640
:10DA20005C432E516419E26161600360002070BDA7
:10DA300035494868C005C00D17D0103807D5020712
:10DA4000120F083A920892005118C96904E081083F
:10DA50002E4A8900891809688007C00EC1408804D1
:10DA6000000E012803D0032803D0022070470020B5
:10DA7000704701207047FEB50446254817464268A6
:10DA80000D46002A0CD001788C4201D2052D01D21E
:10DA90000720FEBD2146282359435358012B01D0AE
:10DAA0000820FEBD8818406801281DD00026FFF719
:10DAB000BFFFC0001649019089684018694600F010
:10DAC00050F9002812D001214460016011494968D1
:10DAD0000830E2C00E4901988968411800984870E2
:10DAE00000F068F80020FEBD2E46E0E70420FEBDF1
:10DAF000F8B5074D04466868002832D029788C4272
:10DB00002AD30720F8BD000000ED00E000E400E0AB
:10DB100054200020001501402E2E5C2E2E5C2E2E4F
:10DB20005C2E2E5C2E2E5C536F757263655C61708B
:10DB3000705F636F6D6D6F6E5C6170705F74696D47
:10DB400065722E6300000000FFFF7F00401101405E
:10DB500080E200E000E100E0282161434058012814
:10DB600001D00820CEE7FFF763FFC600A86869462A
:10DB7000301800F0F6F8002809D0022112C0A86879
:10DB800031180098487000F015F80020BAE704201A
:10DB9000B8E710B50121924A48041060914A40103C
:10DBA0009060904A403A90608F4841602F20FEF785
:10DBB000E1FE10BD01208A490005803108607047F0
:10DBC00010B58A4900238A78CC78A24212D0521C20
:10DBD000D2B28A70022A00D18B708A78834B92006D
:10DBE00018339A580260086910180002000A086188
:10DBF000012010BD0360002010BDF8B57B48C1684E
:10DC00000091457833E07948E90080680E1834784F
:10DC10002AE0182060437168641C0818B178E4B2E7
:10DC2000A14200D100240168022902D003291BD19E
:10DC300013E06E4A40682821526841438F18397EAC
:10DC4000002911D000F09FF8002038760CE028273A
:10DC50007843C0180276406A03E0644900224B68AA
:10DC6000C868471CF3D1C8607078A042D1D128465B
:10DC70006D1EEDB20028C6D15C48C1680098814293
:10DC800001D001203EE700203CE7F7B5574C0025C6
:10DC90006768E3681EE028215943C9198E688642E7
:10DCA00002D9301A886017E0801B751900268E6033
:10DCB0000E764E699C464B6AB646002E0AD0019EEF
:10DCC00076193602360ACE6076460E6116684E62C6
:10DCD00061461160591CDED1E360FEBDF8B54349D1
:10DCE000CA68531C3AD028235A434B68D218966806
:10DCF0003F4A54680F69401CE11B0D022D0AED1CC0
:10DD00000121002810D1374A08045060354A403AB2
:10DD10005060384A40001060314A803A1060324802
:10DD200001602F20FEF726FEB54200D23546E819E5
:10DD300000022F49000A403108602D494968001B44
:10DD4000091B0902090A0002C91C000A814204D900
:10DD500001202349400480310860D3E6FFF719FF12
:10DD6000D0E642788378521C934200D10022037897
:10DD7000934201D1002070470A6041684078182220
:10DD800050430818704770B5184DEA686B68144620
:10DD9000114606E0814207D00A4628267143C91879
:10DDA000496A4E1CF6D170BD002EFCD08A4204D1C7
:10DDB00028204443E018406AE86028204143C818FE
:10DDC000282481686243406AD2185062421CEAD01B
:10DDD00028225043C01882685118816070BD00002D
:10DDE00080E100E040130140001001405420002079
:10DDF0000015014080E200E030B5CB0008339DB251
:10DE000093070024002B01D0072030BD564B9A60A9
:10DE10005219DA605C701C7058809980002030BD07
:10DE2000F7B5514C82B060880F4681426CD8002013
:10DE3000694608704E494D4D4868C005C00D16D062
:10DE4000103807D50207120F083A920892005118AD
:10DE5000C96904E08108474A890089180968800770
:10DE6000C00EC1408804060E012E01D10AE004262E
:10DE700068462BDF02280BD0002803D03EA2592190
:10DE8000FEF714FE6078A188884203D2401C02E0AD
:10DE900072B6F7E700202278C0B2904207D06578CA
:10DEA0006078884201DA401C00E000206070012E9A
:10DEB0000BD062B6684600782CDF022805D0002817
:10DEC00003D02DA26121FEF7F1FD2848854219D02B
:10DED000A068EE0004998151029900290CD0002F0E
:10DEE0000AD060883A464543E068281801F04AFCA9
:10DEF000A0683018878002E000213018818000205F
:10DF000005B0F0BD0420FBE70920F9E70EB504E0F9
:10DF100068468188029A0098904702AA01A968463B
:10DF200000F003F80028F3D00EBD70B50E4B0524A9
:10DF30005D781E78B54215D01D781C789E88B44255
:10DF400001DA641C00E000241C705C88DE686C430D
:10DF5000A41904609B68E800C418A4880C801858B1
:10DF600000241060204670BD74200020FFFF0000D8
:10DF700000ED00E000E400E02E2E5C2E2E5C2E2E44
:10DF80005C2E2E5C2E2E5C536F757263655C617027
:10DF9000705F636F6D6D6F6E5C6170705F736368EF
:10DFA0006564756C65722E6300000000F8B59048DA
:10DFB000006900908F490020C863032504462D04A2
:10DFC00037E01421426861438B1801228068A24027
:10DFD00002422CD0D868C2430098424018680240E0
:10DFE000002001268640114631420FD0DF683946B5
:10DFF000314223D02946B743DF607F4E8700BE19E8
:10E000003768AF43376037680F433760401C2028BC
:10E01000E7D300989968164686433140009E5868B9
:10E020001640304002460A4301D01A699047641CEA
:10E03000E4B2724841788C42C3D3F8BD012149044F
:10E040003743D9E7F0B56D4A002153681422504395
:10E050000124694D03273F041E5822468A40164278
:10E0600006D08A0052191668BE43166016681660FC
:10E07000491C2029F0D3F0BD10B5002903D08A0730
:10E080000024002A01D0072010BD5C4A0B465160D5
:10E0900010701421547041431846946001F0D1FB74
:10E0A00000205749C0438860564840210160564AC5
:10E0B0001068FF231B0498430B0418431060534857
:10E0C0000160002010BDF8B54C4F84467D68002DDE
:10E0D00007D0002B07D078783C78A04205D30420E5
:10E0E000F8BD0820F8BD0720F8BD0E4614241643DD
:10E0F00044432E5164192361A26061606146087037
:10E10000411C7970FFF79EFF0020F8BDF0B53B4A37
:10E110005168002904D05378984203D30720F0BDFA
:10E120000820F0BD334B0025DD63314B1C69976837
:10E13000002F02D1324EDB057360012686403E433C
:10E140009660142250434218D560002201230D58D6
:10E1500093401D4216D025461D4202D003252D04B2
:10E1600005E001256D044618F7681F43F760224B50
:10E170009600F3181E6803273F04BE431E601E6806
:10E180002E431E60521C202AE0D30020F0BD70B543
:10E190001A4C05466068002804D06078854203D395
:10E1A000072070BD082070BD2846FFF74BFF0121F6
:10E1B000A068A9408843A06003D101201049C0078E
:10E1C0008860002070BD0D4B5A68002A04D05B782F
:10E1D000984203D307207047082070471423584300
:10E1E0008018034A12690068024000200A607047E4
:10E1F00000050050406100400007005084200020CE
:10E200000063004080E200E004E400E000E100E0A0
:10E21000F8B55D4C054669466078FFF7D4FF0028E5
:10E220002AD10099E0680B460140A0682E46984329
:10E230000843064020D000251BE00C20616868439D
:10E240004118087801228240324210D08A68002AA0
:10E250000DD06369002B09D001461046984700286D
:10E2600005D04AA22921FEF721FC00E090476D1C51
:10E27000EDB220788542E0D3F8BD70B5424D04463A
:10E280000E46A869FFF734FC002805D13443224626
:10E290002969A869FFF7EFFB70BDF8B50C46052AA0
:10E2A00001D20720F8BD384D002168602C70E9606C
:10E2B0006B612A61A9600A4617E00C2363431B18AF
:10E2C0001D785E683D4FB600AD00ED192E605E789A
:10E2D000002E01D0012500E000251F78BD40294314
:10E2E000002E17D00023BB401A432346641EE4B21D
:10E2F000002BE2D12448324B8260C160401CFFF702
:10E30000E2FE0028CED120482E4A00211830FFF727
:10E310006BFBF8BD0123E6E710B51B4841680029F7
:10E3200003D04078FFF7F2FE10BD082010BD10B5F5
:10E33000154C6068002808D06078FFF728FF002897
:10E3400002D1A069FFF7D4FB10BD082010BDF8B5BD
:10E350000D4C064660680D46002811D0694660786D
:10E36000FFF731FF00280AD101220098B240024293
:10E3700008D0E068104000D0012028700020F8BDCF
:10E380000820F8BDA068F5E7902000202E2E5C2E16
:10E390002E5C2E2E5C2E2E5C2E2E5C536F757263BF
:10E3A000655C6170705F636F6D6D6F6E5C617070E6
:10E3B0005F627574746F6E2E63000000000700507A
:10E3C0007BE2030011E2030010B50446002A02D0EC
:10E3D0001088002210E00A48FBE7030A000203430A
:10E3E000A05C584003061B0F43401803584083B2FB
:10E3F0001806C00C5840521C8A42EED310BD0000D3
:10E40000FFFF000010B508461146FEF75AFB10BD8D
:10E41000F8B5394C2078002837D02069002807D07B
:10E420000025E068002805D00026002D04D013E068
:10E430000125F6E70126F8E768464EDF052806D0F5
:10E44000002806D02DA26921FEF730FB04E001254B
:10E4500002E0216900988847002E12D16088694641
:10E460000880A06860DF052806D0002806D023A217
:10E470008021FEF71BFB04E0012602E0E168A068B2
:10E480008847002DD8D0002ECFD0F8BD70B5002918
:10E4900001D08C0701D0072070BD174C0125A16069
:10E4A00062802449636010DF0028F5D125701620B2
:10E4B00023DF70BD002803D00F49C86000207047DB
:10E4C0000E207047002803D00B49086100207047D8
:10E4D0000E20704710B508484068002808D08047D3
:10E4E000002804D0FF2105A23331FEF7DFFA10BD6A
:10E4F000FFF78EFF10BD0000AC2000202E2E5C2EFA
:10E500002E5C2E2E5C2E2E5C2E2E5C536F7572634D
:10E51000655C73645F636F6D6D6F6E5C736F667463
:10E520006465766963655F68616E646C65722E63AD
:10E530000000000005E4030018225043F94A0021BE
:10E540008018017181604161012281610261C160B5
:10E55000704770B5F34E18223078F34C504382194F
:10E56000121D13780F211069E568042B02D0022BCD
:10E570000DD024E001210907096989B201F074F97D
:10E58000401950DF01001AD1E068401C14E05169C5
:10E590009368526840194919521B01251818AD0299
:10E5A000AA4202D2920851DF02E0FF22013251DF7B
:10E5B000010004D1E0684019E0600120B070084615
:10E5C00070BDF8B5D74C0546A77826460420767866
:10E5D000002F01D1002E17D00A2E28D020788019C4
:10E5E000C0B20A2801D30A38C0B2182670430019F5
:10E5F0000571826106C98360426101610699C1604B
:10E600006078401C607011E0002020702571A261CC
:10E6100003C9A360616120610698E0600120607019
:10E62000FFF797FF002801D0112800D10020F8BD86
:10E6300038B50246BB4818230178594308180369C6
:10E640000179022B0CD014246343B64CF434E45803
:10E65000042909D08368009383691030A04738BD2E
:10E66000B14B10331C68F3E70023F4E710B5AD4954
:10E6700002468B780020012B1CD100238B70022ACC
:10E6800003D0032A16D10D2012E00A7818235A432A
:10E690005118091D0A78042A04D1A34A4968D2688E
:10E6A000914201D8FFF7C4FF00F0A8F9002801D07B
:10E6B000FFF7BEFF10BD70B500249B4D9948EC607C
:10E6C00004704470847026463046FFF735FF761C90
:10E6D0000A2EF9D3012109076C6048690969401EB7
:10E6E00089B24843EC60A8608E48F43004608460CE
:10E6F0000461C4608C48103004608480012028705C
:10E70000002070BDF0B5884D2A78002A1DD0002861
:10E710001DD000291BD00268002A18D0012424072C
:10E72000426823699BB29A420DD8102A0BD38368A2
:10E73000002B08D05343AA6866699B182769BFB2AB
:10E740007E43B34205D90720F0BD0820F0BD0E205E
:10E75000F0BD6B68012B1CD00B604A601946142574
:10E760006943704DF4354E19726007686F50416807
:10E77000B1608168F16041688068002541436D1C8B
:10E780002069ADB280B2884205D2206980B2091AF0
:10E7900002E00420F0BD0021206980B282182069C7
:10E7A00080B28842EBD960485B1C8260356143606F
:10E7B0000020F0BDF8B505465B481F4600781446BA
:10E7C0000E46002807D0002E07D0002D05D028685F
:10E7D000002818D103E00820F8BD0E20F8BD5148EC
:10E7E000F430016800290ED0C268816840684A434D
:10E7F00010186A68904206D9002C04D0A14202D3B6
:10E80000E019884201D90720F8BD304600F0F0F841
:10E8100000280CD0F01900F0EBF8002807D02346B0
:10E820003246294602200097FFF7CBFEF8BD1020A4
:10E83000F8BDF8B507463C481D46007816460C461C
:10E84000002807D0002C07D0002F05D02068002812
:10E8500018D103E00820F8BD0E20F8BD3148F4308F
:10E86000016800290ED0C268816840684A431018C8
:10E870006268904206D9002E04D0B14202D37019CA
:10E88000884201D90720F8BD384600F0B1F80028C9
:10E890000CD0781900F0ACF8002807D06068324638
:10E8A0004119384600F06EFF0020F8BD1020F8BD79
:10E8B00038B51D490978002905D0002805D0016820
:10E8C000002912D103E0082038BD0E2038BD154ABA
:10E8D0000021F4321368002B07D09468D368634397
:10E8E00054681B194468A34201D8072038BD136936
:10E8F0000091014600220420FFF763FE38BD0A4A5A
:10E900001278002A12D0002812D0002910D00268F4
:10E91000002A0DD0044A10321368002B0AD00420BC
:10E920007047000078250020C02000200820F7E76D
:10E930000E20F5E702230B60006810600020EFE76F
:10E94000F8B505463F481E46007817460C46002895
:10E9500007D0002C07D0002D05D0286802281BD135
:10E9600003E00820F8BD0E20F8BD364810300068DE
:10E97000002811D0084600F03BF800280ED0A0195E
:10E9800000F036F8002809D03B46224629460220EE
:10E990000096FFF716FEF8BD0720F8BD1020F8BD61
:10E9A00038B5044627480A460078002805D0002CD0
:10E9B00005D02068022819D103E0082038BD0E20B8
:10E9C00038BD20481030006800280FD00120000713
:10E9D000006981B2501E00F047FF0021431C0A4627
:10E9E000009121460420FFF7ECFD38BD072038BD1B
:10E9F000800701D0002093E7012091E770B5124D08
:10EA0000182128780F4C414349198968E2689142DE
:10EA100009D8FFF791FD0020E0606878401E68701B
:10EA20002878401C287068780024002807D0FFF759
:10EA300090FD040003D0112C01D0FFF7F9FD204612
:10EA400070BD0000C0200020782500204B48002128
:10EA500001704C484A4A02608160C160016108222D
:10EA60004161426081610846704710B500291DD0A0
:10EA700000220A60434A5368002B1BD0202817D875
:10EA80005B1E5360D0682423401CD060106914685A
:10EA90004343E3180B60012383409169401C1943F1
:10EAA0004007400F91611061002010BD0E2010BD85
:10EAB0000C2010BD042010BDF0B5324A0646916806
:10EAC00000292BD057691020791A4907490F14687B
:10EAD0000B4624254D436519B54206D1012495699D
:10EAE0008C4065400020956104E0491C4907490FAE
:10EAF0008F42EED1491C4E07760F956901210C46D5
:10EB00009C402B4623420AD19368002B07D05B1E02
:10EB1000936053685B1C53603346F0E70420F0BDFC
:10EB2000184A2423117C1268491E4907490F59438A
:10EB3000203150500020704770B500281AD00029AD
:10EB400018D0104AD368002B16D05B1ED360936890
:10EB500024265B1C9360536915681C467343EE18AA
:10EB600020330660E858641C08606007400F50615D
:10EB7000002070BD0E2070BD042070BDD820002084
:10EB800080260020A027002010B500280BD0FC48CC
:10EB9000FC49808888420FD0132176DF00280BD0F3
:10EBA000F9A2702106E00846FFF786FF002803D08F
:10EBB000F5A27621FDF77AFF10BD08280CD004DC01
:10EBC000002807D006280FD108E00B280AD00C280F
:10EBD0000AD105E0012070470220704703207047EA
:10EBE00004207047042901D0062070470520704793
:10EBF00010B50A46044603211046FFF7DEFF024621
:10EC000003212046FEF780FB002803D0DEA2B821B6
:10EC1000FDF74CFF10BDF0B5054608790E4685B0EE
:10EC200081070AD0032211462846FEF76DFB002813
:10EC300021D0FF21D4A2253146E0D14900901031E6
:10EC4000FFF713FF010013D1CD4CB168009A206982
:10EC500000F098FD0098FFF763FF002801D00146FF
:10EC600006E0C74869461030FFF766FF010004D090
:10EC70002846FFF7BDFF05B0F0BD00988008029060
:10EC8000032001902069039001A8FEF760F90700B6
:10EC90000CD0092F1BD02069FFF70EFF002803D0EE
:10ECA00001462846FFF7A4FF3946E1E73079E188BD
:10ECB00001224018E08003212846FEF725FB0028AA
:10ECC000D9D0FF21B0A25531FDF7F0FED3E730795E
:10ECD000E188401881B2E18060780028CBD060895B
:10ECE000401E0004000C6081C5D12846FEF743FC9D
:10ECF000002804D0FF21A4A26631FDF7D7FE2089A9
:10ED00006081B8E710B5FF219FA2A131FDF7CEFECB
:10ED100010BD10B59A4C9B49A088884208D0132199
:10ED200076DF002811D098A29D49FDF7BFFE0CE0C8
:10ED3000A078002809D074DF002804D0984992A256
:10ED4000FF39FDF7B3FE0020A07000F05CFA002848
:10ED500004D093498CA20931FDF7A8FE002010BD14
:10ED600070B50D6804460120854A2B0000F05DFE59
:10ED70000A333032061624464B354F23FEF743F94B
:10ED80000421FFF71AFF024604212046FEF7BCFAD1
:10ED9000002810D0FF217CA2D33140E0FFF7B9FF5B
:10EDA000002804D0FF2178A2D931FDF77FFEFEF7BD
:10EDB00050F9002809D170BDFFF7ABFF002804D03F
:10EDC000FF2171A2E531FDF771FEFEF774F970BD08
:10EDD000022000E00320D06070BDD2682046012AE6
:10EDE00006D0022A07D0032AF6D1FFF714FF70BD20
:10EDF00000F0E8F870BD00F00EF970BD5070888822
:10EE00001081508170BD00205070108170BDD1887C
:10EE10002046FEF779FB0028F8D05BA26149FDF798
:10EE200045FE70BD10B5564CA07800280AD15E484A
:10EE300073DF002804D05B4953A21331FDF736FE7F
:10EE40000120A07010BD10B54D4C0188A388132976
:10EE500025D007DC102917D0112914D120780028DB
:10EE600017D018E0522925D055290CD180790028D7
:10EE700009D11321184676DF002804D0494942A25F
:10EE80005C31FDF713FE10BD8088A0800020A070CB
:10EE900010BDFFF7C7FF0020C043A08010BD384A57
:10EEA0001846143200217FDF0028F7D03D4936A2F2
:10EEB0005431E6E7002211461846A9DF0028EDD0BC
:10EEC0004D2131A2C900DCE710B5044600F0CCF9B1
:10EED000354821461430FEF7DDFA2046FFF7B3FF30
:10EEE00010BD10B5B72128A28900FDF7DFFD10BDC8
:10EEF00010B5234888B00024C4602C48FFF7DAFA24
:10EF000000283BD12A48FEF706F8FFF79FFD0028AE
:10EF100034D100F0B1F827480090274801902248EA
:10EF200069461430FEF77CFA002804D01C4916A26A
:10EF30003B39FDF7BBFD00F0C3F81C21684600F02B
:10EF400080FC1E4801900120800302900094032160
:10EF500068460173C4810474194806900594684694
:10EF600000F02DF9002804D0FF2107A2B831FDF7E9
:10EF70009DFD00F0DAF8FFF755FF002008B010BD46
:10EF8000E0200020FFFF00002E2E5C6466755F7499
:10EF900072616E73706F72745F626C652E630000D5
:10EFA0002A03000006020000BC270020C9EE03006F
:10EFB00089EB030061ED0300E3EE0300CD0C0000DC
:10EFC00005ED030070B505460879042809D0032231
:10EFD00001212846FEF798F900281BD05B4ACC2176
:10EFE00016E08C68204600F02EFCE1780002000A52
:10EFF00009060843FDF792FF0121FFF7DEFD0246F7
:10F0000001212846FEF780F9002803D04F4ADD2170
:10F01000FDF74CFD70BDFEB50446012000908868E8
:10F0200002900879002283070FD08007800F042206
:10F03000121A0020034606E00E79029D3618B6002B
:10F04000401CAB51C0B29042F6D3087980188008BA
:10F0500001906846FDF7B2FF0221FFF7AEFD0246C0
:10F0600002212046FEF750F9002804D0FF21374A3C
:10F070001031FDF71BFDFEBD0EB51120694608726B
:10F08000072233A102A87CDF002803D02F4A32498F
:10F09000FDF70CFD002000900922694601900A80CE
:10F0A0000C224A808880FF209130C88068467ADF31
:10F0B000002804D05521254AC900FDF7F7FC0EBDF4
:10F0C00010B592B00621684601712448017968465E
:10F0D0008170234901803C2102A800F0B2FB02208C
:10F0E00002900024684644730121018201A8059022
:10F0F000684681830890214602A800F025FA00287E
:10F1000004D01549114A2831FDF7D0FC13481421C9
:10F11000143800F096FB11481438047044600472EF
:10F1200028210182448212B029E70E491E2008805E
:10F13000887801221043E12210400C30DF22104079
:10F1400088700720C87010200871704788EF03008E
:10F1500044667554617267009E020000D02700204B
:10F1600030150000F420002038B56749674A488808
:10F1700090420FD04A78664C521CD2B24A70237B20
:10F18000934208D3083175DF002803D0A169002914
:10F1900000D0884738BD00254D70217C002907D05C
:10F1A0003B2176DF002803D0A169002900D08847E1
:10F1B00061690029EED068460095884738BD70B572
:10F1C000054601461C225248FDF7E4FB4E4C002642
:10F1D00026702968002907D00822A01800F0D2FA6A
:10F1E000204608307ADF02E0474808307BDF0028FD
:10F1F00008D1401E608044486670464A0021001DC8
:10F20000FEF7F2FB70BD10B53F484068FEF770FC9A
:10F2100010BDF8B53C48103000F069F800263A4DB2
:10F220003B4C002806D06169002919D001200090CC
:10F23000684614E02878002804D0616900290FD0BE
:10F240000096F5E7687800280CD0A168002268686D
:10F25000FEF711FC002803D0A169002900D08847DF
:10F260002E70F8BD6168F1E7F8B5294C02880027D7
:10F27000254DE689102A18D029464968112A21D03F
:10F28000122A2DD0502A0FD1801D0288B2420BD1F4
:10F29000028B022A08D1C27E837E10021843C00767
:10F2A000C00F13D0FFF7B5FFF8BD81886980014614
:10F2B000154808220E31103000F064FA6F70002EED
:10F2C000F0D0F8BD0020C04368806F700846FEF79C
:10F2D0000FFC0028F5D0A1690029F2D08847F8BDBD
:10F2E000811D09480822103000F04CFADAE7418805
:10F2F000054808300288914204D34088814201D8F1
:10F300000120704700207047FC200020FFFF000014
:10F31000F827002069F10300FFB583B007460020FD
:10F320000C9C8646267805463AE07868A900411884
:10F330000A88684682804988C1800022694601A8FF
:10F3400064DF002810D1684601780598814226D1F3
:10F350007046002801D0002200E00222207889189F
:10F3600041181F2902D90C2007B0F0BD71460029B1
:10F3700008D1401CC0B2411C069B049A21701A544B
:10F3800001208646217806980A18694601A864DF9C
:10F390000028E9D1694620780978401820706D1C52
:10F3A0003888A842C1DC7046002804D0207806992D
:10F3B000801B401E88550020D6E7F8B51546069CF0
:10F3C0001E46074602220094FFF7A6FF002806D13A
:10F3D00033461022294638460094FFF79DFFF8BDBA
:10F3E000F7B582B00026054616700068144600285E
:10F3F00005D02846039900F0DFF806002DD1687982
:10F4000000281BD02078039F001D1F2824D86846A1
:10F4100079DF002821D121780322481C20707A54FA
:10F4200021781922481C20707A542078C119684626
:10F43000008800F0BCF82178401820702989002944
:10F4400023D001208446EA680398002A07D0227856
:10F4500053189B1C1F2B04D90C2005B0F0BD0720AE
:10F46000FBE71346521C491C2270C15422786746A0
:10F47000511C2170875423782A891818E96800F0F4
:10F4800081F92078297A401820702869002815D041
:10F490000021415622788C46D01C03991F28DBD8C6
:10F4A000501C022320708B5422780A23501C207099
:10F4B0008B5420786246431C23700A54A88A002883
:10F4C00009D028460094062202211430039BFFF73E
:10F4D00074FF0600C1D1A88B002809D028460094EB
:10F4E000072203211C30039BFFF767FF0600B4D1FE
:10F4F000A88C002809D02846009415221421243015
:10F50000039BFFF75AFF0600A7D1E86A002805D041
:10F510002246039900F085F806009ED1286B00284A
:10F5200005D02246039900F0BBF8060095D138209B
:10F53000405D002806D022462846039900F0E2F8F4
:10F5400006008AD1304688E770B50D4692B000219A
:10F550006A46117007241171002812D00189002910
:10F5600005D0C168002902D00978490702D4204695
:10F5700012B070BD02A9FFF733FF0028F8D102AE28
:10F5800000E00026002D0BD028890028EFD101AA29
:10F590000AA92846FFF724FF0028E9D10AAA00E0BB
:10F5A0000022684603790178304672DFE0E7087090
:10F5B000000A487002207047F8B514780746A01C6E
:10F5C00015460E461F2803D83879801C1F2801D9FC
:10F5D0000C20F8BD1D20001B80B2694686460880BD
:10F5E0003019801C7DDF0028F3D13868022805D14E
:10F5F00068460088704501D8092107E0387908215C
:10F60000002801D0704501D968460088421C325557
:10F61000641CE2B2B1542978801C081828700020BC
:10F62000F8BDF8B50D4611780646881D14461F280A
:10F6300001D90C20F8BD33880720062BFAD31927EF
:10F64000FF01BB4202D94E4A9342F3D17288062A87
:10F65000F0D3BA4202D94A4FBA42EBD1484FBB422B
:10F6600003D0BA4201D09342E4D8481C052220704E
:10F670006A5420781222411C21702A5420784119A2
:10F680003088FFF794FF21784018C0B220704119EC
:10F690007088FFF78CFF2178401820700020F8BD9B
:10F6A00070B5054600790E46801C1446C0B211782C
:10F6B000821C8A181F2A01D90C2070BD0A46491CD9
:10F6C000401C2170B0542078FF22411C217032541C
:10F6D000207881192888FFF76AFF21784018C0B286
:10F6E0002070AA88002A09D0A968002908D08019AA
:10F6F00000F048F82078297940182070002070BD6B
:10F70000072070BDF7B582B002981446406B0F46D3
:10F71000002832D0029800252030009028E002987E
:10F72000416B0C2068430E18217830794A1CC01CAC
:10F730002270785420781622411C21703A54207887
:10F74000C1193088FFF733FF21784018C0B220700C
:10F75000B288002A09D0B16800290ED0C01900F083
:10F7600011F820783179401820706D1C0098EDB2A6
:10F77000007EA842D3D800206FE607206DE6000087
:10F78000FFFF0000F8B5042A2CD3830712D00B78B2
:10F79000491C0370401C521E83070BD00B78491C78
:10F7A0000370401C521E830704D00B78491C037061
:10F7B000401C521E8B079B0F05D0C91ADF00202367
:10F7C000DE1B08C90AE0FDF7E5F8F8BD1D4608C9CB
:10F7D000FD401C46B4402C4310C0121F042AF5D231
:10F7E000F308C91A521EF0D40B78491C0370401C50
:10F7F000521EEAD40B78491C0370401C521EE4D4FC
:10F8000009780170F8BD01E004C0091F0429FBD28A
:10F810008B0701D50280801CC90700D00270704799
:10F8200000290BD0C30702D00270401C491E0229D8
:10F8300004D3830702D50280801C891EE3E70022DF
:10F84000EEE70022DFE70378C27819464378120614
:10F850001B0219438378C0781B0419431143090222
:10F86000090A000608437047002203098B422CD383
:10F87000030A8B4211D300239C464EE003460B4300
:10F880003CD4002243088B4231D303098B421CD362
:10F89000030A8B4201D394463FE0C3098B4201D354
:10F8A000CB01C01A524183098B4201D38B01C01A8C
:10F8B000524143098B4201D34B01C01A5241030903
:10F8C0008B4201D30B01C01A5241C3088B4201D3B2
:10F8D000CB00C01A524183088B4201D38B00C01A5F
:10F8E000524143088B4201D34B00C01A5241411A86
:10F8F00000D201465241104670475DE0CA0F00D069
:10F900004942031000D34042534000229C46030961
:10F910008B422DD3030A8B4212D3FC22890112BAE7
:10F92000030A8B420CD3890192118B4208D38901BF
:10F9300092118B4204D389013AD0921100E08909D7
:10F94000C3098B4201D3CB01C01A524183098B42B8
:10F9500001D38B01C01A524143098B4201D34B01A1
:10F96000C01A524103098B4201D30B01C01A524104
:10F97000C3088B4201D3CB00C01A524183088B428B
:10F9800001D38B00C01A5241D9D243088B4201D314
:10F990004B00C01A5241411A00D2014663465241FF
:10F9A0005B10104601D34042002B00D549427047FE
:10F9B00063465B1000D3404201B50020C046C046FC
:10F9C00002BD704770477047754600F023F8AE4699
:10F9D000050069465346C008C000854618B020B5EA
:10F9E000FDF750F860BC00274908B6460026C0C5A0
:10F9F000C0C5C0C5C0C5C0C5C0C5C0C5C0C5403DE7
:10FA000049008D4670470446C046C0462046FCF774
:10FA1000A4FF000000487047142800200149182066
:10FA2000ABBEFEE726000200704730B47446641E89
:10FA30002578641CAB4200D21D46635D5B00E31871
:10FA400030BC184723D1BCEA5F782315DEEF1212D1
:10FA50000000000074FA03000020002014010000E0
:10FA600004C9030088FB0300142100206413000074
:10FA700020C903000024F40000000000080000007A
:10FA80000300000000000000000000000000000073
:10FA90000000000000000000000000000000000066
:10FAA0000000000000000000000000000000000056
:10FAB0000000000000000000000000000000000046
:10FAC0000000000000000000000000000000000036
:10FAD0000000000000000000000000000000000026
:10FAE0000000000000000000000000000000000016
:10FAF0000000000000000000000000000000000006
:10FB000000000000000000000000000000000000F5
:10FB100000000000000000000000000000000000E5
:10FB200000000000000000000000000000000000D5
:10FB300000000000000000000000000000000000C5
:10FB400000000000000000000000000000000000B5
:10FB50000000000000000000FFFF000000000000A7
:10FB60000000000000000000000000000000000095
:10FB70000000000000000000000000000000000085
:08FB800000000000000000007D
:040000050003C8C16B
:00000001FF
