:020000040000FA
:10000000C0070000D1060000D1000000B1060000CA
:1000100000000000000000000000000000000000E0
:100020000000000000000000000000005107000078
:100030000000000000000000DB000000E500000000
:10004000EF000000F9000000030100000D010000B6
:1000500017010000210100002B0100003501000004
:100060003F01000049010000530100005D01000054
:1000700067010000710100007B01000085010000A4
:100080008F01000099010000A3010000AD010000F4
:10009000B7010000C1010000CB010000D501000044
:1000A000DF010000E9010000F3010000FD01000094
:1000B00007020000110200001B02000025020000E0
:1000C0001FB5C046C04600F0EFFA04B00FB41FBD24
:1000D00008205A49096809580847382057490968CB
:1000E000095808473C2055490968095808474020E5
:1000F0005249096809580847442050490968095875
:10010000084748204D490968095808474C204B4981
:10011000096809580847502048490968095808479C
:100120005420464909680958084758204349096836
:10013000095808475C204149096809580847602068
:100140003E4909680958084764203C49096809582C
:100150000847682039490968095808476C20374919
:100160000968095808477020344909680958084740
:100170007420324909680958084778202F490968CE
:10018000095808477C202D490968095808478020EC
:100190002A490968095808478420284909680958E4
:1001A0000847882025490968095808478C202349B1
:1001B00009680958084790202049096809580847E4
:1001C00094201E4909680958084798201B49096866
:1001D000095808479C201949096809580847A02070
:1001E0001649096809580847A4201449096809589C
:1001F0000847A8201149096809580847AC200F4949
:10020000096809580847B0200C4909680958084787
:10021000B4200A49096809580847B82007490968FD
:1002200009580847BC2005490968095808470000D3
:1002300003480449024A034B7047000000000020B5
:10024000C0070000C00700000122D84B5A6000BF61
:10025000D74A1268002AFBD0016000BFD44A126856
:10026000002AFBD00022D14B5A6000BFD04A12684E
:10027000002AFBD07047F0B505460E46174600240D
:1002800006E0A200B158A2005019FFF7DDFF641C80
:10029000BC42F6D30020F0BD0120C043C549086030
:1002A000401048607047014601229204086890425D
:1002B00001D9102070470020FCE7F0B505460C4638
:1002C0001646002706E028462168FFF7BDFF2D1DD2
:1002D000241D7F1CB742F6D3F0BD70B505460C4611
:1002E0002E460BE0304600F075F9FF2C01D80024B3
:1002F00001E0FF3C013C012080023618002CF1D1C6
:1003000070BD0146012212044868904201D90920BB
:100310007047A9484069401C01D10F20F8E7002030
:10032000F6E7FEB504462068030000F037FA05043E
:100330002B4249598B00201DFFF7E3FF0546002D96
:1003400001D02846FEBDFFF7A7FF0120C00200F044
:1003500041F9042221469948FFF78DFF002801D07A
:100360000320EFE708222146944800F06DF90028A9
:1003700006D1002192480068FFF766FF00F00CF9F3
:100380000320DFE7A768E6686068019031463846D9
:10039000FFF7A3FF324638460199FFF78EFFB20000
:1003A0003846019900F050F9002800D1CAE703202F
:1003B000C8E700F0E3F9834800688349086041E03A
:1003C00060680190E668A0680090B200009901980A
:1003D00000F03AF90746002F00D1B3E70E20B1E74D
:1003E000201DFFF760FF0546002D01D02846A9E734
:1003F0006068002807D1FFF74FFF0320800200F05C
:10040000E9F800F0C9F8FFF747FF0120C00200F04B
:10041000E1F8042221466948FFF72DFF002801D0AA
:1004200003208FE708222146644800F00DF90028D8
:1004300006D1002162480068FFF706FF00F0ACF823
:1004400003207FE700BF00207CE770B505460C461F
:10045000182D04D12068FFF764FF206002E001201E
:10046000206000BF00BF70BDF0B589B05248406940
:1004700003905248806881000398081802900398FE
:10048000000B01900121090302984018401E000B47
:1004900000900124002520462946019A00F0C4F866
:1004A0000022401E91410791069001260027304608
:1004B0003946009A00F0B8F80022401E914105919B
:1004C0000490049BDB43059AD2430698184307998E
:1004D00011430791069037490698086007984860CD
:1004E00009B0F0BD70B53448446934488568466841
:1004F000AA003146204600F0A7F8002801D00020CD
:1005000070BD0120FCE72D484068002801D0012083
:1005100000E000200546FFF7E5FF002807D0FFF7C1
:10052000BBFE0320800200F055F800F035F8FFF71D
:100530009BFF002D0ED020484669204884684768FC
:1005400021463046FFF7C9FE224639463046FFF7BE
:10055000B4FE00BF00F020F810B5184844681A48EF
:100560000460204600F0DCF810BD15480068006803
:10057000401C01D100BFFEE710480068002802D0EF
:10058000042806D101E0FFF7BEFFFFF7E5FF00BF3B
:10059000FEE700BF00BFFEE7BFF34F8F0B480C49DB
:1005A000C860BFF34F8F00BFFEE7000000E50140C9
:1005B00000E40140000600400010001000080000A8
:1005C000B8070000BC070000000000200400FA0586
:1005D00000ED00E010B50146104B1A6808460223F2
:1005E0000F4C636000BF0F4B1B68002BFBD0531CEC
:1005F00004D0904202D20A4B186101E0084B986087
:1006000000BF084B1B68002BFBD00023044C636029
:1006100000BF044B1B68002BFBD010BD0010001066
:1006200000E5014000E4014010B5202A04DB01464A
:10063000203A9140002010BD914020239C1A03468F
:10064000E3401943904010BD034610B50B439B0790
:100650000FD1042A0DD308C810C9121FA342F8D025
:1006600018BA21BA884201D9012010BD0020C04328
:1006700010BD002A03D0D30703D0521C07E000208E
:1006800010BD03780C78401C491C1B1B07D1037854
:100690000C78401C491C1B1B01D1921EF1D118463D
:1006A00010BD70477047704710B500F007F810BDD7
:1006B000014B1B68DB6818470000002019481A49E5
:1006C0007047FFF7FBFFFFF7FBFC00BD20BFFDE716
:1006D0001649174C24688C420BD1164B1B68994263
:1006E0000CD1154B154A1360186810498842EDD09B
:1006F0000AE0134880F30888124B18470F4A13602A
:1007000018680A498842E1D080F308880E49884277
:1007100004DD0E48026802210A4302605B68184744
:100720000346DFE7C0070000C0070000FFFFFFFF30
:10073000000C000014100010001000000000002049
:10074000000400206B05000000200020240500406C
:100750000D48704502D1EFF3098101E0EFF3088104
:10076000886902380078182802D1C046074A104725
:10077000074A12682C3212681047000000B5054B7A
:10078000054A9B58984700BDFDFFFFFF4B04000042
:1007900000000020001000000400000030B4744687
:1007A000641E2578641CAB4204D3635D5B00E318D0
:1007B00030BC18471D46F8E7000C00000010000090
:10100000F0210020FDB101005D22000063B101006C
:1010100000000000000000000000000000000000D0
:101020000000000000000000000000006DB20100A0
:1010300000000000000000005D2200005D220000B2
:10104000D9B20100DFB201005D2200005D22000084
:101050005D2200005D2200005D2200005D22000094
:10106000E5B201005D2200005D220000EBB201004C
:101070005D220000F1B20100F7B20100FDB20100F3
:101080005D2200005D2200005D2200005D22000064
:101090005D2200005D2200005D2200005D22000054
:1010A00003B3010009B301005D2200005D220000CE
:1010B0005D2200005D2200005D2200005D22000034
:1010C00000F002F81AF07BF80CA030C80838241899
:1010D0002D18A246671EAB4654465D46AC4201D170
:1010E0001AF06DF87E460F3E0FCCB646012633420D
:1010F00000D0FB1AA246AB46334318477CA301003D
:10110000ACA30100103A02D378C878C1FAD85207CC
:1011100001D330C830C101D504680C6070470000AD
:101120000023002400250026103A01D378C1FBD803
:10113000520700D330C100D50B6070471FB5C046C1
:10114000C04619F0DEFF04B00FB41FBDF0B4404636
:10115000494652465B460FB402A0013001B506482D
:10116000004700BF01BC86460FBC804689469246B8
:101170009B46F0BC70470000C11000008269024924
:101180008161024810447047911100000100000085
:1011900001B41EB400B501F000FF01B40198864609
:1011A00001BC01B01EBD0000401E00BF00BF00BF5B
:1011B00000BF00BF00BF00BF00BF00BF00BF00BF37
:1011C00000BFF1D17047000070B505460C461646C9
:1011D00002E00FCC0FC5103E102EFAD2082E02D31B
:1011E00003CC03C5083E042E07D301CC01C5361F2E
:1011F00003E021782970641C6D1C761EF9D270BD45
:101200008307FF22DB0E9A408907090E99400028C8
:101210000BDA0007000F0838830828489B001818CD
:10122000C36993430B43C3617047830824489B0001
:101230001B181868904308431860704710B504469F
:1012400000210120FFF7DCFF00211820FFF7D8FF65
:1012500000210B20FFF7D4FF02211920FFF7D0FF58
:1012600002210D20FFF7CCFF02210E20FFF7C8FF5F
:1012700002210F20FFF7C4FF0221C81FFFF7C0FFA4
:1012800003211620FFF7BCFF03211520FFF7B8FF4D
:10129000204600F019F8002010BD6721018070473A
:1012A00010B500F020F810BD0648704710B500F0EA
:1012B00022F810BD704770477047000000ED00E055
:1012C00000E400E003F9004370B505462D4C08200A
:1012D0002070A01CFFF7E1FF5920A080294620467E
:1012E00000F0B3FB70BD10B500F0B8FB254900203D
:1012F000891E087010BDF8B5224E0446B61E30781F
:1013000001270D46002807D0204660380B2808D852
:10131000204600F059FF2BE0602CF9D01A480860F5
:10132000F8BD20466C38032803D8204600F08DFF16
:101330001EE0204670381F2803D8204600F047F9E9
:1013400016E0204690380F2803D8204600F0EAF82F
:101350000EE02046A0380F2803D8204600F076F88B
:1013600006E02046B0380F2804D8204600F0E2F905
:10137000286000E02F60602CD2D128680028CFD1EF
:101380003770F8BD1A000020013000000120254907
:10139000C003086024490020087007202349C005C5
:1013A0008860704770B5204D04462878A04207D069
:1013B000002C05D0002803D01DA14D2019F0CBFE34
:1013C0002878A0420ED000211E4A18482C70002C0C
:1013D0001BD01D4B012C06D0022C0DD014A168206F
:1013E00019F0B9FE70BD1160022111605361032133
:1013F00009068160416070BD116003211160536175
:101400000121C9058160416070BD11601160072133
:10141000C905816070BD10B505A1712019F09BFE52
:1014200010BD000080E100E02000002000F5014038
:101430007372635C68616C5F63636D5F6161722E80
:101440006300000000F500408401002010B5A038C2
:10145000030019F0A1FF0B070E172028313A414B6A
:10146000525C65004B6808788A68194603F0D9F920
:1014700010BD88888A6883B20888194680B203F054
:10148000DFF910BD08884C68CB688A6880B22146B5
:1014900003F0DAF910BD08884B688A6880B21946F3
:1014A00003F0EEF910BD88888A6883B2088819466F
:1014B00080B203F0FAF910BD88888A6883B2088880
:1014C000194680B203F034FA10BD08884A6880B229
:1014D000114603F073FA10BD088982B2888883B27E
:1014E0000888194680B203F074FA10BD08884A686B
:1014F00080B2114603F091FA10BD08894C6882B29F
:101500000888CB6880B2214603F00AFB10BD08882A
:101510004C68CB688A6880B2214603F01BFC10BD82
:10152000012010BD10B59038030019F035FF0906F1
:101530000F161D242C363F464E0088888A6883B2D9
:101540000888194680B204F01DF910BD08884A6861
:1015500080B2114604F051F910BD08884A6880B283
:10156000114604F056F910BD08884A6880B2114649
:1015700004F05CF910BD08884B688A6880B219468F
:1015800004F067F910BD088982B2888883B20888A0
:10159000194680B204F066F910BD08894B6882B222
:1015A0000888194680B204F07CF910BD08884A68A2
:1015B00080B2114604F087F910BD888882B208888D
:1015C000114680B204F0DBF910BD012010BD10B54A
:1015D0007038030019F0E0FE1B0F15192125282F84
:1015E000363B4044484C53585F68707881889095EA
:1015F000999CA2A5AC004A680878114607F019FC2E
:1016000010BD086807F066FC10BD0C790B7B8A687A
:101610000868214607F06FFC10BD086807F000FD60
:1016200010BD07F08CF910BD08884A6880B21146D9
:1016300007F034FE10BD0A790888114680B207F021
:10164000C4FE10BD087840B207F0CDFE10BD08887A
:1016500080B207F0E1FE10BD086807F0EFFE10BD94
:10166000086801F0ECFB10BD086801F016FC10BD25
:10167000088982B209C9194607F0F8FE10BD05C9EC
:10168000114607F042FF10BD08884A6880B2114633
:1016900009F0FAF910BD0C790888CB688A6880B225
:1016A000214609F0CDFA10BD0B7908888A6880B20E
:1016B000194609F07DFC10BD08884B688A6880B225
:1016C000194609F0EEFC10BD08884C68CB688A68A2
:1016D00080B2214609F053FD10BD08884A6880B2E7
:1016E000114609F08CFD10BD0B7908880A7A80B28A
:1016F000194607F02DFF10BD088880B207F02DFFB6
:1017000010BD086807F030FF10BD07F0FCF810BDF1
:101710008A6809C9194607F08CFF10BD07F0DCF88C
:1017200010BD08884A6880B2114608F05BF810BD09
:10173000012010BD10B5B02805D0B12808D0B228BE
:101740000BD0012010BD088880B20AF056F910BDF8
:10175000088880B20AF070F910BD08884B688A6862
:1017600080B219460AF079F910BD000010B50300E7
:1017700019F012FE0A0609060C0C0F0F06060612D7
:1017800007F005F910BD09F027FF10BD01F042FA7E
:1017900010BD06F075FA10BDFAA1FE4819F0DBFC89
:1017A00010BD7FB5FC49054603C901900291132085
:1017B000800169468881F94A0F2310460A2128389A
:1017C0000AF043FE0024F6480AF05DFE641CE4B211
:1017D0000A2CF8D304200090F04801231A4603A9EC
:1017E000F0300AF05DFA002804D0FF20E5A1533064
:1017F00019F0B1FC686800F024FC00211E220846A4
:1018000004F040F907F0C6FA02222421E54801F06D
:101810007FFBE44801222C214C3001F079FBE149A7
:101820000B20B03901F000FA002804D0FF20D5A128
:10183000673019F090FC09F09FFE02F075F901ABDA
:1018400000220821D8A007F085F9002804D0FF2045
:10185000CCA16D3019F07FFC284602F0C2FC0028B4
:1018600004D0FF20C7A16F3019F075FCDB2189007F
:10187000D04819F045FBCF48012141710221817107
:101880000621C1717FBD10B5CA4CA078092804D3C8
:10189000FF20BCA1A73019F05EFC207860214843EE
:1018A000001900210173417BF722C908C900C91C36
:1018B0001140EF22114041730121E1700C3010BD45
:1018C00070B50E4600211C4619801546030019F01C
:1018D00063FD0723050B1711231D2300224629460C
:1018E000304609F096FE70BD22462946304606F085
:1018F00098FE70BD22462946304601F0C2FF70BDF9
:1019000022462946304603F0C0FD70BD22462946D6
:10191000304600F010FC70BD9E489AA1D53819F0F1
:101920001AFC032070BD70B5A24CE078002818D0D6
:101930002078602148430019407B00254007400F74
:1019400001190879401E08712078401CC0B220702F
:10195000092800D12570A078401CA0700AF01DFF56
:10196000E57070BD9348C079002800D08BE77047C0
:1019700070B5904DA86800280CD0FFF7F3FF002841
:1019800062D06022A968FFF71FFCFFF7CCFF0020A0
:10199000A860EFE76879002856D0FFF774FF044687
:1019A00080484C3001F0C4FA6060002804D1C9209E
:1019B00074A1800019F0CFFB60680AF0EAF80028F3
:1019C0000DD0204606F011FD6078010703D5C00850
:1019D000C000401C2BE0734861684C302DE071481A
:1019E00061684C3001F0ADFA00F05AFB00282BD1B1
:1019F000FFF749FF04466B4801F09AFA606000283F
:101A000004D164485FA16D3019F0A5FB60680AF04D
:101A1000C4F8002814D0606800886080204609F06F
:101A20002BFE6078010706D5C008C000801C6070DE
:101A3000FFF779FF9EE75B48616801F082FA99E75A
:101A40005848616801F07DFA70BD10B55A4CE160EC
:101A5000A0605A4800F034FC607010BD5649002068
:101A60000870704770B5564E0546706A94B00C46C3
:101A7000401C04D1B06AC0430004000C0BD0306A93
:101A8000C007C00F2870706A19F03CFAB06A207164
:101A9000000A607114E02B206946087009A96846A5
:101AA0000AF04BF8002804D0972036A1800019F0E6
:101AB00052FB0120287006220AA9204619F0C1F91C
:101AC0002878002803D06079C0210843607114B0E1
:101AD00070BDF0B53A4C0646206895B00D463746C5
:101AE0000837401C08D16068401C05D1A068401C24
:101AF00002D1E068401C11D02068314619F002FA8A
:101B00006068311D19F0FEF9A068394619F0FAF93C
:101B1000E06831460C3119F0F5F925E02B206946D3
:101B2000087009A968460AF008F8002804D0194886
:101B300014A1553819F00FFB08220AA9304619F0F4
:101B400080F92B206946087009A9684609F0F5FF5D
:101B5000002804D0A3200BA1800019F0FCFA082271
:101B60000AA9384619F06DF920692E460836401C3E
:101B700029D16069401C26D1A069401C23D1E069AD
:101B8000401C1FE07372635C686F73745F636F72F5
:101B9000652E6300DA020000B4B30100D801002012
:101BA0006D170000A40B00206E52463531383232DA
:101BB00000000000880700202400002071190000A8
:101BC0008000001012D02069294619F09BF9606945
:101BD000291D19F097F9A069314619F093F9E069C8
:101BE00029460C3119F08EF915B0F0BD2B2468464A
:101BF000047009A909F0A1FF002803D0F649F748AD
:101C000019F0A9FA082209AF28460AA919F019F90A
:101C10006846047009A909F090FF002804D0EF4835
:101C2000ED49C01D19F097FA0822391D304619F008
:101C300008F9D9E770B5EA4C0546A068002804D039
:101C40000320E549000219F086FAA56070BD10B5C1
:101C50000146E44801F075F9E1498879401CC0B2B9
:101C60008871012803D1E048407800F04DFB10BD99
:101C700070B50446DD4816460D46814204D1D7486A
:101C8000D549CB3019F067FA012E05D0E120D249B1
:101C9000800019F060FA70BD66202070002020726C
:101CA000A5810120A07370BD70B515460C4606468F
:101CB000FFF758FE00280CD06621017046800121F4
:101CC000017221680161A18881820573FFF72BFEF3
:101CD00070BD1321304607F078FB70BDC2494968DA
:101CE000884201D210207047032101700020704704
:101CF00070B5BD4C05462078002694B0002801D070
:101D00000820E4E6BA4A6260954201D21020DEE67D
:101D10006868002809D00921D82804D3C31C9B086F
:101D20009B00834205D00846D1E60320400268604C
:101D30000EE0012109074B6B896B4B43AD49511AEA
:101D40000122591AD202891A814201D20421EAE7FA
:101D500000F052FF6178A0680CF04EFBE068401E76
:101D600007280BD8302269460A70887068460DF043
:101D700088FF002802D009A80CF0FBFC2846FFF7DA
:101D800010FD012020703046A1E6F8B504469648C3
:101D90000F464068814208D3002C01D0844204D30E
:101DA000E01C80088000A04201D01020F8BD8C48C3
:101DB0008178002911D039880091417860225143FF
:101DC0000D18287B0C350007000F3B4600222946E2
:101DD000FFF776FD060004D015E0002038800520CE
:101DE000F8BD002C13D039880098814201D90C2607
:101DF0000DE028783B460007000F22462946FFF7F2
:101E00005FFD060005D00C2E01D000203880304642
:101E1000F8BD734C6078401CC0B26070092801D1D5
:101E200000206070A078401EA07068784107490FBC
:101E300001290ED0022906D003291AD066496E481E
:101E400019F089F9E3E7C006E1D46868FFF7FFFEFF
:101E5000DDE7644869684C3001F073F86079401C34
:101E6000C0B260710128D2D15F48407800F04CFACE
:101E7000CDE7E079401CE071C9E7604A10B59042B7
:101E800009D3594A0124A4045268A04201D39042C4
:101E900001D3914201D2102010BD00F0FEFE10BD12
:101EA000564B10B5994209D34F4B0124A4045B68EB
:101EB000A14201D3994201D39A4201D2102010BD10
:101EC000022803D0102801D0092010BD00F00BFF1C
:101ED0000028FAD0052010BD484B10B598420DD30C
:101EE000414B0124A4045B68A04201D3984205D36E
:101EF000994203D3002A03D09A4201D2102010BD88
:101F000000F017FF0028FAD0072010BD10B50446D6
:101F1000354894B04068844202D2102014B010BDFD
:101F20000F2008A9087369460BA809F006FE0028CF
:101F3000F4D16846007A207068464089608068461F
:101F40008089A0800020E9E710B500290BD0264A3F
:101F50005268914202D30B68934201D2102010BD07
:101F60008A88002A02D001F037FE10BD092010BD7A
:101F700010B5224A94B091420ED31B4A01239B0410
:101F80005268994201D3914206D3441E1E2C41D877
:101F9000994203D3914201D21020BFE7012837D1E3
:101FA00008780024C007C00F002803D0032069462A
:101FB000887001E06846847038206946087009A975
:101FC000684609F0BAFD002804D004480CA18B38FB
:101FD00019F0C1F82046A1E7841B0000AA02000006
:101FE00088070020A40B002024000020FFFF000031
:101FF00000220020000000202104000000C0010099
:102000007372635C686F73745F636F72652E6300D5
:10201000072083E70246203A1F2AF9D806F001FE7E
:102020007CE710B5604A5268914201D2102010BD81
:102030000246203A1F2A02D806F068FE10BD07208B
:1020400010BD70B50546594C002020702046461939
:1020500055484660E01C80088000A04204D0FF2064
:102060005349293019F077F801200007C06AC043AE
:102070000006000E03D14F480068401C03D04E48B4
:102080004E49301AC862A8B20422214604F00DF964
:10209000002804D0FF204649393019F05CF870BDA3
:1020A000F0B595B03B2008A9087369460BA809F064
:1020B00044FD002804D0FF203D49813019F04BF841
:1020C0003F4E00246D4630E02F19B87DC10706D081
:1020D000400704D460004019C08809F0E9FB394882
:1020E000807900281FD0B87D80071CD5600040197A
:1020F000C0880022062109F0F7FB002813D03C21FC
:1021000008A8017360004019C1886846C185694606
:102110000BA809F012FD06000BD0FF2024499630D1
:1021200019F019F805E0641CE4B268460079A04291
:10213000CAD8304658E5F7B50546007800270009AB
:102140000C463E46062804D0FF201949BF3019F03E
:1021500002F8287A00280ED0012814D0FF20144954
:10216000E03018F0F8FF0298002C068001D027809C
:1021700066800020FEBD02270926002C10D0A88909
:10218000A080A87B0AE003271426002C08D06888CA
:10219000A0802869E060A88A2082287B2072E2E77C
:1021A00002980680E5E700002400002000220020BD
:1021B000002000000010001000000020000500407A
:1021C000043000008807002010B56038030019F0C3
:1021D000E3F80A060A0F13181F252930353A086854
:1021E000FFF786FD10BD05C91146FFF7CEFD10BDF6
:1021F0000868FFF773FD10BD05C91146FFF73DFEE6
:1022000010BD4B6808788A681946FFF749FE10BD73
:102210008A6809C91946FFF75FFE10BD0868FFF715
:1022200075FE10BD08884A6880B21146FFF78CFE23
:1022300010BD05C91146FFF79BFE10BD05C911462B
:10224000FFF7EFFE10BD012010BD01207047000018
:102250000E4A12680C498A420AD118470B4A126882
:10226000094B9A4204D101B500F08EFE03BC8E46A4
:10227000074909680958084706480749054A064BAF
:102280007047000000000000BEBAFECA64000020D3
:1022900004000020F0210020F021002001203F490F
:1022A000400608603E4908603E490A68FF231B0259
:1022B0009A4383121A430A6038498039086070478C
:1022C00010B502460420384904E0C3005B181B79AE
:1022D000002B0AD00346401EC0B2002BF5D133A11B
:1022E000432018F038FFFF2010BDC300CA50002261
:1022F00059184A718A7101220A7110BD2A4A0021B7
:10230000C00080180171704710B50446042803D33B
:1023100026A1522018F01FFF2348E1000C18207955
:10232000012803D021A1532018F015FF6079A1796D
:10233000401CC0B2814200D06071012017494006A4
:102340008031086010BD70B5164804250068164E2F
:102350000004800F1B4C02281AD014A1692018F029
:10236000FAFE15E02078C10088190279012A07D108
:10237000427983799A4203D04279827170588047BA
:102380002078401CC0B22070042801D300202070A7
:1023900028466D1EEDB20028E4D170BD80E100E05A
:1023A00080E200E018E400E0200C00207372635C1F
:1023B000736F635F7369676E616C6C696E672E63C0
:1023C000000000003400002010B5EFF31080C407B7
:1023D000E40F72B6D2484178491C41704078012818
:1023E00001D10AF0FFF9002C00D162B610BD70B522
:1023F000CB4CE07800280AD10125E570FFF7E4FF17
:102400000AF0F8F9002804D000200AF0CBF90020E7
:1024100070BDC44865714560F9E770B5EFF3108091
:10242000C507ED0F72B6BE4C6078002803D1BEA17F
:102430008F2018F090FE6078401E60706078002851
:1024400001D10AF0D3F9002D00D162B670BD10B5EC
:10245000B348C178002904D000214171C170FFF751
:10246000DCFF002010BD10B504460AF0C3F9AC49EA
:10247000C978084000D001202060002010BDF8B5C8
:102480000246A74C0026A67108200421012510272A
:10249000130018F081FF0D080A0C0E101214161EFE
:1024A000262123252800257122E0022001E0217148
:1024B0001EE020711CE027711AE02020F9E70126B8
:1024C00016E0FFF781FF0AF095F90028FBD00226FD
:1024D0000EE02171A5710BE02771FBE7202000E0E1
:1024E00040202071F6E7FF208FA1763018F033FEF0
:1024F0000AF08CF9002809D00AF08EF9B04205D113
:1025000030460AF08CF90028FAD02CE00120800730
:10251000C560894900224A60884A9661814B02223F
:102520005A60856086480269D243D206D51702698F
:1025300010231A4302610F466D1C00E020BF78682B
:102540000028FBD030460AF06AF90028FAD0002DA6
:1025500004D17B48026910218A430261714902203B
:10256000886000207860A07900280CD00AF042F939
:1025700005460AF09FF8734A002D02D0A260E06081
:1025800001E0E260A060002E01D100F0A5F8F8BDE6
:1025900010B504460AF034F9002805D0604901203E
:1025A000C8704A78521C4A702046FFF768FF10BD79
:1025B000F8B5614DA8680026012802D1AE600AF086
:1025C000F1F86868012800D16E6028680127544C32
:1025D000012812D12E606079002803D000200AF073
:1025E000E1F866712078002807D00AF003F9002886
:1025F00003D0012080070761A770286901282AD12C
:102600002E6100F05FF8012080074761A079002863
:1026100015D00AF0EFF800900AF04CF80099002964
:1026200001D0E16800E0A168411A022901DA8A1CA0
:1026300011DC0099002901D0E06000E0A060FFF704
:10264000C3FE0AF0D7F8002804D0012080070761F4
:10265000A77000E02770E868012812D100F032F876
:1026600000F030F800F02EF8A078002804D1FF2008
:102670002DA1033018F06FFDEE60A6702670FFF7F5
:10268000CCFEF8BD10B5264CE078002801D10AF048
:10269000ADF801208107886100F014F8A0780028C7
:1026A0000BD0254CE068002803D10AF0B8F80028C8
:1026B000F8D10020E06000F005F800201949C0437F
:1026C000886010BD08B55020694608806A461088A9
:1026D000411E1180FAD208BDF8B51248192787604B
:1026E000154900200860C8600AF084F8BE0701247C
:1026F0000B4D002802D03461AC7000E02C70FFF765
:1027000063FE084847600D4928798863FFF7DAFFC0
:10271000B461FFF7D7FF0849002008617461F8BD74
:1027200038000020000300407372635C736F635FC6
:10273000636C6F636B2E6300000100400005004076
:1027400000ED00E0FFFFFF7F8107C90E002808DAD7
:102750000007000F083880082E4A80008018C069E2
:1027600004E080082C4A800080180068C8400006F9
:10277000800F704710B50D20FFF7E6FFC4B20420AC
:10278000C043FFF7E1FFC0B2844203D023A11A2067
:1027900018F0E1FC26490120486010BD0121254ABE
:1027A00048031060244B00221A60244A5160244AD6
:1027B0001060244A11601F49803908607047012168
:1027C0001C4A480310601F4A51601B4A00211160D7
:1027D0001B490860704710B517490868012804D0E4
:1027E0000EA1572018F0B7FC10BD114880680022D8
:1027F000C0B20A6009F0BEFC10BD10B50E480168F9
:102800000029FCD0FFF7E7FF01200D4940030860D5
:1028100010BD000000ED00E000E400E07372635CB6
:10282000736F635F68616C5F726E672E6300000098
:1028300000D5004080E100E000D1004000D300401E
:1028400080E200E000D0004030B40121BC48C90261
:102850000160CD1005604A030260BA4803681B029C
:102860001B0A036004680023240A24020460B6489B
:102870000468240A24020460B4480124446084608B
:10288000B34C23606360A360B24B19601D601A6093
:10289000B14B19601A600121016030BC704710B45F
:1028A0000121A748CA0202600B0203600C06046003
:1028B000A64841608160A94841680029FCD1A4492B
:1028C0000020086048608860A248026003600460DD
:1028D00010BC704701219F48C9020160C910016006
:1028E0007047002805D0012805D0022805D19C4852
:1028F00070479C4870479C48704710B59BA18B203F
:1029000018F029FC002010BD70B500219E4C9F4D91
:102910009F4A8F4B002808D001281DD0022822D0C2
:1029200092A1B32018F017FC70BD01200004A06034
:10293000A86011601960974BC2039A60964A906034
:102940007F4A0012106095480160864801609448F3
:1029500001609448017070BD01204004A060A8602F
:102960005160596070BD01208004A060A860916032
:10297000996070BDF8B59446834A8B4F834D00240F
:102980000126002808D0012832D0022840D077A1A3
:10299000E82018F0E0FBF8BD891E0902090A0120B1
:1029A000000490603C6468606C4A1164012B1DD087
:1029B00000217C4A7D4B51706146DC63DE637C4BB9
:1029C0005C6002249C6004241C61744B3D311960DE
:1029D00073490E605F4B891519606F4B58605E48F4
:1029E00001606C49C00548601670F8BD0121E0E740
:1029F0000120704E4004704F012B04D134645060AC
:102A000068603964F8BD9060346468603964F8BD0A
:102A100001206A4E80046A4F012BF4D1EEE74F4843
:102A20004068704770B54A4D28680026564C01280A
:102A300006D1A068C00303D501200004A0602E6069
:102A40006868012809D1A068800306D501204004E8
:102A5000A0606E6001200AF0B9FEA868012809D1C3
:102A6000A068400306D501208004A060AE6002206B
:102A70000AF0ACFE70BD10B54A490878002818D09D
:102A80000120444AC0079060434AC00B90602C4A22
:102A900000121060414A00201060324A1060404A23
:102AA000106008704A78002A02D048700AF08EFE42
:102AB00010BD0320FAE70120424900060860704774
:102AC0000120244900060860704701203D49400567
:102AD0000860704701201F4940050860704733496E
:102AE0000020C86388151B4908607047410A364AB0
:102AF000C005C00D5043801C5143400A0818704760
:102B000010B4324C430B63431B0C5C020C602E4C24
:102B10006343C31A2E485C0258432B4B400D43437A
:102B2000E31A0124DB0324041B191B1613700A6823
:102B30001018086010BC704710B50AF01BFF10BDDC
:102B400080E100E008E400E018E400E000B00040AC
:102B500040B1004080E200E000E100E000B500404C
:102B600048B100404081004044B100407372635C52
:102B700072656D5F68616C5F6576656E745F7469C0
:102B80006D65722E6300000000B3004040B300404A
:102B900040B5004000F50140008300404085004002
:102BA000008200404800002000B10040C08F00407B
:102BB0000085004004B1004004B5004008B1004069
:102BC00008B5004000E200E0093D00003786000043
:102BD0006F0C010010B50AF0B9FE10BD00200449C9
:102BE000C863012001218140024A116000BF704783
:102BF000C01F004080E200E010B50DF05DF909F063
:102C0000F7F9FEF7C3FB0FF0F5FA0DF08FFF0DF0AB
:102C10001BFF10BD70B50C46054603F0A7FA214610
:102C200028460EF0C2FF70BD70B50D46040012D0EC
:102C3000002D10D02101284618F060F910225449C7
:102C4000284618F0FEF852480121083801804480D7
:102C50004560002070BD012070BD70B54C4E002451
:102C60000546083E11E0716820014018817BAA7B6F
:102C7000914209D1C17BEA7B914205D10C222946C0
:102C800018F0B2F8002806D0641C30888442EADBD1
:102C90000020C04370BD204670BD70B50D460600D3
:102CA0000AD0002D08D03A4C083C20886188401C8E
:102CB000884203D9042070BD102070BD3046FFF754
:102CC000CCFF002801DB401C0AE02088616800017D
:102CD00040181022314618F0B4F82088401C20809B
:102CE0002870002070BD70B514460D001FD0002C58
:102CF0001DD00021A170022802D0102817D108E0B1
:102D0000687829780002084311D00121A170108051
:102D10000BE02846FFF7A1FF002808DB401CA0704D
:102D2000687B297B000208432080002070BD0120C1
:102D300070BD70B5054614460E000AD000203070F4
:102D4000A878012807D004D9114908390A88904287
:102D50000BD9012070BD002C04D028782070288861
:102D6000000A50700220087010E0002C0CD0496856
:102D70000001411810222046103918F062F8287816
:102D800020732888000A607310203070002070BD06
:102D9000540000205A4910B5884207D30121890404
:102DA000884205D357490968884201D2102010BDD6
:102DB0000146012005F0CBF810BD30B5044693B0B4
:102DC00000200D46079014210BA818F099F81C213B
:102DD000684618F095F86A46112010770020507761
:102DE000107802210843107007A80C90012008AA4F
:102DF000907245486A4610850AA80B902088108476
:102E000060885084A0889084E088D084907FF921E5
:102E10000840801C4008400090770820908610876A
:102E200008A80F9010AA0BA9684600F05CFF0028C4
:102E300003D110A800882880002013B030BD3EB513
:102E400004460820694608802D48844207D30120A3
:102E50008004844205D32B480068844201D21020AC
:102E60003EBD2146012005F072F80028F8D12088E7
:102E7000694688806088C880A0880881E088488189
:102E800005F065FE01AB6A46002101F0BBFB694617
:102E900009880829E4D003203EBD1FB50446002060
:102EA000029008206946088115480391844207D39F
:102EB00001208004844206D312480068844202D272
:102EC000102004B010BD05F042FE014602AA0F48D2
:102ED00001F02EFD0028F4D169460989082901D0A6
:102EE0000320EEE7694609882180694649886180A8
:102EF00069468988A1806946C988E180E1E70000C8
:102F000000C0010028000020042A0000FFFF00008C
:102F100010B5031D03600020521E04E05C181C6005
:102F2000401C2346C0B29042F8DB0020186010BD60
:102F300001460A680020002A02D0104612680A6082
:102F4000704702680A6001607047000010B50146D2
:102F50002022094817F075FF07490020C877084666
:102F600010BD0649012048610548064A01689142A2
:102F700001D1002101607047B00E00200005004023
:102F800064000020BEBAFECA0C4908784A78401C8A
:102F9000C0B2904200D008707047094A074820BF6D
:102FA00040BF20BF4178037843701368002B02D1E3
:102FB00003788B42F3D00020704700006B000020A4
:102FC00000E200E00A4A022151600A490B68002B26
:102FD000FCD0906008680028FCD000205060086891
:102FE0000028FCD0704701200007406970470000AE
:102FF00000E5014000E401407047704770477047AA
:1030000010FFFFFFDBE5B15100C001006700FFFFCB
:1030100003B40148019001BD09000020002803D03D
:103020008178012939D101E0102070470188FE4ADA
:10303000881A914233D01BDCFC4A881A91422ED068
:103040000BDC00292BD00320C002081A27D001284E
:1030500025D001210903401A07E001281FD00228CA
:103060001DD0FF281BD0FF380138002815D116E0ED
:10307000FF220132811A904211D008DC01280ED0C3
:1030800002280CD0FE280AD0FF2806D107E001292B
:1030900005D0022903D0032901D0002070470F205A
:1030A000704700B50B2826D009DC030018F074F92E
:1030B0000B1D2125251B25292325271F1B00112832
:1030C0001BD008DC0C2816D00D281CD00F2814D0DB
:1030D000102808D10FE0822809D084280FD0852835
:1030E0000FD0872811D0032000BD002000BD05208F
:1030F00000BDCF4800BD072000BD0F2000BD04204B
:1031000000BD062000BD0C2000BD0D20800200BDCA
:1031100070B500290BD0CB1FFA3B81241E46CDB2DF
:10312000112B1BD2012805D0022806D009E000206F
:1031300010701DE0FF20043001E0FF2003308142C9
:1031400018D0330018F028F9111613131613161699
:103150001316161613131313161316000846FF380A
:1031600081381F2803D9FF39FE39022902D815708A
:10317000002070BD1470072070BD00B5030018F06A
:103180000BF9060406040C080A0C002000BD1120EF
:1031900000BD072000BD082000BD032000BD007851
:1031A0000207120F04D0012A05D0022A0AD10EE02C
:1031B000000907D108E00009012805D0022803D042
:1031C000032801D0072070470870002070470620B0
:1031D0007047002807D0012807D0022807D003280D
:1031E00007D007207047002004E0112002E02120D2
:1031F00000E0312008700020704738B50C4605000B
:103200004FD06946FFF7CBFF002822D12088032149
:1032100089028843694609788907090D0843208097
:103220006946681CFFF7BBFF002812D121880320E4
:1032300000038143684600788007800C01432180A9
:10324000A8784007820F2020012A03D0022A03D049
:10325000072038BD814300E00143218088B2010589
:10326000890F08D0012189038843A9780907C90F6C
:1032700089030843208080B28104890F0AD0A9788D
:103280004004C906C90F400CC903084320808004CC
:10329000800F02D12088400403D5208840210843B4
:1032A0002080002038BD70B50446002008801546F7
:1032B0006068FFF7A2FF002815D12189A08981420B
:1032C00010D861688978C90708D00121490288426D
:1032D00008D8491C17F01EFE298009E0FF21FF31A4
:1032E000884201D90C2070BDFF30FF3003302880A8
:1032F000002070BD10B5137804785B08E4075B000C
:10330000E40F23431370FD2423400478A407E40F43
:10331000640023431370FB24234004786407E40F04
:10332000A40023431370F724234004782407E40FF8
:10333000E40023431370EF2423400478E406E40FF1
:10334000240123431370DF2423400478A406E40FF0
:103350006401234313700078BF244006C00F23404C
:10336000800103431370002906D00878C10701D1FA
:10337000800701D5012000E00020C0015906490E58
:103380000843107010BD30B50A8803239B020488DF
:103390009A4323059D0F02D1A3049C0F01D09B0FDC
:1033A00000E001239B021A4303230A801B039A4374
:1033B00003889804840F02D11805830F01D0800F71
:1033C00000E00120000302430A8030BDF3B593B052
:1033D0000D000FD0139800280FD01221284617F0A7
:1033E0008DFD03AAFF21012003F0D5F80024264615
:1033F00037467AE0102015B0F0BD0720FBE768469D
:10340000807D01280BD16846818A0520C002081AF8
:1034100010D0012810D0022812D0032812D0042C7A
:1034200014D0052C15D113E002290000012800005A
:1034300003300000012400E002246846468A08E0C8
:10344000032406E068460424478A02E0052400E0DD
:1034500006246846418A1398814246D12C74002E76
:1034600041D00DAA0EA905200292019100901023CF
:103470000022FF21304603F02FF9002823D16846AF
:10348000808E2A46C0B20EA9FFF72DFC00281AD163
:10349000AE81002F27D00DA9052008AE0291009023
:1034A000132300220196FF21384603F015F9002866
:1034B00009D16846808EF11CC01EC0B22A1DFFF7DC
:1034C00012FC002801D0032095E708A881784278F3
:1034D00008021043E881062C05D16846807DA87259
:1034E0006846808A2881002085E703A803F05CF8FD
:1034F000002884D0FFF7D5FD7DE7002805D0FE4ADF
:10350000012903D0022903D003207047518800E02D
:103510009188814201D1002070470720704770B523
:103520000C4605461C21204617F0E8FC00202080B0
:10353000002D08D0012D04D0F0A1F54817F00BFEA6
:1035400070BD062000E00520A07070BD70B592B07F
:103550001546064601206A461071107453740846D9
:1035600008300395029048889082FEF7FBF904002A
:1035700019D06580172069468883203600940AABED
:103580007178023307AA01A80EF017F90646607891
:10359000000701D5FEF7C7F9002E0AD03046FFF725
:1035A000ECFD12B070BD1321284605F00EFF03207C
:1035B000F7E708A800906846838B0422012128467B
:1035C00007F0B3FEEDE770B506468AB000200D4661
:1035D00007900590069003A90490052402460291E5
:1035E0000190102300942946304603F075F8002816
:1035F0000DD108A804A9009102900194684683891E
:1036000000222946304602F083FE002801D0FFF751
:1036100048FD0AB070BD10B50EF0D5FA10BDF0B57A
:1036200089B000260546059600780C460827030059
:1036300017F0B2FE0CFD070C390B75759BBEFCD361
:10364000E3FD68680A38FEF702FB07E1A88800225C
:1036500080B20421009008F067FB0290002C04D097
:10366000AB48A6A16E3017F076FD0298002804D171
:10367000A748A2A16F3017F06EFD0298009908309C
:103680000DF0D0FCFEF76EF9040007D060783843E7
:10369000607000986080FEF746F9E1E01321009821
:1036A00005F093FEEAE0002C04D1BD2093A1800038
:1036B00017F051FD60880022042108F035FB0090CE
:1036C000002804D192488DA1883017F044FD00995C
:1036D000002008802A7994461EE0C3005B199B688D
:1036E00007936B469B8B1A0708D5DA0606D560460A
:1036F000C20050194038C08F088006E05B0409D52D
:103700000871C2005019C0884880607838436070E2
:103710000226A3E0401CC0B28445DED89EE0E888C3
:10372000694608800090002C04D1794873A1983034
:1037300017F011FD2878062813D10098C00B10D07F
:1037400060880022042108F0EFFA060004D17048D6
:103750006AA1A23017F0FFFC00203071A8887080A9
:1037600039E060783843607078E0002C04D1684814
:1037700062A1B43017F0EFFC60880022042108F049
:10378000D3FA0090002804D161485CA1B73017F04B
:10379000E2FC009808300EF068FA0121484002D19E
:1037A000E888C00B5AD0009861880226C180D8E70B
:1037B000002C04D1564851A1D03017F0CCFC6088C1
:1037C0000022042108F0B0FA002804D150484BA18F
:1037D000D33017F0C0FC0226C3E7002C04D14C48BC
:1037E00046A1DC3017F0B7FC022661880122204692
:1037F000FEF73EFA01200590B3E7A889002280B2C7
:103800000421009008F090FA0746002C04D04048AC
:103810003AA1EE3017F09FFC002F04D13C4837A1AD
:10382000EF3017F098FC6868029001E009E010E0C2
:10383000288969468881012202A90098FEF734FA96
:103840000CE0002C8DD16D202CA1C00017F083FC62
:1038500087E72F4829A1FE3017F07DFC002C0DD002
:10386000607800070AD50598002807D184202070C9
:103870002046582229460830FDF7A6FC304609B0FC
:10388000F0BDF7B50C460546007A224688B00A32EC
:103890000492921C01920027811E16323E4602922B
:1038A0000B0017F079FD08F405F348488ED0F2F3C9
:1038B00068880022042108F037FA0190002803D11B
:1038C0000EA1144817F047FC01980088002802D088
:1038D0005227072600E151271E26002C70D0688849
:1038E000A0800120A071019804990079C0004019BE
:1038F000C089FFF76BFD0FE0400C00207372635C22
:1039000067617474735F636F72652E6300000000FB
:103910006F0200008603000000287DD10198007925
:10392000C0004019C089208101980079C000401969
:10393000408AA083F0E0698A0091062820D1E889B6
:10394000C00B1DD008462230512786B2002CC5D0AE
:10395000A8890199FFF73AFD002872D16888A080F4
:103960000220A071A88920810120A072288AE0830A
:10397000009820846969009A029817F062FACBE0F7
:1039800008462030502786B2002CA7D0A889049979
:10399000FFF71CFD002854D16888A080A889E0802A
:1039A000287A06280AD002202072288AA08300984C
:1039B000E083204669692030009ADEE70120F3E7C2
:1039C0008FE068880022042108F0AEF90690688A2A
:1039D00000900698002803D1FD49FE4817F0BBFB74
:1039E000069808300EF041F90121484002D1E889DB
:1039F000C00B25D000985127223086B2002C7AD0F7
:103A00006888A080A8890199FFF7E0FC002818D1F8
:103A10000220A071A88900E013E020810420A07298
:103A2000288AE083009820846969009A029817F038
:103A300008FA0699002008710698A98941806BE070
:103A400003200BB0F0BD688804F0DDF900906888B1
:103A50000022042108F068F901900098002804D1A0
:103A6000DC48DB492C3017F076FB0198002804D1A4
:103A7000D848D7492D3017F06EFB0198D649C08839
:103A8000884205D05127222604E01EE03FE035E0C1
:103A900050272026002C2ED06888A080502F07D0D9
:103AA0000220A0712146287B0831FFF738FD33E062
:103AB000287BA11DFFF733FD6A8800230199009838
:103AC000FFF744FD0028BCD126E0C449A889C98875
:103AD000814207D154270626002C0CD06888A0808C
:103AE0001AE008E053270826002C04D06888A0803C
:103AF000A889E08010E00A98068013E05527072681
:103B0000002CF8D0A889A0800020A07104E08D20AE
:103B1000AF49C00017F01FFB0A98002C068001D0A7
:103B20002780668000208CE7AC4900200870704731
:103B300030B585B00C4601F0DBF90546FF2804D10D
:103B4000A448A349953017F006FB0020208020717F
:103B50006080401EE0802046294608300DF056FA6D
:103B60006A462946012002F016FD102412E068463C
:103B7000808800070ED56846C0882946FFF723FDD8
:103B800068468188FF2321438180C0882946019AA5
:103B900002F02CFE684602F007FD0028E7D005B0D1
:103BA00030BD0A46014610B5104608300DF042FA05
:103BB00010BD70B505460022042108F0B5F80400D8
:103BC00004D184488249B73017F0C5FA2046294607
:103BD00008300DF027FA70BDF0B591B00C460746DD
:103BE00004F011F9050005D02878222804D2082015
:103BF00011B0F0BD7A48FBE700220421384608F0F6
:103C000093F80646002C02D0A08800280CD0012092
:103C1000694608710220087400204874002C05D001
:103C2000A0880883206802E00920E1E70883059066
:103C30003046083003970290FDF794FE040018D038
:103C40006780172069468883203500940AAB69781D
:103C5000023307AA01A80DF0B0FD05466078000701
:103C600001D5FDF760FE002D09D02846FFF785FA43
:103C7000BEE71321384605F0A8FB0320B8E708A8E3
:103C800000906846838B04220121384607F04DFBE3
:103C90000021C943F180ABE7FFB585B00E9E778860
:103CA000384604F0B0F8054600220421384608F0F2
:103CB0003BF80446002D03D145494A4817F04BFA1A
:103CC000002C04D147484249401C17F044FA0834FC
:103CD000089869460394C1C105A80DC820356978C4
:103CE0000DF0DAF9CBE5F0B50446002099B00D46A9
:103CF00001460D9010A88181164601818180374AC6
:103D000068469180018510A80180684601878185F9
:103D100081841078012808D0022806D0032804D016
:103D2000042802D0082019B0F0BD2F4A944273D362
:103D30002E4F0121890438688C4201D3844278D304
:103D4000294A954275D3012189048D4201D38542C8
:103D50006FD36168002913D0234A914269D30122AD
:103D60009204914201D3814263D3608921898842C0
:103D700003D801225202914201D90C20D3E70D90C1
:103D800016AA0EA92846FFF78EFA0028CBD168683C
:103D900080784007800F02280AD16846008F80048F
:103DA000800F05D02869002802D03968884240D3A6
:103DB0000AA92069FFF721FA0028B4D12069002858
:103DC0001CD0607880076846008D14D580040FE011
:103DD000FC380000EE030000FFFF0000400C002054
:103DE000023000000C05000000C001002800002087
:103DF000800F68D002E08004800F64D16846008D97
:103E0000810618D58004800F606806D0002812D083
:103E1000396888420DD302E00BE000280BD0FE4940
:103E2000884206D301218904884204D33968884234
:103E300001D2102077E709A96069FFF7DEF90028B1
:103E40009CD16069002808D06846808C0105890FE4
:103E5000012938D18004800F35D00BA9A069FFF764
:103E6000CCF900288AD16846808C80062BD468461D
:103E7000808D810627D4A169002906D00105890F0C
:103E8000012920D18004800F1DD0E068002804D0D3
:103E90000078002817D01C2815D204AA611C2046DF
:103EA000FFF728FA0121890210A80180012768463E
:103EB0008773DA49818104AA033217A92868FEF7BB
:103EC00038FF002801D007202DE710A8007F15A992
:103ED000C01CC2B200200C920190FF320090034639
:103EE0000291FF3203A80332109902F0ACFA0028C5
:103EF00026D110A9888A0F902A892969C84801917A
:103F00000092029010A90A8B6B8928680E9902F022
:103F10009AFA01007ED1C2480025001F81886846B8
:103F20004174090A8174052104A86A4623C210A8B5
:103F30002A46FF21808A0C9B02F0EAF9002802D071
:103F4000FFF7AFF8EFE66846007C0322C1090020C6
:103F5000920290430122920280181490002928D0E6
:103F6000014610A8018068462921877309028181D2
:103F7000058608A8007C0023410860784900C00736
:103F8000C00F014308A80174FD2001406078A54AD4
:103F90008007C00F4000014308A801740CA902204B
:103FA00001910090029503A8109902F04CFA0100CB
:103FB00030D16068002828D0206900280DD10AA9D6
:103FC0000EA8FFF7E0F96078800706D46946088DEF
:103FD0000321090388436946088590496846877329
:103FE000FE3181818F492089891E16F093FF626816
:103FF0000D9811AB0192009002930A46002303A88A
:00000001FF
