:1000000000000420952C0000BD2C0000BF2C000037
:10001000C12C0000C32C0000C52C00000000000013
:10002000000000000000000000000000C72C0000DD
:10003000C92C000000000000CB2C0000CD2C0000DB
:1000400051170000691B0200A10C0200CF2C000018
:10005000CF2C0000CF2C0000A11B0000CF2C0000F3
:10006000CF2C0000CF2C0000CF2C0000CF2C0000A4
:10007000CF2C0000750A0200CF2C0000CF2C00000E
:10008000CF2C0000190C0000CF2C0000CF2C00005A
:10009000B90C0000CF2C0000CF2C0000CF2C0000AA
:1000A000CF2C0000CF2C0000CF2C0000CF2C000064
:1000B000CF2C0000CF2C000000000000000000004A
:1000C000CF2C0000CF2C0000CF2C0000CF2C000044
:1000D000BD030200CF2C0000CF2C0000CF2C00006D
:1000E000CF2C0000CF2C0000CF2C0000CF2C000024
:1000F00000000000CF2C0000000000000000000005
:1001000000000000000000000000000000000000EF
:1001100000000000000000000000000000000000DF
:1001200000000000000000000000000000000000CF
:1001300000000000000000000000000000000000BF
:1001400000000000000000000000000000000000AF
:10015000000000000000000000000000000000009F
:10016000000000000000000000000000000000008F
:10017000000000000000000000000000000000007F
:10018000000000000000000000000000000000006F
:10019000000000000000000000000000000000005F
:1001A000000000000000000000000000000000004F
:1001B000000000000000000000000000000000003F
:1001C000000000000000000000000000000000002F
:1001D000000000000000000000000000000000001F
:1001E000000000000000000000000000000000000F
:1001F00000000000000000000000000000000000FF
:1002000010B5054C237833B9044B13B10448AFF350
:1002100000800123237010BD600900200000000051
:10022000B49E0300084B10B51BB108480849AFF352
:1002300000800848036803B910BD074B002BFBD0B2
:10024000BDE81040184700BF00000000B49E030046
:10025000640900205C09002000000000154B002B01
:1002600008BF134B9D46A3F5803A00218B460F46ED
:100270001348144A121A00F065F80F4B002B00D0F7
:1002800098470E4B002B00D0984700200021040017
:100290000D000D48002802D00C48AFF3008000F09C
:1002A0002BF82000290002F04DFB00F011F800BFF0
:1002B0000000080000000420000000000000000012
:1002C0006009002060E40020000000000000000041
:1002D00008B5074B044613B10021AFF30080054B6E
:1002E0001868836A03B19847204600F033F800BFCE
:1002F00000000000F836030070B50E4B0E4CE41AF7
:10030000A41000251E46A54204D056F82530984773
:100310000135F8E733F0E4F9084C094BE41AA4106E
:1003200000251E46A54204D056F8253098470135D1
:10033000F8E770BD54090020540900205809002036
:100340005409002002440346934202D003F8011BE3
:10035000FAE77047FEE700BF2DE9F04F1546C7B03A
:100360001C46002900F01C81002B00F0EF800A23BE
:1003700001930023194606AE519B539A519F03EBFC
:10038000020B019B013B059320258C4601980CEB49
:10039000000304933133F318029306EB0C03002897
:1003A0005FD05A4202F00302824228BF024606286A
:1003B00000F2EC80019A06F80C50012A03F10101C9
:1003C00000F0E280022A5D7003F1020100F0DC809F
:1003D000032A9D7003F1030100F0D680042ADD702A
:1003E00003F1040100F0D080062A1D7103F105011C
:1003F00040F0D3805D71991D9646019890422ED0B1
:10040000C2EB0009A9F104008008013003900598AF
:10041000C2EB000A0398BAF1020F4FEA800812D922
:10042000624401284FF0203C06EB020A46F802C065
:1004300005D00228CAF804C001D0CAF808C0C845CF
:100440004144C6440BD001980D700EF10102904258
:1004500005D90EF1020E70454D7000D98D70019ACC
:100460001344534A0299D2F80080DDF84891DA1C0F
:10047000481C03F1330C0CE002F8035C02F8025C48
:1004800002F8015C0332624500F8015C00F10100F2
:1004900033D0A345F0D9A74295BFE11B509919F875
:1004A0000110095D02F8015C4FEA211E5FFA8EFA25
:1004B000BEF1090F01F00F0ED4BF0AF1300A0AF1A4
:1004C000370ABEF1090F02F803AC94BF0EF1300EEB
:1004D0000EF1370E08EB010A02F802EC9AF801E07F
:1004E00003321EF0970F08BF2E21624500F8011C51
:1004F00004F1010400F10100CBD1029804990D220E
:100500004FF00A0801F14309027480F8118083F862
:10051000305023464FF0000A4C46994606EB0A013C
:100520002246002002F042FA8244241A10B9B8F19F
:10053000010801D0002CF1D1CB454C464FF0000C06
:100540003FF624AF204647B0BDE8F08F06AE0B68FB
:10055000184A30464FF4807132F0A2F90028F1DBDE
:100560000A2307460193284632F001FAC22828BF21
:10057000C220804629460246F01931F0FFFD08EB03
:10058000070300241946F7E6964636E7002A7FF46B
:1005900012AF19469646019832E74FF0050E2CE748
:1005A00013B1019106AEE7E60194274606AEDAE7FD
:1005B00050090020FC3603002DE9F0419046C6B0FA
:1005C0001F46C1B106AE0B68564A30464FF48071E3
:1005D00032F066F900280ADB4C9B0546062B00F238
:1005E0009F80DFE803F042525D6A798A14000020A0
:1005F00046B0BDE8F0814C9B062B00F28F80DFE80F
:1006000003F033424D5A697A0400002506AE07F123
:100610000C017A683B68D7F808C092C9701900923B
:10062000029103944246CDF804C00497C5F5807149
:1006300032F036F90446002CD9DB2C44B4F5807F27
:10064000D5D80A27002506AE71192246002002F0EF
:10065000ADF90544241A08B9013F01D0002CF3D1AB
:10066000012046B0BDE8F0810025404632F07FF918
:100670004319FF2B0446DED806AE414670192246C8
:1006800031F07CFDD7E7002506AE701942463B6885
:10069000C5F5807132F004F90446CCE7002506AEBA
:1006A0007A683B68009270194246C5F5807132F055
:1006B000F7F80446BFE7002506AE7A68B9683B68DC
:1006C0000092019170194246C5F5807132F0E8F848
:1006D0000446B0E7002506AE7A68BC68F9683B6856
:1006E00000920194029170194246C5F5807132F072
:1006F000D7F804469FE7002506AE07F108017A689F
:100700003B6892C970190092019102944246039786
:10071000C5F5807132F0C4F804468CE7002490E7F8
:1007200000248AE7FC36030070B5074C074D237898
:10073000064613B12B78834204D002F077FA0123E6
:100740002E702370002070BD7D0900207C090020E0
:1007500000487047B9050000004870475903000081
:1007600038B50120FFF7E0FF044638B9FFF7F0FF86
:100770000546FFF7F1FF024B5D619861204638BDE9
:100780008009002010B5054C82B00A46002164693A
:1007900000910B46A04702B010BD00BF80090020A9
:1007A000084B1B5C1F2B8ABF074A4FF0A04203F087
:1007B0001F03D2F80405D84000F0010080F00100CA
:1007C000704700BF0437030000030050074B1B5C59
:1007D0001F2B86BF03F01F0305494FF0A0410122E4
:1007E00002FA03F3C1F80C35704700BF0437030069
:1007F00000030050064B1A5C1F2A86BF02F01F023E
:1008000004494FF0A04101239340C1F808357047D7
:1008100004370300000300504FF0A04310B44FF41E
:1008200080404FF400544FF400414FF48032C3F83D
:100830000845C3F80805C3F80815C3F808255DF88E
:10084000044B70474FF0A04310B44FF480404FF476
:1008500000544FF400414FF48032C3F80C45C3F804
:100860000C05C3F80C15C3F80C255DF8044B704754
:100870000A4B195C1F298ABF09484FF0A04001F0BC
:100880001F01D0F8043501228A4022EA03011340F7
:10089000C0F80815C0F80C35704700BF04370300D6
:1008A0000003005030B44FF0A04303224FF4005532
:1008B0004FF480444FF400404FF48031C3F83427A4
:1008C000C3F83827C3F83C27C3F84027C3F80855B6
:1008D000C3F80845C3F80805C3F8081530BC7047CD
:1008E0000B2809D00C2809D0182809D0192814BFC2
:1008F0004FF0FF3003207047002070470120704701
:10090000022070474B4B1978002900F091802DE9A7
:10091000F04F87B0DFF828C104910024012504E0DE
:100920000134049BE4B29C4265D227B2DCF800603B
:1009300016F83700A0F1200305FA03F93E4BC0F189
:10094000200ED3E9002325FA0EFE49EA0E0905FA26
:1009500000F808EA020A09EA030B06EBC7015AEAA3
:100960000B0E0591DCD03449CDF810C022EA080204
:1009700023EA0903C1E9002301F002F916F8376000
:10098000DDF810C0A6F1200205FA02F201920199E9
:10099000C6F120035FFA80FA25FA03F3A6F12002DC
:1009A00019430AFA02F30393019105FA06F1009143
:1009B000C6F120070399214B2AFA07F7394303911F
:1009C0000AFA06F1D3E900230291DDE900011040A3
:1009D000194002460B46DDE902018B4208BF824204
:1009E0004FF0000B0AD0134B1B7804930134049B87
:1009F000E4B29C4299D307B0BDE8F08F059A5768DE
:100A000052780023A2F10102B2FA82F25209002FB9
:100A1000E9D05B4506BF5245012100213046CDF8A3
:100A200014C0B847034BDDF814C01B78049377E774
:100A3000704700BFA4090020D0090020C809002089
:100A4000A00900202DE9F8430746204800F06CFD7E
:100A5000D0B91F4E0123A7F1200103FA01F5C7F118
:100A60002002D6E9000123FA02F2154303FA07F443
:100A700004EA000205EA0103134307D020EA040454
:100A800021EA0505C6E90045BDE8F883384601F0CE
:100A900077F8104FD7E9002398B144EA020845EAF5
:100AA0000309D6E9002314431D43C7E90089C6E9B9
:100AB00000450949054809680022BDE8F84300F0EF
:100AC000DFBC22EA040823EA0509EAE7A8090020B6
:100AD000D0090020C80900209C090020F0B5042A94
:100AE00083B0164602D8072003B0F0BD05460F4676
:100AF00000F0E6FE002836D01D4BDFF88CC0DFF892
:100B00008CE01C481C491D60002200237C1E8CF8D0
:100B10000070CEF80060C0E90023C1E90023E4B210
:100B2000DFB10327002600E01C4623B205EBC30219
:100B300015F833009378114A8DF8053001A98DF826
:100B400004708DF806608DF8076000F0C3FE631E28
:100B50000028C9D1DBB2002CE6D1094A094800219E
:100B600000F07CFCC0E700F065FE0028C4D0BBE7C5
:100B7000A0090020C8090020D0090020450A000073
:100B80000509000008370300A40900209C09002083
:100B900070B5084D2B785BB1074E002433680121F6
:100BA00013F8340000F070FF2B780134A342F5D81D
:100BB000002070BDA4090020A009002000B585B068
:100BC00000230390194644F2010001AAADF8043055
:100BD000029300F003F805B05DF804FB08B50120AE
:100BE0000949FFF7CFFD03200849FFF7CBFDBFF30D
:100BF0004F8F0749074BCA6802F4E0621343CB608A
:100C0000BFF34F8F00BFFDE70C3703001C37030015
:100C100000ED00E00400FA05F8B5204A204B00255D
:100C2000C2F84051C2F84451C2F84851C2F84C5180
:100C3000C2F80051C2F804511B6813B31949D2F825
:100C400004250C68141B1A6824F07F44A2422F4626
:100C500009D8197CDE69A41A154499B91EB1334626
:100C60001A68A242F5D9104B10491A780B789A42AB
:100C70000DD00F490F4A41F823504FF48013C2F8AA
:100C80000031F8BD1F745A6998699047E6E7531C14
:100C9000DBB2022B08BF00230B70EAE70010014013
:100CA000DC090020D8090020E0090020E10900202B
:100CB000F00A002000E100E02DE9F04F7D4A7E4976
:100CC000137809787D48994287B0066800F0E8817A
:100CD0000133DBB2022B08BF002379491370794A34
:100CE0000291084652F82310036874488A190025B7
:100CF00022F07F420260AE462846A3B11A688A42BB
:100D000000F2D681DC68C3F800E0891A1044DA6981
:100D100034B1871927F07F47DD619C605F601D4615
:100D20001346002BEAD1029A04931360049C01231A
:100D30000593654BDFF894811B7801935F4BDFF8D7
:100D400090C1D3F800A0029B1F680023BB462F462A
:100D50000093C1461E464FF0010E37B37A68B9685A
:100D60003D46FF69CAEB020323F07F4363453CD84D
:100D70000B442B606E60AE6085F810E0EE61002CD5
:100D800067D021688B4242D9204603E0116899421E
:100D900044D21046C2695B1A002AF7D12B60EA617F
:100DA0002346C5611C46002FD8D198F8003098F82A
:100DB00001209A4200F08E805A1C03EB430308EB9B
:100DC000C30399F802109D68D2B2914289F80020BD
:100DD0001A7908BF89F80070022A48D0032A3CD04B
:100DE000012A22D023461C46DDE7C2EB0A0222F08C
:100DF0007F428A4202D28B1A2B60BBE72E606E6064
:100E0000AE6085F810E0EE611CB321680023CB1AB8
:100E100023602B46EC61AB461C46C4E7C91A11603F
:100E20002B60EA612346C561BCE72A7C0392002A55
:100E3000D8D1DA686A601969A9605869E860103326
:100E40009B68AB61019B002B8CD0039B6B601A46A7
:100E500088E72B46AB461C46A5E70CB9C2E71C4603
:100E6000E3692674002BFAD19B461C469BE754B1DC
:100E7000A54200F00881234602E0954207D01346C0
:100E8000DA69002AF9D123462E741C468BE7AB425F
:100E900000F0FA80E9692868D9610029F3D0234677
:100EA0000A6802440A60009A2E749C4218BF01220C
:100EB0000092EAE7E0090020E1090020D8090020BB
:100EC000DC090020F00A0020E2090020E4090020EB
:100ED000FEFF7F00029B9DF80420C3F800B0764B14
:100EE000C3F800A0754B1A70009B1BB9049BA3426A
:100EF00000F0D081002C00F03C81714D6E4BD5F894
:100F000004051B686F4ED4F800C03178C21A22F075
:100F10007F420332002952D16B4FDFF8B091DFF8E6
:100F2000B0814FF480314FF4003E0124C5F84413E2
:100F3000C5F80413C7F880E1C7F800E02C602F2142
:100F4000D9F8005000BF00BF00BF00BF00BF00BF06
:100F500000BF00BF45452FD000BF00BF00BF00BF8E
:100F600000BF00BF00BF00BF00BF00BF00BF00BF89
:100F700000BF00BF00BF00BF00BF00BF00BF00BF79
:100F800000BF00BF00BF00BF00BF00BF00BF00BF69
:100F900000BF00BF00BF00BF00BF00BF00BF00BF59
:100FA00000BF00BF00BF00BF00BF00BF00BF00BF49
:100FB00000BF00BF00BF00BF0139C3D1347062451C
:100FC0002CBF9A1803EB0C023D4922F07F43C1F875
:100FD0004035D1F80425121A1B1A22F07F4223F063
:100FE0007F4303329A4248D9D1F80435374AC1F8D1
:100FF0004035126836492F2300BF00BF00BF00BF35
:1010000000BF00BF00BF00BF8A422FD000BF00BF9B
:1010100000BF00BF00BF00BF00BF00BF00BF00BFD8
:1010200000BF00BF00BF00BF00BF00BF00BF00BFC8
:1010300000BF00BF00BF00BF00BF00BF00BF00BFB8
:1010400000BF00BF00BF00BF00BF00BF00BF00BFA8
:1010500000BF00BF00BF00BF00BF00BF00BF00BF98
:1010600000BF00BF00BF00BF00BF00BF013BC3D136
:10107000154B4FF40032C3F80021104A00231370BF
:1010800007B0BDE8F08F2246D4F81CB0BBF1000FCA
:1010900022D0D16910685B4600297FF401AF02E7D6
:1010A0000C4B02931B680493002505951C4640E6F3
:1010B000521A1A6037E600BFD8090020E209002062
:1010C00000100140F80A002000E100E0FC080020C8
:1010D0000024F400DC0900207549764BC1F808E0D3
:1010E00075492F20096800BF00BF00BF00BF00BFC7
:1010F00000BF00BF00BF99422FD000BF00BF00BF9C
:1011000000BF00BF00BF00BF00BF00BF00BF00BFE7
:1011100000BF00BF00BF00BF00BF00BF00BF00BFD7
:1011200000BF00BF00BF00BF00BF00BF00BF00BFC7
:1011300000BF00BF00BF00BF00BF00BF00BF00BFB7
:1011400000BF00BF00BF00BF00BF00BF00BF00BFA7
:1011500000BF00BF00BF00BF00BF0138C3D1D169CD
:101160001068002900F09B800122DA465B4601925C
:1011700096E64F4A514B504E4E484FF480314FF453
:1011800000370125C3F88070C2F848132F23C2F836
:101190000813556031681E4600BF00BF00BF00BF86
:1011A00000BF00BF00BF00BF81422FD000BF00BF03
:1011B00000BF00BF00BF00BF00BF00BF00BF00BF37
:1011C00000BF00BF00BF00BF00BF00BF00BF00BF27
:1011D00000BF00BF00BF00BF00BF00BF00BF00BF17
:1011E00000BF00BF00BF00BF00BF00BF00BF00BF07
:1011F00000BF00BF00BF00BF00BF00BF00BF00BFF7
:1012000000BF00BF00BF00BF00BF00BF013EC3D191
:1012100095602B4A146000BF00BF00BF00BF00BF35
:1012200000BF00BF00BF81422FD000BF00BF00BF82
:1012300000BF00BF00BF00BF00BF00BF00BF00BFB6
:1012400000BF00BF00BF00BF00BF00BF00BF00BFA6
:1012500000BF00BF00BF00BF00BF00BF00BF00BF96
:1012600000BF00BF00BF00BF00BF00BF00BF00BF86
:1012700000BF00BF00BF00BF00BF00BF00BF00BF76
:1012800000BF00BF00BF00BF00BF013BC3D10D4B7B
:101290001C70F2E6059B002B3FF4EFAE2AE601231B
:1012A0001A4601938A468B460B4600922E74ECE553
:1012B000001001400024F400FC08002000E100E0E0
:1012C000D8090020F80A00202DE9F041594B5A4A6C
:1012D0005A4D5B4E4FF480344FF400310120C2F878
:1012E0008010C3F848432F21C3F8084358602D6885
:1012F0000C4600BF00BF00BF00BF00BF00BF00BF63
:1013000000BFB5422FD000BF00BF00BF00BF00BF6D
:1013100000BF00BF00BF00BF00BF00BF00BF00BFD5
:1013200000BF00BF00BF00BF00BF00BF00BF00BFC5
:1013300000BF00BF00BF00BF00BF00BF00BF00BFB5
:1013400000BF00BF00BF00BF00BF00BF00BF00BFA5
:1013500000BF00BF00BF00BF00BF00BF00BF00BF95
:1013600000BF00BF00BF013CC3D1364C98600020D5
:10137000206000BF00BF00BF00BF00BF00BF00BFB4
:1013800000BFB5422FD000BF00BF00BF00BF00BFED
:1013900000BF00BF00BF00BF00BF00BF00BF00BF55
:1013A00000BF00BF00BF00BF00BF00BF00BF00BF45
:1013B00000BF00BF00BF00BF00BF00BF00BF00BF35
:1013C00000BF00BF00BF00BF00BF00BF00BF00BF25
:1013D00000BF00BF00BF00BF00BF00BF00BF00BF15
:1013E00000BF00BF00BF0139C3D1174D1749DFF857
:1013F0006080DFF860C0DFF860E028704FF480168E
:10140000E0250B27C8F800008CF800008EF80000DB
:10141000087048708F70C2F8806182F814531660AB
:10142000C3F8080582F81153D3F804352360BDE8EA
:10143000F08100BF0010014000E100E0FC08002046
:101440000024F400D8090020F80A0020E409002054
:10145000DC090020E0090020E1090020074B9B780F
:101460000BB9082070473AB130B10368187C0028E6
:10147000F7D159745A61704707207047E40900207A
:101480002DE9F041254CA37813B90820BDE8F0817F
:101490000028FAD0042902D80720BDE8F08143696A
:1014A000002BF2D0437C0546012B4FF000000CBF0F
:1014B0008846804617460E4600F06CF86378A078A0
:1014C00021785A1CD2B2904208BF002291421ED00D
:1014D00003EB430304EBC30319464FF0010E41F83D
:1014E000085F0F4883F804E0D0F8040548608E6078
:1014F0000020C3F814809F61627000F053F8094B1C
:101500004FF48012C3F800210020BDE8F0810020D4
:1015100000F048F80420BDE8F08100BFE409002095
:101520000010014000E100E070B5184CA3780BB941
:10153000082070BD0028FBD04369002BF8D000259F
:1015400005740646284600F025F86278A0782178D0
:10155000531CDBB2984208BF2B46994211D002EBD4
:10156000420204EBC20202212846966011716370A8
:1015700000F018F8064B4FF48012C3F800212846FB
:1015800070BD284600F00EF8042070BDE40900206C
:1015900000E100E072B6024A13680133136070473D
:1015A000FC0A0020034A1368013B136003B962B6CA
:1015B000704700BFFC0A002010B50C4C23780BB11B
:1015C000852010BD0A4A6360E3601068A36010F0D4
:1015D0000100236102D1072100F004F94FF080429D
:1015E0000123C2F818352370002010BD000B002025
:1015F00000E100E030B51B4DAB78044683B003F04A
:10160000FF0073B114B16368012098470020FFF711
:10161000C1FFEB6800200133EB60FFF7C3FF03B0AD
:1016200030BDFFF7B7FF64B12A6942B1944208D0D8
:10163000134601E09C4204D01B68002BFAD12260C3
:101640002C61EB68002BE4D1074A0849136013684A
:1016500001934FF0804202200123019CC2F8040351
:101660000B60D6E7000B002004010040080000409A
:101670004FF08043D3F81804C0F30040704700BF18
:1016800030B51A4D6B78044683B003F0FF0073B198
:1016900014B16368002098470020FFF77BFF6B6858
:1016A000002001336B60FFF77DFF03B030BDFFF713
:1016B00071FF64B1AA6842B1944208D0134601E0B8
:1016C0009C4204D01B68002BFAD12260AC606B688E
:1016D000002BE4D1064A1360136801934FF0804356
:1016E00001220199C3F804231A60D8E7000B0020F7
:1016F0000001004008B50020FFF74CFF0C494B6883
:10170000013B4B604B686BB90A4B01221A604FF0EA
:101710008042D2F80C3403F00113B3F1011FF8D06A
:1017200000234B700020BDE80840FFF73BBF00BF1F
:10173000000B0020040000404FF08043D3F80C045D
:1017400000F00110A0F10110B0FA80F040097047DC
:1017500010B5214B1A6882B082B100221A601B6852
:1017600000934FF0804301220099C3F80823D3F877
:101770000C3403F00113B3F1011F1ED0174B1A688C
:101780000AB902B010BD00221A601B6801934FF025
:1017900080430222124C0199C3F8082323690122D5
:1017A000A270002BEDD01A6822615B680120984777
:1017B0002369002BF7D102B010BD094CA3686270F9
:1017C000002BDBD01A68A2605B6800209847A368F2
:1017D000002BF7D1D2E700BF000100400401004018
:1017E000000B0020002810B418DB00F1604303F563
:1017F00061434901C9B283F80013C3B240098000B4
:1018000000F1604000F5614003F01F0201239340A6
:10181000C0F8803103605DF8044B7047C3B2044ADE
:1018200003F00F0449012244C9B21176E6E700BF74
:10183000FCEC00E030B51F4C94F8645083B015B157
:10184000082003B030BD4FF0FF33FF2206200721F0
:1018500023636363A363E36323646364A364E36454
:1018600023656365A365E36523606360A360E3604C
:1018700023616361A361E361236284F86030636282
:10188000A36284F86230E36284F8633084F86120F4
:10189000FFF7A8FF084B094A1D601B6801930198D8
:1018A0004FF000430121284684F86410C2F8043345
:1018B00003B030BD140B00207C610040006000408C
:1018C000034B93F86400003018BF0120704700BF3D
:1018D000140B0020F0B56A4C251895F93030002B18
:1018E00001DB0820F0BD91F803E09446BEF1000F43
:1018F00056D02368013300F0BB80082600256B1CFE
:101900005F4F54F82320013251D0AB1C9E4245D981
:1019100057F8232001324AD0EB1C9E423ED957F89B
:101920002320013243D02B1D9E4237D957F8232064
:1019300001323CD06B1D9E4230D957F823700137DD
:1019400035D0AB1D9E4229D954F823204C4F01328B
:101950002DD0EB1D9E4221D957F82320013226D0ED
:1019600005F108039E4219D957F8232001321ED0F1
:1019700005F109039E4211D957F82320013216D0F0
:1019800005F10A039E4209D957F8237001370ED09A
:101990000B35AE4202D9E36A013307D00420F0BD13
:1019A000236A01335CD00C260825A8E70B232618F0
:1019B000DDB244F823C0324686F83050BEF1000F45
:1019C00002D1234483F858008B78DBB91F284A786A
:1019D00087BF2C4E00F01F0303464FF0A04603F5CF
:1019E000E073920046F82320CB78E3B96AB2083A54
:1019F0001444097894F8602042EA811284F8602047
:101A00001846F0BD1F2887BF1E4B00F01F0202467C
:101A10004FF0A04303EB8203D3F8002722F0020229
:101A2000C3F80027E0E76BB29B0003F1804303F5A6
:101A3000C0430A78D3F8101521F44F3121F44071D6
:101A4000C3F810151204000202F44031D3F8104517
:101A500000F47C520A432243C3F810250020F0BD55
:101A6000082685F830603346C4F820C03546A8E71C
:101A7000002385F83030C4F800C01D46A4E700BF3D
:101A8000140B002000030050F0B43A4D2E1882B021
:101A900096F8302053B2072B20DD2B4493F85830B2
:101AA0009B09032B44D0012B0CBF4FF400324FF4A1
:101AB00040321F2849D900F01F002F4B03EB800054
:101AC000D0F8003723F44033C0F80037D0F800379F
:101AD0001A43C0F8002702B0F0BC7047072AFAD8B2
:101AE000980000F1804000F5C04003F140029200F0
:101AF000D0F8104592B202F18042002744F0010470
:101B000002F5C042C0F810450197019817600029FE
:101B1000E1D096F9302055F82220002ADBD00122AE
:101B2000164902FA03F3C1F8043302B0F0BC70475F
:101B30001F280DD9104BD3F8103500F01F00C340FB
:101B4000DB0713D54FF44032B7E74FF0A043B5E7BA
:101B50004FF0A0421346D2F81025C24012F0010FF8
:101B60000CBF4FF400324FF44032A7E74FF400327D
:101B7000A3E700BF140B00200003005000600040EA
:101B80001F288ABF054B4FF0A04300F01F00D3F879
:101B9000103523FA00F000F00100704700030050F8
:101BA0002DE9F04F89B00025B24B029503951A68D4
:101BB000012A00F05081B04B1A68012A00F03D81E3
:101BC000AE4B1A68012A00F02A81AD4B1A68012A2F
:101BD00000F01781AB4B1A68012A00F00481AA4B70
:101BE0001A68012A00F0F180A84B1A68012A00F057
:101BF000DE80A74B1A68012A00F0CB80A54B1A683B
:101C0000012A00F0B58015F0FF0F1AD0A24F01266F
:101C10000024A30003F180432E4203F5C0434FEAA2
:101C200046060BD0D3F8100557F82420D3F810152A
:101C3000C0F30520C1F3014102B190470134082CE3
:101C4000E7D1002D02DB09B0BDE8F08F934F0022F1
:101C50004FF0FF33A7F163090492059206930793AF
:101C60008F4C4FF0000A4FF0010814F8013FFF2B92
:101C700030D0DBB223F0C00008AAC608951903F0E3
:101C8000070215F8081C08FA02F2114222D009EBEB
:101C9000000E99099EF930E059F82EC0BCF1000FF2
:101CA00056D0032956D01F288ABF03F01F060646C8
:101CB000DFF8F0E115F818BC98BF4FF0A04E06F51C
:101CC000E0761BEA020F5EF82650C5F301451AD1F3
:101CD000032D48D0BC42C8D1BAF1000FB3D04FF0A9
:101CE000A0430299D3F810356E4A9942D2F81025D4
:101CF00002D103999142A6D00498059902930392C8
:101D000006900791ACE7022DE4D1032904D0BCF181
:101D1000000FDFD0E047DDE74FF440321F288BBFD4
:101D2000604D4FF0A04503F01F03034605EB83030E
:101D30000AF1010AD3F8005725F44035C3F80057DB
:101D4000D3F800572A435FFA8AFAC3F80027DEE780
:101D50000329BFD10DF1100B1BF806E04EEA020E6D
:101D60000BF806E09FE70329D1D14FF40032D5E705
:101D700000221A601B6801934FF0A042019BD2F829
:101D80001025484B0292D3F81035039345F00045D7
:101D900039E7454AD2F8042312067FF52FAF002217
:101DA0001A601B680093009B45F0800526E73E4AB9
:101DB000D2F8042351067FF51CAF00221A601B687D
:101DC0000093009B45F0400513E7374AD2F80423FF
:101DD00090067FF509AF00221A601B680093009BF4
:101DE00045F0200500E7304AD2F80423D4067FF5F9
:101DF000F6AE00221A601B680093009B45F01005A8
:101E0000EDE6294AD2F8042316077FF5E3AE002257
:101E10001A601B680093009B45F00805DAE6224A29
:101E2000D2F8042357077FF5D0AE00221A601B6852
:101E30000093009B45F00405C7E61B4AD2F8042333
:101E400092077FF5BDAE00221A601B680093009BCD
:101E500045F00205B4E61449D1F8041311F001016C
:101E600005D01D601B680093009B1546A3E60D4638
:101E7000A1E600BF0061004004610040086100402D
:101E80000C61004010610040146100401861004086
:101E90001C6100407C610040140B0020770B002087
:101EA000730B002000030050006000400220FEF78A
:101EB000DFBC00BF2DE9F0470D460646FEF710FDDA
:101EC000032804461DD8012D1FD00ED3022D1AD190
:101ED0001C4B00EB40041C44657895B11A4B1B6801
:101EE0007BB12846BDE8F04718471848FFF71CFBB0
:101EF0001449174A04EB44030B44155D9B789D423B
:101F0000EBD0BDE8F087BDE8F087DFF83880470008
:101F10003B1808EB030218F8035053782BB92744F9
:101F200047440B4BBA781A55D7E7DFF82890074893
:101F30004A464FF40041FFF7A3FA0028EFD189F891
:101F40000060ECE7F80B0020AC0B0020B00B002089
:101F5000A40B0020F40B002010B50078FEF7C0FCA5
:101F600003280BD8064B00EB40001844407828B1FA
:101F7000044B1B6813B1BDE81040184710BD00BFEB
:101F8000F80B0020AC0B0020B34B1B68DB0700D420
:101F9000704770B5B14EB24D33782C78FBB9172C21
:101FA0001CD8DFE814F0F10014011401630076007E
:101FB000830096005D0039002C0039002C00A3003E
:101FC000A800A800A800A800A800CE00DE0001011B
:101FD000460018001800FEF735FC2C7070BDA14BB0
:101FE0001B7800203070002B00F00581FEF702FC0A
:101FF0000120FEF7FFFB0320FEF7FCFBCFE70123E8
:1020000018463370FEF734FC97484FF480410022A5
:10201000BDE87040FFF734BA012318463370FEF76D
:1020200027FC914840F6CD410022BDE87040FFF703
:1020300027BA8C4B1B78002B00F0FE800020FEF7A7
:10204000D9FB0120FEF7D6FB0320FEF7D3FB0020CF
:10205000FEF7BCFB0120FEF7B9FB15232B7070BD0A
:102060000020FEF7B3FB07232B7070BD0020FEF7A6
:1020700097FB002800F0D3800020FEF7BBFB46F260
:10208000666103232B7078480022BDE87040FFF79B
:10209000F7B90020FEF784FB002800F0C58000207F
:1020A000FEF7A8FB4FF400310423EBE70020FEF716
:1020B00077FB002800F0BD800020FEF79BFB052386
:1020C0002B70694841F69A110022BDE87040FFF775
:1020D000D7B90020FEF7CCFB06232B70624840F6F0
:1020E000CD410022BDE87040FFF7CAB9FEF7AAFB58
:1020F0000C232B7070BD5D48FFF716FAD4F1110464
:1021000005467BD0002879D1012C13D0C82303FBCE
:1021100004F44FF4FA704FF400430021C3FB0401B0
:102120004FF47A7200232FF00FFD2A4601464F48E4
:10213000FFF7A6F90220FEF749FB4A4B01221A706D
:1021400070BD484B1B78002B79D00020FEF752FB66
:102150000120FEF74FFB0320FEF74CFB12232B70F0
:1021600070BD404B1B78002B6FD00020FEF742FB68
:102170000120FEF73FFB0320FEF73CFB0020FEF7AB
:1021800025FB13232B7070BD364B1B78002B59D0C9
:102190000020FEF72FFB0120FEF72CFB0320FEF7AB
:1021A00029FB00232B7070BD2E4B1B78002B4FD0CA
:1021B0000020FEF71FFB0120FEF71CFB0320FEF7AB
:1021C00019FB0120FEF702FB14232B7070BD0020C9
:1021D000FEF7E6FAC8B10020FEF70CFB022C4EF227
:1021E000666118BF4FF400312C701F480022BDE813
:1021F0007040FFF745B9FEF70FFBD0E60220FEF76F
:10220000F9FA184B00221A7070BDFEF7DFFA41F69A
:102210009A1343F23331022C08BF1946E4E7FEF764
:10222000D5FA41F69A112CE7FEF7D0FA43F2333192
:102230003AE7FEF7CBFA42E7FEF7EEFA07E7FEF7DA
:10224000EBFA8BE7FEF7E8FAABE7FEF7E5FA95E77E
:10225000FEF7E2FAB5E700BFA00B0020A80B0020B4
:10226000D00B00209C0B00207C0B0020D40B002006
:1022700038B5C44B1B6813F0010401D1204638BDAA
:10228000C14C23780546E3B9172D00F27881DFE8C9
:1022900015F00B013101310169007D009100A500AD
:1022A0005B003500280035002800B300BA00BA00F2
:1022B000BA00BA00BA00E300F6001C014200630055
:1022C0006300B24B1B7800202070002B00F02781A8
:1022D000FEF790FA0120FEF78DFA0320FEF78AFA46
:1022E000D2E7012318462370FEF7C2FAA8484FF43C
:1022F00080410022BDE83840FFF7C2B801231846EC
:102300002370FEF7B5FAA24840F6CD410022BDE8A1
:102310003840FFF7B5B89D4B1B78002B00F02081AB
:102320000020FEF767FA0120FEF764FA0320FEF7AB
:1023300061FA0020FEF74AFA0120FEF747FA954BB2
:1023400015221A70002499E70020FEF73FFA914BFE
:1023500007221A70002491E7FEF774FA8D4B0024CF
:102360001D708BE70020FEF71BFA002800F0E180CB
:102370000020FEF73FFA46F26661864B844803244C
:102380001C700022BDE83840FFF77AB80020FEF745
:1023900007FA002800F0DC800020FEF72BFA4FF44B
:1023A00000317C4B7A4804241C700022BDE8384080
:1023B000FFF766B80020FEF7F3F9002800F0CD80A3
:1023C0000020FEF717FA734B714805241C7041F684
:1023D0009A110022BDE83840FFF752B80020FEF7FE
:1023E00047FA6C4B6A4806241C7040F6CD41002227
:1023F000BDE83840FFF744B8FEF724FA654B0C22DD
:102400001A7000243AE76448FFF78EF8D5F11105F9
:10241000044600F08780002840F08480012D14D00D
:10242000C82303FB05F54FF4FA704FF40043002175
:10243000C3FB05014FF47A7200232FF085FB22467F
:1024400001465548FFF71CF804460220FEF7BEF986
:102450004E4B01221A7011E74C4B1B78002B00F0F9
:1024600082800020FEF7C6F90120FEF7C3F90320A1
:10247000FEF7C0F9474B12221A700024FEE6434BC8
:102480001B78002B75D00020FEF7B4F90120FEF771
:10249000B1F90320FEF7AEF90020FEF797F93D4BA6
:1024A00013221A700024E9E6384B1B78002B5DD00C
:1024B0000020FEF79FF90120FEF79CF90320FEF7AC
:1024C00099F9344B00241C70D8E6304B1B78002B54
:1024D00052D00020FEF78EF90120FEF78BF9032081
:1024E000FEF788F90120FEF771F92A4B14221A70C1
:1024F0000024C3E60020FEF753F9F8B10020FEF7F0
:1025000079F9022D4EF2666118BF4FF40031214B6C
:102510001F481D700022BDE83840FEF7B1BFFEF72E
:102520007BF9B1E60220FEF765F9184B00221A701C
:10253000A4E6FEF74BF941F69A111EE7FEF746F9BD
:1025400041F69A1343F23331022D08BF1946DEE7F4
:10255000FEF73CF943F2333123E7FEF737F932E770
:10256000FEF75AF9E5E6FEF757F983E7FEF754F967
:10257000A7E7FEF751F98FE7FEF74EF9B2E700241F
:102580007CE600BFA00B0020A80B00209C0B0020C5
:102590007C0B0020D00B0020D40B0020F0B5214A8A
:1025A000214B1060044610F0020083B0196015D072
:1025B0001E4B1F484FF00E0E0F2710261125042129
:1025C00040F2666283F800E0DF709E715D72FEF794
:1025D00085FAA0B1E3071DD403B0F0BDE20719D41A
:1025E0001448154A0021FEF739FF0028F4D113489A
:1025F000134A012103B0BDE8F040FEF72FBFFEF7FC
:10260000C7FA0028E6D101460E4A0F48FEF726FF1A
:10261000E10703D50190FEF745F901980028DFD0C6
:1026200003B0F0BDA00B0020AC0B0020F80B002085
:10263000403703003C370300891F00006037030068
:10264000AD1E0000591F000038370300020700D4F8
:10265000704708B5084605F097FE0E4A052812D8BF
:10266000DFE800F00A0A110303030723137018467A
:10267000BDE80840FFF7FCBD002313701846BDE815
:102680000840FFF7F5BD062313701846BDE8084063
:10269000FFF7EEBD120C002008B51C4B1B78032B76
:1026A00027D8DFE803F0211207020120BDE8084027
:1026B000FEF78CB80120FEF7DBF8154840F6CD4157
:1026C0000022BDE80840FEF7DBBE0120FEF768F8F7
:1026D00080B90120FEF77AF841F69A110C480022E1
:1026E000BDE80840FEF7CCBE0120BDE80840FEF77B
:1026F00081B808BD0120FEF77DF846F26661044806
:102700000022BDE80840FEF7BBBE00BF110C002050
:10271000340C002008B51B78802B00D008BD0D4B71
:10272000072201201A70FEF73BF868B10020FEF77F
:1027300061F80120FEF75EF8074841F69A11002281
:10274000BDE80840FEF79CBEFEF740F80120FEF70A
:102750003DF8F1E7100C0020140C002008B52C4ABD
:102760001378013BDBB2137083B10120FEF718F838
:10277000A0B9FEF72BF80120FEF728F8254841F60E
:102780009A110022BDE80840FEF77ABE224B1B7862
:10279000032B0DD8DFE803F0121B2B090020FEF7F6
:1027A00029F80120FEF726F8E8E70120FEF70EF8E9
:1027B0001A4B1878BDE80840FFF75ABD0120FEF714
:1027C00019F8164B1878BDE80840FFF751BD0120F5
:1027D000FDF7E6FFA8B10120FEF70CF846F26661AE
:1027E0000F480022FEF74CFE0028E1D008BD012072
:1027F000FEF73EF840F6CD4100220948FEF740FEC4
:10280000F2E70120FDF7E2FF41F69A11E8E700BF89
:10281000100C0020140C0020110C0020120C0020C1
:10282000340C0020F8B51A4E1A4B1B4F00242146D9
:102830000C22054630461C703C70FDF783FD214696
:10284000164B1748174A3360FEF708FE044660B17E
:10285000284615492A4604F0FBFF98B928460C493A
:1028600004F07EFF40B92046F8BD01460F4A1048EB
:10287000FEF7F4FD0446EBE70E480F4A0F4BE72145
:102880002FF038FC0B480C4A0D4BE6212FF032FCA0
:10289000040C0020110C0020120C00201527000051
:1028A00064370300992600004D2600005D270000D4
:1028B000683703006C3703006038030014380300E6
:1028C000B4370300704700BF08B5FEF7FDFC00B940
:1028D00008BDBDE80840FEF771B900BF30B4002361
:1028E0004FF4F0304FF0A045032403E0D20748BF77
:1028F00045F821400133202B40FA03F203F5E07143
:10290000F4D14FF0A0434FF4F0310022C3F8081582
:10291000C3F80C2530BC704708B501200021FFF733
:102920003DFE48B9064B1868FFF77CFF00B908BDAB
:10293000BDE80840FEF742B9FEF740F9F2E700BFF4
:10294000540C002008B505460C460020FDF708FF92
:10295000284621461DF0F5FD00201FF0F3FE04F08F
:1029600065FFA8B105460D4C00F0CCFA28460521BC
:1029700005F0F4FC2560FFF7A7FFFFF7CDFFFFF799
:10298000ADFF206805F079FB20681DF0EDFDF8E74C
:102990000348044A044B3F212FF0ACFB540C0020A9
:1029A000703803008C380300803803002DE9F84F9D
:1029B00043001F18DFF880B1FF000BEB07048846C7
:1029C000E16A0129164644D034D302293CD10130B2
:1029D00000EB4000656A0BEBC0094FF0000A1DE0F8
:1029E000126A641BB4422346A2EB050428BF334697
:1029F0009C42D9F8040028BF1C4622462844414680
:102A00002FF0BCFB0BEB070325441A6A954208BF65
:102A10000025361BA244A0445D6217D00BEB0702D1
:102A2000936AAB4203F1FF34DAD8126A1344013BD4
:102A30005C1BD7E7A16A626A91429CBF246A0919AC
:102A400001398A1A964238D94FF0000A5046BDE83B
:102A5000F88FA16A656AA94229D90139226AC5EBB2
:102A6000010A03440BEBC30B0BF1200BDBF8045002
:102A7000314BB24528BFB246561B0130B24500EB80
:102A800040003FD303EBC00441466068324628440F
:102A9000C6EB0A052FF072FB606808EB06012A46B8
:102AA0002FF06CFBCBF804505046BDE8F88F226A3B
:102AB0008C18013CC5EB040AD3E703440BEBC30BB2
:102AC0000BF12007DBF82040D7F804901A4BC9EB34
:102AD00004040130A64200EB40001FD303EBC00505
:102AE0004146686822464844C4EB06092FF046FB7D
:102AF000686808EB04014A462FF040FBB246C7F86D
:102B00000490A3E703EBC0034146586852462844AB
:102B100055442FF033FBCBF8045097E703EBC00389
:102B200041465868324648442FF028FB06EB09031B
:102B30007B60B2468AE700BF10CB00202DE9F04F42
:102B4000344C94F800E083B00546884617461E468C
:102B5000BEF1000F2ED02369DFF8B8A0AB4256D9E2
:102B60004FF000094846CDF80490FEF713FD6DB90B
:102B700029460D4404EBC5040C9BE3620020019B35
:102B8000FEF710FD002003B0BDE8F08F6B1C69005C
:102B900003EB4303DB004A190AEBC2020AEB030E04
:102BA000C2F828904AF80380CEF804701662C2F882
:102BB0002490DEE7184BDFF86CB0DFF86C90C4F8B7
:102BC00028E04FF0100C4FF4007A0222C4F824E001
:102BD000A361C4F858E0A3641049C4F82CE0C4F819
:102BE0005CE0C4F854E0C4F850C0E01DC4F81CB068
:102BF000C4F820A0C4F84C90226162612FF09AFEC4
:102C0000204607492FF096FE2023A371A3E74FF03B
:102C1000FF30B8E710CB0020A0380300AC38030029
:102C2000B0380300680C0020580C0020F8B5134C95
:102C300023780BBB124ADFF858C0124FA3624FF43F
:102C4000007E10266362E362A365E3656365022587
:102C50000D49A261A264C4F81CC0C4F820E0E01DC4
:102C6000E7642665256165612FF064FE204607490B
:102C70002FF060FE2023A371F8BD00BF10CB002011
:102C8000A0380300580C0020AC380300B038030013
:102C9000680C00200649074A074B9B1A03DD043BDA
:102CA000C858D050FBDC00F013F8FDF7D7FA00004D
:102CB000E89E03009808002060090020FEE7FEE778
:102CC000FEE7FEE7FEE7FEE7FEE7FEE7FEE7FEE7DC
:102CD00070B45E4B1B68082B19D05D4AD2F888305F
:102CE00043F47003C2F88830BFF34F8FBFF36F8F88
:102CF0004FF01023D3F80022002A75DBD3F80432FA
:102D0000002B71DB534B544A1A6070BC7047534B15
:102D100019680029E1D14FF080404FF08052C0F88F
:102D20000C114F4BC0F81011C0F83815D2F804142C
:102D3000C3F82015D2F80814C3F82415D2F80C14DF
:102D4000C3F82815D2F81014C3F82C15D2F81414AF
:102D5000C3F83015D2F81814C3F83415D2F81C147F
:102D6000C3F84015D2F82014C3F84415D2F824143F
:102D7000C3F84815D2F82814C3F84C15D2F82C140F
:102D8000C3F85015D2F83014C3F85415D2F83414DF
:102D9000C3F86015D2F83814C3F86415D2F83C149F
:102DA000C3F86815D2F84014C3F86C15D2F844641F
:102DB0002C4C2D49C3F870652C4D2560FB23C1F8C0
:102DC0001835D0F8E43ED2F8581204F50F3423F049
:102DD0000F0204F56D7401F00F0313434FF40072FA
:102DE000C0F8E43E226078E7214B0122C3F80425B5
:102DF000D3F80024002AFBD04FF0102312221C49E4
:102E0000C3F80022D1F80034002BFBD04FF0102380
:102E100012221749C3F80422D1F80024144B002AC7
:102E2000FAD00022C3F80425D3F80024002AFBD0EE
:102E3000BFF34F8F06490F4BCA6802F4E062134399
:102E4000CB60BFF34F8F00BFFDE700BF3001001024
:102E500000ED00E0FC0800200090D00334010010D9
:102E600000C000408C56004000F000404881030044
:102E700000E001400400FA0500F0D4BB10B50446A0
:102E800004F047FBA31D23608023A380204610BDD0
:102E900073B504460E4600F05FF904F52E7004F099
:102EA00049FB144B009304F26231134B019440F23E
:102EB000145204F52F7004F095FB04F53670FFF7FB
:102EC000DDFF002506F50141234684F8605384F8B0
:102ED00061530A4A383104F6780006F09EF9234619
:102EE000074A2946201D03F0F7FD1DF0A5FE2046E8
:102EF00002B070BDA1300000792E0000D52F000077
:102F0000372F000010B5054C01462046FFF7C0FFE3
:102F100000F09CF9844200D0FEE710BD680E00204E
:102F2000D0F8D82200F2DE239A4203D100F67800CE
:102F300006F096B97047FFF7F3BFF8B50446051DD4
:102F400000F5367600F52E77284603F0ABFE50BB31
:102F500094F86033012B1ED009D3022BF4D13146F3
:102F6000384604F01DFBF0B984F86003ECE7314605
:102F7000384604F0E2FAB0B9284603F00AFF01230C
:102F800084F86033284603F00BFFC0B9284603F0ED
:102F90000DFF84F86103324694F86113384604F05B
:102FA000D5FA0028EED0D4F8D81204F2DE20091A9F
:102FB0008BB273B119461DF051FE50B1FEE72846A1
:102FC00003F01AFF204601F0C1FD022384F86033AC
:102FD000C5E7F8BDFFF7B1BF00F2DE23C0F8D83275
:102FE0008023A0F8DC3200F6780006F039B908B585
:102FF00000F02CF918B1BDE80840FFF7EDBF08BD9F
:1030000038B504460D4600F021F938B12A4621466C
:1030100000F52F70BDE8384004F0F2BA38BD00006A
:10302000F0B50C46A1B016461F4600F021F9234624
:10303000184A194D802168462FF032FC68462FF05F
:1030400096FC69460246002003F0DAFC0024BC42EC
:103050004FEA44000CDA292C0AD0A4EB8401204466
:10306000335D2A46803168442FF01AFC0134EEE7C4
:103070002044C0F18001094A68442FF011FC6846E1
:103080002FF075FC0DF10101421E002003F0B8FC89
:1030900021B0F0BDB8380300CC380300D2380300AB
:1030A000FFF7BEBF1A2827D8DFE800F0290E10125C
:1030B0002614161826262626261A1C261E20262604
:1030C0002626262626242200012070470E2070473F
:1030D0000B2070470C207047092070470320704771
:1030E000022070470420704711207047122070475B
:1030F000132070471420704700F58040704700206F
:103100007047437C13F0040F14BF202000201907E0
:1031100048BF40F01000DA0648BF40F008005906EA
:1031200048BF40F002009A0648BF40F00400DA09A8
:1031300018BF40F0010043F3010340EA8310C0B21E
:103140007047FEE7D1F880301843C1F8800001F1E4
:10315000700006F085B80000F8B50F460146044639
:1031600041F8897B4FF40072043003F09FFC314B2F
:1031700063660025A36604F17006C82307F50141C4
:10318000A4F86C30256623462B4A3831304606F0C9
:1031900044F84FF00043C4F88030206884F884502D
:1031A0000B2384F88E32FF2384F88550A4F88650D0
:1031B00084F8885084F8895284F88A5284F88B52B3
:1031C00084F88C5284F88D5284F88F32C4F890526F
:1031D000C4F89452C4F89852C4F89C52C4F8A0524F
:1031E000C4F8A452C4F8A852C4F8AC52C4F8B052FF
:1031F000C4F8B45200B9FEE7104B11491C602246D6
:1032000004F026FB224620680E4904F077FB206874
:10321000012104F07CFB224620680B4904F065FC88
:103220002946206804F098FA304606F019F820463E
:10323000F8BD00BF00F8FF07593C0000F016002061
:1032400045310000A95800002D330000014B1868DB
:10325000704700BFF016002010B50446043003F09C
:10326000FAFC20B9D4F89C320133C4F89C3210BD6A
:10327000D0F890320133C0F89032704710B598B052
:10328000134604460A466846602104F02BF9431EA3
:103290005F2B06D882B26946201D03F0B2FC18B03D
:1032A00010BD0320FBE70EB403B503AA52F8041BBC
:1032B0000192FFF7E3FF02B05DF804EB03B0704743
:1032C00090F88B32F7B504460D4643B3071D3846D8
:1032D00003F092FC18BB2B796E7A01937123009353
:1032E000802206230F492046C6F34006FFF7DBFF86
:1032F000A8B92A792968384603F083FC78B995F98A
:10330000062000966FF07F0307492046FFF7CBFFAA
:1033100028B9204603B0BDE8F040FFF79DBF03B0D9
:10332000F0BD00BFE9380300EE3803000B4601464C
:103330001846FFF7C5BF00002DE9FF4100F1040862
:10334000054640460C46174603F056FC58BB667AC5
:10335000C6F3400607B920790190712300938022BB
:10336000062312492846FFF79EFFE0B9A7B1E3798B
:1033700002936379019394F90620039700966FF006
:103380007F030B492846FFF78EFF60B9284604B03B
:10339000BDE8F041FFF760BF22792168404603F0A5
:1033A00030FC0028E3D004B0BDE8F081E938030028
:1033B000F8380300014B1868FFF7BEBFF016002075
:1033C0002DE9FF4104460AA80E4650F8045B03901D
:1033D000201D1746984603F00FFC88B9CDF80080F1
:1033E0003B46324608492046FFF75DFF40B9039A45
:1033F00029462046FFF742FF10B92046FFF72CFF71
:1034000004B0BDE8F08100BF0539030013B5002307
:103410000193074B00930622302380210446FFF7D7
:10342000CFFF10B1012384F8843002B010BD00BF7B
:103430002742030010B504468CB0002931D091F822
:103440003920130103F0F003900648BF43F0010355
:10345000D2064FF008020B9248BF43F0080301F177
:1034600019020A92089301F10802032309920793B3
:1034700091F8383006934B8E05934FF6FF73039106
:10348000049391F93730029391F836300193074B4A
:1034900000930722332380212046FFF791FF0CB0D1
:1034A00010BD0CB0BDE81040FFF7B0BF7839030085
:1034B0000B4601461846FFF7BDBF00001FB571B1AE
:1034C00091F9013002930B780193074B0093072287
:1034D00039238021FFF774FF05B05DF804FB05B0C8
:1034E0005DF804EBFFF792BF154203000B4601465F
:1034F0001846FFF7E3BF00001FB590F88D12044691
:1035000081B11846FFF7CEFD074B02920190009360
:103510000622002341F080012046FFF751FF0023DF
:1035200084F88D3204B010BD0939030001480068E9
:10353000FFF7E2BFF01600201FB5029190F98F321D
:1035400001930E4B00930446392306228021FFF796
:1035500037FFFF2384F88F3294F88E12084A2068D0
:1035600004F094FB00230193064B009306223023C2
:1035700080212046FFF724FF04B010BD1542030050
:10358000B533000027420300014B1868FFF7D4BF92
:10359000F016002007B511F0300F064B08BF026689
:1035A0000192009306220023FFF70AFF03B05DF8A3
:1035B00004FB00BF07390300F0B50C0606460D46B4
:1035C000BDF814702AD5C1F3011484B914482146FA
:1035D0004FF00C0C0CFB01FE5EF80040A2420BD039
:1035E00001310929F6D105222946304600E006229C
:1035F000BDE8F040FFF7CEBF00EB0E0188684C68D5
:1036000010F0010F4FEA600001D031580C590597B6
:1036100029463044A446BDE8F04060470720F0BD8D
:103620000C39030070B588B000238DF81330059372
:103630000693079307AB029306AB1646019305ABBF
:10364000009304460DF1130308461F4A314603F068
:103650006BFC9DF81310B04201F00F052ED1BDF8A0
:103660001C300093059A069B2046FFF7A5FF94F8AF
:10367000883033B19D421EBFD4F898320133C4F86C
:1036800098320F2D14BF6B1C012384F88830032857
:103690000DD165B194F885300BB984F885500123BC
:1036A00003FA05F5B4F886301D43A4F88650D4F823
:1036B00094320133C4F8943208B070BD0922204618
:1036C000FFF768FFE3E700BFE5380300F0B5124CF1
:1036D000BDF81470964600254FF00C0C0CFB05F657
:1036E0003259724507D00135082DF7D10D22BDE8BA
:1036F000F040FFF74FBF3444A568646815F0010F30
:103700004FEA650501D04659345905972844A44627
:10371000BDE8F040604700BFB44103000022FFF75E
:1037200039BF38B50446006804F0B1F800212068BC
:1037300004F0AFFE0021206804F0BCF87222802162
:103740002046FFF727FF054648B1D4F8803043F004
:103750000043C4F8803004F1700005F081FD284674
:1037600038BD000070B586B00446184606AB00228E
:1037700043F80C2DBDF8286005AA019204AA009216
:103780000D460B4A314603F0CFFBB0420AD1BDF8DB
:1037900014300093039A049B29462046FFF796FFB6
:1037A00006B070BD092229462046FFF7F3FEF7E771
:1037B000E638030038B5044600680D4604F069F8A1
:1037C000FFF770FC294602462046BDE83840FFF767
:1037D000E1BE0222FFF7DEBE0222FFF7DBBE0000E1
:1037E000F0B5054687B000680E461F4604F0B4F9F0
:1037F000002832D0002328680493059304F0C3F90D
:10380000831D0293431D019305AB0093044604AB53
:10381000144ABDF83010384603F086FB00281EDD40
:10382000059A7F2A1BD806F00F0385F88D3204997C
:10383000227120682EF0A2FC042323720A4A286811
:10384000214604F0A6FA30B1FFF72CFC31460246BF
:103850002846FFF79FFE07B0F0BD0E20F4E70620D4
:10386000F2E700BF144203002D350000F0B589B027
:1038700005460F46006800211C46049105910691FB
:10388000079104F058F8064670B307AB029306ABF5
:10389000019305AB00931C4ABDF8381004AB2046D9
:1038A00003F042FBBDF814200499304604F0EBFA13
:1038B000044620BB0121304604F0DAFA314628687C
:1038C00004F029F8044680B9D5F8A4320133C5F8CC
:1038D000A4323B0705D0024639462846FFF75AFE78
:1038E0000446204609B0F0BD0324D5F8B4320133B4
:1038F000C5F8B4322046FFF7D5FB0246ECE7304668
:1039000004F0AEFAF1E700BF66420300F0B589B0FB
:1039100005460F461C4601210023006804930593C9
:103920000693079304F007F8064650B307AB0293DB
:1039300006AB019305AB0093194ABDF8381004ABF0
:10394000204603F0F1FABDF814200499304604F043
:103950009AFA044600BB3146286803F0DCFF0446AF
:1039600080B9D5F8A0320133C5F8A0323B0705D0A5
:10397000024639462846FFF70DFE0446204609B0A8
:10398000F0BD0324D5F8B4320133C5F8B432204673
:10399000FFF788FB0246ECE7304604F061FAF1E7F6
:1039A0006642030037B50446184602AB002203F80E
:1039B000012D0D460B4ABDF8181003F0B5FA00288A
:1039C0000EDD9DF80730012B0CBF0D200720FFF7FF
:1039D00069FB294602462046FFF7DCFD03B030BDF7
:1039E0000620F4E72742030037B50446184602AB29
:1039F000002203F8012D0D460D4ABDF8181003F002
:103A000093FA002811DD9DF80730206853B903F0C0
:103A100074FEFFF747FB294602462046FFF7BAFD32
:103A200003B030BD03F064FEF3E70620F1E700BF0A
:103A3000524803000222FFF7ADBD0222FFF7AABDE4
:103A40000222FFF7A7BD0222FFF7A4BD0222FFF763
:103A5000A1BD0222FFF79EBD0E4BF0B41646002416
:103A60000C2707FB04F5EA58B24206D00134752C46
:103A7000F7D10D22F0BCFFF78DBD2B449C685B682D
:103A800014F0010F4FEA640401D00559EB582044AB
:103A9000F0BC18478C39030070B56E4D0446D4F85D
:103AA0008030002B68D013DA20681CF02FFD082826
:103AB00094BF2A5C772280212046FFF76BFD002807
:103AC0005AD1D4F8803023F00043C4F88030E6E7C0
:103AD00098050BD5602280212046FFF7BDFF002806
:103AE0004AD1D4F8803023F40073EEE713F48066F3
:103AF0000BD0612280212046FFF7AEFF00283BD18A
:103B0000D4F8803023F48063DFE7190742D594F8B6
:103B10008A323BB9432280212046FFF79DFF0028CF
:103B200033D070BD206804F02FFC0138012888BF15
:103B300084F88A62206804F027FC052807D049220F
:103B400080212046FFF788FF0028E3D070BD206861
:103B500004F0D0FC0028F2D0D4F88030206823F0A4
:103B600010030021C4F8803004F093FC6822802107
:103B70002046FFF70FFD00B170BD42228021204694
:103B8000FFF76AFF0028DAD070BDD4F8803023F048
:103B900008039AE7DA060BD5482280212046FFF772
:103BA0005BFF0028E8D1D4F8803023F010038CE7C5
:103BB0009E060BD5472280212046FFF74DFF0028A7
:103BC000DAD1D4F8803023F020037EE798070BD0B9
:103BD000632280212046FFF73FFF0028CCD1D4F894
:103BE000803023F0030370E713F0C00F0BD0522294
:103BF00080212046FFF730FF0028BDD1D4F8803067
:103C000023F0C00361E7D9050ED541F20D528021A2
:103C10002046FFF721FF0028AED1D4F8803023F4EE
:103C2000807343F0804350E75A000BD55A2280211D
:103C30002046FFF711FF00289ED1D4F8803023F0F2
:103C4000804342E713F4C05F3FF429AF23F4C0532D
:103C50003BE700BFD5380300FFF71EBF37B504466A
:103C6000184602AB002243F8042D0D46094ABDF860
:103C7000181003F059F9002806DD019A294620465C
:103C8000FFF7EAFE03B030BD092229462046FFF7C0
:103C900081FCF7E70739030073B50446184602AB09
:103CA0001646002203F8012D0D461B4ABDF81810D8
:103CB00003F03AF900282CDD9DF8073093B994F809
:103CC0008B3213B1206803F056FF0021206803F007
:103CD00038FF80B1FFF7E6F9294602462046FFF794
:103CE00059FC0DE00121206803F02BFF0028F1D1E1
:103CF00094F88B3233B9324629462046FFF7ACFEA2
:103D000002B070BD054A94F88E12206803F0BEFF21
:103D1000DFE70620DEE700BF52480300B5330000AE
:103D200073B50446184602AB1646002203F8012D6F
:103D30000D460C4ABDF8181003F0F6F800280BDD0C
:103D40009DF90710206803F070FE32462946204690
:103D5000FFF782FE02B070BD092229462046FFF718
:103D600019FCF7E75C4F030073B50446184602AB35
:103D70001646002243F8042D0D46184ABDF81810C7
:103D800003F0D2F8002827DD9DF80410206803F026
:103D90000FFEC8B9019B84F88E32206803F0DCFE68
:103DA00030B9324629462046FFF756FE02B070BDB4
:103DB00094F88B32002BF4D0094A94F88E122068C4
:103DC00003F064FF0028ECD0FFF76CF902462946A7
:103DD0002046FFF7DFFBE9E70922F8E70739030090
:103DE000B533000073B50446184602AB16460022F0
:103DF00003F8012D0D46114ABDF8181003F094F890
:103E000000280FDD9DF8071011B1022910D80121FB
:103E100020681CF075FC324629462046FFF71CFE40
:103E200002B070BD092229462046FFF7B3FBF7E731
:103E30000720FFF737F90246F5E700BF27420300E6
:103E4000F8B50546BDF81800013B00264FF0010EFD
:103E500060B113F8014F1F2C0EDC6F6E0EFA04F4E4
:103E60003C4209D00138264380B2F1E7AE662846CD
:103E7000BDE8F840FFF7F0BD0720FFF713F9024651
:103E80002846BDE8F840FFF785BB000073B504463F
:103E9000184602AB1646B4F86C2023F8022D0D46E6
:103EA0000B4ABDF8181003F03FF800280ADDBDF8F2
:103EB0000630A4F86C30324629462046FFF7CCFD88
:103EC00002B070BD092229462046FFF763FBF7E7E1
:103ED0001942030073B50446184602AB164694F81F
:103EE0008A2203F8012D0D460B4ABDF8181003F085
:103EF0001BF800280ADD9DF8073084F88A32324624
:103F000029462046FFF7A8FD02B070BD09222946C8
:103F10002046FFF73FFBF7E75248030073B504461E
:103F20000D461846164601AB0E4ABDF8181002F0B1
:103F3000FBFF002813DD0199206803F059FD30B91B
:103F4000324629462046FFF787FD02B070BDFFF7D5
:103F5000A9F8024629462046FFF71CFBF5E709228F
:103F6000F8E700BF984C030073B50446184602AB4F
:103F70001646002203F8012D0D46174ABDF8181009
:103F800002F0D2FF002825DD206803F0E5FD50B9DE
:103F90009DF8073084F88B32324629462046FFF7D9
:103FA0005BFD02B070BD9DF807307BB10B4A94F801
:103FB0008E12206803F06AFE0028E9D0FFF772F83D
:103FC000294602462046FFF7E5FAEAE7206803F0B3
:103FD000D2FDF1E70620F1E752480300B5330000B7
:103FE00073B50446184602AB1646002203F8012DAD
:103FF0000D460E4ABDF8181002F096FF00280CDDA1
:104000009DF80710206803F055FC38B93246294660
:104010002046FFF721FD02B070BD0620FFF742F8F1
:10402000294602462046FFF7B5FAF4E75248030056
:10403000F7B50446184602AB1646002203F8012DD8
:104040000D46164ABDF8201002F06EFF002822DD52
:1040500020689DF8077004F097F910F1FF3018BF41
:104060000120B84206D1324629462046FFF7F4FC2B
:1040700003B0F0BD9DF8071001B10121206804F0E4
:1040800008FA0028EFD0FFF70DF82946024620462F
:10409000FFF780FAECE70620F5E700BF524803007F
:1040A00073B50446184602AB1646002243F8042DA9
:1040B0000D46184ABDF8181002F036FF002826DD1C
:1040C000019B032B07D8DFE803F002150D112068D0
:1040D00004F017F998B9324629462046FFF7BCFC90
:1040E00002B070BD206804F016F9F3E7206804F010
:1040F00024F9EFE70021206804F008F9EAE7FEF769
:10410000D1FF024629462046FFF744FAE8E7092294
:10411000F8E700BF0739030073B50446184602AB41
:104120001646002243F8042D0D460F4ABDF818101C
:1041300002F0FAFE002814DD019991B1206804F024
:1041400082F830B9324629462046FFF785FC02B096
:1041500070BDFEF7A7FF024629462046FFF71AFA70
:10416000F5E70922F8E700BF2E4203007FB50446B9
:10417000184604AB1646002243F8082D03AA009205
:104180000D460D4ABDF8201002F0CEFE00280DDDD0
:10419000039B082B0AD10299206803F092FF324654
:1041A00029462046FFF758FC04B070BD0922294675
:1041B0002046FFF7EFF9F7E7406303007FB50446B9
:1041C000184604AB1646002243F8082D03AA0092B5
:1041D0000D46104ABDF8201002F0A6FE002817DD9B
:1041E000039A632A14D8D2B20299206803F0E5FF3B
:1041F00030B9324629462046FFF72EFC04B070BD88
:10420000FEF750FF024629462046FFF7C3F9F5E7BF
:104210000922F8E74063030073B50446184602AB71
:104220001646002243F8042D0D460C4ABDF818101E
:1042300002F07AFE00280ADD0199206804F03FF8B8
:10424000324629462046FFF707FC02B070BD09221E
:1042500029462046FFF79EF9F7E700BF7A420300A0
:1042600073B50446184602AB1646002243F8042DE7
:104270000D460C4ABDF8181002F056FE00280ADD63
:104280000199206804F024F8324629462046FFF7B9
:10429000E3FB02B070BD092229462046FFF77AF9F8
:1042A000F7E700BF7A42030073B50446184602AB35
:1042B0001646002203F8012D0D460E4ABDF81810CF
:1042C00002F032FE00280BDD9DF80710206803F095
:1042D000E4FF324629462046FFF7BEFB02B070BD20
:1042E0000620FEF7DFFE294602462046FFF752F978
:1042F000F4E700BF27420300F8B51746BDF81820C1
:10430000072A05460E4611DD1946006803F07BFFBB
:104310003A46044631462846FFF79EFB3CB93A46EA
:1043200031462846BDE8F840FFF796BB06242046F4
:10433000FEF7B8FE314602462846BDE8F840FFF7D2
:1043400029B9000073B50446184602AB1646002290
:1043500003F8012D0D460C4ABDF8181002F0E4FDDB
:1043600000280BDD9DF80710206803F0F5F93246B0
:1043700029462046FFF770FB02B070BD092229468E
:104380002046FFF707F9F7E75248030073B50446E4
:10439000184602AB1646002203F8012D0D460D4AC1
:1043A000BDF8181002F0C0FD00280DDD9DF80710C3
:1043B000206881F0010103F0AAFA3246294620461E
:1043C000FFF74AFB02B070BD092229462046FFF7DD
:1043D000E1F8F7E7524803002DE9F74F884602A9B4
:1043E0000024054601F8034D0068BDF83060914691
:1043F0001F4603F0BBFA82469DF80500A0B9DFF81E
:1044000088A0F8B1FEF74EFE414602462846FFF767
:10441000C1F8064624B14A4680212846FFF71CFB16
:10442000304603B0BDE8F08F3AF81410286803F066
:1044300098FA0028E3D19DF80530013B01348DF84E
:104440000530D9E7012E18DD0DF10603524631463D
:10445000384602F069FDB0F1000B0CDDBDF8061026
:10446000286803F079FA0028CCD1A6EB0B065F444C
:10447000B6B20134E6E70620C4E74A46414628467C
:10448000FFF7EAFA0646CBE719420300F7B5044600
:10449000184602AB1746002203F8012D0E46134AB8
:1044A000BDF8201002F040FD002815DD94F8895277
:1044B0009DF807300DB183F00105314684F889324B
:1044C0003A462046FFF7C8FA064615B1206803F0C1
:1044D000BFFD304603B0F0BD0620FEF7E3FD3146D8
:1044E00002462046FFF756F80646F2E75248030018
:1044F00073B504460D46184616460DF107030C4ADF
:10450000BDF8181002F010FD00280BDD9DF8071013
:10451000206803F0B9FE324629462046FFF79CFA90
:1045200002B070BD092229462046FFF733F8F7E7AD
:10453000524803002DE9F04F85B004460068BDF8ED
:104540003850DFF8A4B0884617461E4603F0B8FA84
:10455000002D3DD0002303930DF10B0300934FF08A
:104560007F0903AB1F4A8DF80B902946304602F0B5
:10457000DBFCB0F1000A19DC03AB5A462946304691
:104580008DF80B9002F0D0FCB0F1000A0EDC062092
:10459000FEF788FD414602462046FEF7FBFF3A46FD
:1045A000054680212046FFF757FA17E09DF90B20BA
:1045B000039920687F2A08D103F060FAA5EB0A0569
:1045C0005644ADB20028C3D0E2E703F062FAF5E743
:1045D0003A4641462046FFF73FFA0546284605B0D1
:1045E000BDE8F08F1B4203002142030073B504466F
:1045F0000D46184616460DF107030C4ABDF8181073
:1046000002F092FC00280BDD9DF80710206803F0F3
:1046100064FA324629462046FFF71EFA02B070BD02
:10462000092229462046FEF7B5FFF7E75248030066
:1046300073B504460D46184616460DF107030F4A9A
:10464000BDF8181002F070FC002814DD9DF807106A
:10465000206803F0A0FA30B9324629462046FFF719
:10466000FBF902B070BDFEF71DFD0246294620464B
:10467000FEF790FFF5E70922F8E700BF5248030074
:1046800073B50446184602AB1646002203F8012D06
:104690000D46174ABDF8181002F046FC002824DD2C
:1046A0009DF807302068C3F3C0024FF0000162F3A9
:1046B0000001C3F3800262F34101C3F3400262F3DD
:1046C000820163F3C30103F05CFD30B93246294631
:1046D0002046FFF7C1F902B070BDFEF7E3FC0246C9
:1046E00029462046FEF756FFF5E70922F8E700BF06
:1046F0002742030073B50446184602AB1646002253
:1047000003F8012D0D460C4ABDF8181002F00CFC00
:1047100000280BDD9DF80710206803F0C0FC32462E
:1047200029462046FFF798F902B070BD09222946B4
:104730002046FEF72FFFF7E72742030073B5044634
:10474000184602AB1646002243F8042D0D460C4ACB
:10475000BDF8181002F0E8FB00280ADD0199206876
:1047600003F0A6FC324629462046FFF775F902B051
:1047700070BD092229462046FEF70CFFF7E700BF6F
:104780007A42030073B50446184602AB164600226F
:1047900003F8012D0D460C4ABDF8181002F0C4FBB9
:1047A00000280BDD9DF80710206803F0A1FD3246BC
:1047B00029462046FFF750F902B070BD092229466C
:1047C0002046FEF7E7FEF7E72742030073B50446ED
:1047D000184602AB1646002203F8012D0D460C4A7E
:1047E000BDF8181002F0A0FB00280BDD9DF80710A3
:1047F000206803F0ABFD324629462046FFF72CF92E
:1048000002B070BD092229462046FEF7C3FEF7E735
:104810002742030073B50446184602AB1646002231
:1048200003F8012D0D460C4ABDF8181002F07CFB70
:1048300000280BDD9DF80710206803F08FFD32463D
:1048400029462046FFF708F902B070BD0922294623
:104850002046FEF79FFEF7E72742030073B50446A4
:10486000184602AB1646002203F8012D0D461A4ADF
:10487000BDF8181002F058FB002827DD9DF807301E
:10488000072B1ED8DFE803F0242404262612121476
:104890000121206803F00CF8034658B11D2B11D1FB
:1048A000152229462046FEF775FE08E00321F0E7B1
:1048B0000421EEE7324629462046FFF7CDF802B044
:1048C00070BD0720FEF7EEFB0246EAE70922E8E7A3
:1048D0000021DEE70221DCE72742030073B504462E
:1048E000184602AB1646002243F8042D0D460C4A2A
:1048F000BDF8181002F018FB00280ADD01992068A5
:1049000003F0D4FC324629462046FFF7A5F802B052
:1049100070BD092229462046FEF73CFEF7E700BF9E
:104920007A42030073B50446184602AB16460022CD
:1049300003F8012D0D460C4ABDF8181002F0F4FAE8
:1049400000280BDD9DF80710206803F0C9FC3246F3
:1049500029462046FFF780F802B070BD092229469B
:104960002046FEF717FEF7E727420300F0B5124C8A
:10497000BDF81470964600254FF00C0C0CFB05F6A4
:104980003259724507D00135302DF7D10D22BDE8DF
:10499000F040FEF7FFBD3444A568646815F0010FD0
:1049A0004FEA650501D04659345905972844A44675
:1049B000BDE8F040604700BF083F030070B586B017
:1049C0000446184606AB002243F80C2DBDF82860BB
:1049D00005AA019204AA00920D460B4A314602F044
:1049E000A3FAB0420AD1BDF814300093039A049B95
:1049F00029462046FFF7BAFF06B070BD09222946B6
:104A00002046FEF7C7FDF7E7E6380300F0B5124C85
:104A1000BDF81470964600254FF00C0C0CFB05F603
:104A20003259724507D00135092DF7D10D22BDE865
:104A3000F040FEF7AFBD3444A568646815F0010F7F
:104A40004FEA650501D04659345905972844A446D4
:104A5000BDE8F040604700BF4841030070B586B034
:104A60000446184606AB002243F80C2DBDF828601A
:104A700005AA019204AA00920D460B4A314602F0A3
:104A800053FAB0420AD1BDF814300093039A049B44
:104A900029462046FFF7BAFF06B070BD0922294615
:104AA0002046FEF777FDF7E7E638030073B50446C6
:104AB0000D46184616460DF106030F4ABDF81810AC
:104AC00002F032FA002814DDBDF80610206803F069
:104AD00047F830B9324629462046FEF7BDFF02B0FE
:104AE00070BDFEF7DFFA024629462046FEF752FD6A
:104AF000F5E70922F8E700BF1942030073B5044641
:104B00000D46184616460DF106030F4ABDF818105B
:104B100002F00AFA002814DDBDF80610206802F041
:104B20008DFF30B9324629462046FEF795FF02B088
:104B300070BDFEF7B7FA024629462046FEF72AFD69
:104B4000F5E70922F8E700BF1942030037B504462C
:104B5000012594F8851099B10B2241F0800120467F
:104B6000FEF718FD70BB94F88530B4F8862005FA7E
:104B700003F122EA0102A4F88620BAB984F885205C
:104B800094F8843063B1002301930F4B0093062205
:104B9000302380212046FEF713FC98B984F8840066
:104BA000204603B0BDE83040FEF776BF0E2BDABFDB
:104BB0000133DBB2012342FA03F1C907F6D584F8C9
:104BC0008530C6E703B030BD2742030007B5036E4A
:104BD0000193044B009313460622FEF7F1FB03B04A
:104BE0005DF804FB073903001FB503230293042378
:104BF0000193044B009313460622FEF7E1FB05B038
:104C00005DF804FB0639030007B503230193044B49
:104C1000009313460622FEF7D3FB03B05DF804FBB6
:104C20000739030007B500230193044B0093134693
:104C30000622FEF7C5FB03B05DF804FB073903004D
:104C400073B5164604460D4603F01AFC054B019059
:104C500000930622334629462046FEF7B1FB02B0F8
:104C600070BD00BF2E42030007B501230193044B22
:104C7000009313460622FEF7A3FB03B05DF804FB86
:104C80002742030007B504230193044B0093134606
:104C90000622FEF795FB03B05DF804FB27420300F4
:104CA000F0B585B002AD04460E46006829461746A9
:104CB00002F0B5FE054B009301953B4606223146B6
:104CC0002046FEF77DFB05B0F0BD00BF984C030009
:104CD00073B50446006816460D4602F03DFF054BCD
:104CE000019000930622334629462046FEF768FBD2
:104CF00002B070BD52480300F7B5054600680E4685
:104D0000174602F051FED8B10A2811DC4FF4FA64BC
:104D1000604300F55C2000F534600B4B019000937C
:104D200006223B4631462846FEF74AFB03B0F0BD5B
:104D3000192807DC054B41F2883202FB0030ECE712
:104D40000348EAE70020E8E77A420300B0DB2300EB
:104D5000CC3F0D0073B50446006816460D4602F0C0
:104D600023FE054B01900093062233462946204638
:104D7000FEF726FB02B070BD2742030073B5044660
:104D8000006816460D461BF0B5FC054B01900093DC
:104D90000622334629462046FEF712FB02B070BDBC
:104DA0005C4F030073B50446006816460D4602F0DA
:104DB00038FE054B019000930622334629462046D3
:104DC000FEF7FEFA02B070BD5C4F0300F7B5044673
:104DD0000068124F0D46164602F0BEFE78B194F9F7
:104DE0008F325A1C0CBF00230223019300973346D5
:104DF000062229462046FEF7E3FA03B0F0BD2068FC
:104E000002F088FE08B10123EFE7206802F094FE6B
:104E100008B10223E9E70190E8E700BF2742030059
:104E200007B5B0F86C300193044B0093134606228B
:104E3000FEF7C6FA03B05DF804FB00BF1942030099
:104E400073B50446006816460D4602F0F3FD054BA7
:104E5000019000930622334629462046FEF7B0FA19
:104E600002B070BD1942030073B5044600681646CF
:104E70000D461BF043FC002814BF022300230193BE
:104E8000044B00930622334629462046FEF798FA43
:104E900002B070BD5C4F030073B50446006816464F
:104EA0000D4602F0E7FD054B0190009306223346C4
:104EB00029462046FEF784FA02B070BD194203006D
:104EC00073B50446006816460D4602F08DFD054B8D
:104ED000019000930622334629462046FEF770FAD9
:104EE00002B070BD984C0300FFF7EABF07B590F819
:104EF0008B320193044B009313460622FEF760FAAF
:104F000003B05DF804FB00BF5248030073B50446CC
:104F1000006816460D4602F0FFFB054B019000931A
:104F20000622334629462046FEF74AFA02B070BDF3
:104F30005248030073B50446006816460D4602F059
:104F4000CBFC054B019000930622334629462046B0
:104F5000FEF736FA02B070BD5248030073B504463E
:104F6000006816460D4603F00FFA10F1FF3018BF27
:104F70000120054B01900093062233462946204626
:104F8000FEF71EFA02B070BD5248030073B5044626
:104F9000006816460D4603F0F7F90338C0B2022840
:104FA00096BF074B0020185C064B01900093062229
:104FB000334629462046FEF703FA02B070BD00BF13
:104FC000DE3803002742030073B504460068164626
:104FD0000D4603F034F9054B019000930622334649
:104FE00029462046FEF7ECF902B070BD2E420300C0
:104FF0007FB50446006816460D4603F05EF80823A8
:105000000293054B01900093062233462946204621
:10501000FEF7D6F904B070BD4063030070B586B0EA
:105020000D4606A90023044601F8013D0068164616
:1050300003F0BEF89DF817300293054B01900093E2
:105040000622334629462046FEF7BAF906B070BD5F
:105050004063030073B50446006816460D4603F02E
:105060002AF9054B01900093062233462946204633
:10507000FEF7A6F902B070BD7A42030073B504468C
:10508000006816460D4603F09DF9054B019000930C
:105090000622334629462046FEF792F902B070BD3B
:1050A0007A42030073B50446006816460D4603F0C5
:1050B0000BF9054B01900093062233462946204602
:1050C000FEF77EF902B070BD7A42030073B5044664
:1050D000006816460D4602F0C0FF054B0190009394
:1050E0000622334629462046FEF76AF902B070BD13
:1050F0002742030073B50446006816460D4602F0C9
:10510000B4FF054B01900093062233462946204602
:10511000FEF756F902B070BD2742030073B504468E
:10512000006816460D4603F03DF9054B01900093CB
:105130000622334629462046FEF742F902B070BDEA
:105140002742030073B50446006816460D4603F077
:10515000A0F8054B019000930622334629462046CD
:10516000FEF72EF902B070BD2742030073B5044666
:10517000006816460D4603F01DF9054B019000939B
:105180000622334629462046FEF71AF902B070BDC2
:1051900027420300F0B587B002AE04460D46006812
:1051A0003146174602F0BDFF50B9094B00930196F6
:1051B0003B46062229462046FEF702F907B0F0BD1D
:1051C000FDF770FF294602462046FEF7E3F9F5E7B2
:1051D00089530300F0B58BB005AE04460D46006858
:1051E0003146174603F007F968B9BDF81C30029341
:1051F000094B009301963B46062229462046FEF7BE
:10520000DFF80BB0F0BDFDF74DFF29460246204602
:10521000FEF7C0F9F5E700BF1842030007B590F8A4
:1052200089320193044B009313460622FEF7C8F817
:1052300003B05DF804FB00BF5248030073B5044699
:10524000006816460D4603F01AF8054B01900093CE
:105250000622334629462046FEF7B2F802B070BD5A
:1052600052480300F0B5054689B000680E4617465F
:1052700002F0C4FF0146A0B10068496804AB0022F7
:105280001C4603C40792069201934022094B0292E6
:10529000009306223B4631462846FEF791F809B0B6
:1052A000F0BD054B009306223B4631462846FEF7EB
:1052B00087F8F4E7264203002942030073B5044649
:1052C000006816460D4602F043FA054B0190009324
:1052D0000622334629462046FEF772F802B070BD1A
:1052E0005248030073B50446006816460D4602F0A6
:1052F0000AFB80F00100C0B2054B0190009306222A
:10530000334629462046FEF75BF802B070BD00BF69
:105310005248030073B5054600680E46144602F075
:10532000E9FB00B9FEE740F265539C4200F08E8035
:1053300037D8B4F5A16F7DD01CD840F204539C42FD
:1053400072D010D840F202539C4269D06AD840F221
:1053500001539C4258D007223146284602B0BDE88E
:105360007040FEF717B940F206539C4260D05DD9F9
:10537000006A4AE040F20C539C4261D006D840F2E9
:105380000A539C425AD057D9006B3EE040F20E536C
:105390009C4259D056D340F264539C42DBD1806B7F
:1053A00033E040F26D539C4260D014D840F2695310
:1053B0009C4251D008D840F267539C424AD0B4F581
:1053C000AD6F45D3006D20E040F26B539C4247D057
:1053D00044D9406E19E040F271539C424CD008D839
:1053E00040F26F539C4245D0B4F5AE6F40D3406F4E
:1053F0000BE040F273539C4236D033D340F27453E7
:105400009C42A8D1006C00E000681C4B0190009306
:105410000622234631462846FDF7D2FF02B070BD72
:10542000C068F2E70069F0E74069EEE78069ECE701
:10543000C069EAE7406AE8E7806AE6E7C06AE4E74D
:105440004068E2E78068E0E7406BDEE7406CDCE75D
:10545000806CDAE7C06CD8E7406DD6E7806DD4E7A2
:10546000C06DD2E7006ED0E7C06BCEE7806ECCE7B0
:10547000C06ECAE7006FC8E7806FC6E77A420300D4
:10548000134607B540F2CC52934245D018D840F2AB
:10549000C95293423AD008D8B3F5B96F2BD007223E
:1054A00003B05DF804EBFEF775B840F2CA529342C0
:1054B0002FD040F2CB529342F1D1D0F8A8221CE079
:1054C00040F22D6293422DD00AD840F2CD52934241
:1054D00025D040F22C629342E1D1D0F89C220CE01E
:1054E00040F22E62934220D040F22F629342D6D1F6
:1054F000D0F8982201E0D0F8A02201920C4A009244
:105500000622FDF75DFF03B05DF804FBD0F8A4228E
:10551000F3E7D0F8B422F0E7D0F8AC22EDE7D0F80A
:10552000B022EAE7D0F89422E7E7D0F89022E4E747
:105530007A42030073B50446006816460D4602F031
:10554000B5F90138C0B2032896BF074B0020185C9C
:10555000064B019000930622334629462046FDF76C
:105560002FFF02B070BD00BFE138030027420300E7
:1055700073B50446006816460D4602F0B2FA054BB4
:10558000019000930622334629462046FDF718FF76
:1055900002B070BD52480300F7B5054600681746D3
:1055A0000E4602F0C6FD10F0010F0CBF00240824C7
:1055B000810748BF44F00404420748BF44F0020496
:1055C000030748BF44F00104054B009301943B4698
:1055D000062231462846FDF7F3FE03B0F0BD00BFBA
:1055E0002742030073B50446006816460D4602F0D4
:1055F00049FD054B0190009306223346294620467B
:10560000FDF7DEFE02B070BD2742030073B504460D
:10561000006816460D4602F047FD054B01900093C9
:105620000622334629462046FDF7CAFE02B070BD69
:105630007A42030073B50446006816460D4602F030
:10564000D5FE054B0190009306223346294620469D
:10565000FDF7B6FE02B070BD1942030073B50446F3
:10566000006816460D4602F03FFE054B0190009380
:105670000622334629462046FDF7A2FE02B070BD41
:105680002742030073B50446006816460D4602F033
:1056900059FE054B019000930622334629462046C9
:1056A000FDF78EFE02B070BD2742030073B50446BD
:1056B000006816460D4602F04DFE054B0190009322
:1056C0000622334629462046FDF77AFE02B070BD19
:1056D0002742030073B50446006816460D4602F0E3
:1056E000E0FD054B019000930622334629462046F3
:1056F000FDF766FE02B070BD7A42030073B5044642
:10570000006816460D4602F0E7FD054B0190009338
:105710000622334629462046FDF752FE02B070BDF0
:105720002742030073B50446006816460D4601F093
:10573000EEFF831E58425841054B0190009306220C
:10574000334629462046FDF73BFE02B070BD00BF40
:105750005248030007B590F88A320193044B009336
:1057600013460622FDF72CFE03B05DF804FB00BFD4
:1057700052480300F0B585B00446154E184604ABF8
:105780001746002203F8012D0D463246BDF82810B9
:1057900001F0CAFB002819DD9DF80F10206802F007
:1057A00073FE58B99DF80F30019300963B460622D0
:1057B00029462046FDF704FE05B0F0BDFDF772FC5A
:1057C000024629462046FDF7E5FEF5E70922F8E7FF
:1057D0002742030073B5044600680D46164602F0E2
:1057E00008FD50B1094B019000930622334629462B
:1057F0002046FDF7E5FD02B070BD054B0093062283
:10580000334629462046FDF7DBFDF4E789530300C4
:10581000294203002DE9F341044608460D4602F0F3
:1058200023FB0646284602F01DFB271D804638460E
:1058300001F0E2F978BB002E14BF722373238DE8C8
:1058400008018022062317492046FDF72CFD10BBD6
:105850002946384601F0EAF9E8B92046FDF7FCFC94
:1058600060B10E2280212046FDF794FED4F8B032BC
:105870000133C4F8B03202B0BDE8F0812EB1D4F8E3
:10588000A8320133C4F8A832F5E7D4F8AC320133BA
:10589000C4F8AC32EFE7002DE3D0284602F0E0FA7E
:1058A000DFE700BFE93803000B4601461846FFF763
:1058B000B1BF00002DE9F347051D04462846884680
:1058C00091469A460A9EBDF82C7001F095F9A0B950
:1058D000CDF800A04B46424609492046FDF7E3FCBF
:1058E00058B93A463146284601F08BF928B9204686
:1058F00002B0BDE8F047FDF7AFBC02B0BDE8F087ED
:10590000053903002DE9F04F85B004460068BDF865
:1059100038900F469246984602F068F90146C8B999
:10592000DFF860B04D464646012D1ED90DF10E033D
:105930005A462946304601F0F7FA002813DD2D1AA1
:10594000BDF80E100644206802F030F9ADB20146F1
:105950000028E9D0FDF7A6FB80B102463946204673
:10596000FDF718FE09E00920F7E78DE8000353462C
:10597000062239462046FFF79DFF0146084605B03E
:10598000BDE8F08F194203002DE9F04F85B00446C1
:105990000068BDF838900F469246984602F031F9FB
:1059A0000146B8B9DFF85CB04D464646072D1CD914
:1059B00003AB5A462946304601F0B6FA002812DDFC
:1059C0002D1A03990644206802F0F8F8ADB201469A
:1059D0000028EBD0FDF766FB80B102463946204631
:1059E000FDF7D8FD09E00920F7E78DE800035346ED
:1059F000062239462046FFF75DFF0146084605B0FE
:105A0000BDE8F08F984C0300F0B585B00446184609
:105A100004AB1646002243F8042D0D460F4ABDF88C
:105A2000281001F081FA002812DD039880B11CF0E3
:105A30005FFF07462CF09BFF013080B2019000977A
:105A40003346062229462046FFF734FF05B0F0BD55
:105A5000092229462046FDF79DFDF7E72E42030067
:105A60002DE9FF41BDF828701E4604460D469046BC
:105A70000DF10E03124A3946304601F055FA00285E
:105A80001CDDBDF80E10206802F090F8014640B110
:105A9000FDF708FB024668B129462046FDF77AFD6E
:105AA00007E08DE8C0004346072229462046FFF75D
:105AB00001FF0146084604B0BDE8F0810922EBE78A
:105AC000194203002DE9FF411E46BDF8287004ABC2
:105AD0009046002243F8042D04460D46124A3946EA
:105AE000304601F021FA00281BDD0399206802F0FE
:105AF00065F8014640B1FDF7D5FA024668B129467E
:105B00002046FDF747FD07E08DE8C0004346072229
:105B100029462046FFF7CEFE0146084604B0BDE800
:105B2000F0810922EBE700BF984C03002DE9F04318
:105B30008FB01E4607ABBDF85870029306AB0193B9
:105B40000DF11303009304460D46904605AB234A1E
:105B50003946304601F0E8F900283DDD059B08AAEA
:105B600003F110099446186859689646AEE8030098
:105B700008334B457246F6D19DF813308DF830301E
:105B8000069B20681A1C9DF8313018BF012262F371
:105B90000003079A003218BF012262F341036146F5
:105BA0008DF8313001F0A0FE014640B1FDF77AFAE0
:105BB000024668B129462046FDF7ECFC07E08DE877
:105BC000C0004346072229462046FFF773FE0146E0
:105BD00008460FB0BDE8F0830922EBE777420300E7
:105BE0002DE9F04104468CB00D4690460021142268
:105BF00007A81E46BDF848708DF816108DF81710CE
:105C0000FAF7A0FB94F889322BB9042229462046E2
:105C1000FDF7C0FC36E00DF1170302930DF11603FA
:105C200001930BAB00931C4A06AB3946304601F09A
:105C30007BF900282DDD069B0DF11C0E03F1100CE5
:105C400018685968724603C2083363459646F7D10F
:105C50009DF82D309DF81620206862F382039DF890
:105C60001720920962F3010307A98DF82D3002F085
:105C7000DAF950B98DE8C00043460722294620468C
:105C8000FFF718FE0CB0BDE8F081FDF70BFA0246F5
:105C9000BCE70922BAE700BF7C4203002DE9F041CE
:105CA00004468CB0904618220D460DEB02000021F0
:105CB0001E46BDF848708DF812108DF81310FAF7D3
:105CC00041FB94F889322BB9042229462046FDF77E
:105CD00061FC50E00DF1130302930DF112030193E7
:105CE0000AAB0093284A05AB3946304601F01CF94F
:105CF000002847DD059B0DF1180E03F1100C186804
:105D00005968724603C2083363459646F7D19DF839
:105D10002A309DF81220206862F300039DF81320BA
:105D20008DF82A309DF82930910961F30103C2F3FF
:105D3000401161F38203C2F3001161F3C303C2F3A4
:105D4000C00161F30413C2F3800161F34513C2F390
:105D5000400161F3861362F3C71306A98DF8293059
:105D600002F01BF950B98DE8C000434607222946CE
:105D70002046FFF79FFD0CB0BDE8F081FDF792F9DA
:105D80000246A2E70922A0E77C4203002DE9FF4179
:105D9000BDF828701E4604460D4690460DF10E03D0
:105DA000104A3946304601F0BFF8002818DDBDF82A
:105DB0000E10206801F0D0FD50B98DE8C0004346B8
:105DC000072229462046FFF775FD04B0BDE8F081A3
:105DD000FDF768F9024629462046FDF7DBFBF4E7AC
:105DE0000922F8E7194203002DE9FF41BDF82850C8
:105DF0001F4600230393042D4FF07F0304460E46F5
:105E000090468DF80B301EDD0DF10B030093184A00
:105E100003AB2946384601F087F8002825DD9DF9B7
:105E20000B20039920687F2A14D101F027FEA0B926
:105E3000019500974346072231462046FFF73AFD79
:105E400004B0BDE8F08103AB0A4A2946384601F0A8
:105E50006BF8E2E701F01DFEE9E7FDF723F90246E2
:105E600031462046FDF796FBEAE70922F8E700BF36
:105E70002B420300984C03002DE9F047984686B06A
:105E800090F88932BDF83890002504460E469246B7
:105E90000395049505951BB90422FDF77BFB2BE0C8
:105EA00003AB05AF0193009704AB154A4946404642
:105EB00001F03AF800280BDD03A90EC9206801F0B3
:105EC00021FC88B1FDF7EEF8024631462046E4E7B2
:105ED000009704AB0B4A4946404601F025F80028DC
:105EE0000395E9DC0922F0E78DE800035346072219
:105EF00031462046FFF7DEFC06B0BDE8F08700BF64
:105F000030420300344203002DE9FF41BDF8287000
:105F10001E4604460D4690460DF10E03104A3946C2
:105F2000304601F001F8002818DDBDF80E10206899
:105F300001F04CFE50B98DE8C000434608222946C6
:105F40002046FFF7B7FC04B0BDE8F081FDF7AAF8E2
:105F5000024629462046FDF71DFBF4E70922F8E733
:105F6000194203002DE9FF41BDF828701E46044682
:105F70000D46904603AB104A3946304600F0D4FF38
:105F8000002817DD0399206801F028FE50B98DE83C
:105F9000C0004346082229462046FFF78BFC04B088
:105FA000BDE8F081FDF77EF8024629462046FDF760
:105FB000F1FAF4E70922F8E7984C03002DE9FF41D4
:105FC000BDF828701E4604460D46904603AB104AA5
:105FD0003946304600F0A8FF002817DD03992068F5
:105FE00001F087FC50B98DE8C000434608222946DD
:105FF0002046FFF75FFC04B0BDE8F081FDF752F8E2
:10600000024629462046FDF7C5FAF4E70922F8E7DB
:10601000895303002DE9F043044689B00D469146AB
:106020000021112203A81F46BDF84080FAF78AF923
:1060300094F889322BB9042229462046FDF7AAFAA2
:1060400022E007AB0093154A02AB4146384600F008
:106050006BFF00281FDD029B03AE03F1100E1868D2
:106060005968324603C2083373451646F7D103A96F
:10607000206801F0E7FF50B98DE880014B46082207
:1060800029462046FFF716FC09B0BDE8F083FDF76E
:1060900009F80246D0E70922CEE700BF26420300F6
:1060A0002DE9F043044689B00D46914600211122A6
:1060B00003A81F46BDF84080FAF744F994F88932E6
:1060C0002BB9042229462046FDF764FA22E007ABEB
:1060D0000093154A02AB4146384600F025FF0028E0
:1060E0001FDD029B03AE03F1100E1868596832469B
:1060F00003C2083373451646F7D103A9206801F09F
:1061000076FF50B98DE880014B460822294620468B
:10611000FFF7D0FB09B0BDE8F083FCF7C3FF0246F0
:10612000D0E70922CEE700BF264203002DE9FF4158
:10613000BDF828701E4604460D4690460DF10E032C
:10614000104A3946304600F0EFFE002818DDBDF851
:106150000E10206801F005FC50B98DE8C0004346E0
:10616000082229462046FFF7A5FB04B0BDE8F081D0
:10617000FCF798FF024629462046FDF70BFAF4E7A4
:106180000922F8E7194203002DE9FF41BDF8287004
:106190001E4604460D4690460DF10F03104A39463F
:1061A000304600F0C1FE002818DD9DF80F10206871
:1061B00002F0A2F850B98DE8C000434608222946F3
:1061C0002046FFF777FB04B0BDE8F081FCF76AFFDB
:1061D000024629462046FDF7DDF9F4E70922F8E7F3
:1061E000274203002DE9FF411E46BDF8287004AB8D
:1061F0009046002243F8042D04460D460D4A3946C8
:10620000304600F091FE00280EDD0399206801F071
:1062100052FC8DE8C0004346082229462046FFF77D
:1062200049FB04B0BDE8F081092229462046FDF76C
:10623000B1F9F6E7984C030073B5044604300D46F7
:10624000164600F0D9FC98BB009606232A46194949
:106250002046FDF728F858BB342217492046FDF7A1
:1062600022F828BB052214492046FDF71CF8F8B98E
:106270004FF4007210492046FDF715F8C0B940F2FE
:1062800001220D492046FDF70EF888B918220A4967
:106290002046FDF708F858B9302207492046FDF797
:1062A00002F828B9204602B0BDE87040FCF7D4BF20
:1062B00002B070BD0539030007390300F0B504468C
:1062C000C5B0FF23054654F8040B8DF80F300E4679
:1062D00017460DF10F0304AA002101F052FE2046DB
:1062E00000F08AFC88B90097062332460849284600
:1062F000FCF7D9FF48B99DF80F2004A9204600F00B
:1063000080FC10B92846FCF7A7FF45B0F0BD00BFE0
:1063100005390300F0B50446C5B0FF23054654F81F
:10632000040B8DF80F300E4617460DF10F0304AA2B
:10633000012101F026FE204600F05EFC88B900979E
:106340000623324608492846FCF7ADFF48B99DF8B8
:106350000F2004A9204600F054FC10B92846FCF791
:106360007BFF45B0F0BD00BF05390300F0B5044622
:10637000C5B0FF23054654F8040B8DF80F300E46C8
:1063800017460DF10F0304AA002101F0EEFD20468F
:1063900000F032FC88B900970623324608492846A7
:1063A000FCF781FF48B99DF80F2004A9204600F0B2
:1063B00028FC10B92846FCF74FFF45B0F0BD00BFE0
:1063C00005390300F0B50446C5B0FF23054654F86F
:1063D000040B8DF80F300E4617460DF10F0304AA7B
:1063E000012101F0C2FD204600F006FC88B90097AB
:1063F0000623324608492846FCF755FF48B99DF860
:106400000F2004A9204600F0FCFB10B92846FCF739
:1064100023FF45B0F0BD00BF053903002DE9F04171
:10642000012380F88C3290B0054604300E461746A2
:1064300000F0E2FB0446002847D1009706233246CD
:1064400028492846FCF72FFF044600283DD128683C
:10645000254F01F017FE26468046F1B241453BDA52
:1064600009AA286801F07FFF08B10136F5E79DF819
:106470003C3013F0010F0CBF00220822980748BFE0
:1064800042F00402590748BF42F002021B0748BF0E
:1064900042F0010205929DF93A2004929DF83920BC
:1064A00003929DF8382002920C9A9DF93B100192BC
:1064B0000B9A06910092BDF8343009AA3946284655
:1064C000FCF7F1FE04460028CFD00023204685F8D3
:1064D0008C3210B0BDE8F0812846FCF7BDFE0446C2
:1064E000F3E700BF053903003F42030070B590B0E9
:1064F0000023ADF822300123044680F88C320430AA
:106500000D46164600F078FB002840D10096062381
:106510002A4623492046FCF7C6FE002837D1214DE4
:10652000206809AA0DF1220101F025FF002833D1CE
:106530009DF83F1011F0010F0CBF002208228E07BA
:1065400048BF42F00402480748BF42F002020B076E
:1065500048BF42F001029DF93E0003929DF93D20A3
:10656000079002920E989DF83C200690C1F300110E
:106570000D9801920B9A059004910092BDF830306D
:1065800009AA29462046FCF78EFE0028C8D0002321
:1065900084F88C3210B070BD2046FCF75DFEF6E743
:1065A00005390300694203002DE9FF4106460F4605
:1065B00004A90023044601F8013D56F8040B904657
:1065C00001F0D4F90546304600F016FBE8B9CDF8E5
:1065D000008006233A460E492046FCF764FEA0B927
:1065E0000C4E023D9DF80F3063B135F8022F314655
:1065F0002046FCF758FE40B99DF80F30013B8DF85E
:106600000F30EFE72046FCF727FE04B0BDE8F0812D
:10661000053903001942030070B501238CB004460C
:1066200080F88C3204300D46164600F0E5FA28BB9F
:10663000009606232A4626492046FCF734FEE8B990
:10664000244D8DF8170006AB0DF1170200212068CC
:1066500001F0D3FCB8B906A8FCF753FD012302935F
:106660009DF82A30019003F00103009306AA40230D
:1066700029462046FCF717FE0028E4D0002384F8C2
:106680008C320CB070BD0023124E8DF8173006AB63
:106690000DF117020121206801F0AFFC054690B909
:1066A00006A8FCF72EFD9DF82A30019003F00103A7
:1066B00000930295402306AA31462046FCF7F3FDDD
:1066C0000028E4D0DAE72046FCF7C6FDD6E700BF95
:1066D000053903005D420300012373B5044680F8C9
:1066E0008C3204300D46164600F086FA08BB009640
:1066F00006232A4611492046FCF7D5FDC8B9206873
:106700000F4E01F0EDF8054685B16A7C2B7C42F313
:10671000400201926A7C42F30002009231462A460E
:106720002046FCF7C0FD20B96D69EDE72046FCF777
:1067300093FD002384F88C3202B070BD053903004C
:1067400037420300F0B5054699B0044655F8040BEE
:106750000E460FA9174601F0B6FB284600F04CFA8A
:1067600000283ED10097062332461F492046FCF7F9
:106770009AFD002835D1BDF85A100D91BDF858107A
:106780000C91BDF856100B91BDF854100A91BDF84C
:1067900052100991BDF850100891BDF84E100791A4
:1067A000BDF84C100691BDF84A100591BDF848108F
:1067B0000491BDF846100391BDF844100291BDF854
:1067C00042100191BDF840100091BDF83E30BDF877
:1067D0003C2006492046FCF766FD10B92046FCF730
:1067E0003BFD19B0F0BD00BF053903004C4203006A
:1067F000F0B5012387B0044680F88C3204300D4692
:10680000164600F0F9F998B9009606232A4616496B
:106810002046FCF748FD58B9144E05467F2703AAC9
:10682000E9B2206801F051F938B12046FCF714FDB7
:10683000002384F88C3207B0F0BD9DF81530DA07DC
:1068400003D40135FF2DEAD1EFE79B0758BF8DF840
:1068500014709DF9143003AA31462046FCF723FD3D
:106860000028EED0E4E700BF053903001B42030017
:106870002DE9F341054604300C4616461F4600F04C
:10688000BBF9F8B900960623224610492846FCF7C2
:106890000AFDB8B90E4E04464FF0010808FA04F399
:1068A0003B4208D10134202CF8D1284602B0BDE883
:1068B000F041FCF7D1BC224631462846FCF7F3FCF8
:1068C0000028EFD002B0BDE8F08100BF0539030019
:1068D00027420300436EFFF7CBBF836EFFF7C8BFAD
:1068E00020B1431E03420CBF012000207047034625
:1068F00000225B08D0B202F10102FAD17047000019
:106900007FB50446184604AB1646002203F8012D55
:106910000D462D4ABDF8201000F006FB002845DD8D
:106920009DF80F30012B04D015D3022B1AD007206D
:1069300043E0206801F010F900283DD1B4F86C2044
:106940000094224BA16E206801F0D8F8002834D1C1
:10695000002384F88430324629462046FDF77CF82F
:1069600004B070BD206801F0F7F8B0B194F98F322F
:10697000013326D1A26E1046FFF7B2FF0028D6D011
:106980001046FFF7B4FF124B84F88F020146B4F8AB
:106990006C20206801F0ABF9D8E7B4F86C200094C3
:1069A0000C4BA16E206801F0BBF8CFE70922294605
:1069B0002046FCF7EFFDD3E70D20FCF773FB024602
:1069C000F5E70E20F9E700BF27420300B1340000CD
:1069D00089350000ED34000013B590F88C42002991
:1069E00008BF70214CB99BB28DE80C000B46062203
:1069F0008021FEF75FFF02B010BD0E20FBE7000014
:106A00001346074A10B40446106828B10A462146C6
:106A10005DF8044BFFF7E0BF0E205DF8044B7047B4
:106A2000F016002003682DE9F0410222D0F83080F2
:106A3000076A436203628362036343638363C363DE
:106A4000002380F82C2003644FF6FF72A0F8443036
:106A500000F146030446C285836500F11C063046FA
:106A600001F021FA054670B904F11806304601F02C
:106A70001AFA054678B10146304601F012FA284666
:106A800001F0EEF9F2E70146304601F00AFA284635
:106A900001F0E6F9E3E7B84506D0E36823B1214603
:106AA0006069BDE8F0411847BDE8F08110B50160AC
:106AB0001144044641600281183001F0EDF904F1FF
:106AC0001C0001F0E9F900232046E36023616361C3
:106AD000FFF7A8FF204610BDC16002614361704707
:106AE0000A4441688A4202D30389D21AFAE710465F
:106AF00070478A423FBF436800685B1A121A2CBF76
:106B0000521AD21890B27047131201F8013B436831
:106B1000994208BF01680A70704711F8013B42684A
:106B2000914208BF016808781B02184480B2704780
:106B3000F8B5476A826A0E4639460446FFF7D9FF20
:106B40000128054610DD39462046FFF7E6FF023DE5
:106B5000C5F30D0535430543AAB239462046FFF774
:106B6000D3FFA36A6362F8BDA762F8BD38B5036AB4
:106B70008362436200F11C04204601F094F905464B
:106B800038B10146204601F08CF9284601F068F939
:106B9000F2E738BD826A10B54468531CA34208BFAF
:106BA0000368046B9C4203D011708362002010BD07
:106BB000FFF7DCFF032010BD436A826A934270B581
:106BC000054617D1066A0021B3420CBF4FF40046B8
:106BD0000026FFF7DFFF044650B901462846FFF7BD
:106BE000D9FF044620B93246696A2846FFF78CFF70
:106BF000204670BD0024FBE708B5FFF7B7FF002073
:106C000008BDF8B507460C461646FFF7D5FF054602
:106C100050B92644B44207D014F8011B3846FFF798
:106C2000B9FF0028F6D005462846F8BD70B50546E0
:106C30000E46FFF7C1FF044658B9314605F11C0066
:106C400001F02DF9044620B94FF480412846FFF7A2
:106C50006FFF204670BD2DE9F84304460021D0F8AF
:106C60003080076AFFF764FF636A236204F11C0641
:106C700004F11809304601F016F9054640B1014605
:106C8000304601F00EF92946484601F008F9F1E7CF
:106C9000B84504D1236913B12146606998470020A3
:106CA000BDE8F883026B006A131A584258417047D6
:106CB00038B50446006C08B9192038BDB4F8445002
:106CC00001F0D0F88542F7DA04F1460510232A4690
:106CD000B4F84410206C01F0D8F80028ECDDB4F8CA
:106CE0004430E56303442844A065A4F84430002000
:106CF00038BD10B5416B0446FFF70FFF430401D4C4
:106D0000192010BD216C04F1180079B901F0CBF8FD
:106D100020640028F4D00023A4F844302046FFF774
:106D2000C7FF10B9012384F82C3010BD01F0BDF865
:106D3000EEE770B50446A56B236A65639D4223D0D8
:106D400029462046FFF7E9FE030402D5236B9D4246
:106D50001AD1C0F30D02023229462046FFF7C0FEC9
:106D600002220646A06329462046FFF7B9FE864266
:106D7000E06303D0002084F82C0070BD2046FFF7AC
:106D8000B8FF0028D7D170BD022384F82C30192019
:106D900070BD00220264026B82634263FFF7C9BFC9
:106DA00090F82C00831E58425841704738B590F82F
:106DB0002C3004461BB1012B14D0002510E0C36B0E
:106DC000426813F8015B934208BF0368826BC36398
:106DD000934205D1FFF78DFF10B12046FFF7A9FFC1
:106DE000284638BDC36B826D13F8015BC3639342C1
:106DF000F6D1FFF75DFFEFE72DE9F041036A056B80
:106E0000AB42044636D000F11808276ABD4220D0B4
:106E100029462046FFF781FE0204064602D5236B71
:106E20009D4216D173040BD5404601F03CF807464D
:106E300030B10146404601F034F8384601F010F810
:106E4000C6F30D02294602322046FFF749FE0546E9
:106E5000DBE7022384F82C30BD424FF6FF73256335
:106E6000E38504D1E36813B12146606998470020A7
:106E7000BDE8F0811920BDE8F081F0B5002423467B
:106E80008B42C3EBC3070CD0C65C06F07F05BD4048
:106E90002C43350603F10103F2D402B11460184605
:106EA000F0BD4FF0FF33FAE77F280BD9B0F5804FE4
:106EB0000AD3B0F5001F09D3B0F1805F34BF0420BE
:106EC000052070470120704702207047032070475B
:106ED00038B503461046FFF7E7FF884207DC19463E
:106EE000441ECD1AA54203D102F07F021A5538BDC7
:106EF00062F07F0501F8015BD209F2E70246002348
:106F00005178282902F1010004D0292905D053B174
:106F100009B9704701330246F2E7013B002B01D16A
:106F2000901C7047F7DC70470CB413B504AC02AB8F
:106F300054F8042B43F8044D00F006F802B0BDE805
:106F4000104002B0704700002DE9F04F0026DFF836
:106F5000D09285B004460D4690461F46B34698F839
:106F60000030002B00F03981292B00F03681552BA1
:106F700000F0F08064D8442B00F007810CD8362B49
:106F800000F0C880432B00F09D802E2B00F09580F0
:106F90002BF0CCF816237FE04C2B00F0AE800DD800
:106FA000452BF5D13B681A1D3A60072D1B6855D952
:106FB00003B11C6008360834083D7EE0532B00F016
:106FC0008C80542BE4D14046ADF80EB0FFF796FF0D
:106FD00098F800200378742A05D0002B00F0158162
:106FE000292B00F012810DF10E034A462946204656
:106FF000FFF79AFF8246BAF1000F204440F3ED807C
:10700000BDF80E2040F213539A4200F2E680BDF81C
:107010000E1001EB0A03AB4220DC3B4608F10202F2
:10702000FFF792FF002819DBBAF1000F00F0F380A0
:10703000BDF80E309A44ADF80EA0BDF80E309EE0BB
:10704000652B73D00ED8632B3CD000F29E80622B50
:107050009ED13B681A1D3A601A682DBB2BF066F86A
:107060008B2319E06C2B48D01AD8692B90D13B6840
:107070001A1D3A60D3F800A0294652462046FFF771
:10708000FCFEBAF1000F5DD0DAF80030634A93429B
:1070900058D92BF04BF8222303604FF0FF369CE0C9
:1070A000732B1AD0742B8DE722B12378003318BFCD
:1070B0000123137001360134013D4046FFF71EFFE6
:1070C00080464CE73B681A1D3A601B68002DC5D00E
:1070D000002BEFD022781A70ECE73B681A1D3A605B
:1070E000012D1A68BAD922B16178237843EA0123C5
:1070F000138002360234023DDFE73B681A1D3A6016
:10710000032D1B68AAD90BB122681A600436043417
:10711000043DD2E73B681A1D3A600F2D1B689DD9CC
:1071200003B11C6010361034103DC6E73B681A1DD1
:107130003A60052D1B6891D903B11C6006360634F0
:10714000063DBAE7002848DDA84246DC0644044470
:107150002D1AB2E73B681A1D3A6019680022954261
:1071600002F1010301D0A25C6AB99D4205D2621905
:1071700012F8012C002A3FF471AF01B10C601E44DB
:107180001C44ED1A99E71A46E9E73B68ADF80EB0E2
:107190001A1D3A601A46404652F8081B3A60D3F866
:1071A00004A00191FFF7AAFE98F800200378642A52
:1071B00002D0B3B1292B14D04A460DF10E03294653
:1071C0002046FFF7B1FE002804EB000205DDBDF804
:1071D0000E1040F21353994207D9304605B0BDE86E
:1071E000F08FADF80E5022460020BDF80E30184446
:1071F000A8423FF733AF019901B10A60BAF1000F1D
:1072000001D0CAF8003080B2A0E7ADF80E50204699
:107210004FF0000AFBE6ADF80E000EE7FEFF1F0080
:10722000194203000CB413B504AC02AB54F8042BA0
:1072300043F8044D00F006F802B0BDE8104002B07B
:10724000704700002DE9F74F05460C4691461F4652
:10725000002699F80030BBB1292B15D0552B00F032
:10726000F18068D8442B00F00B8111D8362B00F048
:10727000C480432B00F095802E2B71D02AF056FF4E
:10728000162303604FF0FF36304603B0BDE8F08FA1
:107290004C2B00F09F8012D8452BEFD13B68072C78
:1072A00003F104023A6006F1080640F213811A68FD
:1072B00013682B6053686B60083C083550E0532B13
:1072C00077D0542BDAD14846FFF718FE99F80130F1
:1072D00090F80080282BD1D102AB3A6843F8042DF6
:1072E000002109F1020B5A460846FFF7ABFF99F857
:1072F0000030742B824606D0B8F1000F0CD0B8F1E4
:10730000290F00F0E4805346734A21462846FFF7D0
:1073100089FFB0F10008B1DDC244A245564400F334
:10732000D9804544A4EB08043B465A4621462846EA
:10733000FFF788FF2EE0652B74D016D8632B30D072
:1073400000F29E80622B99D13B681A1D3A6001368B
:1073500034B11B68003318BF012305F8013B013C21
:107360004846FFF7CBFD814673E76C2B32D014D82B
:10737000692B83D13B681A1D3A601A68574B9A42B1
:107380003FF67CAF21462846FFF7A2FDA042064407
:1073900000F3A0800544241AE2E7732B09D0742B74
:1073A00090E73B681A1D3A600136002CD8D01B6864
:1073B000D3E73B68012C03F104023A6006F10206B0
:1073C00040F288801B68C3F307226A70023C05F80C
:1073D000023BC5E73B68032C03F104023A6006F167
:1073E000040677D91B681A0EEA701A0CAA701A0ADA
:1073F0006A70043C05F8043BB2E73B680F2C03F1CC
:1074000004023A6006F1100664D91B682A4603F1AB
:10741000100153F8040B42F8040B8B42F9D11035DC
:10742000103C9DE73B68052C03F104023A6006F12D
:1074300006064FD91B681A682A609B88AB80063CF9
:1074400006358DE73B681A1D3A60D3F800A0BAF103
:10745000000F10D050462BF08AFA00F10108444585
:10746000464437D32846424651462AF087FE4544D3
:10747000A4EB080474E74FF00108DFF864A0EEE71E
:107480003B681A1D3A601A46484652F808AB3A6003
:10749000D3F80480FFF732FD99F800300078642BB0
:1074A00002D050B1292810D043460B4A2146284625
:1074B000FFF7B8FE00287FF7E1AE08EB00039C421F
:1074C0001E4407D30544241ACCE70020F5E74FF00B
:1074D000000821E7002443E719420300FEFF1F00D4
:1074E0004C51030013B502AC44F8043D2346FFF7AA
:1074F000A9FE02B010BD7E2807D87D2807D211282A
:1075000005D0132803D000207047F828FAE701209F
:1075100070470022026082807047838843B103680D
:107520005A1C026019708388013B838000207047D9
:10753000032070470022028070470B464FF6FF720F
:1075400002807E211846FFF7E8BF000070B50646AE
:1075500008460C461546FFF7CEFFB0B19388012BC5
:1075600019DD7D211046FFF7D8FF84F02001284661
:10757000FFF7D3FF3288094B5440E4B2002033F8C0
:10758000143083EA1223338070BD1046FFF7C5FF25
:107590000028EFD070BD0320FCE700BF824203004B
:1075A0002DE9F8430788D1F80090B1F80480FD4335
:1075B000ADB20C460A46E9B20646FFF7C7FF50B91E
:1075C0002246290A3046FFF7C1FF20B97E21204616
:1075D000FFF7A3FF20B1C4F80090A4F8048037801F
:1075E000BDE8F88330B54360039B83600025049BAE
:1075F0000570C36001618582C282058330BD0000D1
:107600002DE9F84FDFF8E48004460F4691460D4619
:1076100000264FF0020AEB1B994564DD237815F82C
:10762000011B012B22D018D3022BF4D1A38AE28AAA
:1076300093424DDAB4F818E081F0200181EA0E009F
:10764000C0B238F8102082EA1E2222832269581C18
:10765000A082D15401232370DDE77E29DBD10123F1
:1076600023704FF6FF73A6822383D4E77D2914D0BD
:107670007E29A38A14D0E28A934229DAB4F818E06A
:1076800081EA0E00C0B238F8102082EA1E2222835E
:107690002269581CA082D154BDE784F800A0BAE743
:1076A000022BDED9218B4FF2B802914206D1023B68
:1076B0009AB22169E06863689847D2E7D4F808B0C5
:1076C000BBF1000FCDD02269E0680621D847C8E79A
:1076D000D4F808B0BBF1000F03D02269E0680321A1
:1076E000D847267097E7BDE8F88F00BF82420300B5
:1076F00000F52440403003F0CDBF00F52440403079
:1077000004F0AAB800F52440403003F0F2BE00F5C2
:107710002440403003F0FABC00B500F506409BB0B1
:107720007430694604F0B7FB9DF86430C3F3800001
:1077300058B1C3F3C00040B1C3F3001028B1D80959
:107740001CBF9DF8650000F001001BB05DF804FB54
:1077500044F24A03C05C704744F24A03C154704784
:1077600000F58040443006F0BFBD01F03AB808F0A3
:107770000FBB000073B50246044600F1240100234C
:107780001360536093600C328A42F9D104F580464D
:107790006362A362E36223636363A3633C3604F121
:1077A0003C0004F5014501F021FE7835304606F035
:1077B000C7FE3146284614F0D7FE04F52E40214678
:1077C000283000F037FA074B009304F52E40064BA3
:1077D00041F233622946583000F09EFE204602B046
:1077E00070BD00BF6B7700006F77000038B50446AE
:1077F0001AF0A0FE04F5104064300BF032FB204676
:1078000000F05EFE80B10121204600F053F80546ED
:1078100050B90121204600F03CFE28B129462046FF
:10782000BDE8384000F046B838BD000038B5064C19
:1078300023683BB9054D2846FFF79CFF2846256085
:10784000FFF7D4FF206838BDB8C50020F816002027
:10785000036830B40D469BB1C36800F10C018BB1D5
:10786000836900F118017BB902230C246343C41817
:10787000C55000F501406260783030BC08F0AAB80D
:107880000146F2E70123F0E7032030BC704718F00F
:107890002BBE10B5044600F077FD012804D1204628
:1078A0001AF050FF002010BD0E2010BD01207047BF
:1078B0001D2070474AF62C63C35C29B153B900F50B
:1078C0000140783014F01CBF23B900F50140783036
:1078D00014F03DBF0E2070474AF28C33C05C7047F5
:1078E00048F28413C058704700F50140783008F022
:1078F00030B900F50140783008F073B900F58040E8
:107900003C3006F091BE48F27013C05C704748F2FC
:107910007013C154704707B548F28C130122C35647
:10792000019200F58040002200923C3007F016FBE7
:1079300003B05DF804FB002200F5824010B51C3056
:107940000C46114601F0E8FB28B190F8303064F3A2
:10795000C71380F8303010BD00F50B403C3007F005
:1079600082BD00F50B403C3007F08CBD00F50B40AC
:107970003C3007F094BD034608465A6B996B10479C
:1079800010B5044690B0084621B9E36A216B9847C8
:1079900010B010BD04F50B4001AAEC3001F058FD09
:1079A000E36A216B01A8F2E748F62C43C05C7047FC
:1079B00049F2730370B5C55C04469DB900F50B40F0
:1079C000EC3001F00CFF064604F506402946743001
:1079D00004F071FE04F508402946C83004F0F1FFB8
:1079E000304670BD0E26FBE700F50C402030704796
:1079F00010B5044679B149F27303C35C6BB900F565
:107A00000B40EC3001F0C3FD04F510406430BDE8DC
:107A100010400BF0E0B9072010BD0E2010BD18F08B
:107A2000EBBD48F62D43C056704748F62D43C15470
:107A300018F0C4BE48F62A43C05A704749F273038F
:107A400070B5C55C04469DB900F50B40EC3001F003
:107A5000D3FD064604F506402946743004F02BFE9B
:107A600004F508402946C83004F0ABFF304670BD2D
:107A70000E26FBE748F62843C05A704700F50C4035
:107A800008B5943003F054FA00280CBF03200020FE
:107A900008BD38B500F50C4494342046154603F073
:107AA00047FA014628B120462A4603F074FA00201E
:107AB00038BD032038BD00F50C40943003F056BAB1
:107AC00000F50C40943003F00BBA22B100F50C40E5
:107AD000943003F0E2B90720704748F6D453C154FC
:107AE000704748F6D453C05C704700F50B40EC304B
:107AF00002F0E8B800F50E40FC307047C362009B0E
:107B00000363009000F50B40014BEC3002F082BBA8
:107B10008179000000F50B40EC3001F081BC0000E1
:107B20004363009B8363009000F50B40014BEC30F6
:107B300002F07FBB7779000000F50B40EC3001F0DC
:107B40007BBC4AF28C33C35C23B94AF62C62815465
:107B5000184670470E2070474AF62C63C05C704789
:107B600008B54AF62C63C35C1BB118F065FD002014
:107B700008BD0E2008BD4AF62C63C35C0BB118F09B
:107B800089BD0E2070474AF62C63C35C0BB118F018
:107B9000ADBD1846704708B54AF62C63C35C1BB1EF
:107BA00018F0B1FD002008BD0E2008BD4AF62C6378
:107BB000C35C0BB118F0AABD0E2070474AF62C63C7
:107BC000C35C0BB118F0B3BD0E2070474AF62C63AE
:107BD000C35C0BB118F0B5BD0E2070474AF62C639C
:107BE000C35C0BB118F0BEBD0E20704708B54AF655
:107BF0002C63C35C1BB118F0BFFD002008BD0E2034
:107C000008BD08B54AF62C63C35C1BB118F0B7FD7C
:107C1000002008BD0E2008BD08B5006818F06CFDF6
:107C2000C20700D5FEE7430700D5FEE740F0050098
:107C3000C0B208BD10B50B2204460160427101F5C7
:107C400001410A4A82610023403100F114020371AC
:107C50008360C36003614161E061036243628262E9
:107C600080F82C30FFF7D8FF204610BD5D7E000065
:107C700010B4047934B1417182605DF8044B00683E
:107C800018F015BD0E205DF8044B704700F52E402E
:107C90002830FFF7EDBF83680BB1006818477047C5
:107CA00070B5044600680E4618F009FD05463046DA
:107CB00002F02FFE60B1012384F82C3018F02EFB67
:107CC00010232062636204F11401606901F06AFB11
:107CD000284670BD10B404792CB103615DF8044BE3
:107CE000006818F04FBD0E205DF8044B704700F59A
:107CF0002E402830FFF7EEBF036910B504461BB1D4
:107D0000006898470023236110BD000030B590F84B
:107D10002E3090F82D501D4487B00335044618F0DE
:107D20007FFE052D28BF05250123AB40013B1840F0
:107D30004FF4A075454302A818F00CFB4FF47A737A
:107D4000B5FBF3F3C3EB4310049303EB8003A5EB04
:107D5000C303ADF81430022384F82C300094044B94
:107D6000206804AA02A918F001FB07B030BD00BFCB
:107D70005D7E0000017910B549B10024C26080F831
:107D80002D4080F82E40FFF7C1FF204610BD0E2089
:107D900010BD00F52E402830FFF7ECBF2DE9F04173
:107DA0001D4604460F4600F114014069904601F05B
:107DB000A2FA112D0BD194F82E20032A15D80132E6
:107DC00084F82E202046BDE8F041FFF79FBF002336
:107DD000102D84F82E3008D194F82D203B7A9A4249
:107DE00003DA013284F82D20ECE76179206818F07D
:107DF0005EFCE66836B12B46424639462068B047FD
:107E00000023E360BDE8F08190F82C3070B5012BC1
:107E10004FF00005044680F82C5002D0022B0FD002
:107E2000FEE74179006818F042FC206818F05EFC1B
:107E300010232A4601462046BDE87040FFF7AEBF3A
:107E4000006818F053FC014606462046FFF728FF5D
:107E5000034610B12A463146EDE770BDFFF7D4BFA7
:107E600000F0BDBDC08B704790F83000C00970476E
:107E700090F8303021B143F0400380F83030704743
:107E800061F38613F9E700F0B1BE10B51C46134646
:107E9000224600F012FE10BD00230360704701F07F
:107EA0005DB801F0A0B800F0CABF51B191F831300F
:107EB0005B0754BF8B690023984202D1084601F04A
:107EC00004B800207047F8B548F27C1780230B8077
:107ED000C35900F50F46B3F8E0304B800C46054619
:107EE0008A1D06F1D000043101F080F904F10A0284
:107EF00004F1080106F1E00000F0FAFF04F11A02B3
:107F000004F1180106F1E40000F0F2FFE85900F571
:107F1000824004F10E0204F10C010C3001F066F90C
:107F2000E85904F1120204F11001DC3000F0E0FF26
:107F300005F5104004F1160204F11401E43000F0DC
:107F4000D7FF05F5024004F11E0204F11C01D430F4
:107F500000F0CEFF05F5024004F1220204F12001F9
:107F60007830BDE8F84000F0C3BF10B53AB133B186
:107F700000F52140A83012F088FA002010BD07203B
:107F800010BD10B53AB133B100F52040983012F071
:107F90007CFA002010BD072010BD4B7C13F0040FAD
:107FA00037B514BF202400241D0748BF44F0100437
:107FB000DA0648BF44F008049D0648BF44F00404B4
:107FC0008D7C5A0648BF44F00204DA0918BF44F019
:107FD000010405F0010500F520400A7C8DE8300021
:107FE00043F30103983013F0F9FC03B030BD00F502
:107FF00020400A7C983013F0D7BC10B40C461146D0
:108000006AB163B11A4634B100F5204098305DF88A
:10801000044B12F076B800F52140A830F7E70720AE
:108020005DF8044B704713B54B7C0A7CC3F38004A6
:1080300000F52040009443F30103983013F02EFD27
:1080400002B010BD00F520400A7C983013F00CBD42
:1080500000F52040983013F0F1BD08B500F5104050
:1080600064300BF02FFAC07908BD08B500F5104058
:1080700064300BF027FA007A08BD00F50140383073
:1080800001F0FCB807B500F510400DF107016430B0
:108090000EF0B6FD9DF8070003B05DF804FB00F597
:1080A000104064300EF0B3BD49F26813C0587047F9
:1080B00000F5104064300CF0E7BB00F50C403F3099
:1080C000704749F2730373B5C45C05460E4634BB72
:1080D00000F50B40EC3001F099FA02A9FD2301F8FC
:1080E000083D05F510403368CDF801306430337930
:1080F0008DF805308DF806408DF807400BF01DF81F
:1081000005F506402146743004F0D5FA05F508401F
:108110002146C83004F055FC204602B070BD0E2048
:10812000FBE721B100F5104064300AF0B4BF07202E
:10813000704749F2980382B0C35C002218078DF89B
:10814000042044BF01228DF80420590742BF9DF846
:10815000042042F002028DF804209A0742BF9DF8E5
:10816000042042F004028DF80420DB0742BF9DF892
:10817000043043F008038DF804309DF8040002B089
:10818000704711F0010F0CBF002308238A0748BF76
:1081900043F004034A0748BF43F002030A0748BFFD
:1081A00043F0010300F51040194664300CF08FBB1A
:1081B00000F50B40403008F0A8BD49F2730370B5DC
:1081C000C55C04469DB900F50B40403008F0D0FD79
:1081D000064604F506402946743004F06CFA04F5AE
:1081E00008402946C83004F0ECFB304670BD0E262E
:1081F000FBE700F5104064300AF04ABF00F510407C
:1082000064300AF001BE49F2730370B5C55C0446E0
:108210009DB900F5104064300AF08FFF064604F562
:1082200006402946743004F046FA04F50840294611
:10823000C83004F0C6FB304670BD0E26FBE700F5E3
:108240000C402E30704749F2730370B5C55C04468C
:108250009DB900F50B40EC3001F0BCF9064604F581
:1082600006402946743004F026FA04F508402946F1
:10827000C83004F0A6FB304670BD0E26FBE700F5C3
:10828000104064300DF03EBD00F5104064300DF03C
:1082900043BD4AF28B03C05C70474AF28B03C15462
:1082A000704700F52140A83012F05FBD00F5214075
:1082B000A83012F05DBD48F65833C058704700F53D
:1082C0000B40403008F0B0BD48F6B033C05870479E
:1082D00048F6B033C15070474AF28803C05C70471B
:1082E0004AF28803C15470474AF28903C05C704760
:1082F0004AF28903C154704700F5104064300DF014
:1083000043BF00F5104064300CF0FAB900F510409E
:1083100064300CF097B949F27303C35C022B04D0AC
:1083200009D3042B07D80020704700F51040032123
:1083300064300FF033B90E20704700F51040643000
:108340000DF0A3BE4AF28A03C05C70474AF28A036A
:10835000C154704749F2D803C05C704700F5104023
:1083600064300BF0BAB822B100F5104064300EF062
:1083700080BF072070472AB121B100F5104064305A
:108380000EF088BF0720704749F27303C35C013BBE
:10839000DBB2032B9ABF024AD05C0120704700BFBA
:1083A0008244030008B500F5104064300BF08AF8F1
:1083B000407A08BD08B500F5104064300BF082F833
:1083C000807908BD00F5104008B564300BF07AF8EC
:1083D000D0F80230180E1A0240EA036002F47F025D
:1083E0001B0A104303F47F43184308BD00F51040F7
:1083F00064300AF012BD70B506460C4600293DD027
:1084000000F5104064300DF05CFB036823604368A6
:108410006360838A2381838A9B12A37290F822303F
:10842000E37290F8233006F50C41C3F3830305464D
:10843000237388311E3008F047FE607395F82330AF
:10844000C3F30103A37317F069FFAB68C01A4FF4BD
:108450007A73B0FBF3F0E07395F82320237CC2F32A
:10846000801262F300032A7F02F00702911F4A4242
:108470004A4162F341032374002070BD072070BDA0
:10848000004870478644030000F5104064300EF049
:1084900048BD69B148F62A43C25A4FF6FF739A4263
:1084A0000CD000F510400022012164300CF036BAE7
:1084B00000F51040012164300AF055BC0E207047D1
:1084C0001FB501230024ADF80E300DF10E0300930B
:1084D00022460DF10D0306218DF80D401AF06CF8BF
:1084E00008B18DF80D409DF80D00003018BF012037
:1084F00004B010BD00F5104064300EF000B810B4A8
:108500000C46C98B303903463022204689B25DF8CB
:10851000044B00F0D2BA0000F8B50E464968044694
:108520001D461431174607F0A4FB069BA56304F112
:108530004805E363284600F045FC7368656503F56C
:1085400082430433E364064B236504F14C020023A9
:10855000A365E3652266A4F8407063642046F8BD15
:108560003D89000010B586B004461022002101A804
:10857000F7F7E8FE00238DF8163001A9B4F8403073
:10858000ADF81430204614F033F906B010BD426C3B
:1085900013461BB18B4205D0DB68FAE7CA60416421
:1085A000184670471A207047436C8B4205D1CB6840
:1085B00043640023CB6070471346002BF9D0DA6880
:1085C0008A42F9D1CA68DA60F3E72DE9F04700245E
:1085D000BCB00546174688462C2221460DA8994670
:1085E0000C94F7F7AFFE2C22214601A8F7F7AAFE5C
:1085F000284600F024FC07F1100A0646002E3AD067
:1086000031460CA80DADFFF77AFF0FCD01AC0FC4BA
:108610000FCD0FC495E8070084E807007B8CBDF8F8
:1086200026209A4222D1514605A806F0C7FEE8B995
:108630003022314618A814F099FCB8B9B8F80220D5
:10864000BDF8623052BA5BBA92B29BB29A420DD177
:10865000F18B304600F086FDC9F8000078B1C18B7F
:10866000303989B200F0BFF930B1FEE7304600F092
:108670002CFC0646C2E719203CB0BDE8F087032079
:10868000FAE770B5A4B004461546684600221E46B7
:1086900014F06CFC28B933462A4669462046FFF799
:1086A00094FF24B070BD38B5054600F0C8FB044601
:1086B00040B10146284600F096FC2046BDE838400F
:1086C00000F08DB938BD00002DE9F041B2B00F4681
:1086D0009046064617F022FE00F57130D830454628
:1086E00002900FCD03AC0FC40FCD0FC495E8070067
:1086F00084E80700002239460EA814F037FC002851
:1087000038D19DF838309B0634D501AB4246394606
:108710003046FFF7B6FF50B319282BD10DF10202F6
:108720006946304600F0E4FBBDF80030092B02DD5D
:108730003046FFF7B8FFF98B384600F013FD019083
:10874000C0B1302202A900F051FA0199304600F080
:1087500005FCB369341D9C420CD117F0DFFD074BBB
:10876000306173612146706800F01CFE02E00198E0
:1087700000F035F932B0BDE8F08100BFD8C4030085
:1087800070B504460D4616464830FFF79DFFA36BB3
:10879000324629462046BDE87040184770B50B7830
:1087A00013F0300FA4B00446164616D1684614F0F4
:1087B000E6FD02226946204613F0FEFF054670B131
:1087C000014632462046FFF7DBFF044610B128463B
:1087D00000F005F9204624B070BD0724FAE7032411
:1087E000F8E72DE9F0430024AFB00E46804621465D
:1087F000174603A81C220294F7F7A4FD224631462F
:108800000AA814F0B3FB98BB9DF8A810304600F0FE
:1088100018F901AB3A460AA908F14800FFF7D5FE5E
:1088200008B3032824D00AA814F065FD02AC25463D
:108830004FF02F09F8B103880B2B10D1AC4216BFB3
:10884000631C2B4684F80090EA1A44881F32944235
:108850000ED222464168184629F090FC04440AA82A
:1088600014F0F7FCE6E73A4601994046FFF788FF27
:108870002FB0BDE8F0832070D8F84440002CF7D02A
:10888000294620682AF04CF830B96568A0683B4654
:1088900032460AA9A847EBE7E468EFE738B5054692
:1088A000284600F0CCFA044638B10146284600F0CC
:1088B0009AFB204600F093F8F2E738BD10B5044665
:1088C0004830FFF7EBFF2046BDE8104013F0A2BF91
:1088D00010B5046817F022FD201A20EAE07010BDE0
:1088E00030B58DB0044600212C2201A80091F7F785
:1088F00029FD204600F0A3FA0546E8B10146684686
:10890000FFF7FDFD17F00AFD009BC01A002807DDE8
:108910002946204600F067FB284600F060F8E8E7AB
:108920006846FFF7D5FF054617F0F8FC6561206142
:10893000211D606800F036FD0DB030BDFFF7D0BFDF
:1089400044F20402835833B11968815000221A603E
:108950000288013A02801846704710B500F580433E
:10896000043341B11A680C680A6002881960013248
:1089700002802146F5E7084610BD4A680AB9CA6870
:1089800002B1FEE78A680AB90B6903B1FEE7FFF797
:10899000E4BF0029008804DB8142CCBF0320002013
:1089A000704700207047F8B506460F4605464C2430
:1089B000BC4229680CDA19B17C34A4B22D68F7E7FF
:1089C0007069FFF7BDFF28600028F5D10320F8BDCE
:1089D00000242C607069FFF7C0FF2046F8BD0146F7
:1089E0004069FFF7CABF38B5838B0C46CA18C18BE4
:1089F00092B24C2A0B449BB288BFA2F14D010546AE
:108A000091BF00217C2091FBF0F101314C2B05D965
:108A10004D3B7C2093FBF0F30133C91A6869FFF7E3
:108A2000B8FF28B911462846FFF7BDFF00B9EC830F
:108A300038BD036801201BB10130C0B21B68FAE7E2
:108A40007047038CC28B1944914200DDFEE789B266
:108A50008A42018400DAFEE700207047C38B994206
:108A600000DDFEE7018400207047000090F8300030
:108A700000F03C000438C3B21C2B9DBF0448D84012
:108A8000C043012000F0010080F00100704700BFEA
:108A900011011010C38B994200DDFEE75B1AC383FE
:108AA000038C828B99420A44ACBF0023591A8283FB
:108AB000B4BF0184038400207047F8B51546C28B0B
:108AC0009142064641DA6818B48B8242D8BF551AE3
:108AD00021448CB2D8BFADB24B2C16D8C4F14C0790
:108AE000BFB2AF42A8BF2F4606F134012144184659
:108AF0003A4629F043FBED1B0346ADB23B4400214F
:108B00007B2936681DD92EB9FEE7A4F14C0189B244
:108B10000027F5E77C3989B2F2E7C1F17C04A4B201
:108B2000AC42A8BF2C46301D01442246184629F00D
:108B300025FB2D1B034627443668ADB2BFB2234444
:108B400000211DB1002EE8D1FEE700273846F8BD10
:108B50002DE9F0411E46C38B15468A189A420746F6
:108B600000DDFEE7848BA8BF5D1A21448CB2A8BF4C
:108B7000ADB24B2C16D8C4F14C081FFA88F8A845A2
:108B8000A8BFA8463430314642462044A5EB08052C
:108B900029F0F4FAADB2464400207B283F681ED984
:108BA00037B9FEE7A4F14C0080B24FF00008F4E7BB
:108BB0007C3880B2F1E7C0F17C04A4B2AC42A8BF1B
:108BC0002C463B1D31462246184429F0D7FA2D1B6E
:108BD000A0443F68ADB21FFA88F82644002015B1C2
:108BE000002FE8D1FEE74046BDE8F0812DE9F041D5
:108BF000C78B8846D11989B206461446FFF7F3FEA3
:108C0000054640B94346224639463046FFF7A0FFA5
:108C1000A04200D0FEE72846BDE8F081F8B5044642
:108C20000D46164600F13407A38B9E4214DD6069A1
:108C3000FFF786FE30B323680360A38B20604B2BC5
:108C400006D83430C3F14C02F918184429F096FACA
:108C5000A38B7C33A383E7E79B1BE28BA383238C4B
:108C60003244334492B29BB29342E28300DDFEE78A
:108C700023842DB12B46324600212046FFF768FFA2
:108C80000020F8BD0320F8BD2DE9F043814685B0F2
:108C9000884617461D460026CDB1102D2C4628BF0C
:108CA0001024224641466B464846FFF706FFA04483
:108CB000224639462D1B27446B460C983444FFF757
:108CC00047FF1FFA88F8BFB2ADB2A6B2E4E730465C
:108CD00005B0BDE8F0833F2900D9FEE700EBD100E5
:108CE000802390F8242001F0070143FA01F10A42A1
:108CF00014BF0120002070473F2900D9FEE700EB98
:108D0000D100802301F007010B4190F8241021EAE3
:108D1000030180F8241070473F2900D9FEE700EBDB
:108D2000D10001F007038021194190F82430194344
:108D300080F82410704700F1240200F12C0312F88F
:108D4000010B10B99A42FAD1704701207047F8B56B
:108D500007461D460846D118FB8B994200DDFEE709
:108D6000BC8B1444A4B24B2C13D8C4F14C06B6B23D
:108D7000AE42A8BF2E4607F134012144324605F029
:108D80002EFCAD1BADB200247B2C3F6815D91FB95A
:108D9000FEE74C3CA4B2F7E77C3CFBE7C4F17C0661
:108DA000B6B2AE42A8BF2E46391D2144324605F068
:108DB00016FCAD1B3F68ADB2002415B1002FEDD1FC
:108DC000FEE7F8BD00220260704702EB810370B538
:108DD0005C680CB9DC6804B1FEE705681DB95A602F
:108DE000DA60026070BD8E0035446C685C6004EB34
:108DF00081040568DD60E260036833445A60F0E78F
:108E000002EB810330B55C680CB1DC6804B9FEE7A5
:108E10000568AA4205D1A24208BF0022046008BF2B
:108E20000260DA68586802EB810250605A68D868BC
:108E300002EB8102D0600022DA605A6030BD006827
:108E400000B1806870470022026042608260C260A8
:108E5000704738B544F208030446C15000F580401D
:108E6000251D0C30FFF7EFFF4FF48042002128460C
:108E7000F7F768FA44F20403E218E55004F18403BA
:108E8000934203D043F8803C8033F9E743F6847380
:108E90000022E25080232380204638BD0B4650F844
:108EA000232022B92BB1013BDBB29942F7D1104606
:108EB00070470323F9E708B50321FFF7EFFF00B17F
:108EC000806808BD0321FFF7E9BF10B590F8313085
:108ED0005B070446806906D548B1FFF7F3FFA0425F
:108EE00004D0A06810BD10B10068F8E7002010BDE4
:108EF00038B500230B8013800D461446FFF79FFF03
:108F0000024658B12B8801332B80FFF792FD23884E
:108F1000184420801046FFF7D8FFF1E738BDF8B5B8
:108F200092F8315005F003050F46294606461446CF
:108F3000FFF7B4FF3BB260B19B00C21823445168F5
:108F4000596001EB8701D860CC60546046F8254039
:108F5000F8BD04EB83035C60DC60F7E738B58C692F
:108F60000D46A4B9A86191F8313064F3820381F809
:108F700031300A460121FFF728FF686900F580407B
:108F80002A4621460C30FFF7CAFF204638BD1A207A
:108F900038BD70B592F8314004F003048E1C50F8CF
:108FA00024309A420DD102EB86035B689A4218D0B6
:108FB00093F8315005F00305A54218BF002340F88F
:108FC000243002EB81025368D06803EB86035860BB
:108FD000D368506803EB8103586000235360D3606B
:108FE00070BD0023EBE738B591F83140C4F380043D
:108FF0000D46BCB98B69984214D10A460121FFF78E
:10900000FFFE686900F580402A4621460C30FFF7D4
:10901000C0FF95F83130AC6164F3820385F83130DC
:10902000204638BD192038BD38B58D690C46A5B924
:10903000A06191F8313043F0040381F831300A46E1
:109040000121FFF76CFF606900F580402246294648
:109050000C30FFF764FF284638BD1A2038BD91F860
:1090600031305B0710B50C4617D58B69984214D187
:109070000A460121FFF78DFF606900F58040224616
:1090800000210C30FFF785FF94F83130002060F3A9
:109090008203A06184F8313010BD192010BD03296E
:1090A000F8B505460E4635DC87693FB990F8313092
:1090B00061F3010380F831300020F8BD90F83100F1
:1090C00000F003039942F7D0C0F3800484B129462D
:1090D0003846FFF7C4FF3C4695F8313066F301038C
:1090E00085F831306CB129462046FFF79DFFE3E754
:1090F000686900F580402A4621460C30FFF749FF99
:10910000EAE7686900F580402A4621460C30FFF7FF
:1091100006FFD1E70720F8BDF8B505460F4616460D
:10912000FFF70EFC0446D8B180220021F7F70AF9B8
:1091300094F83030656167F3010363F07F03022127
:10914000A68384F830302046FFF7A9FF002120468F
:10915000FFF749FC20B121462846FFF70EFC00240A
:109160002046F8BD73B50E4690F83010828B054648
:1091700001F003014069FFF7CFFF044670B33146A9
:10918000FFF731FC024660BB334601460094284697
:10919000FFF77AFD2B8CE28B934200DDFEE7238400
:1091A00095F92D3084F82D3095F8303094F8302032
:1091B000C3F3830363F3850284F8302095F83110FC
:1091C000204601F00301FFF76AFF95F8303094F86C
:1091D0003020DB0963F3C71284F83020204602B048
:1091E00070BD2046FFF7FBFB0024F7E738B50023EE
:1091F0000B8013800D461446FFF75DFE024658B102
:109200002B8801332B80FFF714FC2388184420801F
:109210001046FFF75AFEF1E738BD10B580E80E00A2
:109220000023C36010BD002202604260704710B589
:1092300044688C4212D0CB6883B95CB9016041604C
:109240000868A0F581407C3805F0B1FFF9F73AFBDA
:10925000204610BDE1604160184610BD1A2010BDC7
:1092600001460068FFF7E3BF03682BB1DA680260CC
:1092700002B942600022DA601846704770B546684D
:1092800005462846FFF7F0FF044680B14368806832
:109290009847A642F5D12B684BB13068A0F58140C4
:1092A0007C3805F084FFBDE87040F9F70BBB70BD5A
:1092B00000220260704738B5044617F02FF8236883
:1092C0000546A4F5824033B9043805F070FFBDE8C7
:1092D000384017F03CB8DA681C69AA1AA24234BFB9
:1092E000A41A0024043805F062FF22462946BDE88E
:1092F000384017F01BB84A69914238B50C4606D081
:109300000368994205D10260FFF7D5FF646138BD5B
:109310000B46002BFAD059698C42F9D15A61F5E716
:1093200070B5054616F0FAFF2C686CB1E368C01AF8
:109330002369984208D328462146FFF7DCFF63687B
:10934000A068BDE8704018472846BDE87040FFF7A8
:10935000B2BF00F501404030FFF7E2BF38B5044628
:109360000D4616F0DBFFE3682469EA68C31AA342DE
:10937000A0EB0202286908D882420FD8801AE31AAB
:1093800083422CBF0020012038BD824208D9101A28
:109390001B1B834294BF0020012038BD002038BD34
:1093A000012038BDF8B506460C46FFF7A4FF356826
:1093B00035B9346065613046BDE8F840FFF77BBFE2
:1093C000002729462046FFF7C9FF38B117B165616C
:1093D0007C61F8BD336863613460ECE76B692F46EC
:1093E0000BB11D46EDE76C616361F8BD10B54FF43C
:1093F000804104461AF0D8FB204610BD00BA7047E1
:1094000038B504460D4616F089FF2561E060214617
:109410002068BDE83840FFF7C5BF006B13F0C6B940
:1094200090F86C30012B05D090F87400431E584220
:10943000584170471846704790F86C30022B05D0A1
:1094400090F87400831E58425841704701207047BD
:10945000F0B514460D4685B03C2200212046F6F7B3
:1094600071FF002D67D0284601F049FA18B1062691
:10947000304605B0F0BD01A9284601F013FB0646B1
:109480000028F5D19DF80430082BF0D104AA04F18E
:10949000320152F80A3D236053686360284601F0A8
:1094A000D1FA6B7984F8363095F9063084F8373084
:1094B000EB7984F83830284601F0BCFC0746284692
:1094C00001F04DFC1D2FD3D9028840F6FF739A425C
:1094D000CED18378002BCBD1C378002BC8D10379B0
:1094E000032BC5D1427994F83930121162F303038A
:1094F00084F83930427962F3451384F8393043797E
:1095000094F83920C3F3C00363F3041284F83920BC
:10951000831D04F10802163053F8041B42F8041BA3
:109520008342F9D1197811701A68C4F819205A6861
:10953000C4F81D209CE707269AE710B590F86C3018
:10954000022B044613D1FFF768FF17F0D3F87F28EA
:1095500007D094F988307F2B01D0984201DD84F840
:10956000880004F18C00BDE81040FFF779BE10BD03
:10957000FFF7E3BF836E8B4201D0CA6802B1FEE7FA
:109580001BB94166816600207047D960FAE737B59C
:10959000002304460D46CA1D12F801190DF80310E8
:1095A0000133082BF8D12046FFF737FF694617F043
:1095B00040F82868696804F1340303C303B030BD80
:1095C00010B50C468187FFF728FF214617F034F8C5
:1095D000002010BD38B5054608460C4629F0C7F9ED
:1095E000102807D81122214605F1420029F0AAF9D6
:1095F000002038BD072038BD10B50446C187FFF7ED
:109600000CFFE18F17F009F8002010BD0B68C0F8BF
:1096100053304B68C0F8573000207047F8B5044607
:109620004A68514BA46063604B68246244F20410A2
:10963000034421634968A3614C4BE3610025024464
:1096400004F1180301F581417C312260E560484A4C
:1096500025616562A562E3626461234604F18C00C2
:10966000FFF7DBFD04F19C0007F076FC04F1A80095
:1096700001F004FC04F2E91001F0B0F80B23FF2222
:1096800084F8753084F840304FF6FF7384F86C50DE
:1096900084F86F5084F8705084F8715084F87250D8
:1096A00084F8735084F87450A267A4F87C50C4F80E
:1096B0008050C4F884507F22E56525666566A566FE
:1096C00084F84150E38704F134054FF6FE7384F8C3
:1096D0008820A38704F13C072E4617F0A1F905F86E
:1096E000010BBD42F9D194F8343023F0010343F06B
:1096F000020384F834307C22002104F54470F6F72C
:1097000021FE1C492046FFF781FF1B492046FFF739
:1097100061FFE18F2046FFF76FFF31462046FFF7DC
:1097200036FF4FF6FE712046FFF74AFF17F078F933
:1097300084F86D0017F074F9002584F86E00C4F801
:10974000A050C4F8A4502046FFF767FE16F098FF1B
:109750002046FFF762FE16F0C9FFC4F88C53C4F828
:109760000C032046F8BD00BF29A70000B79A0000EF
:1097700071950000D2440300C744030010B590F86F
:109780006C30013B012B044607D8FFF746FE94F8E6
:109790007510BDE8104016F08ABF90F86F304BB9D5
:1097A000C26A00F118039A4204D1FFF736FE16F0A0
:1097B000A5FF28B12046FFF730FE94F84010E8E7F7
:1097C0002046FFF72AFEBDE8104016F063BF90F870
:1097D0006C3080F86F100BB9FFF7D0BF704708B539
:1097E00090F86C3080F840100BB9FFF7C7FF0020ED
:1097F00008BD70B504984C1E451E073114F8016F62
:1098000005F8016F8C42F9D1110E0172110C4172F1
:10981000110A8172C272037370BD10B50C4600222A
:1098200040F60301204601F049FA4FF6FF71204649
:1098300001F09EF84FF6FF71204601F0C7F8204670
:109840000721BDE8104001F0D5BA2DE9F7430E46D7
:10985000054600224FF44041304601F02FFAE98FCF
:10986000304601F0FDF805F13401304601F056F9BB
:10987000304601F074FA4FF0FF3303700023837019
:10988000C3700F2204464270286B90F86C3A1B0795
:1098900033D503232371202363710DF1070100F6F3
:1098A000C41005F0FCFD9DF80720637912B343F066
:1098B000010305F1420863711021404629F079F84F
:1098C000A71D8146102200213846F6F73BFD414690
:1098D0004A46384628F052FC55F8533FC4F8163033
:1098E0006B68C4F81A301E21304601F0B0FA03B09C
:1098F000BDE8F08323F00103DBE70421F4E7000077
:109900002DE9F041E2B00C460023054609A8049376
:1099100014F088FA204600F0F7FF002877D00DF108
:109920000E01204601F049F99DF80E30082B74D045
:10993000102B00F08E80002B40F0A280627A2B6BFF
:10994000510703F6582605F134080AD4D3F8681AEB
:10995000204601F04BF92A6BD2F8683A0133C2F87D
:10996000683A0DF10D01204601F01AF905AF04A97E
:10997000204601F02FF99DF80D30049A00972846F3
:109980004146FFF736FF3146102209A814F09AF835
:10999000204601F079F902388DF80F00204601F0D9
:1099A00034FA0546204601F045FA0D229DF80F30A5
:1099B000019229460246009709A814F08AF8204629
:1099C00001F0CBF90546204601F01FFA2946024670
:1099D00009A814F02EF9204601F0C1F905462046E9
:1099E00001F0BDF90646204601F024FA0123324673
:1099F00029460093034609A814F060F9204601F0B7
:109A000034FA0DF10F02014609A814F0E3F909A890
:109A100014F015FA62B0BDE8F081627A2B6B520740
:109A200003F6F41605F134089BD4D3F8241A204623
:109A300001F0DCF8286B00F6C81007F058FA2B6B21
:109A4000D3F8E01901F07F010131204601F00CF953
:109A500087E70C4BD5F88C13186805900131C5F8D1
:109A60008C13204601F0C2F805A9204601F0D6F873
:109A7000FF21204601F0F8F8DFF81080024E70E771
:109A8000FEE700BFBB440300DA440300BF44030009
:109A900038B5446E05462CB163680BB1A068984791
:109AA000E468F8E795F86C3023B92846BDE83840FB
:109AB000FFF764BE38BDFFF7EBBF00002DE9F047AC
:109AC0000D46E6B081460DA89846174614F0AAF94F
:109AD0006B7A6FF300036B72284600F015FF0028C5
:109AE00000F0C38003A9284601F05AF804A92846CB
:109AF00001F070F80DF10D01284601F05EF89DF8B7
:109B00000D40082C0AD0102C00F0D28024B9D9F8CE
:109B1000306006F658266EBB0824A7E0B8F1000FA7
:109B2000FAD00DF10F01284601F08CF8D9F8300079
:109B30009DF80F30D0F8E049013BDBB204F07F0222
:109B400093428DF80F3040F0988000F6F41698F8A4
:109B50001C3003F00703062B0CD1D8F818309C42B8
:109B6000DAD307D1049BD8F80C2001339342D3D326
:109B700000F0A280B91C05AF9DF80C30049A009744
:109B80004846FFF736FE284601F07EF80238314697
:109B900010228DF80E000DA813F094FF284601F056
:109BA00034F90646284601F045F90D229DF80E309D
:109BB00001923146024600970DA813F08AFF28460D
:109BC00001F0CBF80646284601F01FF9314602465F
:109BD0000DA814F02EF8284601F0C1F806462846D4
:109BE00001F0BDF80746284601F024F90023009350
:109BF0003A46034631460DA814F060F80DF10E0206
:109C000009A90DA814F0E6F8284601F02EF99DF8F0
:109C10000E20014609A828F0A1FA00287FF47CAFA5
:109C20009DF80D30082B1CD198F81C3003F0070369
:109C3000062B16D1D8F818309C4203D0C8F818402B
:109C4000C8F81000049BD9F830000133C8F80C3074
:109C5000D0F8E0399C4204D9214600F6C81007F03C
:109C6000E3F86B7A43F001036B7200240DA814F043
:109C7000E6F8204666B0BDE8F08704F1FF3A0AF046
:109C80007F02934207D1514600F6C81007F01EF933
:109C9000544606465BE7013404F07F0293427FF4AA
:109CA0003BAF214600F6C81007F010F906464EE714
:109CB0000249034E00245EE71F24D7E7BF44030098
:109CC000DA440300C0F8A010C0F8A420704708B51B
:109CD000FFF7A3FB16F010FD10F00C0F14BF0120CE
:109CE000002008BD08B5FFF798FB16F005FDC0F38E
:109CF000800008BDF8B590F87130D0F80C630133DE
:109D00000C2904460D4680F8713006D001D869B19F
:109D1000FEE7A1F11003012BFAD82046FFF7E2FF7E
:109D200020B994F87120337A9A425CDB002384F8DE
:109D3000713084F87030304600F0EBFDE8B1D4F8B3
:109D40001C330133C4F81C3325B9D4F82033013354
:109D5000C4F8203394F86C30032B14D0042B1CD09F
:109D6000012B3FD1D4F83433B4F87C100133C4F85C
:109D700034332046FFF744FBF8BDD4F824330133D5
:109D8000C4F82433E6E7D4F830330133C4F8303371
:109D90002046BDE8F84000F063B9E26A04F1180318
:109DA0009A4215BFD4F82C33D4F828330133013349
:109DB00014BFC4F82C33C4F82833E36DDA68E265C5
:109DC00002B922660022DA60727A52075EBF94F806
:109DD0006E20013284F86E205F6898682A4631460A
:109DE000B847D5E7FEE7204600F0E8F8D4F83C3362
:109DF0000133C4F83C33F8BDF0B5044685B00F46D6
:109E00000146006816461D46FFF775FAD4F8103370
:109E10000133C4F8103301A9384600F0B3FDBDF892
:109E200006204FF6FF739A420BBFD4F81833D4F8CC
:109E30001433013301330CBFC4F81833C4F814339E
:109E40000C2D1AD1D4F844330133C4F844332046DE
:109E5000FFF73DFF28B9112D03D194F87030032B83
:109E60001FD9002384F8703094F86C30032B12D083
:109E7000042B0AD0012B0ED0FEE7112D02BFD4F81F
:109E800040330133C4F84033E1E726B1642104F1E3
:109E90001800FFF7B5FA29462046FFF72BFF05B05B
:109EA000F0BD013384F87030204600F087F8F6E703
:109EB00070B5B0F87060D0F80C53044646BB90F90A
:109EC0004130AB7190F86C30032B29D0042B33D088
:109ED000012B43D1FFF7A1FA4FF6FF7116F09DFB5E
:109EE00094F875306B7129462046FFF796FC314691
:109EF000284600F025FD04232B7229462046FFF753
:109F0000FFFC94F9413095F906209A42C8BFAB7125
:109F10002046FFF782FA697916F0C9FBF8B1FEE72F
:109F200090F840306B712946FFF78FFC94F86D1064
:109F30004B1C84F86D30DBE790F840306B71C36DDB
:109F400029461A689868904770BB6B7A5A07D4D430
:109F500094F86E10284600F0F3FCCEE7FEE72046AA
:109F6000FFF75BFA294616F0AAFB00B1FEE7284688
:109F700000F0CFFC30B12046FFF74FFA16F0BCFBE3
:109F8000C3070CD5D4F8A020BAB16B7A43F0020312
:109F90006B72D4F8A4102846BDE870401047102119
:109FA0002046FFF72DFAEDE73246D4F80C13204691
:109FB0000C23BDE87040FFF71FBF70BD30B587B000
:109FC0000546FFF784FE20B12846FFF771FF07B072
:109FD00030BD95F8703095F871401C44033416F08C
:109FE0001FFD052C28BF05240123A340013B184079
:109FF0004FF4A074444302A816F0ACF94FF47A73FE
:10A00000B4FBF3F3C3EB4310049303EB8003A4EB23
:10A01000C3032846ADF81430FFF7FFF90095034B52
:10A0200004AA02A916F0A2F9D1E700BF39A60000E0
:10A03000036E8B4210B511D0CA687AB9C26D5AB995
:10A04000C16590F86C40016624B9042380F86C3037
:10A05000FFF7B4FF002010BDD960F2E71A2010BD51
:10A0600090F87430012B10B5044607D1002280F817
:10A07000742084F86C30FFF7A1FF06E0022B09D1B1
:10A08000002380F8743000F014F82046BDE810403A
:10A09000FFF774BB90F8723023B1002380F8723060
:10A0A0000323E6E7C36D0BB10423E2E780F86C30CD
:10A0B000EBE7022310B580F86C300446FFF7ADF9EA
:10A0C00016F01AFB830710D47F2384F88830B4F885
:10A0D0007C102046FFF794F904F18C00FFF7C0F8DC
:10A0E0002046BDE81040FFF749BB2046FFF795F931
:10A0F000B4F87C2094F8751016F044FB50B1D4F8F5
:10A100008000D4F88430002198472046BDE81040F4
:10A11000FFF7A6BF10BD7F2913B504460BD090F8FA
:10A1200075308DF804308DF80510D0F88430D0F8F3
:10A13000800001A99847A26F94F875300133520846
:10A14000DBB214D1A26784F875302046FFF765F9B9
:10A1500094F8401016F0ABFAD4F88000D4F88430AC
:10A16000002198472046FFF77BFF02B010BD1A2B55
:10A17000E8D8D107E2D5A26784F875302046FFF70A
:10A1800098FFF2E74AF62C63C35C23B100F52E403A
:10A190002830FDF7B1BD00F50B40EC30FFF7BBBF39
:10A1A00038B590F86C40651E012D31D990F8745087
:10A1B00075BB002A08BF4FF0FF32002B08BF4FF4D9
:10A1C0009673A0F87C300B23049DC0F88050DA40D1
:10A1D00080F875308267836FDA0707D45B0883677E
:10A1E00090F87530013380F87530F4E764B90129CF
:10A1F00005D180F86C10FFF7E1FE204638BD02293A
:10A20000FBD1FFF756FFF8E780F874100024F4E75D
:10A210000524F2E737B51D46069B009313460A4610
:10A2200001210446FFF7BCFF08B9C4F8845003B00D
:10A2300030BD37B51D46069B009313460A460221E2
:10A240000446FFF7ADFF08B9C4F8845003B030BD31
:10A2500013B5044608460DF1070100F0BFFD9DF857
:10A260000730042B1CD0072B21D1D4F860330133E5
:10A27000C4F8603394F8733013B9022002B010BDF3
:10A28000012384F8723094F86C30002BF5D103224E
:10A2900084F86C2084F872302046FFF78FFEECE7DC
:10A2A000D4F858330133C4F858330020E6E7D4F823
:10A2B00064330133C4F86433F7E700002DE9F0415B
:10A2C000D0F8483301330446C0F8483388B00D460F
:10A2D0001046002A40F06B81002900F03F814B7A44
:10A2E00062F300034B72D4F8A0303BB14A7A60F3BA
:10A2F00041024A72D4F8A41028469847284600F034
:10A300009AFA002840F0538102A9284600F0CAFBBF
:10A31000206B02A900F6EC600CF013FD9DF80830EC
:10A32000022B064627D0082B02D0002B40F02281BA
:10A3300004F13408082241460DF10A0027F00EFF0F
:10A34000002800F017819DF808306BB394F8E831CD
:10A35000002B40F01B8194F809332BB30DF10A0157
:10A3600004F2E91000F045FAF0B1D4F88833013373
:10A37000C4F8883371E0002800F0F68008238DF8D7
:10A3800008300368CDF80A304368CDF80E30CFE7C7
:10A3900001AA384600F0F3FD10B99DF80430AB7106
:10A3A0009DF80830002BD6D105A9284600F0EAFA1E
:10A3B0009DF81470022F53D0082F71D0BDF81620CD
:10A3C0004FF6FF739A427ED1D4F850330133C4F86C
:10A3D0005033334602AA29462046FFF76FFB002878
:10A3E00040F0E5802EB306F11E0095F9062004F139
:10A3F0009C0106F033FE284600F086FAC8B1337F90
:10A4000003F00703052B04D0062B12D0012B40F0DC
:10A41000AB80284600F073FA0328A6D10DF10501A0
:10A42000284600F0DBFC00289FD19DF80530042B66
:10A430009BD194F86C30012B4BD1284600F05FFA89
:10A44000002879D1D4F85C33D4F880000133C4F803
:10A450005C332946D4F88430984708B0BDE8F081D1
:10A460000DF10601284600F076FABDF806304FF6E9
:10A47000FF72934202D0E28F9A420BD194F86F2080
:10A48000BDF816301AB14FF6FF7293429CD0A28FDE
:10A49000934293D0D4F86C330133C4F86C33DCE7C7
:10A4A0000DF10601284600F056FAE28FBDF806309D
:10A4B0009A42EFD13A4641460DF1160027F04EFE82
:10A4C0000028E7D17AE7D4F84C330133C4F84C3391
:10A4D0007FE794F86F3063B99DF814304BB104F105
:10A4E0001801A069FEF707FF2046FEF796FF16F059
:10A4F000D1F8284600F003FA012817D010D303281A
:10A500001AD129462046FFF7A3FE0228A5D0646E83
:10A51000002CA2D02368A06829469847E468F7E792
:10A52000D4F85C330133C4F85C33F0E7D4F8543327
:10A530000133C4F85433EAE7D4F864330133C4F880
:10A5400064338AE7D4F880330133C4F8803384E776
:10A55000D4F884330133C4F884337EE7D4F87433F9
:10A560000133C4F8743378E7D4F878330133C4F88E
:10A57000783372E7D4F87C330133C4F87C336CE76A
:10A58000D4F870330133C4F8703366E704F1A807D8
:10A590000DF10A01384600F0B0FC014600287FF4B6
:10A5A000F7AED4F868330133C4F8683355E7083898
:10A5B00017283FF6DAAE01A353F820F045A50000B6
:10A5C0006BA300006BA300006BA300006BA3000053
:10A5D0006BA300006BA300006BA300006BA3000043
:10A5E0006BA300006BA3000051A500005DA5000057
:10A5F00069A5000075A50000A3A5000095A40000B2
:10A600006BA300006BA300006BA300006BA3000012
:10A610006BA300006BA3000081A500004AF62C6329
:10A62000C35C23B100F52E402830FDF734BB00F5A4
:10A630000B40EC30FFF742BEFFF73ABC10B44AF6CD
:10A640002C64045D34B100F52E4028305DF8044BD5
:10A65000FDF7A4BB00F50B40EC305DF8044BFFF7B1
:10A66000CBBB1FB590F86C30022B044630D0042BC6
:10A6700033D0012B57D1826F90F8753001335208D7
:10A68000DBB21AD1A26784F875302046FEF7C5FE0A
:10A6900094F8401016F00BF82046FEF7BEFEE18F4E
:10A6A00015F0BBFFD4F88000D4F88430002198471F
:10A6B0002046FFF7D5FC04B010BD1A2BE2D8D10715
:10A6C000DCD5A26784F875302046FFF777FCF2E707
:10A6D00090F98810FFF71FFDEDE7FEF79EFE94F856
:10A6E000401015F0E4FFD4F81033D4F80C03013314
:10A6F000C4F8103301A900F045F9BDF806204FF663
:10A70000FF739A420BBFD4F81833D4F814330133D3
:10A7100001330CBFC4F81833C4F814331021204699
:10A72000FFF7E8FAC7E7FEE7FFF79BBF38B5044637
:10A73000D0F864030D46FEF761FED4F87433C5F813
:10A740000200D4F878030344D4F87C030344D4F81B
:10A7500080030344D4F884030344D4F888031844E2
:10A76000FEF74CFEC5F80600D4F84003FEF746FE9F
:10A77000C5F80A00D4F84C03FEF740FEC5F80E00F9
:10A78000D4F85003FEF73AFED4F86C33C5F8120043
:10A79000D4F868031844D4F870331844FEF72EFE3A
:10A7A000C5F81600D4F81403FEF728FEC5F81A0001
:10A7B000D4F81803FEF722FE0023C5F81E0085F822
:10A7C000223085F8233085F8243085F8253038BDCF
:10A7D0007C22002100F54470F5F7B4BD002280F81A
:10A7E0002021034600F590711A7209338B42FBD188
:10A7F000704770B50E46044600F59075237A2BB16C
:10A8000008223146204627F0A9FC20B10934AC4289
:10A81000F4D1002070BD204670BD10B50446084636
:10A8200004F06CFD0368236043686360237883F061
:10A830000203237010BD10B5017902295DDD0068A7
:10A840004378027842EA032202F44063B3F5006FD2
:10A8500006D0B3F5406F37D0002B4ED1032300E074
:10A86000072302F44044B4F5004F2FD0B4F5404F15
:10A8700033D0002C41D1140739D5C05C00F0180446
:10A88000102C30D0182C30D0082C14BF05330633D0
:10A8900000F007040120A04010F0880FDBB228D19F
:10A8A00010F0440F27D110F0220F14BF0620022011
:10A8B00002F00702032A04BF0133DBB203449942CA
:10A8C000B4BF0620002010BD0D23CAE754065CBFAC
:10A8D0000233DBB20233DBB2CDE754065CBF023396
:10A8E000DBB20833F7E70A33D2E70E33D0E70220B2
:10A8F000DEE71220DCE70A20DAE7062010BD036855
:10A90000187800F00700704703681878C0F3C0009B
:10A91000704703681878C0F34010704703681878D0
:10A92000C0F30010704703681A7819B142F01002A2
:10A930001A70704722F01002FAE70368987870479F
:10A9400003689970704703685878000210F44060FB
:10A9500018BFD81C704708B5FFF7F5FF30B1427833
:10A96000037843EA02230B80002008BD062008BDBF
:10A9700008B5FFF7E8FF00B9FEE701700912417062
:10A98000002008BD03685A78120202F44062B2F552
:10A99000006F05D0B2F5406F0BD000230B7006E0BE
:10A9A00002220A709A795B7943EA02234B800020E5
:10A9B0007047082201F8022B03F10D02053312F84B
:10A9C000010D01F8010B9A42F9D1F0E702685378C2
:10A9D0001B0203F44063B3F5006F00D0FEE7517132
:10A9E000091291710020704703685A78120202F42C
:10A9F0004062B2F5406F00D0FEE7CA1D0433013952
:10AA000012F8010903F8010F8A42F9D100207047BA
:10AA100002685178137843EA012313F44C4010D0B4
:10AA2000590602F103000CD403F44063B3F5006F40
:10AA300003D0B3F5406F02D07047D01D704702F1CC
:10AA40000D00704710B50C46FFF7E2FF30B14278B9
:10AA5000037843EA02232380002010BD062010BDA6
:10AA600010B50C46FFF7D4FF20B1047024124470D7
:10AA7000002010BD062010BD00684278037843EA2C
:10AA8000022303F44062B2F5006F07D0B2F5406FC5
:10AA900006D003305B0658BF023070470730F9E735
:10AAA0000D30F7E710B50446FFF7E6FF08B323685B
:10AAB0005B781B0203F44043B3F5004F05D0B3F5B8
:10AAC000404F0BD00020087010BD02230B7042785D
:10AAD000037843EA02234B80002010BD082301F8CD
:10AAE000023BC31813F8012D01F8012B8342F9D161
:10AAF000F2E7062010BD08B503685B781B0203F47B
:10AB00004043B3F5004F00D0FEE7FFF7B5FF00B9B3
:10AB1000FEE7017009124170002008BD08B5036806
:10AB20005B781B0203F44043B3F5404F00D0FEE7CF
:10AB3000FFF7A2FF00B9FEE7CB1D0138013913F87A
:10AB4000012900F8012F8B42F9D1002008BD0268CD
:10AB50005178137843EA012313F008001FD003F45F
:10AB60004061B1F5006F0CD0B1F5406F0BD0D01C37
:10AB700003F44042B2F5004F08D0B2F5404F0AD07E
:10AB80007047D01DF4E702F10D00F1E75A0658BFF7
:10AB90000230023070475B0658BF02300830704701
:10ABA00010B50C46FFF7D3FF28B1037803F0070375
:10ABB0002370002010BD062010BD10B50C46FFF715
:10ABC000C6FF28B1037803F018032370002010BDDE
:10ABD000062010BD10B50C46FFF7B9FF20B1D0F824
:10ABE00001302360002010BD062010BD10B50C46BA
:10ABF000FFF7ADFF00B9FEE7230A44708370230C12
:10AC0000240EC3700471002010BD102804D0182831
:10AC10000CBF0820002070470420704710B50C4678
:10AC2000FFF795FF00B9FEE7034613F8050B00F0A8
:10AC30001800FFF7EAFF21460246BDE8104018461B
:10AC400027F09CBA10B50C46FFF781FF034648B1C8
:10AC5000007800F01800FFF7D8FF184443792370FC
:10AC6000002010BD062010BD10B50C46FFF76FFF89
:10AC7000034600B9FEE7007800F01800FFF7C5FFB3
:10AC800018444471002010BD08B5FFF760FF78B18B
:10AC9000037803F007020123934013F0880F09D1D2
:10ACA00013F0440F08D113F0220F0CBF0020042032
:10ACB000023008BD1020FBE70820F9E738B503682B
:10ACC00005460812587001F44060B0F5006F197025
:10ACD00004D0B0F5406F0ED058B1FEE7072401F460
:10ACE0004040B0F5004F08D0B0F5404F2BD050B1E8
:10ACF000FEE70324F3E70D24F1E748065CBF0234C6
:10AD0000E4B20234E4B208070FD51A55530718BF4E
:10AD1000053402F0180218BFE4B2102A19D0182A1C
:10AD200019D0082A01D10134E4B201F00701032946
:10AD300008BF0134284608BFE4B2FFF7A5FF20444E
:10AD40002871002038BD48065CBF0234E4B20834E4
:10AD5000D8E70534E8E70934E6E70068704700689B
:10AD60004278037843EA022303F44062B2F5006FAD
:10AD700020D0B2F5406F1FD072BB033003F44042C5
:10AD8000B2F5004F1AD0B2F5404F1CD022BB1A07C3
:10AD90000AD5027802F01802102A19D0182A19D000
:10ADA000082A14BF0530063003F00703032B14D123
:10ADB000013070470730E1E70D30DFE75A0658BF32
:10ADC00002300230E3E7590658BF02300830DEE7B0
:10ADD0000A30E9E70E30E7E70020704710B50C466F
:10ADE000FFF7BDFF20B110F8013C2370002010BD1B
:10ADF000062010BD10B50C46FFF7B1FF18B100F8E2
:10AE0000014C002010BD062010BD10B50446FFF710
:10AE1000A6FF2368C01AC0B210BD38B50546FFF7BB
:10AE2000F4FF04462846FFF72FFF2044C0F17F00BF
:10AE3000C0B238BD38B50546FFF7E7FF04462846DF
:10AE4000FFF722FF2B792044181AC0B238BD70B525
:10AE500006460C46FFF7D9FF05463046FFF714FFBC
:10AE6000284404443471002070BD10B50446FFF737
:10AE70000BFF2379181A2368184410BD002310B55E
:10AE800080F840310A2404FB03020133517A202B5D
:10AE90006FF300015172F6D110BD1F2910B51DDCF2
:10AEA00001EB810300EB43031C6814605C68546091
:10AEB0000A2303FB010101F1080391F90810117243
:10AEC0005878517A60F3000151725B78C9B2C3F3CC
:10AED000400363F341015172002010BD072010BDF3
:10AEE00010B500230A2404FB03020133517A202BFE
:10AEF0006FF300015172F6D110BD2DE9F041064605
:10AF00000F4600254FF00A0808FB0564637ADB074B
:10AF100005D508223946204627F020F928B1013509
:10AF2000202DF1D10020BDE8F0812046BDE8F08160
:10AF3000F8B506460D46FFF7E0FFB0B903460A270D
:10AF400007FB0362517A11F001010BD12B681360EA
:10AF50006B685360537A43F0010361F3410353720A
:10AF60001046F8BD0133202BEAD1F8BD08B5FFF734
:10AF7000C4FF18B1002303604360038108BD4B7A0E
:10AF8000D80706D59B0704D591F908301370002027
:10AF90007047FF2070474B7A0A7243F002034B72EE
:10AFA000704701607047704710B52C22044600219D
:10AFB000F5F7C8F9204610BD38B504460D46FFF731
:10AFC000F0FF2946201D02F05BFA294604F120001B
:10AFD00003F0D6F82A4B6A68C4F8B030C4F8B4401D
:10AFE00004F1AC03C4F8C0306B68C4F8CC4044F240
:10AFF00004100344C4F8C430224BC4F8C83004F130
:10B00000C403C4F8D830204BC4F8E0301F4BC4F858
:10B01000E4301F4BC4F8F0301E4BC4F8F4301E4B24
:10B02000C4F80031002102441C4BC4F8AC2084F861
:10B030003C10A4F8A810A4F8AA10C4F8B810C4F8DA
:10B04000BC10C4F8D010C4F8D410A4F8DC1084F8F4
:10B05000DE10C4F8E840C4F8EC10C4F8F840C4F8B6
:10B06000FC10C4F80431C4F80841C4F80C11C4F849
:10B070001051602204F14000F5F764F9204638BD14
:10B08000EFB40000BFB800001645030017BB000076
:10B090001B45030041BB0000204503007FBC0000AE
:10B0A00010B50446D0F8100104F1E001B830FDF706
:10B0B0006EFAD4F8100104F1F001B830FDF767FA28
:10B0C000D4F8100100F5085004F580711830BDE87F
:10B0D0001040FDF75CBA10B50446D0F8100104F139
:10B0E000E001B830FDF760FAD4F8100104F1F00186
:10B0F000B830FDF74CFAD4F8100100F5085004F50B
:10B1000080711830BDE81040FDF741BA90F83C005E
:10B11000704710B5044615F001F994F86D30DA0760
:10B1200048BFA16C94F89D304CBF091A4FF0FF3115
:10B1300013F0010F04F1AC0203D0A36F1B1A994264
:10B1400005D84B1C05D01046FEF75AF910BD19461C
:10B15000F9E7D4F8AC001146BDE81040FEF7CBB8D3
:10B160002DE9F043B7B0074607A898460D4691462B
:10B17000FFF71AFF0222002112A811F0EAFE0221B5
:10B1800012A812F0D3F8534912A812F03EF812A8F0
:10B1900012F0BFF8D7F81001002212A900F58E7046
:10B1A00011F00AFB0646002800F091802B7EDC0798
:10B1B00010D509238DF8083002238DF809302B882B
:10B1C00004225BBA02A9ADF80A30FDF70FFD044670
:10B1D000002878D12B7E990711D50B238DF80830E4
:10B1E00002238DF809306B8804225BBA02A930462D
:10B1F000ADF80A30FDF7FAFC0446002863D12B7E37
:10B200005A071CD536AC082304F8D03D1022002183
:10B210000DF10A00F5F796F82B798DF809302146E3
:10B2200002223046FDF7E2FC044600284BD12A7981
:10B23000691D3046FDF7DAFC0446002843D12B7E19
:10B240001B0710D512238DF8083002238DF8093022
:10B25000EB8A04225BBA02A93046ADF80A30FDF74A
:10B26000C5FC044678BBB8F1000F24D19DF8C83066
:10B27000F18B994204D1013989B23046FDF7B3FB15
:10B28000D7F810010BA900F6EC6007F024FFD7F8FF
:10B29000100100974FF2BF03ADF83E3007AA0E4BE6
:10B2A000314600F58E7011F0D5FD044658B92046A0
:10B2B00037B0BDE8F083424649463046FDF796FC7C
:10B2C00004460028D2D03046FDF789FBEFE703247F
:10B2D000EDE700BF11450300A7AF00002DE9F041E5
:10B2E00090F83C30022B8EB0054640F08D801A223B
:10B2F000002107A8F5F726F8B5F8DC30ADF81E30C8
:10B3000002238DF834301022082300210DF10A00A9
:10B310008DF808308DF80920F5F714F8002641F271
:10B3200021016846302712F041FA774348F20501BF
:10B3300001A812F03BFAEB1993F86D40E3075FD5D3
:10B34000C4F34004FCB101238DF80930FF238DF8CC
:10B350000A309DF809400DF10A0122460DF1210045
:10B3600026F00CFF9DF834308DF8204043F00403A4
:10B370008DF8343000231A4607A92846FFF7F0FE5F
:10B380000EB0BDE8F081E3192B44684693F8408085
:10B39000414612F00FFA0134414601A812F00AFAB0
:10B3A000082CF0D19DF80920BDF80210D300D8B2C6
:10B3B00091FBF0F300FB1313DBB2013AA2EBD304D1
:10B3C0000EA90C4403F0070314F82E7C012101FAA6
:10B3D00003F33B4304F82E3CBDF8064094FBF0F326
:10B3E00000FB1343DBB2A2EBD3020EA8024403F02E
:10B3F000070301FA03F312F82E1C0B4302F82E3C4C
:10B400000136022EA5D08AE70E20B9E7F8B590F8EC
:10B410006D300646D8070C46154619D591B99907DF
:10B4200016D5302745BB07FB0464304694F86D30D1
:10B4300065F3000384F86D30FFF76BFE3046FFF7CD
:10B440004DFF26E0082206F1400026F087FE68B195
:10B4500096F89D30DA070DD554B10822214606F141
:10B46000700026F07BFE28B90124DAE70446D8E70D
:10B470009B07F9D41920F8BD07FB046414F04EFFB4
:10B48000A26C121A002A04DD4FF47A735D43AA42BB
:10B4900001D80020F8BD0544A5643046FFF739FE09
:10B4A000F7E738B5044614F039FF94F86D30DA0741
:10B4B000054609D5A36CC31A002B05DB002204F155
:10B4C00040012046FFF7A2FF94F89D30DB0709D525
:10B4D000A36FED1A002D05DB002204F17001204658
:10B4E000FFF794FF2046BDE83840FFF712BEFFF794
:10B4F000D8BF2DE9F04104461046884616461D4641
:10B5000027F035FA202846D8002241462046FFF78A
:10B510007DFF94F86D2012F0010204D094F89D3064
:10B52000DB073BD40122302303FB0243B8F1000FB9
:10B530002CD0D8F80410D8F8000003F1400703C756
:10B5400093F86D106FF341013027574307F14C001A
:10B550002744212283F86D102044314627F0F2F968
:10B5600097F86D3043F0010387F86D3014F0D6FE84
:10B570004FF47A7303FB0500B8642046FFF7C9FD5A
:10B580002046FFF7ABFE0020BDE8F08193F86D1078
:10B5900041F00201D8E70720BDE8F0810320BDE8B3
:10B5A000F0810000F0B50446C3B002A8FFF7FCFC30
:10B5B00094F8DE30013384F8DE30022200211EA828
:10B5C00011F0C7FC02211EA811F0B0FE2E491EA8E2
:10B5D00011F01BFE1EA811F09CFED4F810010022F1
:10B5E0001EA900F58E7011F0E7F80646002846D037
:10B5F0000A23402125488DF834308DF8351027F086
:10B60000D8F92249054602460DF1360026F0B6FD6E
:10B61000EAB28DF835200DA902323046FDF7E6FA80
:10B62000054640BBD4F8100106A900F6EC6007F00F
:10B6300052FDD4F810014FF2BF0300F6EC60ADF8F4
:10B640002A3007F022FD02AD034600F1100718680A
:10B6500059682A4603C20833BB421546F7D1D4F8CD
:10B66000100100940A4B02AA314600F58E7011F0C9
:10B67000F1FB054620B13046FDF7B1F900E00325A6
:10B68000284643B0F0BD00BFEA440300EF44030086
:10B6900071B7000038B590F83C300446A3B9D0F833
:10B6A00010010A4900F508502246183011F03EFFFB
:10B6B000054638B9012384F8DE0084F83C30204682
:10B6C000FFF770FF284638BD0E25FBE735BE0000AA
:10B6D00073B5154690F83C209DF81830012A0446B1
:10B6E00004D0002384F83C3002B070BDABBB4B7873
:10B6F000442B32D16B4603221021284612F0B4F8B5
:10B700000028F1D19DF80130012BEDD19DF80230D8
:10B71000012BE6D1284601AB04220B2112F0A4F83C
:10B7200005460028E0D19DF80560022EDCD1BDF869
:10B7300006305BBAA4F8DC302046FFF7B1FC04F118
:10B74000C40084F83C6084F8DE5046F2A811FDF78E
:10B7500057FE2046FFF7C2FDC6E794F8DE30012B06
:10B76000BFDC4FF47A7104F1C400FDF749FEBBE77A
:10B7700010B49DF8044001945DF8044BFFF7A8BF96
:10B7800070B5B4B0054605A8FFF70EFC02220021F3
:10B7900010A811F0DEFB022110A811F0C7FD2C4902
:10B7A00010A811F032FD10A811F0B3FDD5F810016A
:10B7B000002210A900F58E7010F0FEFF064600284A
:10B7C00041D010238DF80C3001238DF80D3095F801
:10B7D0003C30022B0CBF01234FF0FF33032203A99F
:10B7E0008DF80E30FDF702FA044640BB0B238DF8AE
:10B7F000103002238DF81130B5F8DC3004225BBA2A
:10B8000004A93046ADF81230FDF7F0F90446B0B99E
:10B81000D5F8100109A900F6EC6007F05CFCD5F83A
:10B82000100100954FF2BF03ADF8363005AA094B61
:10B83000314600F58E7011F00DFB044620B1304604
:10B84000FDF7CDF800E00324204634B070BD00BF02
:10B850000745030023B9000038B590F83C30044692
:10B8600003B3D0F8100100F508500025183011F08E
:10B8700066FE204684F83C50FFF72DFC04F1C4011D
:10B88000D4F8C40084F8DE50FDF735FDD4F810017B
:10B8900000F50F50203001F0B1FB2046FFF770FF9C
:10B8A000284638BD0E2038BD90F83C30012B02D020
:10B8B000022B02D07047FFF775BEFFF761BFFFF79D
:10B8C000F3BF13B50446104694F83C209DF81030A1
:10B8D000022A0BD0002384F83C3094F83C30022B31
:10B8E00002D02046FFF7F7FB02B010BD002BF1D1CC
:10B8F0004B78442BEED101AB0322102111F0B4FFA1
:10B900000028EAD19DF80530012BE6D19DF80630DC
:10B91000012BDFD146F2A81104F1C400FDF770FD40
:10B92000DBE710B49DF8044001945DF8044BFFF789
:10B93000C8BFF0B5044693B007A80D461646FFF7FA
:10B9400033FB94F83C30022B40F0D0802B7803F08E
:10B950003003102B40F0CA806B78022B40F0C68079
:10B9600002AB04221221304611F07EFF002840F085
:10B97000BD809DF80930022B40F0B88004AB0A224C
:10B980001321304611F070FF002840F0AF809DF881
:10B990001130082B40F0AA8003AB0422142130465A
:10B9A00011F062FF002840F0A1809DF80D30022BBD
:10B9B00040F09C800DF1060301AA1121304611F0E0
:10B9C00073FF002840F09280F38BBDF80410BDF89F
:10B9D00006205B1A9A4200F38980D4F8100100F522
:10B9E0000850183011F0CCFD04F1A007002840F0F9
:10B9F0008880DDF81230C4F8A030DDF816307B60A6
:10BA000094F8A03083F0020384F8A03094F86D30ED
:10BA1000DA0708D59B0710D40822394604F1400004
:10BA200026F09CFB48B194F89D3013F0010518D026
:10BA3000C3F34005002D5BD00120302505FB0040FD
:10BA400000F14C05284626F092FFD4F81031C2B21E
:10BA500003F508502946183011F028FE002845D17A
:10BA6000012594F8A03083F0020384F8A030002D63
:10BA70003CD0BDF80A30BDF804105BBAA4F8A83079
:10BA8000BDF80E305BBAA4F8AA303046FCF7E6FFEA
:10BA9000BDF80410BDF80630194489B23046FCF7F1
:10BAA000A2FF18BBD4F8100100F6EC6007F0F0FA22
:10BAB0000BAA034600F1100C964618685968154603
:10BAC00003C5083363452A46F7D13946704603F06B
:10BAD00019FCD4F81001B4F8A830ADF83E3000F5E8
:10BAE000085007AA3146183011F05CFD13B0F0BDC4
:10BAF0000822394604F1700026F030FB0028B0D14E
:10BB00009AE708220DF11201384626F027FBB0FA19
:10BB100080F56D09ABE7FFF70CBF0A7812F0300F24
:10BB200010B40AD14A78022A07D1D0F810015DF882
:10BB3000044B1A46B830FCF731BE5DF8044B704731
:10BB4000FFF7EBBFF0B5B3B00D46044603A81646A9
:10BB5000FFF72AFA29460EA811F011FC0EA811F0E1
:10BB6000D8FBD4F8100100F5085000220EA91830B7
:10BB700010F022FE0546002850D090F830308DF8A5
:10BB80000260072262F3850380F8303010238DF8BD
:10BB900000300322012369468DF80130FDF726F8B5
:10BBA00000283DD1D4F8100100F6EC6007F070FADF
:10BBB00007AA034600F1100E174618685968164682
:10BBC00003C6083373453246F7D104F1A006314667
:10BBD000384603F097FBD4F81001B4F8A830ADF85C
:10BBE0002E3000F5085003AA29461830FCF7C8FD8E
:10BBF000B0B9D4F8A000D4F8A41001AB03C332A9A3
:10BC0000204611F8C43D9A0754BF43F0020323F0C5
:10BC1000020314228DF80430FFF7F8FB33B0F0BDB7
:10BC20002846FCF7DCFEF9E730B593B004460D4634
:10BC3000104601AB4222202111F016FED0B9D4F8F3
:10BC400010119DF8053042F2E1328A5C9A4213D11C
:10BC500001F50F5122310DF1060026F07FFA002880
:10BC60000CBF01224FF0FF3229462046FFF76AFF42
:10BC700013B030BD0122F7E74FF0FF32F4E7FFF7D2
:10BC8000D3BF00002DE9F041BCB006460DA80F4619
:10BC9000FFF78AF90222102118A811F05AF9644915
:10BCA00018A811F0B2FA18A811F033FBD6F8100159
:10BCB000002218A900F58E7010F07EFD05460028C0
:10BCC00000F0AF8012238DF80C30B6F8A8304FF09A
:10BCD00002085BBA042203A98DF80D80ADF80E307E
:10BCE000FCF784FF0446002840F0A080324613236E
:10BCF0008DF8143008238DF8153052F8A03FCDF898
:10BD0000163005A95368CDF81A300A222846FCF7E8
:10BD10006DFF0446002840F0898014238DF8103010
:10BD2000B6F8AA308DF811805BBA042204A928461F
:10BD3000ADF81230FCF75AFF0446002876D197F888
:10BD40003030C3F38303072B1BD115238DF820302C
:10BD500010238DF82130D6F810310DF1220103F6B1
:10BD6000582203F6682352F8040B41F8040B9A4258
:10BD7000F9D1122208A92846FCF738FF044600280A
:10BD800054D111238DF82030FB8BFF228DF8212018
:10BD90005BBA042208A92846ADF82230FCF726FF3A
:10BDA0000446002842D1B5F81E80F98B414489B27F
:10BDB0002846FCF718FEFB8B009521464246384684
:10BDC000FCF762FFD6F8100100F6EC6007F05DF9B1
:10BDD00011AC034600F1100E18685968224603C2E0
:10BDE000083373451446F7D1B6F8AA30D6F81001D7
:10BDF0005BBAADF852304FF2BF03ADF8563090F950
:10BE000014308DF85830002300930DAA294600F510
:10BE10008E7011F01FF8044640B93846FCF7DFFD7C
:10BE200000E0032420463CB0BDE8F0812846F5E759
:10BE30000C450300FFF726BF002303608380837156
:10BE4000C371704702700022A0F80221C0F80411EB
:10BE500070470023A0F8023151B10378D0F80401F3
:10BE60000E2B4FF0FF320CBF0121022116F014BC43
:10BE70007047431CB0F802011844834206D21A7876
:10BE80008A4204D05A7802321344F6E70023184657
:10BE90007047FFF7EEBF2DE9F74FB0F802310C46BF
:10BEA000451CEB186822002120460193F4F74AFA5A
:10BEB00004F1100A04F1200B019B9D4280F0D68012
:10BEC0002B78052B00F0B0801CD8022B00F092805C
:10BED00008D8002B65D0012B00F0BF806B780233AF
:10BEE0001D44E9E7032B00F0AE80042BF6D16A78FD
:10BEF000A91C04F14C0026F041F994F8653043F098
:10BF0000020357E00E2B31D00FD8072B7FD00C2B1C
:10BF1000E4D16B885BBAA4F85C302B7984F85E308E
:10BF200094F8653043F0040344E0342B58D0352BAB
:10BF300043D0332BD2D1A91C05F1080000220023E5
:10BF40004FEA032949EA12694FEA022811F8012B46
:10BF50000023814242EA080243EA0903F0D1C4E91E
:10BF6000022394F8643043F0020317E0A91C05F1A2
:10BF70000800002200231F0247EA1267160211F888
:10BF8000012B0023814242EA060243EA0703F2D171
:10BF9000C4E9002394F8643043F0010384F864306A
:10BFA0009CE7B5F803305BBAA4F84A3094F86530E2
:10BFB00043F0010384F8653090E76978AB1C1944BD
:10BFC0008B428BD21A783AB9D3F80230236694F8B0
:10BFD000653043F00803EDE75A7802321344EFE787
:10BFE000D5F80200FDF70AFA94F86430606443F073
:10BFF0004003D3E72A4652F8023FC4F83130536871
:10C00000C4F8353094F8643043F01003C6E72A468C
:10C0100052F8023FC4F839305368C4F83D3094F800
:10C02000643043F02003B9E7AB1C524605F112011E
:10C0300053F8040B42F8040B8B42F9D194F86430A6
:10C0400043F00403AAE76A78A91C584626F096F83C
:10C0500094F8643043F00803A0E76B885BBAA4F857
:10C06000483094F8643043F0800397E703B0BDE8AC
:10C07000F08F08B50178FFF7FCFE00B1023008BD73
:10C0800038B50D46FFF7F5FF04462846FFF7F1FFE8
:10C09000014620B9201C18BF0120404238BD24B100
:10C0A0002046BDE8384002F0D5B8012038BD1FB5A4
:10C0B00004AA4FF4807322F8023D0346044613F8A5
:10C0C000011B00920E290CBF012102210022D0F891
:10C0D000040116F071FA28B9BDF80E30A4F8023147
:10C0E00004B010BD0023F9E703780E2BB0F802313D
:10C0F0000CBF0121022123B91A46D0F8040116F021
:10C10000CBBA421CD0F8040116F0ACBA38B50446DC
:10C110001D460846631C11462A46FCF7CEFCA4F8CF
:10C120000251002038BD2DE9F3410378B0F80261D7
:10C130000E2B0CBF182319230F468DF8043005462B
:10C14000A6F10A03022201A938468DF80530FCF752
:10C150004DFD8046A0B96C1C2644B44210D22A780A
:10C1600023789A4203D1637802331C44F5E762785E
:10C17000214602323846FCF739FD0028F3D08046CC
:10C18000404602B0BDE8F08138B50446631C154650
:10C19000CB1AB4F8022155FA83F30846D21A29447F
:10C1A00025F0F7FFB4F80221521BA4F8022138BD94
:10C1B00070B50E460978B0F802410546FFF759FE02
:10C1C000C4F58074A4B2014618B1437802331C440C
:10C1D000A4B273780233A34218D829B14A78023244
:10C1E000D2B22846FFF7D0FFB5F802317278681C4A
:10C1F00002323146184425F0C1FF7378B5F80221A8
:10C2000002331344A5F80231002070BD032070BD35
:10C2100030B5027885B00C460E2A18BF3322054689
:10C2200008230DF106008DF804208DF80530FFF786
:10C2300003FE2368CDF8063001A96368CDF80A3003
:10C240002846FFF7B5FF05B030BD10B50446FFF72F
:10C2500010FE014638B1427802322046D2B2BDE823
:10C260001040FFF791BF10BD38B50D460446B1F838
:10C2700002210130013125F081FFB5F80231A4F827
:10C28000023123780E2B07D133212046FFF7DDFF43
:10C2900034212046FFF7D9FF002038BDF8B5044609
:10C2A00008461F460D46164610F080FA32460146F3
:10C2B0002046FFF7C7FD284610F078FA32460146BF
:10C2C00004F58470FFF7BEFD6A680E4BC4F818329F
:10C2D00002F5824204F505730432C4F81422C4F84E
:10C2E00028320022069BC4F81052C4F81C42C4F83D
:10C2F0002022C4F82422C4F82C72C4F8303220461C
:10C30000F8BD00BF13C9000070B50546D0F8100293
:10C3100086B000F6EC6006F0EAFC98B105F584738F
:10C32000B3F802615C1C2644B4425FD223780C2B24
:10C3300014D8DFE803F009172129133B1344131322
:10C3400013134C002B46EBE7B4F80310D5F810029A
:10C3500049BAC9B200F67420FDF741FA6378023396
:10C360001C44E1E76188D5F8100249BA89B200F6A9
:10C370007420FDF741F9F1E7D5F81002A11C00F691
:10C380007420FDF743F9E9E71122002101A8F3F732
:10C39000D9FFA11C627801A825F0F0FED5F81002A3
:10C3A00001A900F67420FDF715F9D7E7D5F81002BA
:10C3B0006278A11C00F6C81004F0DAFCCEE7D5F8CC
:10C3C0001002A11C00F6EC6006F0B7FEC6E761881B
:10C3D000D5F8100249BA89B200F6C81004F0AEFDD3
:10C3E000D5F81032227983F86C2AB7E7002006B01E
:10C3F00070BD38B504460D4600F58470FFF734FF74
:10C4000029462046FFF73CFE30B129462046FFF77B
:10C410002BFF2046FFF768FE002038BD70B500F501
:10C4200084760D4631460446FFF72AFE0223002893
:10C430002B700DDD4FF484723146204625F09EFEB0
:10C440002046FFF751FE2B7843F001032B7070BD9F
:10C4500005D04FF47A7104F50570FCF7D1FF70BD7B
:10C4600038B504460D4612B90121FFF7F2FC04F578
:10C4700084700021FFF7EDFC20462946FFF7CEFF30
:10C48000002038BDF8B500F5847605460F463046E5
:10C4900011461A469DF81830FFF738FE044638B9A1
:10C4A00039463046FFF7B4FE07992846FFF7B6FF36
:10C4B0002046F8BDF0B5A7B0054602A816461F46AF
:10C4C00010F05DFF02A810F024FFD5F81002002242
:10C4D00002A9B83010F070F90446B8B110238DF8F5
:10C4E00004300322012301A98DF805308DF8067070
:10C4F000FCF77CFB38B9D5F8100232462146B8303B
:10C50000FCF73EF910B12046FCF769FA27B0F0BD00
:10C510002DE9F047A4B006466846174699469DF8AF
:10C52000B08010F02CFF684610F0F3FED6F8100231
:10C5300000226946B83010F03FF9054600283AD08D
:10C54000B8F1000F11D0002406F5847AE3B2434518
:10C550001FDA19F80310052939D1D6F8103293F9EA
:10C560006C3A002B33DB0134F0E7B6F80A8206F2AE
:10C570000914A04444450CD22378052B1ED1D6F8CB
:10C58000103293F96C3A002B18DB637802331C44A9
:10C59000F0E79DF88030E98B994204D1013989B2E6
:10C5A0002846FCF720FAD6F810023A462946B83059
:10C5B000FCF7E6F8C0B924B0BDE8F0876278214600
:10C5C00002322846FCF712FB0028DED00CE0504671
:10C5D000FFF75FFC01460028C5D04A7828460232A2
:10C5E000FCF704FB0028BED02846FCF7F8F9E2E788
:10C5F0002DE9F043B2F82090C5B006460F46154627
:10C600009846EB8B994522DA03AB0222494628462D
:10C61000FCF753FA9DF80C309DF80D400D2B11D10D
:10C6200009F1020104AB224689B22846FCF745FA1B
:10C63000009404AB424639463046FFF769FF45B0E7
:10C64000BDE8F08302344C441FFA84F9D9E7002492
:10C65000EEE7FFF7CDBFFFF7CBBF000037B50446CD
:10C660000C4D00950E220C4BFFF718FED4F810026B
:10C670000A4BC4F838320023C4F83452C4F83C42A0
:10C68000C4F8403204F50D71B830FBF780FF204646
:10C6900003B030BD2A4503002545030053C6000002
:10C6A00010B50446FFF703FD20B92046BDE8104051
:10C6B000FFF72ABE10BD07B50A460DF10701FFF7C7
:10C6C000CFFE03B05DF804FB70B50446FFF791FEA2
:10C6D000054690B92046FFF717FED4F8100290F8EF
:10C6E000FB3E042B09D142F2300630440EF020FB11
:10C6F000D4F8100230440EF02CFB284670BD30B543
:10C7000085B00DF10F0401949DF82040009405467A
:10C71000FFF7B8FE044610B92846FFF7F5FD20469E
:10C7200005B030BD73B50E46184D0095184B332239
:10C730000446FFF7B3FD7368D4F81002C4F83C4216
:10C7400003F582430433C4F8343204F50D72114BFF
:10C75000C4F83832C4F8482200230F4AC4F84032E3
:10C76000C4F84432C4F84C32C4F85032C4F85452BD
:10C77000C4F85822C4F85C42C4F8603204F515715C
:10C78000B830FBF704FF204602B070BD344503000B
:10C790002F45030027CA000057C60000F8B50C4615
:10C7A000164613F0BBFD342107462046FFF771FB08
:10C7B000054670B130683C1AD5F80200FCF71EFE41
:10C7C000844234BF001B0020FCF718FEC5F80200AD
:10C7D0003760F8BD10B500F5137204460146FFF747
:10C7E000DDFF04F5147204F584712046BDE81040A5
:10C7F000FFF7D4BF2DE9F041B6B004462C2200214A
:10C8000007A8F3F79FFD0222002112A810F0A1FB58
:10C81000022112A810F08AFDD4F82C1212A810F0F0
:10C82000F4FC12A810F075FD1F49D4F82C0226F074
:10C8300077F810B92046FFF7CDFFD4F81002002298
:10C8400012A900F58E700FF0B7FF804638B3B4F828
:10C850000221611CFCF7CAF90546E0B9D4F81002C0
:10C8600003AE314600F6EC6006F035FC96E80F00AA
:10C870000BAF87E80F00D4F8100200954FF2BF030A
:10C88000ADF83E3007AA2B46414600F58E7010F0F9
:10C89000E1FA054620B14046FCF7A1F800E0032587
:10C8A000284636B0BDE8F0812F45030070B5044638
:10C8B000D0F8100200F2FC40FFF7DBFB0646D4F88C
:10C8C00010020E2100F65800FFF7E3FAF8B1851CBC
:10C8D000D4F8100200F6EC6006F009FAB0B104F5E5
:10C8E00084712046FFF7CCFB00280FDA2046FFF7C3
:10C8F00081FF2DB12946304601F0ACFC002805DA55
:10C900004FF47A7104F50570FCF77AFD70BD0546A9
:10C91000DEE7FFF7CBBF70B5044604F58476FFF77A
:10C9200059FF34213046FFF7B4FA28B1D0F802009D
:10C93000FCF764FD054600B1FEE7D4F8100231466D
:10C9400000F2FC40FFF7C0FE29462046BDE87040DB
:10C9500000F037B8CA0738B504460D4603D513F0C2
:10C96000DDFCC4F84C02AB071ED513F0D7FC04F570
:10C970000D75C4F850022946D4F83402FCF7BBFC0C
:10C98000342104F58470FFF784FA68B1D0F802000E
:10C99000FCF734FD014620B92046BDE83840FFF7DA
:10C9A000BABF2846FCF72CFD38BD38B50546FFF761
:10C9B0007EFB044618B901212846FFF7CBFF20462D
:10C9C00038BD37B50A460DF107010546FFF748FDAA
:10C9D000044620B99DF807102846FFF7BBFF204604
:10C9E00003B030BD38B50546FFF703FD044618B95E
:10C9F00003212846FFF7AEFF204638BD30B585B08D
:10CA00000DF10F0401949DF8204000940546FFF7B6
:10CA100039FD044620B99DF80F102846FFF79AFF0C
:10CA2000204605B030BDFFF776BF2DE9F041044642
:10CA3000D0F81002158C86B000F6EC6088461646D9
:10CA400006F055F900283FD004F58477F38B9D421A
:10CA500018DA294601AB02223046FCF72EF8A91C51
:10CA60000DF106039DF8052089B23046FCF725F844
:10CA700001A93846FFF79CFB9DF8053002331D44A1
:10CA8000ADB2E3E7D4F81002342300F52C508DF852
:10CA900004301C3004238DF8053001F0FDFAFCF75A
:10CAA000ADFC01A9CDF806003846FFF781FB4146F1
:10CAB0003846FFF7ADFB0DF103012046FFF7AEFC52
:10CAC00002212046FFF746FF06B0BDE8F0810000D6
:10CAD0002DE9F04F9BB0984600238DF81D308DF85E
:10CAE00029308DF815308DF841308DF835308DF8BE
:10CAF00011308DF80D30D0F81032168C93F8FB3EC3
:10CB0000042B04460F46154614D04FF0FF35D4F8D9
:10CB1000103293F8FB3E042B05D12B464246394692
:10CB20002046FFF7C7FC012D0CBF002002201BB0E0
:10CB3000BDE8F08FEB8B9E420DDA02AB022231464C
:10CB40002846FBF7BAFF9DF80930102BDDDC0233D5
:10CB50001E44B6B2EEE72B8CF61AB6F5807FD4DC15
:10CB6000CD49D4F82C0225F0DBFE07AB00284FF0AE
:10CB70000A024FF00E0128460CBF4FF00E0A4FF08C
:10CB8000330A10F071FE0028BFD19DF81D30082B2C
:10CB9000BBD10AAB0A223321284610F065FE18B932
:10CBA0009DF82930082BB0D1BAF10E0F204614BFE2
:10CBB0000DF12A060DF11E06FFF75BFA38B120468B
:10CBC000FFF757FA314601F045FB00289DDD05AB24
:10CBD00005220021284610F047FE002874D00026C8
:10CBE00004AB04220121284610F03EFE70B99DF8E6
:10CBF0001130022B0AD1BDF81230D4F810225BBAE2
:10CC0000B2F8B22A9BB2934218BF01260DAB0A229A
:10CC10000721284610F028FE78B9D4F8100200F653
:10CC2000EC6006F0F1F89DF8352001460DF1360074
:10CC300025F094FA002818BF0126052110AB122216
:10CC4000284610F011FE014670B9D4F8100200F623
:10CC5000C81004F05AF89DF8412001460DF1420039
:10CC600025F07CFA002845D14FF00009BAF1330FC6
:10CC700043D003AB04220B21284610F0F5FD002819
:10CC80005DD1D4F8100200F500500B2130300DF0CA
:10CC900053FF9DF80D30022B7FF437AF00283FF48F
:10CCA00034AFBDF80E20438852BA5BBA92B29BB241
:10CCB0009A427FF42AAFBAF1330F00F0FA80002EC7
:10CCC0007FF423AF01263FE09DF81530032B7FF45E
:10CCD0001CAFBDF8176076BAB3B2A3F10B020F2AEE
:10CCE0003FF613AFD4F8102292F8B46AF61A18BFC0
:10CCF000012675E70126B146B8E79DF841307BB1C2
:10CD0000D4F81002002100F6C81003F0FEFF9DF8D1
:10CD1000412001460DF1420025F020FA0028A8D15B
:10CD2000D4F8100200F20460FFF7A3F90028A0D0A5
:10CD30000DF11E0101F08EFA00289ADCE5E6BAF149
:10CD4000330F40F09B800026B5F820A0EB8B9A456E
:10CD500043DA15AB022251462846FBF7AEFE0AF134
:10CD600002010DF156039DF8552089B22846FBF7C4
:10CD7000A4FE9DF854300B2B28D0342B22D1DDF8A3
:10CD800056B0B9F1000F06D05846FCF737FB434BBD
:10CD9000984240F285805846FCF730FB0190D4F869
:10CDA000100242F61C3B584401F076F9019A904279
:10CDB00008D9D4F81002584401F06EF9FCF71EFBB4
:10CDC000CDF8560015A92046FFF7F2F99DF8553029
:10CDD00002339A441FFA8AFAB8E72046FFF784F92B
:10CDE0004FF484722146A01825F0C8F9D4F8100237
:10CDF00042F2300528440DF09BFFD4F8100228447D
:10CE00000DF0A7FFC6BBD4F8100200F500500921B1
:10CE100030300DF091FE054670B31022002115A8A8
:10CE2000F3F790FAD4F8100200F6EC6006F02DF952
:10CE300015AE034600F1100E18685968324603C259
:10CE4000083373451646F7D10023ADF85C304FF434
:10CE50007F43ADF85E30FE23ADF86030D4F81002A9
:10CE6000AB78EA7800F52C5043EA022315A91C3070
:10CE7000ADF8623001F0CAF8012548E6002E3FF413
:10CE800063AFD4F810022A460DF11E0100F5EA60E6
:10CE9000FFF7CBFDB7E700BF25450300DF93040094
:10CEA0004FF48063ADF856304EF29303ADF858302E
:10CEB00088E720460121FEF7CCFFD4F81012204667
:10CEC00001F20461FFF7D0F9FCE600BF70B501295B
:10CED0000C46049D0BD10A2010F080FC04950346FB
:10CEE000034A20460A21BDE8704013F0A3BA70BD82
:10CEF0003945030070B5002580F862504B6880F812
:10CF0000745503F5824304330446C0F87835274B43
:10CF1000C0F87C35202600F5AF63C4F880053246A2
:10CF2000C0F88C35C0F88455C0F88855C0F89055C5
:10CF300080F89455C0F89855A0F89C55A0F89E55D7
:10CF4000C0F8A055C0F8A455C0F8A855C0F8AC5515
:10CF500080F8B05580F8B155C0F8B4152946423074
:10CF6000F3F7F0F929464FF4257204F16400F3F762
:10CF7000E9F929464FF4A07204F53E70F3F7E2F99F
:10CF80002946D02204F58760F3F7DCF929465822B8
:10CF900004F5A160F3F7D6F91422294604F5AC6034
:10CFA000F3F7D0F926706570204670BD67D2000097
:10CFB00090F8743570B50446FBB1002580F87455BF
:10CFC00000F5876019F036FB04F5A16019F0ECFB61
:10CFD00004F53E7016F0A0F804F1640016F00AFBA8
:10CFE00004F5AC6016F0A7FED4F8A0352BB12946A5
:10CFF000D4F8AC05BDE87040184770BD10B50446C4
:10D0000000F587601AF086FB2046FFF7D1FF00206D
:10D0100010BD90F874057047202A38B504461546AF
:10D0200006D8423025F0AAF884F86250002038BDB6
:10D03000072038BD70B5054690F8B135D0F8A86521
:10D04000D0F8AC05144692B2B047002385F8B1354C
:10D0500010B1032802D0FEE7204670BD004870BD25
:10D060008097FFFFFFF7E6BF38B50446D0F8980574
:10D070000B46A8B1B4F89E5595B1AA4228BF2A46DE
:10D0800092B2B4F89C15FBF718FDB4F89C35034434
:10D09000A4F89C35B4F89E351B1AA4F89E3538BD0B
:10D0A000004838BD0097FFFFFFF7DEBF90F89435CA
:10D0B00010B57BB1D0F88C2500F5AF639A420CD047
:10D0C000D0F8904513F02AF9201A0028CCBF002090
:10D0D000012010BD4FF0FF3010BD022010BDFFF742
:10D0E000E5BFF8B504460D46164600F5AF6742B9F0
:10D0F00084F894253946D0F87805BDE8F840FCF767
:10D10000FAB8012380F8943513F008F93946C4F8C9
:10D110008405C4F88865D4F87805FCF743F913F062
:10D12000FDF82844C4F89005F8BDFFF7DABF70B5E4
:10D13000C8B0044608A815461E4610F0A0FE08A870
:10D1400010F0A9FE4D9B4C9A1A443244520092B200
:10D15000294608A810F0A2FE694608A810F0A0FE13
:10D16000D4F8B405694600F6C81003F0D8FE08A844
:10D1700010F08BFE002048B070BD10B45DF8044B79
:10D18000FFF7D5BF70B50446ADF5407D00F5876566
:10D1900094F87435002B47D0D4F83C34102B18D0B9
:10D1A000284618F0D1FFD4F83C34102B064606D19F
:10D1B000D4F8A0351BB10121D4F8AC059847002E56
:10D1C0000FDDD4F8A435D4F8AC05B2B2694698475F
:10D1D000DEE74FF44072694628461BF07DF90646AB
:10D1E000EDE721D026F0800313F5D24F1CD016F5C1
:10D1F000EF4F1CD008DC16F5F14F18D0D4F83C34B2
:10D20000102B07D028221EE016F5E34F16D016F596
:10D21000D54FF3D1284619F0B3F994F8622004F100
:10D220004201284618F036FF0DF5407D70BD2846B6
:10D230001AF070FA2046FFF7BBFEF5E7D4F83C344D
:10D24000102BE7D01422022128461AF01BFAF1E72E
:10D2500010B5C0F89815A0F89C25A0F89E35FFF7EA
:10D2600091FF002010BDFFF78DBF10F5FE4F05D0D8
:10D2700010F5E24F04D0002804DAFEE703207047DF
:10D2800007207047002070472DE9F743C0F8A43508
:10D290000A9BC0F8A83500250B9BC0F8A0250446C2
:10D2A00000F58767C0F8AC3580F8B015C0F8985520
:10D2B00080F8B15504F5A166384618F0C9FE04F5AA
:10D2C0003E78304619F016FA04F16409404615F02C
:10D2D0001FFF484616F06AF9042016F003F800957F
:10D2E0002B464A463949404615F088FF0546002836
:10D2F00065D194F8B015012203465140304619F02B
:10D30000FDF9054600285AD142463149304618F009
:10D31000A6FE03221146304618F0D9FE032211461C
:10D32000304618F0CFFE2B49304618F0ADFE2246AD
:10D330002949304618F0D0FE4EF660224FF4FA51DB
:10D34000304618F089FE22462449304618F08AFEFD
:10D3500094F8B0358BB904F5AC69484616F0E2FC98
:10D3600042461B49484616F0F3FC054638BB4B467F
:10D370001B4A1C49304616F0A1FD3146384619F0CB
:10D3800097F80546D8B90090174B184A21463846F9
:10D3900018F06BFE164B174A2146384618F06BFE04
:10D3A00094F8622004F14201384618F073FE0546F5
:10D3B00028B9012384F874352046FFF7E3FE284698
:10D3C00003B0BDE8F043FFF750BF00BF07360200CF
:10D3D000C5320200404503007BD10000CDCE0000E5
:10D3E000F13D0200993D0200A9D0000065D0000087
:10D3F000DFD000002BD1000008B500F5876016F0E3
:10D4000033FDBDE80840FFF730BF70B5802AA0B0FB
:10D4100004460D4616461ADC91F83030C3F38303F8
:10D4200080F8B13500216B462846FBF746FB3246B3
:10D43000694604F587601AF0ADFAFFF716FF044657
:10D4400010B92846FBF7CBFA204620B070BD032464
:10D45000FAE74300400803F0AA3300F055301843C0
:10D460008300800800F0333003F0CC33034318010D
:10D470001B0903F00F3300F0F030184300BA704777
:10D4800010B50446084BA360A1610846074BE36052
:10D4900021460023246163616360B83041F8083B92
:10D4A000FBF775F8204610BD4845030047D500003E
:10D4B0002DE9F0411D460F46064690460FCD9EB021
:10D4C00002AC0FC40FCD0FC495E807003B7813F0F2
:10D4D000300F84E8070033D17B78022B30D16B46C4
:10D4E00008223521404610F0BFF948BB9DF80130B5
:10D4F000062B25D19DF8023013BB9DF80330042B79
:10D500001ED10DAB42223921404610F0ADF9B8B919
:10D51000346854B10198FBF771FFFFF79AFF736805
:10D520009DF835200DF13601A0471022002102A8F8
:10D53000F2F708FFB06902AA3946B830FBF72EF9B6
:10D540001EB0BDE8F081FFF7B3BF10B50446FDF78C
:10D550002BFD402200212046F2F7F4FE204610BDAC
:10D5600070B5002545600E46496805600446856033
:10D5700014310C3002F07DFB194B6364E464194BE9
:10D58000A3647368256503F582430433A365164BD2
:10D59000E36504F15803E366666524666566A5667F
:10D5A00004F17000FBF70EFC94F87630606DA4F87F
:10D5B000745003F0FE0365F3410384F876304FF4B2
:10D5C0007A73A38304F14401B830FAF7E0FF074B04
:10D5D000606D84E81800214602F0FCF9204670BD19
:10D5E0000C45030089DC000089DD0000C1D6000085
:10D5F000406D00F5005010B530300C4609210DF09B
:10D600009BFA20B143885BBA2380002010BD19200B
:10D6100010BD08B590F87630DB0702D5B0F874007D
:10D6200008BD406D00F50050122130300DF084FA35
:10D6300018B1408840BA80B208BD4FF47A7008BD76
:10D6400030B50446406D90F8203F9A0787B02ED53C
:10D65000CB052CD5A18B00F6C41001F013FF606D33
:10D6600000F5005030300DF058FA04F10C0500B30D
:10D670001022002101A8F2F765FE00232046ADF834
:10D6800014308DF81630FFF7C4FF2246ADF81400B1
:10D690000A49284602F013FB01A9284602F055FB6F
:10D6A000606DBDF8141000F6C41001F0DCFE07B088
:10D6B00030BD284602F02AFBF9E700BF45D800003C
:10D6C0000B4601461846FFF7BBBF00002DE9F041AD
:10D6D000BCB007460DA80E461446FDF765FC0DF1DB
:10D6E0000A013846FFF784FF0546002840F0A48071
:10D6F0000222102118A80FF02CFC022118A80FF00C
:10D7000015FE4F4918A80FF080FD18A80FF001FE74
:10D71000786D2A4618A900F58E700FF04DF8054671
:10D72000002800F0898012238DF80C30638C4FF0B4
:10D7300002085BBA042203A98DF80D80ADF80E3003
:10D74000FBF754FA002874D1224613238DF81830C1
:10D7500008238DF8193052F8183FCDF81A3006A971
:10D760005368CDF81E300A222846FBF73FFA0028FE
:10D770005FD1786D8DF81180142300F6EC608DF880
:10D78000103005F04AFB40BAADF81200042204A99B
:10D790002846FBF72BFA00284BD11123328C8DF849
:10D7A0001430F38B9B1A5BBAFF228DF81520ADF86D
:10D7B0001630042205A92846FBF718FA002838D1AC
:10D7C000318CF48BA14210DA641AA4B2102C28BF59
:10D7D0001024224609AB3046FBF76FF9214630464C
:10D7E000FBF72FF9224609A9E5E7786D00F6EC6012
:10D7F00005F04BFC11AC034600F11006186859689F
:10D80000224603C20833B3421446F7D1BDF80A30AA
:10D81000786D5BBAADF852304FF2BF03ADF85630B9
:10D82000002300930DAA294600F58E700FF012FB1D
:10D8300010B12846FBF7D3F83CB0BDE8F08100BF3B
:10D8400016450300FFF742BF2DE9F047E2B08046DE
:10D8500013A80E469146FDF7A7FB1EA8FFF775FE1D
:10D86000022200213EA80FF074FBBA493EA80FF037
:10D87000CCFC3EA80FF04DFDD8F8540000223EA984
:10D8800000F58E700EF098FF0746002800F05B81CF
:10D8900090F83030042262F3850380F83030D8F8F5
:10D8A000540005238DF824300021102300F6C81001
:10D8B0008DF8253003F029FA0DF1260300F110024E
:10D8C00050F8041B43F8041B9042F9D1122209A915
:10D8D0003846FBF78BF90446002840F03681D8F82B
:10D8E00054000723082500F6EC608DF80C308DF805
:10D8F0000D5005F089FA0368CDF80E304368CDF875
:10D9000012300A2203A93846FBF770F904460028B2
:10D9100040F01B8102238DF81830D8F854308DF870
:10D920001950D3F8C72ACDF81A20D3F8CB2ACDF84E
:10D930001E2006A90A223846FBF758F9044600289B
:10D9400040F0038103238DF83830D8F8543003F6C3
:10D95000B62A102150468DF8391025F02AF8514684
:10D96000044602460DF13A0024F008FCE2B28DF8BC
:10D9700039200EA902323846FBF738F90446002850
:10D9800040F0E380D8F854000E2100F20460FEF766
:10D9900080FA0146002800F0AE8042780232384614
:10D9A000FBF724F90446002840F0CF80D8F8540053
:10D9B000352100F20460FEF76CFA0146002800F001
:10D9C000A880427802323846FBF710F90446002856
:10D9D00040F0BB80D8F85400042100F20460FEF748
:10D9E00058FA0146002800F09C80427802323846FE
:10D9F000FBF7FCF80446002840F0A780D8F8540054
:10DA00000C2100F20460FEF744FA0146002800F001
:10DA10009180427802323846FBF7E8F80446002845
:10DA200040F0938004238DF80530D8F85430D3F8B3
:10DA3000E03906221BBA01A938468DF80420CDF83A
:10DA40000630FBF7D3F8044600287ED10FCE13AD85
:10DA50000FC50FCE0FC596E807004FF2BF0385E84C
:10DA60000700ADF86E3012F059FC064632362EA88B
:10DA7000FDF79AFA399613AE0FCE0DF1B80EAEE857
:10DA80000F000FCEAEE80F0095E807008EE8070004
:10DA900009F102033AAD09F11209186859682A46DA
:10DAA00003C208334B451546F7D12EAD0FCD1EAE40
:10DAB0000FC60FCD0FC60FCD0FC695E80F0086E835
:10DAC0000F0040221EA93846FBF790F8054670B9B2
:10DAD000394608F17000FBF741FAD8F86C3008F1CC
:10DAE0005800984203D13221FBF78AFC2C4620468D
:10DAF00062B0BDE8F0870E238DF8B8308DF8B950CC
:10DB0000CDF8BA40ADF8BE40ADF8C0400A222EA90B
:10DB100045E735238DF8B8308DF8B90002222EA9DB
:10DB200051E704238DF8B83010238DF8B930122254
:10DB30002EA95CE70C238DF8B83003238DF8B9309B
:10DB400005222EA967E70324D1E73846FAF747FFF5
:10DB5000CDE700BF4D4503002DE9F0410C4698B0DC
:10DB600007460DA81646FDF71FFA237803F0300389
:10DB7000102B40F082806378022B7ED104AB04220C
:10DB8000122130460FF070FE002876D19DF811303A
:10DB9000022B72D105AB0A22132130460FF064FE2E
:10DBA00000286AD19DF81530082B66D10DF10E03BF
:10DBB00003AA112130460FF077FE044600285CD1FD
:10DBC00007F10C080146404602F0DCF80546002843
:10DBD00053D02146FBF763FA95F8303064F3C7134E
:10DBE00085F83030BDF80E30BDF80C10D3B1102BD5
:10DBF00028BF10231C46224608AB3046FAF75DFFCB
:10DC0000224608A92846FAF7F1FF002838D1BDF8C6
:10DC10000C302344ADF80C30BDF80E301C1BADF8B1
:10DC20000E40DFE71A4600953046FBF72DF818AA9C
:10DC300048F2FE0352F84A0DADF84430516813AB78
:10DC400003C3BDF812305BBAADF856307B6D0DAA38
:10DC500093F914308DF858302946404602F098F870
:10DC600070B908AB1222152130460FF0FDFD20B926
:10DC700008AA0DA93846FFF7E7FD18B0BDE8F08106
:10DC80002846FAF7ACFEF8E7FFF766BF73B504461F
:10DC9000406D0D4616460C49224600F58E700EF07A
:10DCA000BCFE606D0094084B3246294600F58E702C
:10DCB0000FF0D0F828B994F8763043F0020384F8D6
:10DCC000763002B070BD00BF8DDD00002DE9F0415F
:10DCD00007469CB00CA807F17005FFF736FC2846F4
:10DCE000FBF7ADF8064612F019FB044601A8FDF754
:10DCF0005BF906B3FB6E07F1580898451BD1F18B11
:10DD000040390CAB402289B23046FAF7D6FE97F87C
:10DD100076309B0707D5786D102218A900F6582099
:10DD200024F01CFA38B91799631A002B06DA091B7C
:10DD30004046FBF765FB1CB0BDE8F0813146284644
:10DD4000FBF751F9F18B403989B23046FAF74BFEB7
:10DD5000786D18A900F6C8100CAD03F0E0F80FCDEF
:10DD600001AC0FC40FCD0FC495E8070084E807008D
:10DD700001AA31463846FFF789FF0028DBD030463C
:10DD8000FAF72DFE0021D3E7FFF7A0BF90F8762029
:10DD90006FF3410280F87620FFF798BF10B5044674
:10DDA000184B2360184B6360184BA4602361A46177
:10DDB000174B63614B68C4F8801003F5824304334A
:10DDC0002362144B636204F12003636347F2305310
:10DDD0000022A36308464FF6FF73E260E261E2624D
:10DDE0002263A4F87E302146A462B830FAF7CFFB54
:10DDF000D4F8800004F11001B830FAF7C8FB2046CF
:10DE000010BD00BFEA440300A3DF00000745030084
:10DE100065E100007BE100002DE9F041A6B0054678
:10DE200002A8174698460FF0AAFA02A80FF071FA56
:10DE3000D5F88000002202A9B8300EF0BDFC0646DD
:10DE4000002844D010238DF80030032201236946B6
:10DE50008DF801308DF80280FAF7C8FE044690BBB9
:10DE60006A6B05F120039A4222D1B8F1010F12D159
:10DE70000B238DF8043002238DF80530B5F87E3081
:10DE800004225BBA0DEB02013046ADF80630FAF71A
:10DE9000ADFE0446B8B9D5F880003A463146B830F0
:10DEA000FAF76EFC044670B9204626B0BDE8F08152
:10DEB00095F83D2005F13C0102323046FAF796FE16
:10DEC00004460028D1D03046FAF789FDECE7032458
:10DED000EAE72DE9F04798B00446884610461D460B
:10DEE000422207AB0A210FF0BFFC064648B14FF0B3
:10DEF000FF332A4641462046FFF78EFF18B0BDE8A3
:10DF0000F0879DF81D30402BF1D8636B04F120079A
:10DF10009F42ECD10923E97F8DF80030AB7F43EAC3
:10DF20000123ADF80230B4F87E3001339BB20222F7
:10DF3000A4F87E305BBA01468DF801204FF00B0942
:10DF40008DF80520ADF80630102208230DF10A00E7
:10DF50008DF804908DF80830F2F7F4F9D4F88000C9
:10DF60008DF80A6000F500504FF0010A4A466946F4
:10DF700030308DF809A00CF00AFE0028B7D14222FB
:10DF800007A904F13C0024F0F9F812F0C7F94CF2AB
:10DF90005033E06223633946206AFBF703FA5346A5
:10DFA000A7E7FFF796BFF0B5A7B0064602A8174649
:10DFB0001C460FF0E4F902A80FF0ABF9D6F8800088
:10DFC000002202A9B8300EF0F7FB0546D0B11023AD
:10DFD0008DF804300322012301A98DF806408DF845
:10DFE0000530FAF703FE044640B9D6F880003A46F9
:10DFF0002946B830FAF7C4FB044620B12846FAF7A0
:10E00000EEFC00E00324204627B0F0BDF0B5B3B02D
:10E0100006462C220C4603A80021F2F793F90222AF
:10E0200000210EA80EF095FF02210EA80FF07EF938
:10E0300018490EA80FF0E9F8D6F8800000220EA9C2
:10E0400000F58E700EF0B8FB0546F8B1234603F1DB
:10E05000100707AC18685968224603C20833BB4250
:10E060001446F7D14FF2BF03D6F88000ADF82E303A
:10E070000023009303AA294600F58E700EF0EAFEF5
:10E08000044620B12846FAF7AAFC00E00324204603
:10E0900033B0F0BD1B450300806B704707B50B2301
:10E0A0008DF8043002238DF80530B0F87E3001334E
:10E0B0009BB2A0F87E30D0F88000042200F500501A
:10E0C0005BBA0DEB02013030ADF806300CF05FFDAD
:10E0D00003B05DF804FB2DE9F341154604460E46F6
:10E0E0001F4603226B46102128460FF0BDFBB0BB34
:10E0F0009DF80130012B32D101AB04220B212846BF
:10E100000FF0B2FB58BB9DF80530022B27D1BDF8AC
:10E110000630B4F87E205BBA9BB29A420CD19DF8CF
:10E120000250012D04F1200809D0206A4146FBF776
:10E13000E2F82046FFF7B2FF4FF0FF330AE012F09B
:10E14000EDF84CF25033E06223634146206AFBF75E
:10E1500029F92B463A4631462046FFF724FF02B004
:10E16000BDE8F081FFF7B7BFD0F8803093F8FB3EF1
:10E17000042B01D1FFF792BF7047FFF7F5BF0000F6
:10E1800010B50446084AA2600023084AA161084667
:10E1900023606360E2602461636104F10801B830C8
:10E1A000FAF7F5F9204610BD5245030051E2000090
:10E1B0002DE9F0411D460F46064690460FCD8EB024
:10E1C00003AC0FC40FCD0FC495E807003B7813F0E4
:10E1D000300F84E8070038D17B78022B35D16B46AD
:10E1E0000422012140460FF03FFB70BB9DF8013037
:10E1F000022B2AD101AB0822352140460FF034FB17
:10E2000018BB9DF80530062B1FD19DF80630E3B9E9
:10E210009DF80730042B18D134685CB10298FBF7E5
:10E22000EDF8FFF716F9BDF8023072685BBA0146E7
:10E2300098B2A0471022002103A8F2F783F8B06932
:10E2400003AA3946B830FAF7A9FA0EB0BDE8F08152
:10E25000FFF7AEBFF0B500F1050C00F1FF3E002264
:10E2600000231D0245EA126514021EF8012F002347
:10E27000E64542EA040243EA0503F2D101F1FF3E1A
:10E2800001F1050C002400252F0247EA146726023D
:10E290001EF8014F0025E64544EA060445EA070555
:10E2A000F2D1AB4208BFA242C088C98813D39D42B5
:10E2B00008BF94420CD343BA4ABAC3F34E03C2F325
:10E2C0004E029A4207DCB4BF4FF0FF300020F0BD91
:10E2D0004FF0FF30F0BD0120F0BD002202600122AE
:10E2E0008280827181607047026813461BB18B4245
:10E2F00005D09B68FAE78A600160184670471A20CB
:10E3000070472DE9F0411D460646884617460FCD59
:10E310008EB003AC0FC40FCD0FC495E8070084E89E
:10E3200007000021B06800F053F9054618B330210A
:10E33000FAF759FB0446D0B9149B28220821284635
:10E34000FAF706FC214601AB08222846ADF8064044
:10E3500002948DF804808DF80570FAF7F9FB3A23E2
:10E3600003AA2946B06800F00EFD044620B12846F5
:10E37000FAF735FB00E0032420460EB0BDE8F0813B
:10E380002DE9F043074691B08846164600212C221D
:10E3900005A8F1F7D7FF00218123B8688DF80D108B
:10E3A000ADF80E1004918DF80C3000F011F905460F
:10E3B00000284ED0B8F81E40B8F82030E41AA4B2B5
:10E3C0002146FAF710FB8146002844D1014603ABF1
:10E3D00004222846FAF7BCFBB8F820100095231F4A
:10E3E00004319BB24046042289B2FAF74DFC06F193
:10E3F000100309AC06F1200E9846186859682246A9
:10E4000003C2083373451446F7D1304600F0FBFED3
:10E4100048B9334605AC18685968224603C2083328
:10E4200043451446F7D196F824308DF8383005AAC4
:10E430003A232946B86800F0A6FC814658B903ABD8
:10E440000822298C2846FAF738FB484611B0BDE867
:10E45000F0838146F9E72846FAF7C1FAF5E7F7B500
:10E460000C46074616466B460822098C2046FAF7EA
:10E4700024FB08282ED1238CE58BED1AADB23A236C
:10E480002A46314606F1100000F0BEF82B46014640
:10E49000228C2046FAF75BFC4FF6FF73984219D1A5
:10E4A000BB791BB19DF80030802B0DD00821204690
:10E4B000FAF7C7FA3D686DB12F6868686B46324657
:10E4C0002146B847AD68F6E7324621463846FFF7A1
:10E4D00057FFEBE7002003B0F0BD13B50C46ADF8D5
:10E4E00006201146E38B228C9B1A9BB22046FAF73A
:10E4F0002EFC4FF6FF73984218BFC043ADF80600DC
:10E50000BDF80620218C02AB52BA023123F8022D4D
:10E5100089B202222046FAF71BFB002002B010BD90
:10E52000437C5A0701D400F0FBBEC3F3C30070471D
:10E530008A1E01230370427000210230F1F702BFEE
:10E5400070B50146044601F0D1F9214604F10800F6
:10E55000FFF7C3FE214604F1140001F09EFB2146A3
:10E5600004F1200000F0C4FF04F58146A4F58041C9
:10E570003C397C3604F1E000FAF76BFC3046FAF7E0
:10E5800052FE04F582400430FAF792FE44F208137A
:10E59000002504F58240E5540C30FAF754FC04F5EC
:10E5A00082402346094A31461C30FAF736FE44F2CF
:10E5B0002C132046E55044F23013E55044F2341356
:10E5C000E55444F23813E55070BD00BFABF10000D4
:10E5D00001F1300292B20021E030FAF79DBD10B592
:10E5E000002494420CDA0B5D14F0010F08BF1B02EB
:10E5F00003449BB28342B8BF013398B20134F0E7C1
:10E6000010BD1022FFF7EBBF10B513449BB29A4226
:10E61000C8BF01330C46014698B2FFF7F2FF21460E
:10E62000BDE81040FFF7EDBF44F22C13C15044F297
:10E630003013C250704730B587B093798DF80430ED
:10E640000D460023144602A9083220308DF805300B
:10E6500000F07CFF9DF8093004335B0715D19DF86D
:10E6600009200232D2B202A92846FAF7D7FAD0B965
:10E67000022201A92846FAF7D1FAA0B9A388A0710D
:10E680005BBA08335BBAA3800DE0022104A8FFF750
:10E690004FFF9DF811200232D2B204A92846FAF7A2
:10E6A000BDFA0028DBD007B030BD2DE9F0470E469B
:10E6B0008EB004AB282200213046FAF7FEF99DF80F
:10E6C0001650002D6FD101AB022228213046FAF7F7
:10E6D000F4F99DF80570F38BFF0007F10808303757
:10E6E000BB4260DBA946AA462A24A74229DD02AB29
:10E6F000022221463046FAF7E0F99DF80830012B56
:10E7000015D011D36D2B9DF8093015D12A2C9946BF
:10E7100069D19DF80520002A65D1012502332344E3
:10E720009BB2A2461C46E0E7631C9BB2FAE79DF849
:10E73000093002332344F8E7023323449BB2002517
:10E74000F0E7BC422FD1002D3DD008F120081FFA80
:10E7500088F8A8F10804A4B202AB0822214630468A
:10E76000FAF7ABF9414602AB08223046FAF7F0F966
:10E77000072CA046EDD808213046FAF78BF9BAF1FC
:10E780002A0F14D19DF804308DF81630BDF81430DE
:10E790005BBA083B5BBAADF81430282204AB002109
:10E7A0003046FAF7D5F900200EB0BDE8F0879DF8A5
:10E7B0000530013B8DF80530022201AB282130469F
:10E7C000FAF7C6F9E2E7BAF1000FECD009F102015D
:10E7D000C9B202A8FFF7ACFE9DF80920023202ABD5
:10E7E000D2B25146DCE704F10802974208BF012586
:10E7F00094E710B5044600F582400C30FAF714FC9B
:10E8000004F582401C30BDE81040FAF729BD2DE91F
:10E81000F3410C460746098C1646984602226B4681
:10E820002046FAF74AF90228014642D19DF80150E4
:10E830006B1C258C05EBC305E38BADB29D4238DC28
:10E840002046FAF7FEF80836218C8D422FDD01AB09
:10E8500002222046FAF731F902282AD19DF8043025
:10E8600023B901212046FAF7ECF8EDE79DF80520E1
:10E87000218C02320A44AA421BD86D2B0BD198F886
:10E8800000303246214607F1200000F048FF50B129
:10E8900002B0BDE8F08103F0C003802B09D0C02B8B
:10E8A00007D0402B05D09DF805100231DAE7002093
:10E8B000EEE70220ECE737B50D466B46098C0822DF
:10E8C0002846FAF7FAF80828014608D1BDF80230C0
:10E8D0005BBA9BB2DA0802D113F0010402D0022025
:10E8E00003B030BD2846FAF7ACF82046F8E72DE92A
:10E8F000F3419DF8247006460C4690461D460FB91C
:10E900002B7873B901AB0222218C2046FAF7D5F897
:10E9100002281CD12B782C2B10D004D83BB12B2BE8
:10E9200015D0002014E03B2B11D03C2BF9D108ABC3
:10E93000424621463046FFF76AFF03E02146304653
:10E94000FFF7B9FF20B99DF804302B70D7E70220FC
:10E9500002B0BDE8F081112B03D03A2B04D0002087
:10E960007047143001F05BBA0830FFF778BDF7B597
:10E970001F469DF8203005460C461646002B42D116
:10E9800044F22C13C35813B9042003B0F0BD44F271
:10E990003413C35C1BB3104600F090FC0028F3D185
:10E9A00006F1100000F08AFC0028EDD1112F0ED0E6
:10E9B0003A2F14D1AB7B93B16B460822218C2046B1
:10E9C000FAF77BF89DF80030802B08D1DCE7304661
:10E9D00000F00CFCD8B9304600F0B8FCB8B9E18BB7
:10E9E0002046FAF7BFFB044678B101462846FFF7F8
:10E9F0005CFE44F2301244F22C132046EB58A95826
:10EA000098470020C1E70220BFE70320BDE76B461F
:10EA10000822218C2046FAF750F8BDF802305BBA84
:10EA20009BB244F64C529342CFE744F238128358DB
:10EA30001BB981500020886270478B420AD093F93D
:10EA4000140091F91420904204D09A6A002AF4D15B
:10EA50009962EFE71A20704744F2381283588BB15D
:10EA60008B4204D18B6A8350192008E013469A6ABE
:10EA7000002AF9D09142F9D18A6A9A6200200023D3
:10EA80008B6270471920704744F23813C05828B180
:10EA900090F914308B4201D0806AF8E7704738B59E
:10EAA00044F238130D46C45834B12946204601F0CB
:10EAB0000BF810B9A46AF7E7204638BD2DE9F74FE7
:10EAC00044F23813002691F924B050F803908A4696
:10EAD00001F110083446B9F1000F6DD099F91470A6
:10EAE000D9F80C50002D62D0404600F07FFB002882
:10EAF00068D1404600F087FB002863D1284600F02B
:10EB0000EBFBE8B9002C4FD04146284600F04EFC04
:10EB100000284FD12846FFF703FD01902046FFF75C
:10EB2000FFFC019B834228460CDAFFF7F9FC0190B9
:10EB3000404600F0F5FB019B8342A4BF3E462C46B5
:10EB40006D69CFE7FFF7ECFC01902046FFF7E8FC8A
:10EB5000019B83420CDD2046FFF7E2FC019040461A
:10EB600000F0DEFB019B8342BCBF3E462C46E7E73C
:10EB70006B7CDA0702D5637CDB0715D59AF9243064
:10EB80001BB1BB4201D1BE420ED12946404600F026
:10EB9000F5FB21460190404600F0F0FB019B8342CB
:10EBA000C4BF3E462C46CBE73E462C46C8E7D9F8C4
:10EBB000289090E73E462C4620468AF8246003B011
:10EBC000BDE8F08FBB45BBD198E72DE9F0411D466C
:10EBD000074690460E460FCD96B00BAC0FC40FCD36
:10EBE0000FC495E8070084E807000FAC102200214D
:10EBF0002046F1F7A7FB40F2FF33ADF83C304FF46D
:10EC00007C43ADF84A300023019360238DF8043033
:10EC100040238DF80B30B8F804305BBA28335BBA68
:10EC2000ADF8083094E80F0007AD85E80F00292300
:10EC30000BA938468DF80A30FFF740FFC8B10346EC
:10EC400003AC00F1100518685968224603C2083366
:10EC5000AB421446F7D101AA31463846FFF7EBFC28
:10EC600020B9282201A93046F9F7D8FF16B0BDE82F
:10EC7000F081FF20FAE72DE9F04102F1180588B094
:10EC8000074628460C461646984600F0BCFA18B9C6
:10EC9000002008B0BDE8F081284600F041FB0228C2
:10ECA000F6DD284600F05EFB30B943463246214689
:10ECB0003846FFF78AFFECE728212046F9F7EAFEFD
:10ECC00096F80680B8F1000F55D103AB02224146F9
:10ECD0002046F9F7F2FE9DF80D500222414601351B
:10ECE00003AB20468DF80D50F9F732FF082241465C
:10ECF0002046F9F793FF0028CBD1ED0005F0F80589
:10ED00002B460246082100942046F9F7BDFF06F184
:10ED1000080204A907F1200000F018FC9DF811205A
:10ED20000232294604ABD2B22046F9F711FF9DF812
:10ED30001110023111F0070112D0C1F10801C9B25E
:10ED400006A8FFF7F5FB9DF819209DF81110023277
:10ED5000023106ABD2B255FA81F12046F9F7F8FE3E
:10ED6000B3885BBA08335BBAB380282231462046A9
:10ED7000F9F754FF8DE7324621463846FFF75BFC32
:10ED8000002886D1F1E72DE9F04F8BB09846B1F815
:10ED90001E908DF806800023009360238DF80030CC
:10EDA00099FA99F3ADF8043092F82530002B08BF9A
:10EDB0004023074610460E4614468DF8073000F0F3
:10EDC000FAF9002840F08480204600F01CFA002860
:10EDD0007ED1234602AD04F1100E186859682A4608
:10EDE00003C2083373451546F7D10BE0034602AD65
:10EDF00000F1100E186859682A4603C2083373459B
:10EE00001546F7D104F1100306AA04F1200E9B4623
:10EE1000924618685968154603C5083373452A4653
:10EE2000F7D1504600F0E2F9002859D1504600F0E1
:10EE30008DFA002854D1584600F094FA00BB2822DD
:10EE400069463046F9F7EAFE054608BB584600F029
:10EE5000DAF908BB4A464346514602A8FFF7D4FBFD
:10EE6000B8F1110F024624D0B8F13A0F2AD094F924
:10EE7000243086F82D3031463846FFF7BAFC07E0DB
:10EE80006A4631463846FFF7D6FB05460028D6D0FD
:10EE900028460BB0BDE8F08F584600F041FA032831
:10EEA000D8DD23466A4631463846FFF78EFE38B92C
:10EEB000D0E7314607F1140001F026F80028D6D03B
:10EEC0000546E5E7314607F10800FFF706FBF5E7E1
:10EED00021463846FFF7F2FD002887D1FF25D7E706
:10EEE00094F92430002BA6D10225D1E744F238133F
:10EEF00070B5C4580E467CB1E5685DB13146284610
:10EF000000F03CFA2B7C984202DB94F9140070BDAF
:10EF10006D69F2E7A46AEEE74FF0FF3070BD38B5D7
:10EF2000054608460C4600F06EF910B194F924002D
:10EF300038BD204600F05AF90028F7D1214628466E
:10EF4000FFF7D4FF002808DC224604F11001284610
:10EF500000F0D0FC20EAE07040B238BD2DE9F04F5F
:10EF60009BB00FAF0C46039300219DF894300293A1
:10EF70000646914638462C22F1F7E4F905AB2822E3
:10EF800000212046F9F799FD282804D002252046C3
:10EF9000F9F725FD7FE09DF8143003F0F003602BB6
:10EFA000F4D1BDF81830E28B5BBA9BB228339342A0
:10EFB000ECD1B3F5A06FE9D807AB0FCB13AD85E863
:10EFC0000F000BAD95E80F0087E80F009DF80C309F
:10EFD0008DF860309DF81B308DF861302846249BF9
:10EFE000199300F010F988B929463046FFF757FD0C
:10EFF0008246B0B9284600F0F9F8002800F0B48045
:10F00000B9FA89F84FEA5818D3460FE0B9F1000F62
:10F0100000F09E802946484600F0E9FC8046002822
:10F020003DD04FF0000BD8464FF0010A9DF80C3050
:10F0300084F82D3028212046F9F710FD1AAB9DF8F1
:10F040001A2003F8562D21468DE8000505AA304602
:10F05000FFF74DFC0546002899D144F20813F35CF4
:10F0600023B9B9F1000F18BF4FF00008BAF1000F33
:10F070003DD09DF81230292B15D1218C2046F9F76F
:10F0800009FD029B0193249B00934A46039B214662
:10F090003046FFF763FF28461BB0BDE8F08F99F8B4
:10F0A00016B08246C2E7029A009221463A4630469E
:10F0B000FFF75DFC9DF812303A4621463046FFF7D7
:10F0C0004AFC90B9B8F1000F3FF461AF39463046C1
:10F0D000FFF725FF0546B8B9029A00929DF8123055
:10F0E0003A4621463046FFF742FC05464FE7BBF162
:10F0F000000FE7D0029A00929DF812303A4621465E
:10F100003046FFF734FCDDE7B9F1000F04D09DF87D
:10F110001B30013B8DF81B309DF81B20002A3FF46B
:10F1200035AF1AAB072103F8552D20460122F9F718
:10F130000FFD29463046FFF7A7FC38B1036821468A
:10F140001B68984705460028A5D020E704251EE740
:10F15000029B4BB13B4605AA21463046FFF78BFD8B
:10F16000054600287FF413AF4FF0000B4FF0010865
:10F17000DA465BE7F7B500F5824506460C35002711
:10F180002846F9F798FE044668B101462846F9F783
:10F1900066FF94F92D3001970097002221463046F2
:10F1A000FFF7DCFEECE703B0F0BDFFF7E3BFA0F52F
:10F1B00080403C387047026842B9436833B982687E
:10F1C00022B9C068B0FA80F040097047002070474B
:10F1D00002684AB943683BB982682AB9C06800F13D
:10F1E0007F43584258417047002070470378FE2BF8
:10F1F00007D1407800F0C000A0F180035842584188
:10F200007047002070470078A0F1FF035842584132
:10F210007047026840F2FF239A4209D143683BB924
:10F2200082682AB9C06800F17F435842584170474C
:10F2300000207047026840F2FF239A4209D14368D8
:10F240003BB982682AB9C06800F17E4358425841F0
:10F25000704700207047026840F2FF339A4209D19C
:10F2600043683BB982682AB9C06800F17F435842BD
:10F270005841704700207047026840F2FF339A42BD
:10F2800009D143683BB982682AB9C06800F17E435E
:10F2900058425841704700207047026840F2FF33DF
:10F2A0009A4209D143683BB982682AB9C06800F123
:10F2B00080635842584170470020704703894BB91A
:10F2C0004289B2F57F4F05D18089A0F1FE035842F3
:10F2D00058417047002070470346008960B95A8939
:10F2E000B2F57F4F09D19A89FE2A06D1987BA0F109
:10F2F000FC0358425841704700207047083070475F
:10F30000083070470B6883604B68C36070470B68B8
:10F3100083604B68C360037A83F002030372704713
:10F3200008B50378FF2B024603D1407800F00F00A8
:10F3300008BDFFF75BFF38B91046FFF749FF00280B
:10F3400014BF00200E2008BD022008BD08B50378B8
:10F35000FF2B05D1FFF7E4FF831E5842584108BD3B
:10F36000002008BD08B50378FF2B05D1FFF7D8FFB3
:10F37000C31E5842584108BD002008BD10B50139D0
:10F38000441E002014F8013F11F8012F934204D1CC
:10F390000830C0B28028F5D110BD53401A0604D4FD
:10F3A00001305B00C0B2DBB2F8E710BD08B5102237
:10F3B00022F0D4FEB0FA80F0400908BD08B5102252
:10F3C00022F0CCFE003018BF012008BD00230360EE
:10F3D000704770B591F83040E40992B006460D468A
:10F3E00003D00124204612B070BD08AB282221466C
:10F3F0002846F9F762FB2828F4D10EA8FFF7F6FE9D
:10F4000020B90EA8FFF7A2FF0028EBD09DF8263008
:10F41000062B1BD0112BE5D101AB08222821284651
:10F42000F9F74BFB0828DDD1BDF806305BBA9BB27B
:10F4300044F64C529342D4D032880AB19342D0D091
:10F440007288002ACED09342CCD1CAE703AB1422F3
:10F4500028212846F9F731FB1428C3D1BDF80E3016
:10F460005BBA9BB2E8E70388994207D04288914291
:10F4700004D00BB122B9012320F8131000207047EB
:10F480000320704703888B42438803D08B4202D00D
:10F4900019207047038000234380184670470023DB
:10F4A0000B700B78012B04DC30F813200AB1013308
:10F4B000F6E7704710B40C46C98B09390346092298
:10F4C000204689B25DF8044BF9F7F7BA70B50546E6
:10F4D00014460E4611F0A4FA2B7AB0FBF4F202FBAC
:10F4E00014009919241A01442C72696070BD00003F
:10F4F00038B504460160134B836001F58241043145
:10F50000031D4160E06083610F4B0362002500F141
:10F510001C0305614561C161606203638562C56268
:10F5200080F8345080F83550C5868563BC30F9F7D3
:10F5300049FC8022294604F13C00F0F703FF2046F5
:10F5400038BD00BFE9F80000B9F8000038B56D23F8
:10F550000B7004234B7000238B7090F835300C46F1
:10F56000591C80F83510E370816B054619B11046BF
:10F57000FFF71CFF48B9A37803F03F0343F04003B3
:10F58000A370EB8E5BBAA38038BDA37803F03F0372
:10F59000A3706378023B637038BD70B5002300F13F
:10F5A0003C0400F1BC05E67846B9002B08BF2346B1
:10F5B0000434AC42F7D153B9022070BD26888E4284
:10F5C000F6D1A378D31A5BB2002BF5DD23469A70EF
:10F5D00005221980DA704FF47A710430F9F710FFC0
:10F5E000002070BD2DE9FF4100F1BC060023074655
:10F5F0003046ADF804308DF806308DF807300293B0
:10F600008DF80C3088461546F9F719FC97F8343018
:10F610000446CBB1C4B12046F9F757FC2146074652
:10F6200001A8FFF747FFBDF8043043450FD19DF80F
:10F630000630ED1A6DB2002D06DD21463046F9F791
:10F64000D2FC2046F9F7CBF904B0BDE8F0813C4686
:10F65000E0E72DE9FF47044699460F4692469DF89C
:10F66000308010F05BFE0023ADF804308DF80630DA
:10F670008DF8073002938DF80C308DF8033094F834
:10F6800034300646002B43D0F98B3846F9F76AFD33
:10F69000054600283CD0B8F1000F14D10DF103034A
:10F6A000012207213846F9F708FA9DF803305A1E5F
:10F6B000012B8DF803202EDD0DF10303012207211C
:10F6C0002846F9F745FA4022314601A8ADF804A0D2
:10F6D0008DF806908DF80780FFF7F8FE092201A942
:10F6E0002846F9F783FAB0B9294604F1BC00F9F7C6
:10F6F00035FC236B029904F11C00984205D0A36AE3
:10F70000E26A13445B1A002B02DD891BF9F778FECD
:10F7100004B0BDE8F0872846F9F761F9F8E7F0B5DD
:10F720000E4685B0054614461F46062202AB098CDC
:10F730003046F9F7C2F9012832DD9DF80A301A0681
:10F740002ED413F0C00F05D1A37BE27B43EA022342
:10F75000ADF80C30BDF80C109DF80B2049BA89B2F9
:10F760002846FFF73FFFBDF80C109DF80B2049BA63
:10F7700089B22846FFF711FF044668B9BDF80C208E
:10F780009DF80B30009752BA92B231462846FFF7E7
:10F7900060FF204605B0F0BD002F18BF0024F8E739
:10F7A0000224F6E72DE9FF47054610F0B7FD05F105
:10F7B000BC08002307464046ADF804308DF80630FB
:10F7C0008DF8073002938DF80C30F9F738FB4FF0C5
:10F7D000FF3604464FF00509002C63D02046F9F7A8
:10F7E00074FB2146824601A8FFF764FE029BFA1AC9
:10F7F000002A05DADB1B9E4228BF1E465446EBE773
:10F800009DF8073095F834200133DBB293428DF830
:10F81000073023DAE18B093989B22046F9F7A2FCD7
:10F82000014660B19DF80730012BC2BF90F830301F
:10F8300069F3850380F830302868FEF7DAFF40224C
:10F84000394601A8FFF742FEE18B093901AB0922D5
:10F8500089B22046F9F77CF9029BCBE72146404666
:10F86000F9F7C1FB9DF8072095F83430934215D184
:10F87000012BC8BF94F83030E18BC8BF69F3850312
:10F88000A1F10901C8BF84F8303089B22046F9F7E8
:10F89000AAF821462868FEF7ACFFAFE72046F9F743
:10F8A0009EF8ABE7731C04D0314605F11C00F9F754
:10F8B000A7FD04B0BDE8F087FFF774BF10B503469D
:10F8C00000F18004002193F83F201AB1013A83F837
:10F8D0003F2001210433A342F5D121B14FF47A71C5
:10F8E0000430F9F78DFD10BDFFF7E8BF002202607C
:10F8F000416070472DE9F7434FF0FF3504688046BB
:10F90000894617462E46A4B139462046FFF736FDF4
:10F91000237C8DF80700984209DBC8BF8DF80730BB
:10F920009DF907309E42DCBF94F911501E46646970
:10F93000E9E7D8F8042044F23813D4589CB123687E
:10F940003A46D3F8088049460DF107032046C047E0
:10F9500018B99DF907309E4201DBA46AEEE794F9DD
:10F9600014501E46F9E7284603B0BDE8F0830000B6
:10F9700038B500254160154B036001F5814104460F
:10F980008560C56005610275457585750346104A39
:10F990007C311830F9F741FC04F13003636404F161
:10F9A0004803E36504F16003636704F17803C4F876
:10F9B0008C3004F19003C4F8A03004F1A403A562D4
:10F9C000E562C4F8B430204638BD00BF604503008E
:10F9D0006FFC0000826813461BB18B4205D09B6808
:10F9E000FAE78A608160184670471A20704770B540
:10F9F000064608460C46FFF70CFCE8B92046FFF720
:10FA00002AFCC8B92046FFF748FCA8B92046FFF7F2
:10FA100011FC20B92046FFF72FFC054640B1757D4B
:10FA2000284670BD10222146304622F097FB18B1BF
:10FA30003669002EF6D1F3E70125F1E70269134696
:10FA40001BB18B4205D01B69FAE70A6101611846B8
:10FA500070471A207047F8B5046905460F4600261E
:10FA6000C4B110223946204622F078FB78B905F15E
:10FA700090039C4210D305F1B8039C420CD2236939
:10FA80001EB1336124610020F8BD2B61FAE72646E0
:10FA90002469E5E71920F8BD0720F8BDD0F8A030AB
:10FAA00000F19001994210B5044601D0FFF7D3FF51
:10FAB000D4F8B43004F1A401994204D02046BDE842
:10FAC0001040FFF7C8BF10BD38B5C4680D4634B14B
:10FAD00029462046FFF76AFC10B96469F7E720461B
:10FAE00038BDC36A1943C1621830F9F7B9BBC3689E
:10FAF00010B51C461CB18C420DD06469FAE74B610D
:10FB00004B7CC160DB0914BF4FF400610121FFF79A
:10FB1000E8FF204610BD1A2010BD08B5C3688B420F
:10FB20000BD14B69C3604B7CDB0914BF4FF4805190
:10FB30000221FFF7D6FF002008BD13B9192008BD28
:10FB400013465A69002AF9D09142F9D14A695A619B
:10FB5000E9E72DE9F041D0F80C8006460C46454611
:10FB6000F5B110222146284622F0F8FAB0B906F184
:10FB700030039D4221D39036B5421ED2237C2B7494
:10FB8000627C6B7C62F300036B74637C6A7CC3F3FE
:10FB9000400363F341026A74BDE8F0816D69DFE7F9
:10FBA00006F1300506F190036A69AA4208D01835BB
:10FBB000AB42F9D10320BDE8F0810720BDE8F08118
:10FBC0000FCC2F460FC794E8030087E80300C5F861
:10FBD00014803046F5600121FFF783FF0020BDE867
:10FBE000F081F8B5C46805460F460026E4B110223E
:10FBF0003946204622F0B2FA98B905F130039C420A
:10FC000014D305F190039C4210D263693EB1736135
:10FC1000284664610221FFF764FF0020F8BDEB6015
:10FC2000F6E726466469E1E71920F8BD0720F8BD2C
:10FC300070B5054600F1300400F190066369A342F7
:10FC400003D021462846FFF7CCFF1834B442F5D143
:10FC500070BD38B500238468C56AC36234B12368B7
:10FC600013B1616828469847A468F7E738BDFFF7E5
:10FC7000F0BF0163704730B50B4600F1140201F18B
:10FC8000100518685968144603C40833AB4222466D
:10FC9000F7D118682060002030BD4FF44042028048
:10FCA0000022426081607047426813461BB18B425C
:10FCB00003D05B6BFAE74A63416000207047F8B5F8
:10FCC000142504460F46164600212A46F0F73AFB53
:10FCD0002A4600216019F0F735FBA762E66221464B
:10FCE000206BBDE8F840FFF7DFBF43688B4205D1CA
:10FCF0004B6B43600020486370471346002BF9D0DC
:10FD00005A6B9142F9D14A6B5A63F3E738B5014611
:10FD10000546006BFFF7E9FF044648B90146142287
:10FD20002846F0F70FFB14222146A818F0F70AFB2B
:10FD3000204638BD03884FF6FF72934214BF5A1C09
:10FD40004FF4404202801846704770B50B46044697
:10FD5000024601F1100618685968154603C50833B4
:10FD6000B3422A46F7D118682860238A1BB9206B52
:10FD7000FFF7E0FF2082002070BD083189B2806863
:10FD8000FEF726BC006BFFF7F8BF8068FEF7FBBFED
:10FD9000F0B5154606460F460FCD8FB003AC0FC425
:10FDA0000FCD0FC495E8070084E8070003A8FFF70C
:10FDB00002FA58B1334603AC06F1100518685968C9
:10FDC000224603C20833AB421446F7D1338A1BB92B
:10FDD000306BFFF7AFFF3082338A5BBAADF8043087
:10FDE000BDF82E305BBAADF80630FB8B08335BBA3A
:10FDF000ADF808300822002301A93846ADF80A30D2
:10FE0000F8F70CFF48B901463846F8F727FE1123EA
:10FE100003AA3946306BFFF7B8FF0FB0F0BD2DE9EC
:10FE2000F341CC8B0B8CE41AA4B2072C80460D4610
:10FE3000164667D902F1100711232246314638468B
:10FE4000FEF7E2FB234601462A8C2846F8F77FFF9F
:10FE50004FF6FF73984203D0002002B0BDE8F08156
:10FE6000298C6B4608222846F8F727FE0828014609
:10FE7000F2D12846F8F7E5FDBDF80030D8F8044087
:10FE80005BBA7384BDF802305BBA3384002CE3D0D4
:10FE9000BDF80230228A5BBA9BB29A421CD194F917
:10FEA00012301BB196F924209A4215D13046FFF743
:10FEB000AAF918B92046FFF77EF938B1A28C6AB9C1
:10FEC000A36AE06A32462946984705E03146204653
:10FED000FFF774FA0028F1D0646BD7E7BDF8003063
:10FEE0005BBA9BB29342F7D104F114084046FFF786
:10FEF00062F90028E4D139464046FFF75FFA00284E
:10FF0000DED0E9E70620A8E713B50C46ADF80620D9
:10FF10001146E38B228C9B1A9BB22046F8F717FF01
:10FF20004FF6FF73984218BFC043ADF80600BDF806
:10FF30000620218C02AB52BA063123F8022D89B279
:10FF400002222046F8F704FE002002B010BD10B5D2
:10FF50004FF43472044600213030F0F7F3F90023F7
:10FF60002420D9B20133152B04D000FB034282F8C0
:10FF70002E10F6E710BD000010B5284B03600446B4
:10FF8000274B284A4360A0600261274A4261002350
:10FF9000264AC360A0610262254A4262254AC361C3
:10FFA000A062C362C0F80023C4F804034A68C0F822
:10FFB000083302F582420432C0F80C231E4AC0F80E
:10FFC0001023C4F81403C0F81833C0F81C3300F52C
:10FFD0004373C0F82033C0F82413FFF7B8FFD4F8F8
:10FFE00024032146B830F8F7D2FAD4F8240304F1F8
:10FFF0001001B830F8F7CBFAD4F8240304F120014B
:020000021000EC
:10000000B830F8F7C4FAD4F82433586804F54071CE
:100010000830FEF769F9204610BD00BF6C450300AB
:100020002F060100714503004708010076450300D3
:10003000DB04010031090100DF08010010B500F503
:10004000347290F8523091F82240A342BCBF013381
:1000500080F8523024309042F3D1002381F82230CE
:1000600010BD10B500F5347290F8523091F822406E
:10007000A342C4BF03F1FF3380F8523024309042D2
:10008000F2D1132381F82230002381F8233010BDF0
:10009000F8B505460F4600F1300400F54076A38B15
:1000A000B7EB932F03D121462846FFF7DAFF24341C
:1000B000B442F4D1F8BD38B500F5407200F1300318
:1000C000002493F82310012902D193F8211039B1AB
:1000D0007CB194F8225093F822108D42B8BF1C4690
:1000E00024339342EDD114B12146FFF7BAFF2046E5
:1000F00038BD1C46F4E70000F0B5B7B004462C222A
:100100000D4607A80021F0F71DF90222102112A8C0
:100110000CF01FFF394912A80DF077F812A80DF066
:10012000F8F8D4F82403022212A900F58E700CF01E
:1001300043FB064600285FD000238DF808301023CB
:100140008DF8093029460DF10A0305F1100251F826
:10015000040B43F8040B9142F9D1122202A9304654
:10016000F8F744FD054660BBD4F8240340F2FF33A2
:10017000ADF82C3000F6EC604FF40073ADF83A3077
:1001800002F083FF07AD034600F1100718685968B5
:100190002A4603C20833BB421546F7D1D4F82403DC
:1001A0004FF2BF03ADF83E3090F914308DF8403077
:1001B0000023009307AA314600F58E700CF04AFE2A
:1001C0000546D4F8207304F543739F420CD110F018
:1001D000A5F84FF47A73C4F81803C4F81C333946F1
:1001E000D4F80C03F9F7DEF81DB116B13046F8F774
:1001F000F6FB284637B0F0BD0325E2E77145030062
:100200002DE9F04105460E46174600F1300400F591
:10021000407894F823302BB110223146204621F04B
:100220009DFF50B12434A045F3D12846FFF743FF8A
:10023000034618B90320BDE8F081234693F8232034
:10024000012A26D004D3022A2DD00020BDE8F08157
:1002500032461F4606F1100E106851683C4603C432
:10026000083272452746F7D14FF6FE729A83032271
:1002700083F82020002283F821200F22DA83012234
:1002800083F8232031462846FFF736FF0920BDE8D2
:10029000F08193F82020002AF8D1DA8B52B903229A
:1002A00083F82020EEE79A8B3A8019462846FFF71C
:1002B000C5FECAE70220BDE8F08100002DE9F0414B
:1002C000B2B01C4607460D46904600212C2203A8DA
:1002D000F0F738F8002C0CBF1021002102220EA8E4
:1002E0000CF037FE31490EA80CF08FFF0EA80DF070
:1002F00010F8D7F8240302220EA900F58E700CF036
:100300005BFA064600284CD029461222F8F76EFC0C
:100310000546A8BB0A2241463046F8F767FC054669
:1003200070BB8CBB40F2FF33ADF81C304FF4007350
:10033000ADF82A30D7F8240300F6EC6002F0A5FEF1
:1003400003AC034600F1100518685968224603C241
:100350000833AB421446F7D1D7F824034FF2BF035A
:10036000ADF82E3090F914308DF830300023009322
:1003700003AA314600F58E700CF06CFD054688B17D
:100380003046F8F72CFB0DE0234603F1100507ACCF
:1003900018685968224603C20833AB421446F7D1A5
:1003A000C8E70325284632B0BDE8F0816C4503005C
:1003B0002DE9F04F0F46097811F030018DB0054658
:1003C0001446984657D17E78022E54D107AB12229C
:1003D00020460DF049FA00284DD19DF81D30102B14
:1003E00049D104AB0A22032120460DF03DFA002832
:1003F00041D19DF81130082B3DD1314601AB04228B
:1004000020460DF031FA0646A8BB9DF80530022BB8
:1004100031D1062202AB114620460DF025FA40B933
:100420009DF80930042B26D1DDF80A00F8F7E6FF25
:10043000064605F1300405F5407A4FF000090DF14C
:100440001E012046FEF7BAFF8346002841D194F8EA
:100450002330012B15D0022B3BD108220DF11201C4
:1004600004F1100021F07AFE40B15B4604AA07A90E
:100470002846FFF723FF0DB0BDE8F08FA369B34214
:10048000F9D9DDF812302361DDF816306361BDF86B
:100490000630A4F81E905BBAA383022384F82330AD
:1004A00021462846A66184F8209084F82190FFF721
:1004B000C5FDD5F8240342463946B830F8F76EF941
:1004C000D5F8240300220DF11E0100F6046000F0AF
:1004D0000DFF24345445B2D1CDE7FFF769BF2DE9B4
:1004E000F0431F460B7813F0300F91B006460C46D0
:1004F000154643D14B78022B40D13846FEF783FE98
:1005000030B9D6F824033A462146B830F8F746F910
:100510000BAB1222002128460DF0A6F970BB9DF806
:100520002D30102B2AD104AB0A22032128460DF0CE
:100530009BF918BB9DF81130082B1FD1D6F8243336
:10054000DC68F4B110220DF12E01204621F006FEE8
:10055000002868D1D6F8240300F6EC6002F098FD7C
:10056000FEF7CCFE08220DF1120121F0F7FD002864
:1005700059D02146D6F82403FFF7CFFA11B0BDE8D1
:10058000F083D6F824030DF1070100F6EC6006F0C5
:1005900037FB10AA054652F82E0D516802AB03C373
:1005A0009DF808300DF1400883F0020308F8383D4B
:1005B0009DF80730A342E1DD2B7F03F00702062AF6
:1005C0002ED1C3F3C3039B072AD405F1220705F1FB
:1005D0006209B94524D00DF12E013846FEF7E6FE3A
:1005E00018B308224146284621F0B8FDE8B1102290
:1005F00000213846EFF7A6FE1022002107A8EFF7EA
:10060000A1FE48F2FE03294607A8ADF81C30FEF70C
:100610007EFE07AB04AA0BA93046FFF74FFEADE7FD
:1006200001348035C4E764698BE71037D1E7FFF701
:1006300056BF00002DE9F041B2B005468846174686
:1006400000212C2203A81E46EFF77CFE0222002187
:100650000EA80CF07EFC37490EA80CF0D6FD0EA8B3
:100660000CF057FED5F8240302220EA900F58E7077
:100670000CF0A2F80446002851D012224146F8F7A7
:10068000B5FA002848D10A2239462046F8F7AEFAD2
:10069000002841D1D5F82403022300F6EC608DF840
:1006A00008308DF8093002F0B8FB40BAADF80A0006
:1006B000042202A92046F8F799FA68BB96BB389B3A
:1006C00007AE03F1100718685968324603C20833B1
:1006D000BB421646F7D1D5F8240300F6EC6002F0D1
:1006E000D4FC03AE034600F110071868596832467F
:1006F00003C20833BB421646F7D14FF2BF03D5F809
:100700002403ADF82E300023009303AA214600F500
:100710008E700CF09FFB10B12046F8F760F932B0F4
:10072000BDE8F081062231462046F8F75FFA00283E
:10073000C5D0F1E7764503002DE9F0431D460B785F
:1007400003F03003102B07468FB0104637D14B789B
:10075000022B34D109AB122200210DF085F804469A
:1007600068BB9DF82530102B29D103238DF8183054
:1007700008238DF8193006238DF810300DF126016D
:100780000423D7F824038DF81130FFF79DF90646AE
:10079000D7F82403B6B100F6EC6002F079FCFEF75E
:1007A000ADFD0368CDF81A304368CDF81E30103522
:1007B0000095234606AA09A93846FFF73BFF0FB06C
:1007C000BDE8F0830DF10F0100F6EC6006F018FAB9
:1007D00004469DF80F30B342F1DD237F03F007029A
:1007E000062A2DD1C3F3C3039B0729D4637F032BB0
:1007F00026DC04F1220804F16209C84520D04046F5
:100800000DF12601FEF7DAFD08F110080028F4D1F9
:100810002368CDF81A306368CDF81E309DF81A3081
:1008200083F002038DF81A300FF078FDA368C01A28
:10083000F8F7E4FD1035CDF81200009504ABB9E7E8
:1008400001368034C5E7FFF777BFF8B5054600F1FC
:10085000300400F5407600230F2794F82320012A66
:1008600008D194F8203093B3013BDBB284F82030F8
:10087000A3B101232434B442EFD17BB30FF04EFD7A
:100880004FF47A73C5F81803C5F81C3305F54371A6
:10089000D5F80C03BDE8F840F8F784BD94F8213092
:1008A00007FA03F2E28392B2B2F5E14FBCBF013323
:1008B00084F82130D5F82403A4BF4FF4E143E38347
:1008C0000222214600F6046000F010FDD1E7E38B20
:1008D000002BCED0013BE3831346CBE7F8BDFFF7F7
:1008E000B4BF70B51A78012A05468AB0084619D1F6
:1008F0005B78BBB96B462822098CF8F7DEF828280C
:1009000010D105F1300405F5407694F823305BB141
:10091000102206A9204621F021FC28B921462846AC
:10092000FFF79FFB0AB070BD2434B442EDD1F9E764
:10093000FFF7D7BF0A680160526802F5824203469A
:10094000043242600D4A8260011DD860816190F8D6
:100950002410002201F0F00162F3071180F8241046
:1009600090F82510026101F0F00162F30711426175
:10097000C261026280F82510704700BF970B01002A
:1009800010B50446011D4068F8F7B5FC94F8252021
:1009900094F8243002F0F0026FF3071203F0010321
:1009A0006FF3000384F8252084F8243010BD90F8FC
:1009B000242012F0020F03460CBF002064205107D0
:1009C00005D5411EB1F5FA7F28BF4FF4FA70120722
:1009D00003D5421EC82A28BFC82093F8252012F04C
:1009E000F00F03D0421EBC2A28BFBC20DA6922B116
:1009F00078B1904228BF1046704758B91B681B68F1
:100A0000D3F8F03F4FF47A709B08584308BF0A2090
:100A1000704710467047012970B5044602D1FFF7B0
:100A2000C6FF2062A369261D9E4216D00FF076FCF9
:100A30002569236A451B9D4204D32046BDE87040CA
:100A400000F026B85D1B0FF069FC6561206131463E
:100A50006068BDE87040F8F7A5BC256AF3E790F838
:100A60002420D30710B50FD403681B6893F8203FE8
:100A700013F002040AD142F0010280F8242001217F
:100A8000FFF7C9FF204610BD1A2010BD0E2010BD73
:100A9000F8B590F82430D907044644D503681B689C
:100AA00093F8E33A002B3ED1011D4068F8F723FC90
:100AB00020685430F8F7FFF9064640B190F830301E
:100AC00003F00303022B19D0F8F7FFF9F4E72368CA
:100AD0001B68586832460221E030F8F71DFB0746D4
:100AE00038B30146206800F09EFC054660B13846E8
:100AF000F7F775FF0E2D16D01A2D1BD100212046B9
:100B0000FFF789FF1A2512E094F824301A0705D55B
:100B100066F3C30384F82430012100E03146204607
:100B2000FFF779FF03E02046FFF72AFF0E2528464E
:100B3000F8BD032594F8243043F00803EAE790F861
:100B40002420D30712D5C2F30313013303F00F039C
:100B500063F30712052B80F8242001D8FFF798BF14
:100B600090F824306FF3071380F82430704790F822
:100B70002430DA0710B504460CD56FF3071380F85C
:100B800024300846F9F7CAFE20B12046BDE81040DF
:100B9000FFF77EBF10BDFFF77BBF90F82420D3077F
:100BA00030D590F82530D9B913F0F00107D0F033E3
:100BB00013F0F00F80F825300CBF012100215207FF
:100BC0001ED590F824306FF3820380F8243090F81B
:100BD00025306FF3030380F825300121FFF71BBF99
:100BE000591C01F00F0161F30303042980F825303B
:100BF000E7D8530706D442F0040280F82420ECE73B
:100C00000029EAD1704790F82430DB0702D5012192
:100C1000FFF701BF704790F8243010B4C3F34004CD
:100C20008C420AD061F3410380F82430DB0704D5FD
:100C300001215DF8044BFFF7EEBE5DF8044B7047F1
:100C400090F8253091B90821B1EB131FC2BF1A46A5
:100C500061F3071280F8252090F82420D20709D5E7
:100C600013F0F00F06D10121FFF7D5BE0F29A8BF61
:100C70000F21E9E770470000002202750160496812
:100C8000826110B501F5824103464FF428740431A6
:100C9000C46681674FF41C740C49C26502664266E3
:100CA000826680F87420C167046700F17801C3F898
:100CB0008000C0F88420C0F88820C0F8A020FF225F
:100CC000C0F88C1080F8A42010BD00BF550F0100A3
:100CD00038B5002380F87430084DC36E04465D4378
:100CE0000FF01CFBC4F88850C4F8840004F17801AC
:100CF000A06FBDE83840F8F755BB00BF80EE360066
:100D000000F17801806FF8F7F6BA09B1037D0B7036
:100D1000043070477FB5054601A80C4616460DF015
:100D200094F82A7D291D01A80DF0A3F8230E8DF853
:100D300000300422230C0DEB02008DF801306946CF
:100D4000230A8DF802308DF803400DF094F8062246
:100D500001A806490DF08FF8314601A80DF08DF875
:100D600001A80DF080F8002004B070BD7B450300A1
:100D7000102AF7B505460F46144652D8037D934214
:100D800000F1040604D1304621F0E8F9002846D0ED
:100D900022463946304621F0F1F92C75002405F140
:100DA0001C022146AC612846FFF7B4FF286800F614
:100DB000EC6004F086FE8461C460046128680DF173
:100DC000070100F6EC6006F0BCF89DF807602421EE
:100DD0002346621CE4B2B44206DA01FB0404A361B8
:100DE000E36023611446F4E728680DF1070100F67B
:100DF000EC6005F005FF00239DF807401A46591CDA
:100E0000DBB2A34206DA00EBC3139A61DA601A611F
:100E10000B46F4E728682021FEF763FE002003B0AC
:100E2000F0BD0720FBE7000083698B4270B50446E4
:100E30000D4648D00133994200F1780613D0A561E0
:100E400004F11C0229462046FFF764FF0023E365F6
:100E50002366D4F88C309E4224D120682021BDE83E
:100E60007040FEF73EBE036F002BE8D0D0F88C3008
:100E7000B342E4D090F87430002BE0D00FF04EFA7B
:100E8000D4F88420236F104901FB0323934204D339
:100E90008242D4D28342D2D970BD824213D38342DC
:100EA000CDD970BD012384F87430074DE36E5D43E6
:100EB0000FF034FAC4F88850C4F884003146A06FAB
:100EC000F8F770FAC9E770BD80EE360010B500F192
:100ED0003C020446FFF71EFF04F14C0010BD10B5A4
:100EE00000F13C042246FFF715FF204610BDC36DFC
:100EF000426E01339342C36504D3006800F6EC6090
:100F000001F07EBE7047036E826E0133934203662A
:100F100004D3006800F6EC6001F072BE704710B5B3
:100F200000F1900301F1100251F8044B43F8044B17
:100F30009142F9D10023C0F8A03010BD4B1EB3F58B
:100F4000956F9ABFC1660020072070478169013103
:100F5000FFF76ABFFFF7FABF03886FF30A03038046
:100F60001B0A03F0C7036FF38713437000238370DA
:100F7000704703886FF30A0303801B0A03F0C7035B
:100F80006FF387134370002383707047437813F027
:100F9000380F0BD00388C3F30A03D80803F0070304
:100FA000032B94BF4042C04340B270477F2070473C
:100FB00090F902007047000002299FBF0A4B0B4ABC
:100FC0005B5C525C89BF142116210A2202238842ED
:100FD00006DC904206DC9842D4BF00200120704716
:100FE00003207047022070478145030084450300B9
:100FF000FF21FFF7E1BF08B5FFF7C8FF7F2808BF53
:101000006FF0630008BD08B5FFF7F5FF081A40B29E
:10101000002804DB7F2908BF0020C0B208BD0020E3
:10102000FBE708B50A46FFF7B1FFBDE808400146F7
:101030001046FFF7E8BF38B5447814F0380F05467E
:1010400008D0FFF7EEFFA109FFF7B6FF60F38714A2
:101050006C7038BDFFF7E5FFFF21F5E77F2A30B45C
:1010600030D002EAE273457882705B429BB202881C
:10107000C5F3C205DB00042D9CB2C2F30A0310DDE8
:10108000C3EBC3032344DB1063F30A02072D028082
:1010900004D04378013565F3C503437030BCFFF7D6
:1010A000CABF012D07DDC3EB830323449B1063F309
:1010B0000A020280EDE702D123445B10F7E764F3F4
:1010C0000A02F6E730BC704710B50446FFF7B3FFDD
:1010D0006078800910BDB830FFF731BD037F03F0A1
:1010E0000703012B03D0062B01D0002070470120FD
:1010F0007047002202608280704703885BBA13F455
:10110000005F14BF05200420704703885BBA13F406
:1011100000531ABF0079C0001846704770B50446E6
:101120003D4B216043603D4B83603D4BE0600025BB
:1011300043610E463B4B05618361E06172683A4B47
:10114000056244F204110A4442628362E06200F1E3
:1011500024038363736805630B44C363334B0364E5
:1011600000F13C034563606403658564C5645430E5
:10117000F7F769FE04F16400F7F724FE04F1680054
:10118000F7F720FE042384F8793084F87A5084F845
:101190007B507168264AA4F86E504FF6FE7301F535
:1011A0008141A4F89030A4F8923025672346656702
:1011B00084F8785084F8945084F895507C3104F188
:1011C0009800F8F72AF84FF6FF73A4F8B2302146DA
:1011D00084F8A850C4F8AC5084F8B05084F8B150EA
:1011E00084F8B45004F1B800FFF7A4FB214604F1E1
:1011F000E0000BF086F80FF013FCA4F86C002068F8
:10120000211D00F67420F8F7B5F984F87C5084F8B5
:101210008650204670BD00BFAF2B0100D7100100E3
:1012200061220100832401001325010047260100EB
:101230003D1B010000680BF0B9BA90F8A83010B55A
:10124000044643B90068012100F67420F8F7BFFA9C
:10125000012384F8A830002010BD90F8A83070B5A4
:101260000446002B40D0B830FFF78AFB04F13C0164
:10127000E06BF8F740F894F8B43073B1206894F854
:10128000B11000F67420F8F7AAFA2068002384F859
:10129000B43000F6EC6001F021FD04F15406304654
:1012A000F7F709FE054670B904F164063046F7F712
:1012B000C6FD054678B101463046F7F794FE28464C
:1012C000F7F78DFBF2E701463046F7F7C8FE2846F0
:1012D000F7F785FBE3E784F8A800606720682946F4
:1012E00000F67420F8F773FA002070BD2DE9FF476F
:1012F00000F168070546384689469246F7F79FFD94
:101300000026044634B32046F7F7DFFD94F830306A
:101310009B07804618D1102218216B462046F7F70C
:10132000CCFB10224946684620F018FF60B92146E0
:101330003846F7F758FEBAF1000F07D1214605F1FC
:101340005400F7F771FE01264446DBE72046F7F725
:1013500046FBF9E71EB105F19800F7F781FF04B0ED
:10136000BDE8F087B1F87E30C3F30C032DE9F041FE
:1013700005460E468BB300F154073846F7F79BFD40
:1013800004461CB32046F7F7A0FD80462868314686
:1013900000F6EC6005F02EFC01462046F7F7ACFCA9
:1013A0002046F7F7C8FC78B994F83030C3F38013BF
:1013B00053B96A6F944200D16B6721463846F7F7FC
:1013C0004EFE2046F7F70BFB4446DAE7314605F1BF
:1013D000E000BDE8F0410BF06EB8BDE8F081F7B574
:1013E000064600680DF1070100F6EC6005F008FC08
:1013F000002507469DF80730ECB29C4211DA07EB56
:10140000C4142046FFF76AFE20B9B4F87E30C3F357
:101410000C030BB90135EDE721463046FFF7A2FF7B
:10142000F8E703B0F0BD2DE9F04391F8303003F058
:101430000302012A8DB005460C464DD016D3022A70
:1014400045D000212046F7F709FB0023638421469D
:1014500005F15400F7F7E8FD044618B905F19800C6
:10146000F7F7FEFE20460DB0BDE8F08328220021EC
:1014700002AB2046F7F721FB286800F6EC6001F08C
:10148000C6FC1022014608A820F068FE00283CD0C7
:10149000286800F6EC6001F0BDFC1022014608A8A7
:1014A00020F05CFE88B3286808A900F6EC6005F01F
:1014B00055FC064648B1337FC3F3C3031B0704D46E
:1014C00094F8303013F0400F52D094F8303043F09D
:1014D000400384F83030B4E702A8FFF70AFE214643
:1014E00002A80EF0CDFBBDF80C10286849BA89B2ED
:1014F00000F6EC6005F098FB06460028E5D0037F77
:10150000C3F3C30313F0080FDEE794F8303043F061
:10151000400384F83030C3F38303052B91D02F466A
:101520000DF1070157F8E00B00F6EC6005F068FBE1
:101530004FF0000806469DF807305FFA88F9994594
:10154000BFF67FAF3046FFF7C9FD20B1337FC3F34D
:10155000C3031A0703D5803608F10108EBE74946B3
:101560002046F7F7D9FB314638460AF049FFF2E743
:101570002F46314657F8E00B00F6EC6005F03AFBD9
:1015800001462046F7F7C8FB314638460AF038FFD7
:1015900057E770B504460D4654F8540B00F6EC605E
:1015A00005F028FB06462046F7F785FC044638B1CF
:1015B0003146F7F790FB18B92046F7F786FCF5E7B8
:1015C000002385F87B306C67A5F87830204670BD25
:1015D00037B504460D466846FFF78BFD2946684639
:1015E0000EF04EFBBDF80410206849BA89B200F62F
:1015F000EC6005F053FC4FF6FE73984201462068FC
:1016000021D000F6EC6005F00FFB022300B384F854
:101610008630828A84F87C302368A4F88820B3F866
:10162000B03AA4F87E30012384F89430BDF8043039
:101630005BBAA4F89230BDF802305BBAA4F89030DF
:10164000002003B030BDBDF8041049BA89B2D8E714
:101650001846F6E710B50446002154F8B80B00F61A
:101660007420F8F7B4F82046BDE81040FFF788B9B9
:1016700038B504460D4654F8B80B00F67420F8F758
:10168000A6F820461DB1BDE83840FFF779B9BDE89E
:101690003840FFF7E4B9F8B51446082704F8027B90
:1016A000064620461546F9F7B8F831683A4601F67D
:1016B000A821204620F052FD28B102232B70336868
:1016C000B3F8B03A6B800020F8BD70B50646084606
:1016D0000C461546FDF797FD28B102232B704FF6F7
:1016E000FF736B8027E0228848F2FE039A4213D1F1
:1016F00063888BB9A3887BB9E3886BB923895BB90D
:101700006389B3F57F4F07D1A389FE2B04D1022350
:101710002B70E3895BBAE4E73068214600F6EC60A1
:1017200004F0B0F90028F2D12846082300F8023B63
:101730002146F9F772F8002070BDF0B592F87B30C1
:101740008BB004460F46154663B1012380F878300C
:10175000136F036792F87A3080F87A3092F87C3011
:1017600080F87B30B5F878103846F7F777F997F8B6
:101770003060C6F30106F1B211B101292CD0FEE7A9
:101780006B4628223846F7F798F984F8946004F1FC
:101790007C0202A92046FFF77EFF06A8FDF726FD82
:1017A00038B104F1860206A92046FFF78EFF0BB080
:1017B000F0BD95F87F309B0606D5022384F886306D
:1017C000AB8AA4F88830F2E7082384F886302868CA
:1017D0006968883403C4EAE76846FFF78AFC39463B
:1017E00068460EF04DFA84F89460BDF80430216824
:1017F0005BBAA4F89230BDF8022052BAA4F8902047
:10180000022284F87C20B1F8B01AA4F87E1084F883
:101810008620D6E770B504468CB00D46002180F8CE
:10182000941002AB28222846F7F747F9236893F86B
:10183000FB3E042B23D8DFE803F0242403343400D8
:1018400095F83030DB091CD0022384F8863008A8D4
:10185000FDF77CFD20B14FF6FF73A4F8883008E057
:1018600020684FF6FF7100F6EC6005F017FBA4F856
:10187000880004F17C0204A92046FFF70CFF002534
:101880000CE008A8FDF7B2FC002840F0998008A8F9
:10189000FDF75CFD002840F09380022528460CB03F
:1018A00070BD08A8FDF7A2FC002840F0898008A8B8
:1018B000FDF7A9FC002840F08380206808A900F605
:1018C000EC6004F0DFF838BB206808A900F6EC6093
:1018D00004F0E7F850B3BDF82E305BBA9BB2B3F515
:1018E0007C4FDAD1206800F6EC6001F0B6FB800294
:1018F000A4F89200B4F892104FF6FE739942CCD03F
:10190000206800F6EC6005F08FF9A0B3022384F89C
:101910008630B4F89230A0E7BDF82E305BBAC3F33E
:1019200085223F2AB9D0A4F89230E3E7206808A9BD
:1019300000F6EC6005F012FA08B1838AF3E720683C
:1019400042F2300508A9284408F087FF22460346E2
:1019500052F8920B43B108A900F5BE70FEF750FC97
:1019600005460028C6D099E7009204A908AA284491
:1019700009F080F8BEE72068B4F89220B0F8B01AF9
:10198000A4F8901002AB00F6EC6005F01BFD0546D4
:10199000002883D12068B4F89210022684F886606B
:1019A00000F6EC6005F07AFAB4F89030A4F87E30D6
:1019B0000123A4F8880084F87C6084F894306DE7F3
:1019C00004F1860208A92046FFF77FFE51E72DE9C2
:1019D000F84300F1540706463846F7F76CFA00253D
:1019E000044606F16809ACB32046F7F76EFA94F89E
:1019F00030305A06804622D503F00303012B11D064
:101A00000AD3022B26D0092D23D8DFE805F02322A4
:101A10001A1A22222222221021463046FFF7FAFE0D
:101A20000546F0E721463046FFF7D2FDF8E72146AC
:101A30003846F7F714FB21464846F7F78FFA444635
:101A4000D1E721463846F7F70AFB2046F6F7C7FFED
:101A5000F5E7FEE72046BDE8F883F7B590F8956016
:101A600004467EBBFFF7BBFC206884F878600DF16C
:101A7000070100F6EC6005F0C3F89DF80770054615
:101A8000B74247DD2846FFF729FB002853D02B7FBC
:101A9000DB0950D06B6F6367012284F8792023B98A
:101AA00029462046FFF775FD6067616F61B12A46E0
:101AB0002046FFF742FE206804F1140100F674206E
:101AC000F8F7B6FA03B0F0BD95F87F3013F0200FA9
:101AD00023680CD0022284F87C20B3F8B03AA4F832
:101AE0007E3084F88620AB8AA4F88830E3E70821AA
:101AF00084F87C10D3F8A82AC4F87E20D3F8AC2A46
:101B0000C4F8822084F886102868696804F1880384
:101B100003C3D0E72046FFF75AFF60670028D1D003
:101B2000206804F1140100F67420F8F781FA042308
:101B300084F87930C6E701368035A1E7FFF78DBF1D
:101B40007FB503681446B3F8B02AADF806200E46F8
:101B50004FF6FE718A4205461FD002238DF80430ED
:101B60009DF804204DF6434349F64301022A18BF6D
:101B7000194641F028010D222046F9F79FF82B68FD
:101B80002046B3F8B21AF8F7F3FE286800F6EC60C6
:101B900003F097FF014660B9FEE708228DF80420A4
:101BA000D3F8A82ACDF80620D3F8AC2ACDF80A201D
:101BB000D6E79DF80430022B12D1818A2046F8F72F
:101BC00005FFBDF806102046F8F795FF04212046D2
:101BD000F9F710F9F38BA5F86E30002004B070BD52
:101BE0002046F8F701FF0DF106012046F8F796FFB1
:101BF000ECE7F8B5144606460D220D46204649F698
:101C00006901F9F75BF833682046B3F8B21AF8F7C0
